{
	"contracts/DiamodSafe copy.sol": {
		"DiamondSafe": {
			"abi": [
				{
					"inputs": [
						{
							"internalType": "address",
							"name": "_tokenAddress",
							"type": "address"
						},
						{
							"internalType": "address",
							"name": "_rewardToken",
							"type": "address"
						},
						{
							"internalType": "uint8",
							"name": "_dripRate",
							"type": "uint8"
						}
					],
					"stateMutability": "nonpayable",
					"type": "constructor"
				},
				{
					"anonymous": false,
					"inputs": [
						{
							"indexed": true,
							"internalType": "address",
							"name": "previousOwner",
							"type": "address"
						},
						{
							"indexed": true,
							"internalType": "address",
							"name": "newOwner",
							"type": "address"
						}
					],
					"name": "OwnershipTransferred",
					"type": "event"
				},
				{
					"anonymous": false,
					"inputs": [
						{
							"indexed": true,
							"internalType": "address",
							"name": "_user",
							"type": "address"
						},
						{
							"indexed": false,
							"internalType": "uint256",
							"name": "_compounded",
							"type": "uint256"
						},
						{
							"indexed": false,
							"internalType": "uint256",
							"name": "tokensMinted",
							"type": "uint256"
						},
						{
							"indexed": false,
							"internalType": "uint256",
							"name": "timestamp",
							"type": "uint256"
						}
					],
					"name": "onCompound",
					"type": "event"
				},
				{
					"anonymous": false,
					"inputs": [
						{
							"indexed": true,
							"internalType": "address",
							"name": "_user",
							"type": "address"
						},
						{
							"indexed": false,
							"internalType": "uint256",
							"name": "_deposited",
							"type": "uint256"
						},
						{
							"indexed": false,
							"internalType": "uint256",
							"name": "tokensMinted",
							"type": "uint256"
						},
						{
							"indexed": false,
							"internalType": "uint256",
							"name": "timestamp",
							"type": "uint256"
						}
					],
					"name": "onDeposit",
					"type": "event"
				},
				{
					"anonymous": false,
					"inputs": [
						{
							"indexed": true,
							"internalType": "address",
							"name": "from",
							"type": "address"
						},
						{
							"indexed": false,
							"internalType": "uint256",
							"name": "_contributed",
							"type": "uint256"
						},
						{
							"indexed": false,
							"internalType": "uint256",
							"name": "timestamp",
							"type": "uint256"
						}
					],
					"name": "onDonate",
					"type": "event"
				},
				{
					"anonymous": false,
					"inputs": [
						{
							"indexed": true,
							"internalType": "address",
							"name": "from",
							"type": "address"
						},
						{
							"indexed": false,
							"internalType": "uint256",
							"name": "amount",
							"type": "uint256"
						},
						{
							"indexed": false,
							"internalType": "uint256",
							"name": "timestamp",
							"type": "uint256"
						}
					],
					"name": "onDonateBNB",
					"type": "event"
				},
				{
					"anonymous": false,
					"inputs": [
						{
							"indexed": false,
							"internalType": "uint256",
							"name": "balance",
							"type": "uint256"
						},
						{
							"indexed": false,
							"internalType": "uint256",
							"name": "timestamp",
							"type": "uint256"
						}
					],
					"name": "onRebase",
					"type": "event"
				},
				{
					"anonymous": false,
					"inputs": [
						{
							"indexed": false,
							"internalType": "uint256",
							"name": "_pool",
							"type": "uint256"
						},
						{
							"indexed": false,
							"internalType": "uint256",
							"name": "_divs",
							"type": "uint256"
						},
						{
							"indexed": false,
							"internalType": "uint256",
							"name": "timestamp",
							"type": "uint256"
						}
					],
					"name": "onSetFeeSplit",
					"type": "event"
				},
				{
					"anonymous": false,
					"inputs": [
						{
							"indexed": true,
							"internalType": "address",
							"name": "_caller",
							"type": "address"
						},
						{
							"indexed": false,
							"internalType": "contract IERC721[]",
							"name": "oldOne",
							"type": "address[]"
						},
						{
							"indexed": false,
							"internalType": "contract IERC721[]",
							"name": "newOne",
							"type": "address[]"
						},
						{
							"indexed": false,
							"internalType": "uint256",
							"name": "timestamp",
							"type": "uint256"
						}
					],
					"name": "onSetImmunityToken",
					"type": "event"
				},
				{
					"anonymous": false,
					"inputs": [
						{
							"indexed": true,
							"internalType": "address",
							"name": "from",
							"type": "address"
						},
						{
							"indexed": true,
							"internalType": "address",
							"name": "to",
							"type": "address"
						},
						{
							"indexed": false,
							"internalType": "uint256",
							"name": "tokens",
							"type": "uint256"
						},
						{
							"indexed": false,
							"internalType": "uint256",
							"name": "timestamp",
							"type": "uint256"
						}
					],
					"name": "onTransfer",
					"type": "event"
				},
				{
					"anonymous": false,
					"inputs": [
						{
							"indexed": true,
							"internalType": "address",
							"name": "_user",
							"type": "address"
						},
						{
							"indexed": false,
							"internalType": "uint256",
							"name": "invested",
							"type": "uint256"
						},
						{
							"indexed": false,
							"internalType": "uint256",
							"name": "tokens",
							"type": "uint256"
						},
						{
							"indexed": false,
							"internalType": "uint256",
							"name": "soldTokens",
							"type": "uint256"
						},
						{
							"indexed": false,
							"internalType": "uint256",
							"name": "timestamp",
							"type": "uint256"
						}
					],
					"name": "onUpdate",
					"type": "event"
				},
				{
					"anonymous": false,
					"inputs": [
						{
							"indexed": true,
							"internalType": "address",
							"name": "_user",
							"type": "address"
						},
						{
							"indexed": false,
							"internalType": "uint256",
							"name": "_liquidated",
							"type": "uint256"
						},
						{
							"indexed": false,
							"internalType": "uint256",
							"name": "tokensEarned",
							"type": "uint256"
						},
						{
							"indexed": false,
							"internalType": "uint256",
							"name": "timestamp",
							"type": "uint256"
						}
					],
					"name": "onWithdraw",
					"type": "event"
				},
				{
					"anonymous": false,
					"inputs": [
						{
							"indexed": true,
							"internalType": "address",
							"name": "_user",
							"type": "address"
						},
						{
							"indexed": false,
							"internalType": "uint256",
							"name": "_withdrawn",
							"type": "uint256"
						},
						{
							"indexed": false,
							"internalType": "uint256",
							"name": "timestamp",
							"type": "uint256"
						}
					],
					"name": "onWithdraw",
					"type": "event"
				},
				{
					"inputs": [
						{
							"internalType": "address",
							"name": "_user",
							"type": "address"
						}
					],
					"name": "accountOf",
					"outputs": [
						{
							"internalType": "uint256[14]",
							"name": "",
							"type": "uint256[14]"
						}
					],
					"stateMutability": "view",
					"type": "function"
				},
				{
					"inputs": [
						{
							"internalType": "address",
							"name": "_user",
							"type": "address"
						}
					],
					"name": "balanceOf",
					"outputs": [
						{
							"internalType": "uint256",
							"name": "",
							"type": "uint256"
						}
					],
					"stateMutability": "view",
					"type": "function"
				},
				{
					"inputs": [],
					"name": "bnbReceiver",
					"outputs": [
						{
							"internalType": "address payable",
							"name": "",
							"type": "address"
						}
					],
					"stateMutability": "view",
					"type": "function"
				},
				{
					"inputs": [],
					"name": "buyPrice",
					"outputs": [
						{
							"internalType": "uint256",
							"name": "",
							"type": "uint256"
						}
					],
					"stateMutability": "pure",
					"type": "function"
				},
				{
					"inputs": [
						{
							"internalType": "uint256",
							"name": "_amount",
							"type": "uint256"
						}
					],
					"name": "calculateSharesReceived",
					"outputs": [
						{
							"internalType": "uint256",
							"name": "",
							"type": "uint256"
						}
					],
					"stateMutability": "pure",
					"type": "function"
				},
				{
					"inputs": [
						{
							"internalType": "uint256",
							"name": "_amount",
							"type": "uint256"
						}
					],
					"name": "calculateTokensReceived",
					"outputs": [
						{
							"internalType": "uint256",
							"name": "",
							"type": "uint256"
						}
					],
					"stateMutability": "view",
					"type": "function"
				},
				{
					"inputs": [
						{
							"internalType": "address",
							"name": "_user",
							"type": "address"
						}
					],
					"name": "checkImmunity",
					"outputs": [
						{
							"internalType": "bool",
							"name": "isImmune",
							"type": "bool"
						}
					],
					"stateMutability": "view",
					"type": "function"
				},
				{
					"inputs": [],
					"name": "compound",
					"outputs": [],
					"stateMutability": "nonpayable",
					"type": "function"
				},
				{
					"inputs": [
						{
							"internalType": "address",
							"name": "_user",
							"type": "address"
						}
					],
					"name": "dailyEstimate",
					"outputs": [
						{
							"internalType": "uint256",
							"name": "",
							"type": "uint256"
						}
					],
					"stateMutability": "view",
					"type": "function"
				},
				{
					"inputs": [
						{
							"internalType": "uint256",
							"name": "_amount",
							"type": "uint256"
						}
					],
					"name": "deposit",
					"outputs": [
						{
							"internalType": "uint256",
							"name": "",
							"type": "uint256"
						}
					],
					"stateMutability": "nonpayable",
					"type": "function"
				},
				{
					"inputs": [
						{
							"internalType": "address",
							"name": "_user",
							"type": "address"
						},
						{
							"internalType": "uint256",
							"name": "_amount",
							"type": "uint256"
						}
					],
					"name": "depositTo",
					"outputs": [
						{
							"internalType": "uint256",
							"name": "",
							"type": "uint256"
						}
					],
					"stateMutability": "nonpayable",
					"type": "function"
				},
				{
					"inputs": [
						{
							"internalType": "address",
							"name": "_user",
							"type": "address"
						}
					],
					"name": "dividendsOf",
					"outputs": [
						{
							"internalType": "uint256",
							"name": "",
							"type": "uint256"
						}
					],
					"stateMutability": "view",
					"type": "function"
				},
				{
					"inputs": [
						{
							"internalType": "uint256",
							"name": "_amount",
							"type": "uint256"
						}
					],
					"name": "donate",
					"outputs": [
						{
							"internalType": "uint256",
							"name": "",
							"type": "uint256"
						}
					],
					"stateMutability": "nonpayable",
					"type": "function"
				},
				{
					"inputs": [],
					"name": "dripPoolBalance",
					"outputs": [
						{
							"internalType": "uint256",
							"name": "",
							"type": "uint256"
						}
					],
					"stateMutability": "view",
					"type": "function"
				},
				{
					"inputs": [],
					"name": "dripRate",
					"outputs": [
						{
							"internalType": "uint8",
							"name": "",
							"type": "uint8"
						}
					],
					"stateMutability": "view",
					"type": "function"
				},
				{
					"inputs": [],
					"name": "forDivs",
					"outputs": [
						{
							"internalType": "uint256",
							"name": "",
							"type": "uint256"
						}
					],
					"stateMutability": "view",
					"type": "function"
				},
				{
					"inputs": [],
					"name": "forPool",
					"outputs": [
						{
							"internalType": "uint256",
							"name": "",
							"type": "uint256"
						}
					],
					"stateMutability": "view",
					"type": "function"
				},
				{
					"inputs": [],
					"name": "harvest",
					"outputs": [],
					"stateMutability": "nonpayable",
					"type": "function"
				},
				{
					"inputs": [
						{
							"internalType": "uint256",
							"name": "",
							"type": "uint256"
						}
					],
					"name": "jpeg",
					"outputs": [
						{
							"internalType": "contract IERC721",
							"name": "",
							"type": "address"
						}
					],
					"stateMutability": "view",
					"type": "function"
				},
				{
					"inputs": [],
					"name": "lastPayout",
					"outputs": [
						{
							"internalType": "uint256",
							"name": "",
							"type": "uint256"
						}
					],
					"stateMutability": "view",
					"type": "function"
				},
				{
					"inputs": [],
					"name": "lastRebaseTime",
					"outputs": [
						{
							"internalType": "uint256",
							"name": "",
							"type": "uint256"
						}
					],
					"stateMutability": "view",
					"type": "function"
				},
				{
					"inputs": [],
					"name": "myEarnings",
					"outputs": [
						{
							"internalType": "uint256",
							"name": "",
							"type": "uint256"
						}
					],
					"stateMutability": "view",
					"type": "function"
				},
				{
					"inputs": [],
					"name": "myTokens",
					"outputs": [
						{
							"internalType": "uint256",
							"name": "",
							"type": "uint256"
						}
					],
					"stateMutability": "view",
					"type": "function"
				},
				{
					"inputs": [],
					"name": "owner",
					"outputs": [
						{
							"internalType": "address",
							"name": "",
							"type": "address"
						}
					],
					"stateMutability": "view",
					"type": "function"
				},
				{
					"inputs": [],
					"name": "payoutFrequency",
					"outputs": [
						{
							"internalType": "uint256",
							"name": "",
							"type": "uint256"
						}
					],
					"stateMutability": "view",
					"type": "function"
				},
				{
					"inputs": [],
					"name": "rebaseFrequency",
					"outputs": [
						{
							"internalType": "uint256",
							"name": "",
							"type": "uint256"
						}
					],
					"stateMutability": "view",
					"type": "function"
				},
				{
					"inputs": [],
					"name": "renounceOwnership",
					"outputs": [],
					"stateMutability": "nonpayable",
					"type": "function"
				},
				{
					"inputs": [],
					"name": "requiredBalance",
					"outputs": [
						{
							"internalType": "uint256",
							"name": "",
							"type": "uint256"
						}
					],
					"stateMutability": "view",
					"type": "function"
				},
				{
					"inputs": [],
					"name": "rewardToken",
					"outputs": [
						{
							"internalType": "contract IERC20",
							"name": "",
							"type": "address"
						}
					],
					"stateMutability": "view",
					"type": "function"
				},
				{
					"inputs": [],
					"name": "sellPrice",
					"outputs": [
						{
							"internalType": "uint256",
							"name": "",
							"type": "uint256"
						}
					],
					"stateMutability": "pure",
					"type": "function"
				},
				{
					"inputs": [
						{
							"internalType": "uint256",
							"name": "_pool",
							"type": "uint256"
						},
						{
							"internalType": "uint256",
							"name": "_divs",
							"type": "uint256"
						}
					],
					"name": "setFeeSplit",
					"outputs": [
						{
							"internalType": "bool",
							"name": "_success",
							"type": "bool"
						}
					],
					"stateMutability": "nonpayable",
					"type": "function"
				},
				{
					"inputs": [
						{
							"internalType": "contract IERC721[]",
							"name": "_contract",
							"type": "address[]"
						}
					],
					"name": "setImmunityToken",
					"outputs": [
						{
							"internalType": "bool",
							"name": "_success",
							"type": "bool"
						}
					],
					"stateMutability": "nonpayable",
					"type": "function"
				},
				{
					"inputs": [],
					"name": "stakingToken",
					"outputs": [
						{
							"internalType": "contract IERC20",
							"name": "",
							"type": "address"
						}
					],
					"stateMutability": "view",
					"type": "function"
				},
				{
					"inputs": [],
					"name": "tokenAddress",
					"outputs": [
						{
							"internalType": "address",
							"name": "",
							"type": "address"
						}
					],
					"stateMutability": "view",
					"type": "function"
				},
				{
					"inputs": [
						{
							"internalType": "address",
							"name": "_user",
							"type": "address"
						}
					],
					"name": "tokenBalance",
					"outputs": [
						{
							"internalType": "uint256",
							"name": "",
							"type": "uint256"
						}
					],
					"stateMutability": "view",
					"type": "function"
				},
				{
					"inputs": [],
					"name": "totalBalance",
					"outputs": [
						{
							"internalType": "uint256",
							"name": "",
							"type": "uint256"
						}
					],
					"stateMutability": "view",
					"type": "function"
				},
				{
					"inputs": [],
					"name": "totalClaims",
					"outputs": [
						{
							"internalType": "uint256",
							"name": "",
							"type": "uint256"
						}
					],
					"stateMutability": "view",
					"type": "function"
				},
				{
					"inputs": [],
					"name": "totalDeposits",
					"outputs": [
						{
							"internalType": "uint256",
							"name": "",
							"type": "uint256"
						}
					],
					"stateMutability": "view",
					"type": "function"
				},
				{
					"inputs": [],
					"name": "totalSupply",
					"outputs": [
						{
							"internalType": "uint256",
							"name": "",
							"type": "uint256"
						}
					],
					"stateMutability": "view",
					"type": "function"
				},
				{
					"inputs": [],
					"name": "totalTxs",
					"outputs": [
						{
							"internalType": "uint256",
							"name": "",
							"type": "uint256"
						}
					],
					"stateMutability": "view",
					"type": "function"
				},
				{
					"inputs": [
						{
							"internalType": "address",
							"name": "_to",
							"type": "address"
						},
						{
							"internalType": "uint256",
							"name": "_amount",
							"type": "uint256"
						}
					],
					"name": "transfer",
					"outputs": [
						{
							"internalType": "bool",
							"name": "",
							"type": "bool"
						}
					],
					"stateMutability": "nonpayable",
					"type": "function"
				},
				{
					"inputs": [
						{
							"internalType": "address",
							"name": "newOwner",
							"type": "address"
						}
					],
					"name": "transferOwnership",
					"outputs": [],
					"stateMutability": "nonpayable",
					"type": "function"
				},
				{
					"inputs": [],
					"name": "users",
					"outputs": [
						{
							"internalType": "uint256",
							"name": "",
							"type": "uint256"
						}
					],
					"stateMutability": "view",
					"type": "function"
				},
				{
					"inputs": [
						{
							"internalType": "uint256",
							"name": "_amount",
							"type": "uint256"
						}
					],
					"name": "withdraw",
					"outputs": [],
					"stateMutability": "nonpayable",
					"type": "function"
				},
				{
					"stateMutability": "payable",
					"type": "receive"
				}
			],
			"devdoc": {
				"kind": "dev",
				"methods": {
					"owner()": {
						"details": "Returns the address of the current owner."
					},
					"renounceOwnership()": {
						"details": "Leaves the contract without owner. It will not be possible to call `onlyOwner` functions anymore. Can only be called by the current owner. NOTE: Renouncing ownership will leave the contract without an owner, thereby removing any functionality that is only available to the owner."
					},
					"transferOwnership(address)": {
						"details": "Transfers ownership of the contract to a new account (`newOwner`). Can only be called by the current owner."
					}
				},
				"version": 1
			},
			"evm": {
				"assembly": "    /* \"contracts/DiamodSafe copy.sol\":237:21655  contract DiamondSafe is Ownable, ReentrancyGuard {... */\n  mstore(0x40, 0x80)\n    /* \"contracts/DiamodSafe copy.sol\":4590:5217  constructor(address _tokenAddress, address _rewardToken, uint8 _dripRate) Ownable() {... */\n  callvalue\n  dup1\n  iszero\n  tag_1\n  jumpi\n  0x00\n  dup1\n  revert\ntag_1:\n  pop\n  mload(0x40)\n  sub(codesize, bytecodeSize)\n  dup1\n  bytecodeSize\n  dup4\n  codecopy\n  dup2\n  dup2\n  add\n  0x40\n  mstore\n  0x60\n  dup2\n  lt\n  iszero\n  tag_2\n  jumpi\n  0x00\n  dup1\n  revert\ntag_2:\n  pop\n  dup1\n  mload\n  0x20\n  dup3\n  add\n  mload\n  0x40\n  swap1\n  swap3\n  add\n  mload\n  swap1\n  swap2\n  swap1\n    /* \"contracts/Ownable.sol\":877:894  address msgSender */\n  0x00\n    /* \"contracts/Ownable.sol\":897:909  _msgSender() */\n  tag_7\n    /* \"contracts/Ownable.sol\":897:907  _msgSender */\n  tag_8\n    /* \"contracts/Ownable.sol\":897:909  _msgSender() */\n  jump\t// in\ntag_7:\n    /* \"contracts/Ownable.sol\":919:925  _owner */\n  0x00\n    /* \"contracts/Ownable.sol\":919:937  _owner = msgSender */\n  dup1\n  sload\n  not(sub(shl(0xa0, 0x01), 0x01))\n  and\n  sub(shl(0xa0, 0x01), 0x01)\n  dup4\n  and\n  swap1\n  dup2\n  or\n  dup3\n  sstore\n    /* \"contracts/Ownable.sol\":952:995  OwnershipTransferred(address(0), msgSender) */\n  mload(0x40)\n    /* \"contracts/Ownable.sol\":919:937  _owner = msgSender */\n  swap3\n  swap4\n  pop\n  swap2\n    /* \"contracts/Ownable.sol\":952:995  OwnershipTransferred(address(0), msgSender) */\n  0x8be0079c531659141344cd1fd0a4f28419497f9722a3daafe3b4186f6b6457e0\n  swap1\n    /* \"contracts/Ownable.sol\":919:925  _owner */\n  dup3\n  swap1\n    /* \"contracts/Ownable.sol\":952:995  OwnershipTransferred(address(0), msgSender) */\n  log3\n  pop\n    /* \"contracts/ReentrancyGuard.sol\":1716:1717  1 */\n  0x01\n    /* \"contracts/ReentrancyGuard.sol\":1821:1843  _status = _NOT_ENTERED */\n  dup1\n  sstore\n  sub(shl(0xa0, 0x01), 0x01)\n    /* \"contracts/DiamodSafe copy.sol\":4705:4732  _tokenAddress != address(0) */\n  dup4\n  and\n  iszero\n  dup1\n  iszero\n  swap1\n    /* \"contracts/DiamodSafe copy.sol\":4705:4769  _tokenAddress != address(0) && Address.isContract(_tokenAddress) */\n  tag_12\n  jumpi\n  pop\n    /* \"contracts/DiamodSafe copy.sol\":4736:4769  Address.isContract(_tokenAddress) */\n  tag_12\n    /* \"contracts/DiamodSafe copy.sol\":4755:4768  _tokenAddress */\n  dup4\n    /* \"contracts/DiamodSafe copy.sol\":4736:4754  Address.isContract */\n  or(tag_0_213, shl(0x20, tag_13))\n    /* \"contracts/DiamodSafe copy.sol\":4736:4769  Address.isContract(_tokenAddress) */\n  0x20\n  shr\n  jump\t// in\ntag_12:\n    /* \"contracts/DiamodSafe copy.sol\":4684:4810  require(... */\n  tag_14\n  jumpi\n  0x40\n  dup1\n  mload\n  shl(0xe5, 0x461bcd)\n  dup2\n  mstore\n  0x20\n  0x04\n  dup3\n  add\n  mstore\n  0x0f\n  0x24\n  dup3\n  add\n  mstore\n  shl(0x88, 0x494e56414c49445f41444452455353)\n  0x44\n  dup3\n  add\n  mstore\n  swap1\n  mload\n  swap1\n  dup2\n  swap1\n  sub\n  0x64\n  add\n  swap1\n  revert\ntag_14:\n    /* \"contracts/DiamodSafe copy.sol\":4820:4831  rewardToken */\n  0x0d\n    /* \"contracts/DiamodSafe copy.sol\":4820:4854  rewardToken = IERC20(_rewardToken) */\n  dup1\n  sload\n    /* \"contracts/DiamodSafe copy.sol\":4864:4876  tokenAddress */\n  0x04\n    /* \"contracts/DiamodSafe copy.sol\":4864:4892  tokenAddress = _tokenAddress */\n  dup1\n  sload\n  sub(shl(0xa0, 0x01), 0x01)\n  swap7\n  dup8\n  and\n  not(sub(shl(0xa0, 0x01), 0x01))\n  swap2\n  dup3\n  and\n  dup2\n  or\n  swap1\n  swap3\n  sstore\n    /* \"contracts/DiamodSafe copy.sol\":4902:4914  stakingToken */\n  0x02\n    /* \"contracts/DiamodSafe copy.sol\":4902:4938  stakingToken = IERC20(_tokenAddress) */\n  dup1\n  sload\n  dup3\n  and\n  swap1\n  swap3\n  or\n  dup3\n  sstore\n    /* \"contracts/DiamodSafe copy.sol\":4949:4960  bnbReceiver */\n  0x05\n    /* \"contracts/DiamodSafe copy.sol\":4949:4973  bnbReceiver = msg.sender */\n  dup1\n  sload\n  swap1\n  swap2\n  and\n    /* \"contracts/DiamodSafe copy.sol\":4963:4973  msg.sender */\n  caller\n    /* \"contracts/DiamodSafe copy.sol\":4949:4973  bnbReceiver = msg.sender */\n  or\n  swap1\n  sstore\n    /* \"contracts/DiamodSafe copy.sol\":5053:5073  dripRate = _dripRate */\n  0xff\n  swap1\n  swap4\n  and\n  not(0xff)\n    /* \"contracts/DiamodSafe copy.sol\":4820:4854  rewardToken = IERC20(_rewardToken) */\n  swap6\n  swap1\n  swap5\n  and\n  0x0100\n  mul\n  not(sub(shl(0xa8, 0x01), 0x0100))\n  swap1\n  swap2\n  and\n  or\n    /* \"contracts/DiamodSafe copy.sol\":5053:5073  dripRate = _dripRate */\n  swap4\n  swap1\n  swap4\n  and\n  swap2\n  swap1\n  swap2\n  or\n  swap1\n  swap2\n  sstore\n    /* \"contracts/DiamodSafe copy.sol\":5097:5112  block.timestamp */\n  timestamp\n  0x09\n    /* \"contracts/DiamodSafe copy.sol\":5083:5113  lastPayout = (block.timestamp) */\n  sstore\n    /* \"contracts/DiamodSafe copy.sol\":5148:5155  forPool */\n  0x0e\n    /* \"contracts/DiamodSafe copy.sol\":5148:5159  forPool = 2 */\n  sstore\n    /* \"contracts/DiamodSafe copy.sol\":4820:4831  rewardToken */\n  0x01\n    /* \"contracts/DiamodSafe copy.sol\":5169:5176  forDivs */\n  0x0f\n    /* \"contracts/DiamodSafe copy.sol\":5169:5180  forDivs = 1 */\n  dup2\n  swap1\n  sstore\n    /* \"contracts/DiamodSafe copy.sol\":5191:5206  requiredBalance */\n  0x03\n    /* \"contracts/DiamodSafe copy.sol\":5191:5210  requiredBalance = 1 */\n  sstore\n    /* \"contracts/DiamodSafe copy.sol\":237:21655  contract DiamondSafe is Ownable, ReentrancyGuard {... */\n  jump(tag_15)\n    /* \"contracts/Context.sol\":598:702  function _msgSender() internal view virtual returns (address payable) {... */\ntag_8:\n    /* \"contracts/Context.sol\":685:695  msg.sender */\n  caller\n    /* \"contracts/Context.sol\":598:702  function _msgSender() internal view virtual returns (address payable) {... */\n  swap1\n  jump\t// out\n    /* \"contracts/Address.sol\":726:1139  function isContract(address account) internal view returns (bool) {... */\ntag_13:\n    /* \"contracts/Address.sol\":1086:1106  extcodesize(account) */\n  extcodesize\n    /* \"contracts/Address.sol\":1124:1132  size > 0 */\n  iszero\n  iszero\n  swap1\n    /* \"contracts/Address.sol\":726:1139  function isContract(address account) internal view returns (bool) {... */\n  jump\t// out\n    /* \"contracts/DiamodSafe copy.sol\":237:21655  contract DiamondSafe is Ownable, ReentrancyGuard {... */\ntag_15:\n  dataSize(sub_0)\n  dup1\n  dataOffset(sub_0)\n  0x00\n  codecopy\n  0x00\n  return\nstop\n\nsub_0: assembly {\n        /* \"contracts/DiamodSafe copy.sol\":237:21655  contract DiamondSafe is Ownable, ReentrancyGuard {... */\n      mstore(0x40, 0x80)\n      jumpi(tag_1, lt(calldatasize, 0x04))\n      shr(0xe0, calldataload(0x00))\n      dup1\n      0x949e8acd\n      gt\n      tag_47\n      jumpi\n      dup1\n      0xe02e1e9c\n      gt\n      tag_48\n      jumpi\n      dup1\n      0xf69e2046\n      gt\n      tag_49\n      jumpi\n      dup1\n      0xf69e2046\n      eq\n      tag_41\n      jumpi\n      dup1\n      0xf6db0da0\n      eq\n      tag_42\n      jumpi\n      dup1\n      0xf7c618c1\n      eq\n      tag_43\n      jumpi\n      dup1\n      0xfbaf1bbd\n      eq\n      tag_44\n      jumpi\n      dup1\n      0xffaad6a5\n      eq\n      tag_45\n      jumpi\n      dup1\n      0xffe6bbd8\n      eq\n      tag_46\n      jumpi\n      jump(tag_2)\n    tag_49:\n      dup1\n      0xe02e1e9c\n      eq\n      tag_36\n      jumpi\n      dup1\n      0xeedc966a\n      eq\n      tag_37\n      jumpi\n      dup1\n      0xf14faf6f\n      eq\n      tag_38\n      jumpi\n      dup1\n      0xf2020275\n      eq\n      tag_39\n      jumpi\n      dup1\n      0xf2fde38b\n      eq\n      tag_40\n      jumpi\n      jump(tag_2)\n    tag_48:\n      dup1\n      0xaecb6d28\n      gt\n      tag_50\n      jumpi\n      dup1\n      0xaecb6d28\n      eq\n      tag_30\n      jumpi\n      dup1\n      0xb03cf5a7\n      eq\n      tag_31\n      jumpi\n      dup1\n      0xb6b55f25\n      eq\n      tag_32\n      jumpi\n      dup1\n      0xb9db102a\n      eq\n      tag_33\n      jumpi\n      dup1\n      0xd3261592\n      eq\n      tag_34\n      jumpi\n      dup1\n      0xd7c3771d\n      eq\n      tag_35\n      jumpi\n      jump(tag_2)\n    tag_50:\n      dup1\n      0x949e8acd\n      eq\n      tag_25\n      jumpi\n      dup1\n      0x9d76ea58\n      eq\n      tag_26\n      jumpi\n      dup1\n      0xa01496de\n      eq\n      tag_27\n      jumpi\n      dup1\n      0xa9059cbb\n      eq\n      tag_28\n      jumpi\n      dup1\n      0xad7a672f\n      eq\n      tag_29\n      jumpi\n      jump(tag_2)\n    tag_47:\n      dup1\n      0x537a39bb\n      gt\n      tag_51\n      jumpi\n      dup1\n      0x7e6335c7\n      gt\n      tag_52\n      jumpi\n      dup1\n      0x7e6335c7\n      eq\n      tag_19\n      jumpi\n      dup1\n      0x8086b8ba\n      eq\n      tag_20\n      jumpi\n      dup1\n      0x81fce645\n      eq\n      tag_21\n      jumpi\n      dup1\n      0x8620410b\n      eq\n      tag_22\n      jumpi\n      dup1\n      0x89375abf\n      eq\n      tag_23\n      jumpi\n      dup1\n      0x8da5cb5b\n      eq\n      tag_24\n      jumpi\n      jump(tag_2)\n    tag_52:\n      dup1\n      0x537a39bb\n      eq\n      tag_14\n      jumpi\n      dup1\n      0x70a08231\n      eq\n      tag_15\n      jumpi\n      dup1\n      0x715018a6\n      eq\n      tag_16\n      jumpi\n      dup1\n      0x72f702f3\n      eq\n      tag_17\n      jumpi\n      dup1\n      0x7d882097\n      eq\n      tag_18\n      jumpi\n      jump(tag_2)\n    tag_51:\n      dup1\n      0x1f38b9cd\n      gt\n      tag_53\n      jumpi\n      dup1\n      0x1f38b9cd\n      eq\n      tag_8\n      jumpi\n      dup1\n      0x2e1a7d4d\n      eq\n      tag_9\n      jumpi\n      dup1\n      0x36599ead\n      eq\n      tag_10\n      jumpi\n      dup1\n      0x41c61383\n      eq\n      tag_11\n      jumpi\n      dup1\n      0x4641257d\n      eq\n      tag_12\n      jumpi\n      dup1\n      0x4b750334\n      eq\n      tag_13\n      jumpi\n      jump(tag_2)\n    tag_53:\n      dup1\n      0x65318b\n      eq\n      tag_3\n      jumpi\n      dup1\n      0x08560ace\n      eq\n      tag_4\n      jumpi\n      dup1\n      0x10d0ffdd\n      eq\n      tag_5\n      jumpi\n      dup1\n      0x18160ddd\n      eq\n      tag_6\n      jumpi\n      dup1\n      0x1924063e\n      eq\n      tag_7\n      jumpi\n      jump(tag_2)\n    tag_1:\n      jumpi(tag_2, calldatasize)\n        /* \"contracts/DiamodSafe copy.sol\":5404:5415  bnbReceiver */\n      sload(0x05)\n        /* \"contracts/DiamodSafe copy.sol\":5386:5427  Address.sendValue(bnbReceiver, msg.value) */\n      tag_56\n      swap1\n      sub(shl(0xa0, 0x01), 0x01)\n        /* \"contracts/DiamodSafe copy.sol\":5404:5415  bnbReceiver */\n      and\n        /* \"contracts/DiamodSafe copy.sol\":5417:5426  msg.value */\n      callvalue\n        /* \"contracts/DiamodSafe copy.sol\":5386:5403  Address.sendValue */\n      tag_57\n        /* \"contracts/DiamodSafe copy.sol\":5386:5427  Address.sendValue(bnbReceiver, msg.value) */\n      jump\t// in\n    tag_56:\n        /* \"contracts/DiamodSafe copy.sol\":5442:5493  onDonateBNB(msg.sender, msg.value, block.timestamp) */\n      0x40\n      dup1\n      mload\n        /* \"contracts/DiamodSafe copy.sol\":5466:5475  msg.value */\n      callvalue\n        /* \"contracts/DiamodSafe copy.sol\":5442:5493  onDonateBNB(msg.sender, msg.value, block.timestamp) */\n      dup2\n      mstore\n        /* \"contracts/DiamodSafe copy.sol\":5477:5492  block.timestamp */\n      timestamp\n        /* \"contracts/DiamodSafe copy.sol\":5442:5493  onDonateBNB(msg.sender, msg.value, block.timestamp) */\n      0x20\n      dup3\n      add\n      mstore\n      dup2\n      mload\n        /* \"contracts/DiamodSafe copy.sol\":5454:5464  msg.sender */\n      caller\n      swap3\n        /* \"contracts/DiamodSafe copy.sol\":5442:5493  onDonateBNB(msg.sender, msg.value, block.timestamp) */\n      0x3c2bd1b3f5ca07afb09fbee41ac43da2b98d9c2e9832673052e546bd1d4c091d\n      swap3\n      dup3\n      swap1\n      sub\n      add\n      swap1\n      log2\n        /* \"contracts/DiamodSafe copy.sol\":237:21655  contract DiamondSafe is Ownable, ReentrancyGuard {... */\n      stop\n    tag_2:\n      0x00\n      dup1\n      revert\n        /* \"contracts/DiamodSafe copy.sol\":11162:11402  function dividendsOf(address _user) public view returns (uint256) {... */\n    tag_3:\n      callvalue\n      dup1\n      iszero\n      tag_58\n      jumpi\n      0x00\n      dup1\n      revert\n    tag_58:\n      pop\n      tag_59\n      0x04\n      dup1\n      calldatasize\n      sub\n      0x20\n      dup2\n      lt\n      iszero\n      tag_60\n      jumpi\n      0x00\n      dup1\n      revert\n    tag_60:\n      pop\n      calldataload\n      sub(shl(0xa0, 0x01), 0x01)\n      and\n      tag_61\n      jump\t// in\n    tag_59:\n      0x40\n      dup1\n      mload\n      swap2\n      dup3\n      mstore\n      mload\n      swap1\n      dup2\n      swap1\n      sub\n      0x20\n      add\n      swap1\n      return\n        /* \"contracts/DiamodSafe copy.sol\":587:617  uint256 public requiredBalance */\n    tag_4:\n      callvalue\n      dup1\n      iszero\n      tag_62\n      jumpi\n      0x00\n      dup1\n      revert\n    tag_62:\n      pop\n      tag_59\n      tag_64\n      jump\t// in\n        /* \"contracts/DiamodSafe copy.sol\":12253:12598  function calculateTokensReceived(... */\n    tag_5:\n      callvalue\n      dup1\n      iszero\n      tag_65\n      jumpi\n      0x00\n      dup1\n      revert\n    tag_65:\n      pop\n      tag_59\n      0x04\n      dup1\n      calldatasize\n      sub\n      0x20\n      dup2\n      lt\n      iszero\n      tag_67\n      jumpi\n      0x00\n      dup1\n      revert\n    tag_67:\n      pop\n      calldataload\n      tag_68\n      jump\t// in\n        /* \"contracts/DiamodSafe copy.sol\":11061:11156  function totalSupply() public view returns (uint256) {... */\n    tag_6:\n      callvalue\n      dup1\n      iszero\n      tag_69\n      jumpi\n      0x00\n      dup1\n      revert\n    tag_69:\n      pop\n      tag_59\n      tag_71\n      jump\t// in\n        /* \"contracts/DiamodSafe copy.sol\":1731:1760  uint256 public lastRebaseTime */\n    tag_7:\n      callvalue\n      dup1\n      iszero\n      tag_72\n      jumpi\n      0x00\n      dup1\n      revert\n    tag_72:\n      pop\n      tag_59\n      tag_74\n      jump\t// in\n        /* \"contracts/DiamodSafe copy.sol\":1525:1544  uint public forDivs */\n    tag_8:\n      callvalue\n      dup1\n      iszero\n      tag_75\n      jumpi\n      0x00\n      dup1\n      revert\n    tag_75:\n      pop\n      tag_59\n      tag_77\n      jump\t// in\n        /* \"contracts/DiamodSafe copy.sol\":8245:9770  function withdraw(uint256 _amount) public onlyHolders {... */\n    tag_9:\n      callvalue\n      dup1\n      iszero\n      tag_78\n      jumpi\n      0x00\n      dup1\n      revert\n    tag_78:\n      pop\n      tag_79\n      0x04\n      dup1\n      calldatasize\n      sub\n      0x20\n      dup2\n      lt\n      iszero\n      tag_80\n      jumpi\n      0x00\n      dup1\n      revert\n    tag_80:\n      pop\n      calldataload\n      tag_81\n      jump\t// in\n    tag_79:\n      stop\n        /* \"contracts/DiamodSafe copy.sol\":10140:10507  function checkImmunity(address _user) public view returns (bool isImmune) {... */\n    tag_10:\n      callvalue\n      dup1\n      iszero\n      tag_82\n      jumpi\n      0x00\n      dup1\n      revert\n    tag_82:\n      pop\n      tag_83\n      0x04\n      dup1\n      calldatasize\n      sub\n      0x20\n      dup2\n      lt\n      iszero\n      tag_84\n      jumpi\n      0x00\n      dup1\n      revert\n    tag_84:\n      pop\n      calldataload\n      sub(shl(0xa0, 0x01), 0x01)\n      and\n      tag_85\n      jump\t// in\n    tag_83:\n      0x40\n      dup1\n      mload\n      swap2\n      iszero\n      iszero\n      dup3\n      mstore\n      mload\n      swap1\n      dup2\n      swap1\n      sub\n      0x20\n      add\n      swap1\n      return\n        /* \"contracts/DiamodSafe copy.sol\":1102:1125  uint public totalClaims */\n    tag_11:\n      callvalue\n      dup1\n      iszero\n      tag_86\n      jumpi\n      0x00\n      dup1\n      revert\n    tag_86:\n      pop\n      tag_59\n      tag_88\n      jump\t// in\n        /* \"contracts/DiamodSafe copy.sol\":7333:8223  function harvest() public onlyEarners {... */\n    tag_12:\n      callvalue\n      dup1\n      iszero\n      tag_89\n      jumpi\n      0x00\n      dup1\n      revert\n    tag_89:\n      pop\n      tag_79\n      tag_91\n      jump\t// in\n        /* \"contracts/DiamodSafe copy.sol\":11408:11674  function sellPrice() public pure  returns (uint256) {... */\n    tag_13:\n      callvalue\n      dup1\n      iszero\n      tag_92\n      jumpi\n      0x00\n      dup1\n      revert\n    tag_92:\n      pop\n      tag_59\n      tag_94\n      jump\t// in\n        /* \"contracts/DiamodSafe copy.sol\":877:897  uint public totalTxs */\n    tag_14:\n      callvalue\n      dup1\n      iszero\n      tag_95\n      jumpi\n      0x00\n      dup1\n      revert\n    tag_95:\n      pop\n      tag_59\n      tag_97\n      jump\t// in\n        /* \"contracts/DiamodSafe copy.sol\":10719:10824  function balanceOf(address _user) public view returns (uint256) {... */\n    tag_15:\n      callvalue\n      dup1\n      iszero\n      tag_98\n      jumpi\n      0x00\n      dup1\n      revert\n    tag_98:\n      pop\n      tag_59\n      0x04\n      dup1\n      calldatasize\n      sub\n      0x20\n      dup2\n      lt\n      iszero\n      tag_100\n      jumpi\n      0x00\n      dup1\n      revert\n    tag_100:\n      pop\n      calldataload\n      sub(shl(0xa0, 0x01), 0x01)\n      and\n      tag_101\n      jump\t// in\n        /* \"contracts/Ownable.sol\":1710:1855  function renounceOwnership() public virtual onlyOwner {... */\n    tag_16:\n      callvalue\n      dup1\n      iszero\n      tag_102\n      jumpi\n      0x00\n      dup1\n      revert\n    tag_102:\n      pop\n      tag_79\n      tag_104\n      jump\t// in\n        /* \"contracts/DiamodSafe copy.sol\":394:420  IERC20 public stakingToken */\n    tag_17:\n      callvalue\n      dup1\n      iszero\n      tag_105\n      jumpi\n      0x00\n      dup1\n      revert\n    tag_105:\n      pop\n      tag_106\n      tag_107\n      jump\t// in\n    tag_106:\n      0x40\n      dup1\n      mload\n      sub(shl(0xa0, 0x01), 0x01)\n      swap1\n      swap3\n      and\n      dup3\n      mstore\n      mload\n      swap1\n      dup2\n      swap1\n      sub\n      0x20\n      add\n      swap1\n      return\n        /* \"contracts/DiamodSafe copy.sol\":1131:1156  uint public totalDeposits */\n    tag_18:\n      callvalue\n      dup1\n      iszero\n      tag_108\n      jumpi\n      0x00\n      dup1\n      revert\n    tag_108:\n      pop\n      tag_59\n      tag_110\n      jump\t// in\n        /* \"contracts/DiamodSafe copy.sol\":13612:14021  function setFeeSplit(... */\n    tag_19:\n      callvalue\n      dup1\n      iszero\n      tag_111\n      jumpi\n      0x00\n      dup1\n      revert\n    tag_111:\n      pop\n      tag_83\n      0x04\n      dup1\n      calldatasize\n      sub\n      0x40\n      dup2\n      lt\n      iszero\n      tag_113\n      jumpi\n      0x00\n      dup1\n      revert\n    tag_113:\n      pop\n      dup1\n      calldataload\n      swap1\n      0x20\n      add\n      calldataload\n      tag_114\n      jump\t// in\n        /* \"contracts/DiamodSafe copy.sol\":12604:13201  function accountOf(address _user) public view returns (uint256[14] memory) {... */\n    tag_20:\n      callvalue\n      dup1\n      iszero\n      tag_115\n      jumpi\n      0x00\n      dup1\n      revert\n    tag_115:\n      pop\n      tag_116\n      0x04\n      dup1\n      calldatasize\n      sub\n      0x20\n      dup2\n      lt\n      iszero\n      tag_117\n      jumpi\n      0x00\n      dup1\n      revert\n    tag_117:\n      pop\n      calldataload\n      sub(shl(0xa0, 0x01), 0x01)\n      and\n      tag_118\n      jump\t// in\n    tag_116:\n      mload(0x40)\n      dup1\n      dup3\n      0x01c0\n      dup1\n      dup4\n      dup4\n      0x00\n    tag_119:\n      dup4\n      dup2\n      lt\n      iszero\n      tag_121\n      jumpi\n      dup2\n      dup2\n      add\n      mload\n      dup4\n      dup3\n      add\n      mstore\n      0x20\n      add\n      jump(tag_119)\n    tag_121:\n      pop\n      pop\n      pop\n      pop\n      swap1\n      pop\n      add\n      swap2\n      pop\n      pop\n      mload(0x40)\n      dup1\n      swap2\n      sub\n      swap1\n      return\n        /* \"contracts/DiamodSafe copy.sol\":1641:1692  uint256 public constant payoutFrequency = 2 seconds */\n    tag_21:\n      callvalue\n      dup1\n      iszero\n      tag_122\n      jumpi\n      0x00\n      dup1\n      revert\n    tag_122:\n      pop\n      tag_59\n      tag_124\n      jump\t// in\n        /* \"contracts/DiamodSafe copy.sol\":11680:11944  function buyPrice() public pure returns (uint256) {... */\n    tag_22:\n      callvalue\n      dup1\n      iszero\n      tag_125\n      jumpi\n      0x00\n      dup1\n      revert\n    tag_125:\n      pop\n      tag_59\n      tag_127\n      jump\t// in\n        /* \"contracts/DiamodSafe copy.sol\":1586:1635  uint256 public constant rebaseFrequency = 6 hours */\n    tag_23:\n      callvalue\n      dup1\n      iszero\n      tag_128\n      jumpi\n      0x00\n      dup1\n      revert\n    tag_128:\n      pop\n      tag_59\n      tag_130\n      jump\t// in\n        /* \"contracts/Ownable.sol\":1078:1163  function owner() public view virtual returns (address) {... */\n    tag_24:\n      callvalue\n      dup1\n      iszero\n      tag_131\n      jumpi\n      0x00\n      dup1\n      revert\n    tag_131:\n      pop\n      tag_106\n      tag_133\n      jump\t// in\n        /* \"contracts/DiamodSafe copy.sol\":10513:10608  function myTokens() public view returns (uint256) {... */\n    tag_25:\n      callvalue\n      dup1\n      iszero\n      tag_134\n      jumpi\n      0x00\n      dup1\n      revert\n    tag_134:\n      pop\n      tag_59\n      tag_136\n      jump\t// in\n        /* \"contracts/DiamodSafe copy.sol\":699:726  address public tokenAddress */\n    tag_26:\n      callvalue\n      dup1\n      iszero\n      tag_137\n      jumpi\n      0x00\n      dup1\n      revert\n    tag_137:\n      pop\n      tag_106\n      tag_139\n      jump\t// in\n        /* \"contracts/DiamodSafe copy.sol\":1500:1519  uint public forPool */\n    tag_27:\n      callvalue\n      dup1\n      iszero\n      tag_140\n      jumpi\n      0x00\n      dup1\n      revert\n    tag_140:\n      pop\n      tag_59\n      tag_142\n      jump\t// in\n        /* \"contracts/DiamodSafe copy.sol\":9792:9951  function transfer(... */\n    tag_28:\n      callvalue\n      dup1\n      iszero\n      tag_143\n      jumpi\n      0x00\n      dup1\n      revert\n    tag_143:\n      pop\n      tag_83\n      0x04\n      dup1\n      calldatasize\n      sub\n      0x40\n      dup2\n      lt\n      iszero\n      tag_145\n      jumpi\n      0x00\n      dup1\n      revert\n    tag_145:\n      pop\n      sub(shl(0xa0, 0x01), 0x01)\n      dup2\n      calldataload\n      and\n      swap1\n      0x20\n      add\n      calldataload\n      tag_146\n      jump\t// in\n        /* \"contracts/DiamodSafe copy.sol\":10940:11055  function totalBalance() public view returns (uint256) {... */\n    tag_29:\n      callvalue\n      dup1\n      iszero\n      tag_147\n      jumpi\n      0x00\n      dup1\n      revert\n    tag_147:\n      pop\n      tag_59\n      tag_149\n      jump\t// in\n        /* \"contracts/DiamodSafe copy.sol\":1213:1240  uint public dripPoolBalance */\n    tag_30:\n      callvalue\n      dup1\n      iszero\n      tag_150\n      jumpi\n      0x00\n      dup1\n      revert\n    tag_150:\n      pop\n      tag_59\n      tag_152\n      jump\t// in\n        /* \"contracts/DiamodSafe copy.sol\":772:793  IERC721[] public jpeg */\n    tag_31:\n      callvalue\n      dup1\n      iszero\n      tag_153\n      jumpi\n      0x00\n      dup1\n      revert\n    tag_153:\n      pop\n      tag_106\n      0x04\n      dup1\n      calldatasize\n      sub\n      0x20\n      dup2\n      lt\n      iszero\n      tag_155\n      jumpi\n      0x00\n      dup1\n      revert\n    tag_155:\n      pop\n      calldataload\n      tag_156\n      jump\t// in\n        /* \"contracts/DiamodSafe copy.sol\":6242:6352  function deposit(uint _amount) public returns (uint256) {... */\n    tag_32:\n      callvalue\n      dup1\n      iszero\n      tag_157\n      jumpi\n      0x00\n      dup1\n      revert\n    tag_157:\n      pop\n      tag_59\n      0x04\n      dup1\n      calldatasize\n      sub\n      0x20\n      dup2\n      lt\n      iszero\n      tag_159\n      jumpi\n      0x00\n      dup1\n      revert\n    tag_159:\n      pop\n      calldataload\n      tag_160\n      jump\t// in\n        /* \"contracts/DiamodSafe copy.sol\":975:997  uint public lastPayout */\n    tag_33:\n      callvalue\n      dup1\n      iszero\n      tag_161\n      jumpi\n      0x00\n      dup1\n      revert\n    tag_161:\n      pop\n      tag_59\n      tag_163\n      jump\t// in\n        /* \"contracts/DiamodSafe copy.sol\":1246:1267  uint8 public dripRate */\n    tag_34:\n      callvalue\n      dup1\n      iszero\n      tag_164\n      jumpi\n      0x00\n      dup1\n      revert\n    tag_164:\n      pop\n      tag_165\n      tag_166\n      jump\t// in\n    tag_165:\n      0x40\n      dup1\n      mload\n      0xff\n      swap1\n      swap3\n      and\n      dup3\n      mstore\n      mload\n      swap1\n      dup2\n      swap1\n      sub\n      0x20\n      add\n      swap1\n      return\n        /* \"contracts/DiamodSafe copy.sol\":732:766  address payable public bnbReceiver */\n    tag_35:\n      callvalue\n      dup1\n      iszero\n      tag_167\n      jumpi\n      0x00\n      dup1\n      revert\n    tag_167:\n      pop\n      tag_106\n      tag_169\n      jump\t// in\n        /* \"contracts/DiamodSafe copy.sol\":11950:12247  function calculateSharesReceived(... */\n    tag_36:\n      callvalue\n      dup1\n      iszero\n      tag_170\n      jumpi\n      0x00\n      dup1\n      revert\n    tag_170:\n      pop\n      tag_59\n      0x04\n      dup1\n      calldatasize\n      sub\n      0x20\n      dup2\n      lt\n      iszero\n      tag_172\n      jumpi\n      0x00\n      dup1\n      revert\n    tag_172:\n      pop\n      calldataload\n      tag_173\n      jump\t// in\n        /* \"contracts/DiamodSafe copy.sol\":10830:10934  function tokenBalance(address _user) public view returns (uint256) {... */\n    tag_37:\n      callvalue\n      dup1\n      iszero\n      tag_174\n      jumpi\n      0x00\n      dup1\n      revert\n    tag_174:\n      pop\n      tag_59\n      0x04\n      dup1\n      calldatasize\n      sub\n      0x20\n      dup2\n      lt\n      iszero\n      tag_176\n      jumpi\n      0x00\n      dup1\n      revert\n    tag_176:\n      pop\n      calldataload\n      sub(shl(0xa0, 0x01), 0x01)\n      and\n      tag_177\n      jump\t// in\n        /* \"contracts/DiamodSafe copy.sol\":5646:6221  function donate(uint _amount) public returns (uint256) {... */\n    tag_38:\n      callvalue\n      dup1\n      iszero\n      tag_178\n      jumpi\n      0x00\n      dup1\n      revert\n    tag_178:\n      pop\n      tag_59\n      0x04\n      dup1\n      calldatasize\n      sub\n      0x20\n      dup2\n      lt\n      iszero\n      tag_180\n      jumpi\n      0x00\n      dup1\n      revert\n    tag_180:\n      pop\n      calldataload\n      tag_181\n      jump\t// in\n        /* \"contracts/DiamodSafe copy.sol\":854:871  uint public users */\n    tag_39:\n      callvalue\n      dup1\n      iszero\n      tag_182\n      jumpi\n      0x00\n      dup1\n      revert\n    tag_182:\n      pop\n      tag_59\n      tag_184\n      jump\t// in\n        /* \"contracts/Ownable.sol\":2004:2244  function transferOwnership(address newOwner) public virtual onlyOwner {... */\n    tag_40:\n      callvalue\n      dup1\n      iszero\n      tag_185\n      jumpi\n      0x00\n      dup1\n      revert\n    tag_185:\n      pop\n      tag_79\n      0x04\n      dup1\n      calldatasize\n      sub\n      0x20\n      dup2\n      lt\n      iszero\n      tag_187\n      jumpi\n      0x00\n      dup1\n      revert\n    tag_187:\n      pop\n      calldataload\n      sub(shl(0xa0, 0x01), 0x01)\n      and\n      tag_188\n      jump\t// in\n        /* \"contracts/DiamodSafe copy.sol\":7239:7312  function compound() public onlyEarners {... */\n    tag_41:\n      callvalue\n      dup1\n      iszero\n      tag_189\n      jumpi\n      0x00\n      dup1\n      revert\n    tag_189:\n      pop\n      tag_79\n      tag_191\n      jump\t// in\n        /* \"contracts/DiamodSafe copy.sol\":14083:14607  function setImmunityToken(... */\n    tag_42:\n      callvalue\n      dup1\n      iszero\n      tag_192\n      jumpi\n      0x00\n      dup1\n      revert\n    tag_192:\n      pop\n      tag_83\n      0x04\n      dup1\n      calldatasize\n      sub\n      0x20\n      dup2\n      lt\n      iszero\n      tag_194\n      jumpi\n      0x00\n      dup1\n      revert\n    tag_194:\n      dup2\n      add\n      swap1\n      0x20\n      dup2\n      add\n      dup2\n      calldataload\n      0x0100000000\n      dup2\n      gt\n      iszero\n      tag_195\n      jumpi\n      0x00\n      dup1\n      revert\n    tag_195:\n      dup3\n      add\n      dup4\n      0x20\n      dup3\n      add\n      gt\n      iszero\n      tag_196\n      jumpi\n      0x00\n      dup1\n      revert\n    tag_196:\n      dup1\n      calldataload\n      swap1\n      0x20\n      add\n      swap2\n      dup5\n      0x20\n      dup4\n      mul\n      dup5\n      add\n      gt\n      0x0100000000\n      dup4\n      gt\n      or\n      iszero\n      tag_197\n      jumpi\n      0x00\n      dup1\n      revert\n    tag_197:\n      swap2\n      swap1\n      dup1\n      dup1\n      0x20\n      mul\n      0x20\n      add\n      mload(0x40)\n      swap1\n      dup2\n      add\n      0x40\n      mstore\n      dup1\n      swap4\n      swap3\n      swap2\n      swap1\n      dup2\n      dup2\n      mstore\n      0x20\n      add\n      dup4\n      dup4\n      0x20\n      mul\n      dup1\n      dup3\n      dup5\n      calldatacopy\n      0x00\n      swap3\n      add\n      swap2\n      swap1\n      swap2\n      mstore\n      pop\n      swap3\n      swap6\n      pop\n      tag_198\n      swap5\n      pop\n      pop\n      pop\n      pop\n      pop\n      jump\t// in\n        /* \"contracts/DiamodSafe copy.sol\":1273:1298  IERC20 public rewardToken */\n    tag_43:\n      callvalue\n      dup1\n      iszero\n      tag_199\n      jumpi\n      0x00\n      dup1\n      revert\n    tag_199:\n      pop\n      tag_106\n      tag_201\n      jump\t// in\n        /* \"contracts/DiamodSafe copy.sol\":13207:13490  function dailyEstimate(address _user) public view returns (uint256) {... */\n    tag_44:\n      callvalue\n      dup1\n      iszero\n      tag_202\n      jumpi\n      0x00\n      dup1\n      revert\n    tag_202:\n      pop\n      tag_59\n      0x04\n      dup1\n      calldatasize\n      sub\n      0x20\n      dup2\n      lt\n      iszero\n      tag_204\n      jumpi\n      0x00\n      dup1\n      revert\n    tag_204:\n      pop\n      calldataload\n      sub(shl(0xa0, 0x01), 0x01)\n      and\n      tag_205\n      jump\t// in\n        /* \"contracts/DiamodSafe copy.sol\":6375:7217  function depositTo(address _user, uint _amount) public returns (uint256) {... */\n    tag_45:\n      callvalue\n      dup1\n      iszero\n      tag_206\n      jumpi\n      0x00\n      dup1\n      revert\n    tag_206:\n      pop\n      tag_59\n      0x04\n      dup1\n      calldatasize\n      sub\n      0x40\n      dup2\n      lt\n      iszero\n      tag_208\n      jumpi\n      0x00\n      dup1\n      revert\n    tag_208:\n      pop\n      sub(shl(0xa0, 0x01), 0x01)\n      dup2\n      calldataload\n      and\n      swap1\n      0x20\n      add\n      calldataload\n      tag_209\n      jump\t// in\n        /* \"contracts/DiamodSafe copy.sol\":10614:10713  function myEarnings() public view returns (uint256) {... */\n    tag_46:\n      callvalue\n      dup1\n      iszero\n      tag_210\n      jumpi\n      0x00\n      dup1\n      revert\n    tag_210:\n      pop\n      tag_59\n      tag_212\n      jump\t// in\n        /* \"contracts/Address.sol\":2056:2447  function sendValue(address payable recipient, uint256 amount) internal {... */\n    tag_57:\n        /* \"contracts/Address.sol\":2170:2176  amount */\n      dup1\n        /* \"contracts/Address.sol\":2145:2166  address(this).balance */\n      selfbalance\n        /* \"contracts/Address.sol\":2145:2176  address(this).balance >= amount */\n      lt\n      iszero\n        /* \"contracts/Address.sol\":2137:2210  require(address(this).balance >= amount, \"Address: insufficient balance\") */\n      tag_215\n      jumpi\n      0x40\n      dup1\n      mload\n      shl(0xe5, 0x461bcd)\n      dup2\n      mstore\n      0x20\n      0x04\n      dup3\n      add\n      mstore\n      0x1d\n      0x24\n      dup3\n      add\n      mstore\n      0x416464726573733a20696e73756666696369656e742062616c616e6365000000\n      0x44\n      dup3\n      add\n      mstore\n      swap1\n      mload\n      swap1\n      dup2\n      swap1\n      sub\n      0x64\n      add\n      swap1\n      revert\n    tag_215:\n        /* \"contracts/Address.sol\":2317:2352  recipient.call{ value: amount }(\"\") */\n      mload(0x40)\n        /* \"contracts/Address.sol\":2299:2311  bool success */\n      0x00\n      swap1\n      sub(shl(0xa0, 0x01), 0x01)\n        /* \"contracts/Address.sol\":2317:2331  recipient.call */\n      dup5\n      and\n      swap1\n        /* \"contracts/Address.sol\":2340:2346  amount */\n      dup4\n      swap1\n        /* \"contracts/Address.sol\":2299:2311  bool success */\n      dup4\n        /* \"contracts/Address.sol\":2317:2352  recipient.call{ value: amount }(\"\") */\n      dup2\n        /* \"contracts/Address.sol\":2299:2311  bool success */\n      dup2\n        /* \"contracts/Address.sol\":2317:2352  recipient.call{ value: amount }(\"\") */\n      dup2\n        /* \"contracts/Address.sol\":2340:2346  amount */\n      dup6\n        /* \"contracts/Address.sol\":2317:2331  recipient.call */\n      dup8\n        /* \"contracts/Address.sol\":2317:2352  recipient.call{ value: amount }(\"\") */\n      gas\n      call\n      swap3\n      pop\n      pop\n      pop\n      returndatasize\n      dup1\n      0x00\n      dup2\n      eq\n      tag_218\n      jumpi\n      mload(0x40)\n      swap2\n      pop\n      and(add(returndatasize, 0x3f), not(0x1f))\n      dup3\n      add\n      0x40\n      mstore\n      returndatasize\n      dup3\n      mstore\n      returndatasize\n      0x00\n      0x20\n      dup5\n      add\n      returndatacopy\n      jump(tag_217)\n    tag_218:\n      0x60\n      swap2\n      pop\n    tag_217:\n      pop\n        /* \"contracts/Address.sol\":2298:2352  (bool success, ) = recipient.call{ value: amount }(\"\") */\n      pop\n      swap1\n      pop\n        /* \"contracts/Address.sol\":2370:2377  success */\n      dup1\n        /* \"contracts/Address.sol\":2362:2440  require(success, \"Address: unable to send value, recipient may have reverted\") */\n      tag_219\n      jumpi\n      mload(0x40)\n      shl(0xe5, 0x461bcd)\n      dup2\n      mstore\n      0x04\n      add\n      dup1\n      dup1\n      0x20\n      add\n      dup3\n      dup2\n      sub\n      dup3\n      mstore\n      0x3a\n      dup2\n      mstore\n      0x20\n      add\n      dup1\n      data_51ddaa38748c0a1144620fb5bfe8edab31ea437571ad591a7734bbfd0429aeae\n      0x3a\n      swap2\n      codecopy\n      0x40\n      add\n      swap2\n      pop\n      pop\n      mload(0x40)\n      dup1\n      swap2\n      sub\n      swap1\n      revert\n    tag_219:\n        /* \"contracts/Address.sol\":2056:2447  function sendValue(address payable recipient, uint256 amount) internal {... */\n      pop\n      pop\n      pop\n      jump\t// out\n        /* \"contracts/DiamodSafe copy.sol\":11162:11402  function dividendsOf(address _user) public view returns (uint256) {... */\n    tag_61:\n      sub(shl(0xa0, 0x01), 0x01)\n        /* \"contracts/DiamodSafe copy.sol\":11352:11369  payoutsOf_[_user] */\n      dup2\n      and\n        /* \"contracts/DiamodSafe copy.sol\":11219:11226  uint256 */\n      0x00\n        /* \"contracts/DiamodSafe copy.sol\":11352:11369  payoutsOf_[_user] */\n      swap1\n      dup2\n      mstore\n        /* \"contracts/DiamodSafe copy.sol\":11352:11362  payoutsOf_ */\n      0x13\n        /* \"contracts/DiamodSafe copy.sol\":11352:11369  payoutsOf_[_user] */\n      0x20\n      swap1\n      dup2\n      mstore\n      0x40\n      dup1\n      dup4\n      keccak256\n      sload\n        /* \"contracts/DiamodSafe copy.sol\":11311:11321  balanceOf_ */\n      0x14\n        /* \"contracts/DiamodSafe copy.sol\":11311:11328  balanceOf_[_user] */\n      swap1\n      swap3\n      mstore\n      dup3\n      keccak256\n      sload\n        /* \"contracts/DiamodSafe copy.sol\":11293:11308  profitPerShare_ */\n      sload(0x12)\n      shl(0x40, 0x01)\n        /* \"contracts/DiamodSafe copy.sol\":1425:1432  2 ** 64 */\n      swap3\n        /* \"contracts/DiamodSafe copy.sol\":11293:11328  profitPerShare_ * balanceOf_[_user] */\n      swap2\n      mul\n        /* \"contracts/DiamodSafe copy.sol\":11284:11369  (int256)(profitPerShare_ * balanceOf_[_user]) -... */\n      sub\n        /* \"contracts/DiamodSafe copy.sol\":11257:11395  (uint256)(... */\n      div\n        /* \"contracts/DiamodSafe copy.sol\":11238:11395  return... */\n      swap1\n      pop\n        /* \"contracts/DiamodSafe copy.sol\":11162:11402  function dividendsOf(address _user) public view returns (uint256) {... */\n    tag_220:\n      swap2\n      swap1\n      pop\n      jump\t// out\n        /* \"contracts/DiamodSafe copy.sol\":587:617  uint256 public requiredBalance */\n    tag_64:\n      sload(0x03)\n      dup2\n      jump\t// out\n        /* \"contracts/DiamodSafe copy.sol\":12253:12598  function calculateTokensReceived(... */\n    tag_68:\n        /* \"contracts/DiamodSafe copy.sol\":12338:12345  uint256 */\n      0x00\n        /* \"contracts/DiamodSafe copy.sol\":12376:12394  currentTotalStaked */\n      sload(0x11)\n        /* \"contracts/DiamodSafe copy.sol\":12365:12372  _amount */\n      dup3\n        /* \"contracts/DiamodSafe copy.sol\":12365:12394  _amount <= currentTotalStaked */\n      gt\n      iszero\n        /* \"contracts/DiamodSafe copy.sol\":12357:12395  require(_amount <= currentTotalStaked) */\n      tag_223\n      jumpi\n      0x00\n      dup1\n      revert\n    tag_223:\n        /* \"contracts/DiamodSafe copy.sol\":12423:12430  _amount */\n      dup2\n        /* \"contracts/DiamodSafe copy.sol\":12405:12420  uint256 _tokens */\n      0x00\n        /* \"contracts/DiamodSafe copy.sol\":12458:12507  SafeMath.div(SafeMath.mul(_tokens, divsFee), 100) */\n      tag_224\n        /* \"contracts/DiamodSafe copy.sol\":12471:12501  SafeMath.mul(_tokens, divsFee) */\n      tag_225\n        /* \"contracts/DiamodSafe copy.sol\":12423:12430  _amount */\n      dup4\n        /* \"contracts/DiamodSafe copy.sol\":1380:1381  3 */\n      0x03\n        /* \"contracts/DiamodSafe copy.sol\":12471:12483  SafeMath.mul */\n      tag_226\n        /* \"contracts/DiamodSafe copy.sol\":12471:12501  SafeMath.mul(_tokens, divsFee) */\n      jump\t// in\n    tag_225:\n        /* \"contracts/DiamodSafe copy.sol\":12503:12506  100 */\n      0x64\n        /* \"contracts/DiamodSafe copy.sol\":12458:12470  SafeMath.div */\n      tag_227\n        /* \"contracts/DiamodSafe copy.sol\":12458:12507  SafeMath.div(SafeMath.mul(_tokens, divsFee), 100) */\n      jump\t// in\n    tag_224:\n        /* \"contracts/DiamodSafe copy.sol\":12440:12507  uint256 _divies = SafeMath.div(SafeMath.mul(_tokens, divsFee), 100) */\n      swap1\n      pop\n        /* \"contracts/DiamodSafe copy.sol\":12517:12533  uint256 _remains */\n      0x00\n        /* \"contracts/DiamodSafe copy.sol\":12536:12566  SafeMath.sub(_tokens, _divies) */\n      tag_228\n        /* \"contracts/DiamodSafe copy.sol\":12549:12556  _tokens */\n      dup4\n        /* \"contracts/DiamodSafe copy.sol\":12558:12565  _divies */\n      dup4\n        /* \"contracts/DiamodSafe copy.sol\":12536:12548  SafeMath.sub */\n      tag_229\n        /* \"contracts/DiamodSafe copy.sol\":12536:12566  SafeMath.sub(_tokens, _divies) */\n      jump\t// in\n    tag_228:\n        /* \"contracts/DiamodSafe copy.sol\":12517:12566  uint256 _remains = SafeMath.sub(_tokens, _divies) */\n      swap6\n        /* \"contracts/DiamodSafe copy.sol\":12253:12598  function calculateTokensReceived(... */\n      swap5\n      pop\n      pop\n      pop\n      pop\n      pop\n      jump\t// out\n        /* \"contracts/DiamodSafe copy.sol\":11061:11156  function totalSupply() public view returns (uint256) {... */\n    tag_71:\n        /* \"contracts/DiamodSafe copy.sol\":11131:11149  currentTotalStaked */\n      sload(0x11)\n        /* \"contracts/DiamodSafe copy.sol\":11061:11156  function totalSupply() public view returns (uint256) {... */\n      swap1\n      jump\t// out\n        /* \"contracts/DiamodSafe copy.sol\":1731:1760  uint256 public lastRebaseTime */\n    tag_74:\n      sload(0x10)\n      dup2\n      jump\t// out\n        /* \"contracts/DiamodSafe copy.sol\":1525:1544  uint public forDivs */\n    tag_77:\n      sload(0x0f)\n      dup2\n      jump\t// out\n        /* \"contracts/DiamodSafe copy.sol\":8245:9770  function withdraw(uint256 _amount) public onlyHolders {... */\n    tag_81:\n        /* \"contracts/DiamodSafe copy.sol\":2136:2137  0 */\n      0x00\n        /* \"contracts/DiamodSafe copy.sol\":2123:2133  myTokens() */\n      tag_232\n        /* \"contracts/DiamodSafe copy.sol\":2123:2131  myTokens */\n      tag_136\n        /* \"contracts/DiamodSafe copy.sol\":2123:2133  myTokens() */\n      jump\t// in\n    tag_232:\n        /* \"contracts/DiamodSafe copy.sol\":2123:2137  myTokens() > 0 */\n      gt\n        /* \"contracts/DiamodSafe copy.sol\":2115:2138  require(myTokens() > 0) */\n      tag_233\n      jumpi\n      0x00\n      dup1\n      revert\n    tag_233:\n        /* \"contracts/DiamodSafe copy.sol\":8325:8335  msg.sender */\n      caller\n        /* \"contracts/DiamodSafe copy.sol\":8309:8322  address _user */\n      0x00\n        /* \"contracts/DiamodSafe copy.sol\":8364:8381  balanceOf_[_user] */\n      dup2\n      dup2\n      mstore\n        /* \"contracts/DiamodSafe copy.sol\":8364:8374  balanceOf_ */\n      0x14\n        /* \"contracts/DiamodSafe copy.sol\":8364:8381  balanceOf_[_user] */\n      0x20\n      mstore\n      0x40\n      swap1\n      keccak256\n      sload\n        /* \"contracts/DiamodSafe copy.sol\":8353:8381  _amount <= balanceOf_[_user] */\n      dup3\n      gt\n      iszero\n        /* \"contracts/DiamodSafe copy.sol\":8345:8382  require(_amount <= balanceOf_[_user]) */\n      tag_235\n      jumpi\n      0x00\n      dup1\n      revert\n    tag_235:\n        /* \"contracts/DiamodSafe copy.sol\":8393:8420  uint256 _undividedDividends */\n      0x00\n        /* \"contracts/DiamodSafe copy.sol\":8456:8459  100 */\n      0x64\n        /* \"contracts/DiamodSafe copy.sol\":8423:8453  SafeMath.mul(_amount, divsFee) */\n      tag_236\n        /* \"contracts/DiamodSafe copy.sol\":8436:8443  _amount */\n      dup5\n        /* \"contracts/DiamodSafe copy.sol\":1380:1381  3 */\n      0x03\n        /* \"contracts/DiamodSafe copy.sol\":8423:8435  SafeMath.mul */\n      tag_226\n        /* \"contracts/DiamodSafe copy.sol\":8423:8453  SafeMath.mul(_amount, divsFee) */\n      jump\t// in\n    tag_236:\n        /* \"contracts/DiamodSafe copy.sol\":8423:8459  SafeMath.mul(_amount, divsFee) / 100 */\n      dup2\n      tag_237\n      jumpi\n      invalid\n    tag_237:\n      div\n        /* \"contracts/DiamodSafe copy.sol\":8393:8459  uint256 _undividedDividends = SafeMath.mul(_amount, divsFee) / 100 */\n      swap1\n      pop\n        /* \"contracts/DiamodSafe copy.sol\":8486:8499  bool isImmune */\n      0x00\n        /* \"contracts/DiamodSafe copy.sol\":8502:8527  checkImmunity(msg.sender) */\n      tag_238\n        /* \"contracts/DiamodSafe copy.sol\":8516:8526  msg.sender */\n      caller\n        /* \"contracts/DiamodSafe copy.sol\":8502:8515  checkImmunity */\n      tag_85\n        /* \"contracts/DiamodSafe copy.sol\":8502:8527  checkImmunity(msg.sender) */\n      jump\t// in\n    tag_238:\n        /* \"contracts/DiamodSafe copy.sol\":8486:8527  bool isImmune = checkImmunity(msg.sender) */\n      swap1\n      pop\n        /* \"contracts/DiamodSafe copy.sol\":8567:8575  isImmune */\n      dup1\n        /* \"contracts/DiamodSafe copy.sol\":8563:8692  if (isImmune) {... */\n      iszero\n      tag_239\n      jumpi\n        /* \"contracts/DiamodSafe copy.sol\":8675:8676  0 */\n      0x00\n        /* \"contracts/DiamodSafe copy.sol\":8653:8676  _undividedDividends = 0 */\n      swap2\n      pop\n        /* \"contracts/DiamodSafe copy.sol\":8563:8692  if (isImmune) {... */\n    tag_239:\n        /* \"contracts/DiamodSafe copy.sol\":8756:8777  uint256  _taxedTokens */\n      0x00\n        /* \"contracts/DiamodSafe copy.sol\":8780:8822  SafeMath.sub(_amount, _undividedDividends) */\n      tag_240\n        /* \"contracts/DiamodSafe copy.sol\":8793:8800  _amount */\n      dup6\n        /* \"contracts/DiamodSafe copy.sol\":8802:8821  _undividedDividends */\n      dup5\n        /* \"contracts/DiamodSafe copy.sol\":8780:8792  SafeMath.sub */\n      tag_229\n        /* \"contracts/DiamodSafe copy.sol\":8780:8822  SafeMath.sub(_amount, _undividedDividends) */\n      jump\t// in\n    tag_240:\n        /* \"contracts/DiamodSafe copy.sol\":8756:8822  uint256  _taxedTokens = SafeMath.sub(_amount, _undividedDividends) */\n      swap1\n      pop\n        /* \"contracts/DiamodSafe copy.sol\":8853:8894  SafeMath.sub(currentTotalStaked, _amount) */\n      tag_241\n        /* \"contracts/DiamodSafe copy.sol\":8866:8884  currentTotalStaked */\n      sload(0x11)\n        /* \"contracts/DiamodSafe copy.sol\":8886:8893  _amount */\n      dup7\n        /* \"contracts/DiamodSafe copy.sol\":8853:8865  SafeMath.sub */\n      tag_229\n        /* \"contracts/DiamodSafe copy.sol\":8853:8894  SafeMath.sub(currentTotalStaked, _amount) */\n      jump\t// in\n    tag_241:\n        /* \"contracts/DiamodSafe copy.sol\":8832:8850  currentTotalStaked */\n      0x11\n        /* \"contracts/DiamodSafe copy.sol\":8832:8894  currentTotalStaked = SafeMath.sub(currentTotalStaked, _amount) */\n      sstore\n      sub(shl(0xa0, 0x01), 0x01)\n        /* \"contracts/DiamodSafe copy.sol\":8937:8954  balanceOf_[_user] */\n      dup5\n      and\n      0x00\n      swap1\n      dup2\n      mstore\n        /* \"contracts/DiamodSafe copy.sol\":8937:8947  balanceOf_ */\n      0x14\n        /* \"contracts/DiamodSafe copy.sol\":8937:8954  balanceOf_[_user] */\n      0x20\n      mstore\n      0x40\n      swap1\n      keccak256\n      sload\n        /* \"contracts/DiamodSafe copy.sol\":8924:8964  SafeMath.sub(balanceOf_[_user], _amount) */\n      tag_242\n      swap1\n        /* \"contracts/DiamodSafe copy.sol\":8956:8963  _amount */\n      dup7\n        /* \"contracts/DiamodSafe copy.sol\":8924:8936  SafeMath.sub */\n      tag_229\n        /* \"contracts/DiamodSafe copy.sol\":8924:8964  SafeMath.sub(balanceOf_[_user], _amount) */\n      jump\t// in\n    tag_242:\n      sub(shl(0xa0, 0x01), 0x01)\n        /* \"contracts/DiamodSafe copy.sol\":8904:8921  balanceOf_[_user] */\n      dup6\n      and\n      0x00\n      swap1\n      dup2\n      mstore\n        /* \"contracts/DiamodSafe copy.sol\":8904:8914  balanceOf_ */\n      0x14\n        /* \"contracts/DiamodSafe copy.sol\":8904:8921  balanceOf_[_user] */\n      0x20\n      swap1\n      dup2\n      mstore\n      0x40\n      dup1\n      dup4\n      keccak256\n        /* \"contracts/DiamodSafe copy.sol\":8904:8964  balanceOf_[_user] = SafeMath.sub(balanceOf_[_user], _amount) */\n      swap4\n      swap1\n      swap4\n      sstore\n        /* \"contracts/DiamodSafe copy.sol\":9093:9108  profitPerShare_ */\n      sload(0x12)\n        /* \"contracts/DiamodSafe copy.sol\":9167:9177  payoutsOf_ */\n      0x13\n        /* \"contracts/DiamodSafe copy.sol\":9167:9184  payoutsOf_[_user] */\n      swap1\n      swap2\n      mstore\n      swap2\n      swap1\n      keccak256\n        /* \"contracts/DiamodSafe copy.sol\":9167:9203  payoutsOf_[_user] -= _updatedPayouts */\n      dup1\n      sload\n        /* \"contracts/DiamodSafe copy.sol\":9093:9118  profitPerShare_ * _amount */\n      swap2\n      dup8\n      mul\n      shl(0x40, 0x01)\n        /* \"contracts/DiamodSafe copy.sol\":9122:9146  _taxedTokens * magnitude */\n      dup5\n      mul\n        /* \"contracts/DiamodSafe copy.sol\":9093:9147  profitPerShare_ * _amount + (_taxedTokens * magnitude) */\n      add\n        /* \"contracts/DiamodSafe copy.sol\":9167:9203  payoutsOf_[_user] -= _updatedPayouts */\n      swap2\n      dup3\n      swap1\n      sub\n      swap1\n      sstore\n        /* \"contracts/DiamodSafe copy.sol\":9284:9317  allocateFees(_undividedDividends) */\n      tag_243\n        /* \"contracts/DiamodSafe copy.sol\":9297:9316  _undividedDividends */\n      dup5\n        /* \"contracts/DiamodSafe copy.sol\":9284:9296  allocateFees */\n      tag_244\n        /* \"contracts/DiamodSafe copy.sol\":9284:9317  allocateFees(_undividedDividends) */\n      jump\t// in\n    tag_243:\n        /* \"contracts/DiamodSafe copy.sol\":9389:9446  onWithdraw(_user, _amount, _taxedTokens, block.timestamp) */\n      0x40\n      dup1\n      mload\n      dup8\n      dup2\n      mstore\n      0x20\n      dup2\n      add\n      dup5\n      swap1\n      mstore\n        /* \"contracts/DiamodSafe copy.sol\":9430:9445  block.timestamp */\n      timestamp\n        /* \"contracts/DiamodSafe copy.sol\":9389:9446  onWithdraw(_user, _amount, _taxedTokens, block.timestamp) */\n      dup2\n      dup4\n      add\n      mstore\n      swap1\n      mload\n      sub(shl(0xa0, 0x01), 0x01)\n      dup8\n      and\n      swap2\n      0x90ebb005d68efee044927e1e77e1fd0cecc508368aa72c39250a787eed5f0a70\n      swap2\n      swap1\n      dup2\n      swap1\n      sub\n      0x60\n      add\n      swap1\n      log2\n      sub(shl(0xa0, 0x01), 0x01)\n        /* \"contracts/DiamodSafe copy.sol\":9499:9678  onUpdate(... */\n      dup6\n      and\n        /* \"contracts/DiamodSafe copy.sol\":9540:9557  accountOf_[_user] */\n      0x00\n      dup2\n      dup2\n      mstore\n        /* \"contracts/DiamodSafe copy.sol\":9540:9550  accountOf_ */\n      0x15\n        /* \"contracts/DiamodSafe copy.sol\":9540:9557  accountOf_[_user] */\n      0x20\n      dup2\n      dup2\n      mstore\n      0x40\n      dup1\n      dup5\n      keccak256\n        /* \"contracts/DiamodSafe copy.sol\":9540:9567  accountOf_[_user].deposited */\n      dup1\n      sload\n        /* \"contracts/DiamodSafe copy.sol\":9581:9591  balanceOf_ */\n      0x14\n        /* \"contracts/DiamodSafe copy.sol\":9581:9598  balanceOf_[_user] */\n      dup5\n      mstore\n      swap5\n      dup3\n      swap1\n      keccak256\n      sload\n        /* \"contracts/DiamodSafe copy.sol\":9612:9629  accountOf_[_user] */\n      swap4\n      dup4\n      mstore\n        /* \"contracts/DiamodSafe copy.sol\":9612:9639  accountOf_[_user].withdrawn */\n      0x02\n      add\n      sload\n        /* \"contracts/DiamodSafe copy.sol\":9499:9678  onUpdate(... */\n      dup2\n      mload\n      swap5\n      dup6\n      mstore\n      swap2\n      dup5\n      add\n      swap3\n      swap1\n      swap3\n      mstore\n      dup3\n      dup3\n      add\n      mstore\n        /* \"contracts/DiamodSafe copy.sol\":9653:9668  block.timestamp */\n      timestamp\n        /* \"contracts/DiamodSafe copy.sol\":9499:9678  onUpdate(... */\n      0x60\n      dup4\n      add\n      mstore\n      mload\n      0x00\n      dup1\n      mload\n      0x20\n      data_27cc9c295b15a532bb1b5f9308f1d54813e694c2ebdd1c2ced210bfe52dcd57e\n      dup4\n      codecopy\n      dup2\n      mload\n      swap2\n      mstore\n      swap2\n      dup2\n      swap1\n      sub\n      0x80\n      add\n      swap1\n      log2\n        /* \"contracts/DiamodSafe copy.sol\":9747:9759  distribute() */\n      tag_245\n        /* \"contracts/DiamodSafe copy.sol\":9747:9757  distribute */\n      tag_246\n        /* \"contracts/DiamodSafe copy.sol\":9747:9759  distribute() */\n      jump\t// in\n    tag_245:\n        /* \"contracts/DiamodSafe copy.sol\":2148:2149  _ */\n      pop\n      pop\n      pop\n      pop\n      pop\n        /* \"contracts/DiamodSafe copy.sol\":8245:9770  function withdraw(uint256 _amount) public onlyHolders {... */\n      pop\n      jump\t// out\n        /* \"contracts/DiamodSafe copy.sol\":10140:10507  function checkImmunity(address _user) public view returns (bool isImmune) {... */\n    tag_85:\n        /* \"contracts/DiamodSafe copy.sol\":10199:10212  bool isImmune */\n      0x00\n      dup1\n      dup1\n      dup1\n        /* \"contracts/DiamodSafe copy.sol\":10274:10409  for(uint i =0; i < jpeg.length; i++){... */\n    tag_248:\n        /* \"contracts/DiamodSafe copy.sol\":10293:10297  jpeg */\n      0x06\n        /* \"contracts/DiamodSafe copy.sol\":10293:10304  jpeg.length */\n      sload\n        /* \"contracts/DiamodSafe copy.sol\":10289:10304  i < jpeg.length */\n      dup2\n      lt\n        /* \"contracts/DiamodSafe copy.sol\":10274:10409  for(uint i =0; i < jpeg.length; i++){... */\n      iszero\n      tag_249\n      jumpi\n        /* \"contracts/DiamodSafe copy.sol\":10344:10348  jpeg */\n      0x06\n        /* \"contracts/DiamodSafe copy.sol\":10349:10350  i */\n      dup2\n        /* \"contracts/DiamodSafe copy.sol\":10344:10351  jpeg[i] */\n      dup2\n      sload\n      dup2\n      lt\n      tag_251\n      jumpi\n      invalid\n    tag_251:\n      0x00\n      swap2\n      dup3\n      mstore\n      0x20\n      swap2\n      dup3\n      swap1\n      keccak256\n      add\n      sload\n        /* \"contracts/DiamodSafe copy.sol\":10372:10398  jpegTest1.balanceOf(_user) */\n      0x40\n      dup1\n      mload\n      shl(0xe0, 0x70a08231)\n      dup2\n      mstore\n      sub(shl(0xa0, 0x01), 0x01)\n      dup10\n      dup2\n      and\n      0x04\n      dup4\n      add\n      mstore\n      swap2\n      mload\n        /* \"contracts/DiamodSafe copy.sol\":10344:10351  jpeg[i] */\n      swap2\n      swap1\n      swap3\n      and\n      swap5\n      pop\n      dup5\n      swap3\n        /* \"contracts/DiamodSafe copy.sol\":10372:10391  jpegTest1.balanceOf */\n      0x70a08231\n      swap3\n        /* \"contracts/DiamodSafe copy.sol\":10372:10398  jpegTest1.balanceOf(_user) */\n      0x24\n      dup1\n      dup3\n      add\n      swap4\n      swap2\n      dup3\n      swap1\n      sub\n      add\n      dup2\n        /* \"contracts/DiamodSafe copy.sol\":10344:10351  jpeg[i] */\n      dup7\n        /* \"contracts/DiamodSafe copy.sol\":10372:10398  jpegTest1.balanceOf(_user) */\n      dup1\n      extcodesize\n      iszero\n      dup1\n      iszero\n      tag_253\n      jumpi\n      0x00\n      dup1\n      revert\n    tag_253:\n      pop\n      gas\n      staticcall\n      iszero\n      dup1\n      iszero\n      tag_255\n      jumpi\n      returndatasize\n      0x00\n      dup1\n      returndatacopy\n      revert(0x00, returndatasize)\n    tag_255:\n      pop\n      pop\n      pop\n      pop\n      mload(0x40)\n      returndatasize\n      0x20\n      dup2\n      lt\n      iszero\n      tag_256\n      jumpi\n      0x00\n      dup1\n      revert\n    tag_256:\n      pop\n      mload\n        /* \"contracts/DiamodSafe copy.sol\":10367:10398  x += jpegTest1.balanceOf(_user) */\n      swap3\n      swap1\n      swap3\n      add\n      swap2\n        /* \"contracts/DiamodSafe copy.sol\":10306:10309  i++ */\n      0x01\n      add\n        /* \"contracts/DiamodSafe copy.sol\":10274:10409  for(uint i =0; i < jpeg.length; i++){... */\n      jump(tag_248)\n    tag_249:\n      pop\n        /* \"contracts/DiamodSafe copy.sol\":10426:10441  requiredBalance */\n      sload(0x03)\n        /* \"contracts/DiamodSafe copy.sol\":10421:10422  x */\n      dup3\n        /* \"contracts/DiamodSafe copy.sol\":10421:10441  x >= requiredBalance */\n      lt\n        /* \"contracts/DiamodSafe copy.sol\":10417:10479  if (x >= requiredBalance) {... */\n      tag_257\n      jumpi\n        /* \"contracts/DiamodSafe copy.sol\":10464:10468  true */\n      0x01\n        /* \"contracts/DiamodSafe copy.sol\":10457:10468  return true */\n      swap3\n      pop\n      pop\n      pop\n      jump(tag_220)\n        /* \"contracts/DiamodSafe copy.sol\":10417:10479  if (x >= requiredBalance) {... */\n    tag_257:\n      pop\n        /* \"contracts/DiamodSafe copy.sol\":10495:10500  false */\n      0x00\n      swap4\n        /* \"contracts/DiamodSafe copy.sol\":10140:10507  function checkImmunity(address _user) public view returns (bool isImmune) {... */\n      swap3\n      pop\n      pop\n      pop\n      jump\t// out\n        /* \"contracts/DiamodSafe copy.sol\":1102:1125  uint public totalClaims */\n    tag_88:\n      sload(0x0a)\n      dup2\n      jump\t// out\n        /* \"contracts/DiamodSafe copy.sol\":7333:8223  function harvest() public onlyEarners {... */\n    tag_91:\n        /* \"contracts/DiamodSafe copy.sol\":2271:2272  0 */\n      0x00\n        /* \"contracts/DiamodSafe copy.sol\":2256:2268  myEarnings() */\n      tag_259\n        /* \"contracts/DiamodSafe copy.sol\":2256:2266  myEarnings */\n      tag_212\n        /* \"contracts/DiamodSafe copy.sol\":2256:2268  myEarnings() */\n      jump\t// in\n    tag_259:\n        /* \"contracts/DiamodSafe copy.sol\":2256:2272  myEarnings() > 0 */\n      gt\n        /* \"contracts/DiamodSafe copy.sol\":2248:2273  require(myEarnings() > 0) */\n      tag_260\n      jumpi\n      0x00\n      dup1\n      revert\n    tag_260:\n        /* \"contracts/DiamodSafe copy.sol\":7397:7407  msg.sender */\n      caller\n        /* \"contracts/DiamodSafe copy.sol\":7381:7394  address _user */\n      0x00\n        /* \"contracts/DiamodSafe copy.sol\":7438:7450  myEarnings() */\n      tag_262\n        /* \"contracts/DiamodSafe copy.sol\":7438:7448  myEarnings */\n      tag_212\n        /* \"contracts/DiamodSafe copy.sol\":7438:7450  myEarnings() */\n      jump\t// in\n    tag_262:\n      sub(shl(0xa0, 0x01), 0x01)\n        /* \"contracts/DiamodSafe copy.sol\":7544:7561  payoutsOf_[_user] */\n      dup1\n      dup5\n      and\n      0x00\n      dup2\n      dup2\n      mstore\n        /* \"contracts/DiamodSafe copy.sol\":7544:7554  payoutsOf_ */\n      0x13\n        /* \"contracts/DiamodSafe copy.sol\":7544:7561  payoutsOf_[_user] */\n      0x20\n      swap1\n      dup2\n      mstore\n      0x40\n      dup1\n      dup4\n      keccak256\n        /* \"contracts/DiamodSafe copy.sol\":7544:7597  payoutsOf_[_user] += (int256)(_dividends * magnitude) */\n      dup1\n      sload\n      shl(0x40, 0x01)\n        /* \"contracts/DiamodSafe copy.sol\":7574:7596  _dividends * magnitude */\n      dup9\n      mul\n        /* \"contracts/DiamodSafe copy.sol\":7544:7597  payoutsOf_[_user] += (int256)(_dividends * magnitude) */\n      add\n      swap1\n      sstore\n        /* \"contracts/DiamodSafe copy.sol\":7661:7673  stakingToken */\n      sload(0x02)\n        /* \"contracts/DiamodSafe copy.sol\":7661:7701  stakingToken.transfer(_user, _dividends) */\n      dup2\n      mload\n      shl(0xe0, 0xa9059cbb)\n      dup2\n      mstore\n      0x04\n      dup2\n      add\n      swap6\n      swap1\n      swap6\n      mstore\n      0x24\n      dup6\n      add\n      dup8\n      swap1\n      mstore\n      swap1\n      mload\n        /* \"contracts/DiamodSafe copy.sol\":7417:7450  uint256 _dividends = myEarnings() */\n      swap6\n      swap7\n      pop\n        /* \"contracts/DiamodSafe copy.sol\":7661:7673  stakingToken */\n      swap1\n      swap4\n      and\n      swap4\n        /* \"contracts/DiamodSafe copy.sol\":7661:7682  stakingToken.transfer */\n      0xa9059cbb\n      swap4\n        /* \"contracts/DiamodSafe copy.sol\":7661:7701  stakingToken.transfer(_user, _dividends) */\n      0x44\n      dup1\n      dup6\n      add\n      swap5\n        /* \"contracts/DiamodSafe copy.sol\":7544:7561  payoutsOf_[_user] */\n      swap2\n      swap4\n        /* \"contracts/DiamodSafe copy.sol\":7661:7701  stakingToken.transfer(_user, _dividends) */\n      swap2\n      dup4\n      swap1\n      sub\n      add\n      swap1\n      dup3\n      swap1\n        /* \"contracts/DiamodSafe copy.sol\":7661:7673  stakingToken */\n      dup8\n        /* \"contracts/DiamodSafe copy.sol\":7661:7701  stakingToken.transfer(_user, _dividends) */\n      dup1\n      extcodesize\n      iszero\n      dup1\n      iszero\n      tag_263\n      jumpi\n      0x00\n      dup1\n      revert\n    tag_263:\n      pop\n      gas\n      call\n      iszero\n      dup1\n      iszero\n      tag_265\n      jumpi\n      returndatasize\n      0x00\n      dup1\n      returndatacopy\n      revert(0x00, returndatasize)\n    tag_265:\n      pop\n      pop\n      pop\n      pop\n      mload(0x40)\n      returndatasize\n      0x20\n      dup2\n      lt\n      iszero\n      tag_266\n      jumpi\n      0x00\n      dup1\n      revert\n    tag_266:\n      pop\n      pop\n      sub(shl(0xa0, 0x01), 0x01)\n        /* \"contracts/DiamodSafe copy.sol\":7832:7849  accountOf_[_user] */\n      dup3\n      and\n      0x00\n      swap1\n      dup2\n      mstore\n        /* \"contracts/DiamodSafe copy.sol\":7832:7842  accountOf_ */\n      0x15\n        /* \"contracts/DiamodSafe copy.sol\":7661:7701  stakingToken.transfer(_user, _dividends) */\n      0x20\n        /* \"contracts/DiamodSafe copy.sol\":7832:7849  accountOf_[_user] */\n      mstore\n      0x40\n      swap1\n      keccak256\n        /* \"contracts/DiamodSafe copy.sol\":7832:7859  accountOf_[_user].withdrawn */\n      0x02\n      add\n      sload\n        /* \"contracts/DiamodSafe copy.sol\":7806:7893  SafeMath.add(... */\n      tag_267\n      swap1\n        /* \"contracts/DiamodSafe copy.sol\":7873:7883  _dividends */\n      dup3\n        /* \"contracts/DiamodSafe copy.sol\":7806:7818  SafeMath.add */\n      tag_268\n        /* \"contracts/DiamodSafe copy.sol\":7806:7893  SafeMath.add(... */\n      jump\t// in\n    tag_267:\n      sub(shl(0xa0, 0x01), 0x01)\n        /* \"contracts/DiamodSafe copy.sol\":7776:7793  accountOf_[_user] */\n      dup4\n      and\n      0x00\n      dup2\n      dup2\n      mstore\n        /* \"contracts/DiamodSafe copy.sol\":7776:7786  accountOf_ */\n      0x15\n        /* \"contracts/DiamodSafe copy.sol\":7776:7793  accountOf_[_user] */\n      0x20\n      swap1\n      dup2\n      mstore\n      0x40\n      swap2\n      dup3\n      swap1\n      keccak256\n        /* \"contracts/DiamodSafe copy.sol\":7776:7803  accountOf_[_user].withdrawn */\n      0x02\n      dup2\n      add\n        /* \"contracts/DiamodSafe copy.sol\":7776:7893  accountOf_[_user].withdrawn = SafeMath.add(... */\n      swap5\n      swap1\n      swap5\n      sstore\n        /* \"contracts/DiamodSafe copy.sol\":7903:7931  accountOf_[_user].xWithdrawn */\n      0x0c\n      swap1\n      swap4\n      add\n        /* \"contracts/DiamodSafe copy.sol\":7903:7936  accountOf_[_user].xWithdrawn += 1 */\n      dup1\n      sload\n        /* \"contracts/DiamodSafe copy.sol\":7935:7936  1 */\n      0x01\n        /* \"contracts/DiamodSafe copy.sol\":7903:7936  accountOf_[_user].xWithdrawn += 1 */\n      swap1\n      dup2\n      add\n      swap1\n      swap2\n      sstore\n        /* \"contracts/DiamodSafe copy.sol\":7993:8001  totalTxs */\n      0x08\n        /* \"contracts/DiamodSafe copy.sol\":7993:8006  totalTxs += 1 */\n      dup1\n      sload\n      swap1\n      swap2\n      add\n      swap1\n      sstore\n        /* \"contracts/DiamodSafe copy.sol\":8016:8027  totalClaims */\n      0x0a\n        /* \"contracts/DiamodSafe copy.sol\":8016:8041  totalClaims += _dividends */\n      dup1\n      sload\n      dup6\n      add\n      swap1\n      sstore\n        /* \"contracts/DiamodSafe copy.sol\":8088:8134  onWithdraw(_user, _dividends, block.timestamp) */\n      dup1\n      mload\n      dup5\n      dup2\n      mstore\n        /* \"contracts/DiamodSafe copy.sol\":8118:8133  block.timestamp */\n      timestamp\n        /* \"contracts/DiamodSafe copy.sol\":8088:8134  onWithdraw(_user, _dividends, block.timestamp) */\n      swap4\n      dup2\n      add\n      swap4\n      swap1\n      swap4\n      mstore\n      dup1\n      mload\n        /* \"contracts/DiamodSafe copy.sol\":7776:7793  accountOf_[_user] */\n      swap2\n      swap3\n        /* \"contracts/DiamodSafe copy.sol\":8088:8134  onWithdraw(_user, _dividends, block.timestamp) */\n      0x1b091269e929df55d64d6ea7e9cadbe4fb38dce5ccdc995767bc515030dbfbbf\n      swap3\n      swap1\n      dup2\n      swap1\n      sub\n      swap1\n      swap2\n      add\n      swap1\n      log2\n        /* \"contracts/DiamodSafe copy.sol\":8204:8216  distribute() */\n      tag_269\n        /* \"contracts/DiamodSafe copy.sol\":8204:8214  distribute */\n      tag_246\n        /* \"contracts/DiamodSafe copy.sol\":8204:8216  distribute() */\n      jump\t// in\n    tag_269:\n        /* \"contracts/DiamodSafe copy.sol\":2283:2284  _ */\n      pop\n      pop\n        /* \"contracts/DiamodSafe copy.sol\":7333:8223  function harvest() public onlyEarners {... */\n      jump\t// out\n        /* \"contracts/DiamodSafe copy.sol\":11408:11674  function sellPrice() public pure  returns (uint256) {... */\n    tag_94:\n        /* \"contracts/DiamodSafe copy.sol\":11451:11458  uint256 */\n      0x00\n        /* \"contracts/DiamodSafe copy.sol\":11488:11492  1e18 */\n      0x0de0b6b3a7640000\n        /* \"contracts/DiamodSafe copy.sol\":11451:11458  uint256 */\n      dup2\n        /* \"contracts/DiamodSafe copy.sol\":11523:11572  SafeMath.div(SafeMath.mul(_tokens, divsFee), 100) */\n      tag_271\n        /* \"contracts/DiamodSafe copy.sol\":11536:11566  SafeMath.mul(_tokens, divsFee) */\n      tag_225\n        /* \"contracts/DiamodSafe copy.sol\":11488:11492  1e18 */\n      dup4\n        /* \"contracts/DiamodSafe copy.sol\":1380:1381  3 */\n      0x03\n        /* \"contracts/DiamodSafe copy.sol\":11536:11548  SafeMath.mul */\n      tag_226\n        /* \"contracts/DiamodSafe copy.sol\":11536:11566  SafeMath.mul(_tokens, divsFee) */\n      jump\t// in\n        /* \"contracts/DiamodSafe copy.sol\":11523:11572  SafeMath.div(SafeMath.mul(_tokens, divsFee), 100) */\n    tag_271:\n        /* \"contracts/DiamodSafe copy.sol\":11502:11572  uint256 _dividends = SafeMath.div(SafeMath.mul(_tokens, divsFee), 100) */\n      swap1\n      pop\n        /* \"contracts/DiamodSafe copy.sol\":11582:11602  uint256 _taxedTokens */\n      0x00\n        /* \"contracts/DiamodSafe copy.sol\":11605:11638  SafeMath.sub(_tokens, _dividends) */\n      tag_273\n        /* \"contracts/DiamodSafe copy.sol\":11618:11625  _tokens */\n      dup4\n        /* \"contracts/DiamodSafe copy.sol\":11627:11637  _dividends */\n      dup4\n        /* \"contracts/DiamodSafe copy.sol\":11605:11617  SafeMath.sub */\n      tag_229\n        /* \"contracts/DiamodSafe copy.sol\":11605:11638  SafeMath.sub(_tokens, _dividends) */\n      jump\t// in\n    tag_273:\n        /* \"contracts/DiamodSafe copy.sol\":11582:11638  uint256 _taxedTokens = SafeMath.sub(_tokens, _dividends) */\n      swap4\n      pop\n      pop\n      pop\n      pop\n        /* \"contracts/DiamodSafe copy.sol\":11408:11674  function sellPrice() public pure  returns (uint256) {... */\n      swap1\n      jump\t// out\n        /* \"contracts/DiamodSafe copy.sol\":877:897  uint public totalTxs */\n    tag_97:\n      sload(0x08)\n      dup2\n      jump\t// out\n        /* \"contracts/DiamodSafe copy.sol\":10719:10824  function balanceOf(address _user) public view returns (uint256) {... */\n    tag_101:\n      sub(shl(0xa0, 0x01), 0x01)\n        /* \"contracts/DiamodSafe copy.sol\":10800:10817  balanceOf_[_user] */\n      and\n        /* \"contracts/DiamodSafe copy.sol\":10774:10781  uint256 */\n      0x00\n        /* \"contracts/DiamodSafe copy.sol\":10800:10817  balanceOf_[_user] */\n      swap1\n      dup2\n      mstore\n        /* \"contracts/DiamodSafe copy.sol\":10800:10810  balanceOf_ */\n      0x14\n        /* \"contracts/DiamodSafe copy.sol\":10800:10817  balanceOf_[_user] */\n      0x20\n      mstore\n      0x40\n      swap1\n      keccak256\n      sload\n      swap1\n        /* \"contracts/DiamodSafe copy.sol\":10719:10824  function balanceOf(address _user) public view returns (uint256) {... */\n      jump\t// out\n        /* \"contracts/Ownable.sol\":1710:1855  function renounceOwnership() public virtual onlyOwner {... */\n    tag_104:\n        /* \"contracts/Ownable.sol\":1301:1313  _msgSender() */\n      tag_276\n        /* \"contracts/Ownable.sol\":1301:1311  _msgSender */\n      tag_277\n        /* \"contracts/Ownable.sol\":1301:1313  _msgSender() */\n      jump\t// in\n    tag_276:\n      sub(shl(0xa0, 0x01), 0x01)\n        /* \"contracts/Ownable.sol\":1290:1313  owner() == _msgSender() */\n      and\n        /* \"contracts/Ownable.sol\":1290:1297  owner() */\n      tag_278\n        /* \"contracts/Ownable.sol\":1290:1295  owner */\n      tag_133\n        /* \"contracts/Ownable.sol\":1290:1297  owner() */\n      jump\t// in\n    tag_278:\n      sub(shl(0xa0, 0x01), 0x01)\n        /* \"contracts/Ownable.sol\":1290:1313  owner() == _msgSender() */\n      and\n      eq\n        /* \"contracts/Ownable.sol\":1282:1350  require(owner() == _msgSender(), \"Ownable: caller is not the owner\") */\n      tag_279\n      jumpi\n      0x40\n      dup1\n      mload\n      shl(0xe5, 0x461bcd)\n      dup2\n      mstore\n      0x20\n      0x04\n      dup3\n      add\n      dup2\n      swap1\n      mstore\n      0x24\n      dup3\n      add\n      mstore\n      0x00\n      dup1\n      mload\n      0x20\n      data_9924ebdf1add33d25d4ef888e16131f0a5687b0580a36c21b5c301a6c462effe\n      dup4\n      codecopy\n      dup2\n      mload\n      swap2\n      mstore\n      0x44\n      dup3\n      add\n      mstore\n      swap1\n      mload\n      swap1\n      dup2\n      swap1\n      sub\n      0x64\n      add\n      swap1\n      revert\n    tag_279:\n        /* \"contracts/Ownable.sol\":1816:1817  0 */\n      0x00\n        /* \"contracts/Ownable.sol\":1800:1806  _owner */\n      dup1\n      sload\n        /* \"contracts/Ownable.sol\":1779:1819  OwnershipTransferred(_owner, address(0)) */\n      mload(0x40)\n      sub(shl(0xa0, 0x01), 0x01)\n        /* \"contracts/Ownable.sol\":1800:1806  _owner */\n      swap1\n      swap2\n      and\n      swap1\n        /* \"contracts/Ownable.sol\":1779:1819  OwnershipTransferred(_owner, address(0)) */\n      0x8be0079c531659141344cd1fd0a4f28419497f9722a3daafe3b4186f6b6457e0\n      swap1\n        /* \"contracts/Ownable.sol\":1816:1817  0 */\n      dup4\n      swap1\n        /* \"contracts/Ownable.sol\":1779:1819  OwnershipTransferred(_owner, address(0)) */\n      log3\n        /* \"contracts/Ownable.sol\":1846:1847  0 */\n      0x00\n        /* \"contracts/Ownable.sol\":1829:1848  _owner = address(0) */\n      dup1\n      sload\n      not(sub(shl(0xa0, 0x01), 0x01))\n      and\n      swap1\n      sstore\n        /* \"contracts/Ownable.sol\":1710:1855  function renounceOwnership() public virtual onlyOwner {... */\n      jump\t// out\n        /* \"contracts/DiamodSafe copy.sol\":394:420  IERC20 public stakingToken */\n    tag_107:\n      and(sub(shl(0xa0, 0x01), 0x01), sload(0x02))\n      dup2\n      jump\t// out\n        /* \"contracts/DiamodSafe copy.sol\":1131:1156  uint public totalDeposits */\n    tag_110:\n      sload(0x0b)\n      dup2\n      jump\t// out\n        /* \"contracts/DiamodSafe copy.sol\":13612:14021  function setFeeSplit(... */\n    tag_114:\n        /* \"contracts/DiamodSafe copy.sol\":13711:13724  bool _success */\n      0x00\n        /* \"contracts/Ownable.sol\":1301:1313  _msgSender() */\n      tag_282\n        /* \"contracts/Ownable.sol\":1301:1311  _msgSender */\n      tag_277\n        /* \"contracts/Ownable.sol\":1301:1313  _msgSender() */\n      jump\t// in\n    tag_282:\n      sub(shl(0xa0, 0x01), 0x01)\n        /* \"contracts/Ownable.sol\":1290:1313  owner() == _msgSender() */\n      and\n        /* \"contracts/Ownable.sol\":1290:1297  owner() */\n      tag_283\n        /* \"contracts/Ownable.sol\":1290:1295  owner */\n      tag_133\n        /* \"contracts/Ownable.sol\":1290:1297  owner() */\n      jump\t// in\n    tag_283:\n      sub(shl(0xa0, 0x01), 0x01)\n        /* \"contracts/Ownable.sol\":1290:1313  owner() == _msgSender() */\n      and\n      eq\n        /* \"contracts/Ownable.sol\":1282:1350  require(owner() == _msgSender(), \"Ownable: caller is not the owner\") */\n      tag_284\n      jumpi\n      0x40\n      dup1\n      mload\n      shl(0xe5, 0x461bcd)\n      dup2\n      mstore\n      0x20\n      0x04\n      dup3\n      add\n      dup2\n      swap1\n      mstore\n      0x24\n      dup3\n      add\n      mstore\n      0x00\n      dup1\n      mload\n      0x20\n      data_9924ebdf1add33d25d4ef888e16131f0a5687b0580a36c21b5c301a6c462effe\n      dup4\n      codecopy\n      dup2\n      mload\n      swap2\n      mstore\n      0x44\n      dup3\n      add\n      mstore\n      swap1\n      mload\n      swap1\n      dup2\n      swap1\n      sub\n      0x64\n      add\n      swap1\n      revert\n    tag_284:\n        /* \"contracts/DiamodSafe copy.sol\":13744:13760  _pool.add(_divs) */\n      tag_286\n        /* \"contracts/DiamodSafe copy.sol\":13744:13749  _pool */\n      dup4\n        /* \"contracts/DiamodSafe copy.sol\":13754:13759  _divs */\n      dup4\n        /* \"contracts/DiamodSafe copy.sol\":13744:13753  _pool.add */\n      tag_268\n        /* \"contracts/DiamodSafe copy.sol\":13744:13760  _pool.add(_divs) */\n      jump\t// in\n    tag_286:\n        /* \"contracts/DiamodSafe copy.sol\":13764:13765  3 */\n      0x03\n        /* \"contracts/DiamodSafe copy.sol\":13744:13765  _pool.add(_divs) == 3 */\n      eq\n        /* \"contracts/DiamodSafe copy.sol\":13736:13799  require(_pool.add(_divs) == 3, \"TEN_PORTIONS_REQUIRE_DIVISION\") */\n      tag_287\n      jumpi\n      0x40\n      dup1\n      mload\n      shl(0xe5, 0x461bcd)\n      dup2\n      mstore\n      0x20\n      0x04\n      dup3\n      add\n      mstore\n      0x1d\n      0x24\n      dup3\n      add\n      mstore\n      0x54454e5f504f5254494f4e535f524551554952455f4449564953494f4e000000\n      0x44\n      dup3\n      add\n      mstore\n      swap1\n      mload\n      swap1\n      dup2\n      swap1\n      sub\n      0x64\n      add\n      swap1\n      revert\n    tag_287:\n        /* \"contracts/DiamodSafe copy.sol\":13843:13850  forPool */\n      0x0e\n        /* \"contracts/DiamodSafe copy.sol\":13843:13858  forPool = _pool */\n      dup4\n      swap1\n      sstore\n        /* \"contracts/DiamodSafe copy.sol\":13868:13875  forDivs */\n      0x0f\n        /* \"contracts/DiamodSafe copy.sol\":13868:13883  forDivs = _divs */\n      dup3\n      swap1\n      sstore\n        /* \"contracts/DiamodSafe copy.sol\":13949:13993  onSetFeeSplit(_pool, _divs, block.timestamp) */\n      0x40\n      dup1\n      mload\n      dup5\n      dup2\n      mstore\n      0x20\n      dup2\n      add\n      dup5\n      swap1\n      mstore\n        /* \"contracts/DiamodSafe copy.sol\":13977:13992  block.timestamp */\n      timestamp\n        /* \"contracts/DiamodSafe copy.sol\":13949:13993  onSetFeeSplit(_pool, _divs, block.timestamp) */\n      dup2\n      dup4\n      add\n      mstore\n      swap1\n      mload\n      0x677017fa3a0fe0f50a95e6024c5b688f2b14a4696c4a897c459715cabfc1c03a\n      swap2\n      dup2\n      swap1\n      sub\n      0x60\n      add\n      swap1\n      log1\n      pop\n        /* \"contracts/DiamodSafe copy.sol\":14010:14014  true */\n      0x01\n        /* \"contracts/Ownable.sol\":1360:1361  _ */\n    tag_285:\n        /* \"contracts/DiamodSafe copy.sol\":13612:14021  function setFeeSplit(... */\n      swap3\n      swap2\n      pop\n      pop\n      jump\t// out\n        /* \"contracts/DiamodSafe copy.sol\":12604:13201  function accountOf(address _user) public view returns (uint256[14] memory) {... */\n    tag_118:\n        /* \"contracts/DiamodSafe copy.sol\":12659:12677  uint256[14] memory */\n      tag_288\n      tag_289\n      jump\t// in\n    tag_288:\n        /* \"contracts/DiamodSafe copy.sol\":12689:12705  Account memory a */\n      tag_291\n      tag_292\n      jump\t// in\n    tag_291:\n      pop\n      sub(shl(0xa0, 0x01), 0x01)\n        /* \"contracts/DiamodSafe copy.sol\":12708:12725  accountOf_[_user] */\n      dup3\n      and\n      0x00\n      swap1\n      dup2\n      mstore\n        /* \"contracts/DiamodSafe copy.sol\":12708:12718  accountOf_ */\n      0x15\n        /* \"contracts/DiamodSafe copy.sol\":12708:12725  accountOf_[_user] */\n      0x20\n      swap1\n      dup2\n      mstore\n      0x40\n      swap2\n      dup3\n      swap1\n      keccak256\n        /* \"contracts/DiamodSafe copy.sol\":12689:12725  Account memory a = accountOf_[_user] */\n      dup3\n      mload\n      0x01e0\n      dup2\n      add\n      dup5\n      mstore\n      dup2\n      sload\n      dup2\n      mstore\n      0x01\n      dup3\n      add\n      sload\n      swap3\n      dup2\n      add\n      swap3\n      swap1\n      swap3\n      mstore\n      0x02\n      dup2\n      add\n      sload\n      swap3\n      dup3\n      add\n      swap3\n      swap1\n      swap3\n      mstore\n      0x03\n      dup3\n      add\n      sload\n      0x60\n      dup3\n      add\n      mstore\n      0x04\n      dup3\n      add\n      sload\n      0x80\n      dup3\n      add\n      mstore\n      0x05\n      dup3\n      add\n      sload\n      0xa0\n      dup3\n      add\n      mstore\n      0x06\n      dup3\n      add\n      sload\n      0xc0\n      dup3\n      add\n      mstore\n      0x07\n      dup3\n      add\n      sload\n      0xe0\n      dup3\n      add\n      mstore\n      0x08\n      dup3\n      add\n      sload\n      0x0100\n      dup3\n      add\n      mstore\n      0x09\n      dup3\n      add\n      sload\n      0x0120\n      dup3\n      add\n      mstore\n      0x0a\n      dup3\n      add\n      sload\n      0x0140\n      dup3\n      add\n      mstore\n      0x0b\n      dup3\n      add\n      sload\n      0x0160\n      dup3\n      add\n      mstore\n      0x0c\n      dup3\n      add\n      sload\n      0x0180\n      dup3\n      add\n      mstore\n      0x0d\n      dup3\n      add\n      sload\n      0x01a0\n      dup3\n      add\n      mstore\n      0x0e\n      swap1\n      swap2\n      add\n      sload\n      0x01c0\n      dup3\n      add\n      mstore\n        /* \"contracts/DiamodSafe copy.sol\":12735:12766  uint256[14] memory accountArray */\n      tag_293\n      tag_289\n      jump\t// in\n    tag_293:\n        /* \"contracts/DiamodSafe copy.sol\":12735:13165  uint256[14] memory accountArray = [... */\n      mload(0x40)\n      dup1\n      0x01c0\n      add\n      0x40\n      mstore\n      dup1\n        /* \"contracts/DiamodSafe copy.sol\":12783:12784  a */\n      dup4\n        /* \"contracts/DiamodSafe copy.sol\":12783:12794  a.deposited */\n      0x00\n      add\n      mload\n        /* \"contracts/DiamodSafe copy.sol\":12735:13165  uint256[14] memory accountArray = [... */\n      dup2\n      mstore\n      0x20\n      add\n        /* \"contracts/DiamodSafe copy.sol\":12808:12809  a */\n      dup4\n        /* \"contracts/DiamodSafe copy.sol\":12808:12819  a.withdrawn */\n      0x40\n      add\n      mload\n        /* \"contracts/DiamodSafe copy.sol\":12735:13165  uint256[14] memory accountArray = [... */\n      dup2\n      mstore\n      0x20\n      add\n        /* \"contracts/DiamodSafe copy.sol\":12833:12834  a */\n      dup4\n        /* \"contracts/DiamodSafe copy.sol\":12833:12843  a.rewarded */\n      0x80\n      add\n      mload\n        /* \"contracts/DiamodSafe copy.sol\":12735:13165  uint256[14] memory accountArray = [... */\n      dup2\n      mstore\n      0x20\n      add\n        /* \"contracts/DiamodSafe copy.sol\":12857:12858  a */\n      dup4\n        /* \"contracts/DiamodSafe copy.sol\":12857:12869  a.compounded */\n      0x60\n      add\n      mload\n        /* \"contracts/DiamodSafe copy.sol\":12735:13165  uint256[14] memory accountArray = [... */\n      dup2\n      mstore\n      0x20\n      add\n        /* \"contracts/DiamodSafe copy.sol\":12883:12884  a */\n      dup4\n        /* \"contracts/DiamodSafe copy.sol\":12883:12896  a.contributed */\n      0xa0\n      add\n      mload\n        /* \"contracts/DiamodSafe copy.sol\":12735:13165  uint256[14] memory accountArray = [... */\n      dup2\n      mstore\n      0x20\n      add\n        /* \"contracts/DiamodSafe copy.sol\":12910:12911  a */\n      dup4\n        /* \"contracts/DiamodSafe copy.sol\":12910:12929  a.transferredShares */\n      0xc0\n      add\n      mload\n        /* \"contracts/DiamodSafe copy.sol\":12735:13165  uint256[14] memory accountArray = [... */\n      dup2\n      mstore\n      0x20\n      add\n        /* \"contracts/DiamodSafe copy.sol\":12943:12944  a */\n      dup4\n        /* \"contracts/DiamodSafe copy.sol\":12943:12959  a.receivedShares */\n      0xe0\n      add\n      mload\n        /* \"contracts/DiamodSafe copy.sol\":12735:13165  uint256[14] memory accountArray = [... */\n      dup2\n      mstore\n      0x20\n      add\n        /* \"contracts/DiamodSafe copy.sol\":12973:12974  a */\n      dup4\n        /* \"contracts/DiamodSafe copy.sol\":12973:12984  a.xInvested */\n      0x0100\n      add\n      mload\n        /* \"contracts/DiamodSafe copy.sol\":12735:13165  uint256[14] memory accountArray = [... */\n      dup2\n      mstore\n      0x20\n      add\n        /* \"contracts/DiamodSafe copy.sol\":12998:12999  a */\n      dup4\n        /* \"contracts/DiamodSafe copy.sol\":12998:13009  a.xRewarded */\n      0x0140\n      add\n      mload\n        /* \"contracts/DiamodSafe copy.sol\":12735:13165  uint256[14] memory accountArray = [... */\n      dup2\n      mstore\n      0x20\n      add\n        /* \"contracts/DiamodSafe copy.sol\":13023:13024  a */\n      dup4\n        /* \"contracts/DiamodSafe copy.sol\":13023:13037  a.xContributed */\n      0x0160\n      add\n      mload\n        /* \"contracts/DiamodSafe copy.sol\":12735:13165  uint256[14] memory accountArray = [... */\n      dup2\n      mstore\n      0x20\n      add\n        /* \"contracts/DiamodSafe copy.sol\":13051:13052  a */\n      dup4\n        /* \"contracts/DiamodSafe copy.sol\":13051:13063  a.xWithdrawn */\n      0x0180\n      add\n      mload\n        /* \"contracts/DiamodSafe copy.sol\":12735:13165  uint256[14] memory accountArray = [... */\n      dup2\n      mstore\n      0x20\n      add\n        /* \"contracts/DiamodSafe copy.sol\":13077:13078  a */\n      dup4\n        /* \"contracts/DiamodSafe copy.sol\":13077:13097  a.xTransferredShares */\n      0x01a0\n      add\n      mload\n        /* \"contracts/DiamodSafe copy.sol\":12735:13165  uint256[14] memory accountArray = [... */\n      dup2\n      mstore\n      0x20\n      add\n        /* \"contracts/DiamodSafe copy.sol\":13111:13112  a */\n      dup4\n        /* \"contracts/DiamodSafe copy.sol\":13111:13128  a.xReceivedShares */\n      0x01c0\n      add\n      mload\n        /* \"contracts/DiamodSafe copy.sol\":12735:13165  uint256[14] memory accountArray = [... */\n      dup2\n      mstore\n      0x20\n      add\n        /* \"contracts/DiamodSafe copy.sol\":13142:13143  a */\n      dup4\n        /* \"contracts/DiamodSafe copy.sol\":13142:13155  a.xCompounded */\n      0x0120\n      add\n      mload\n        /* \"contracts/DiamodSafe copy.sol\":12735:13165  uint256[14] memory accountArray = [... */\n      dup2\n      mstore\n      pop\n      swap1\n      pop\n        /* \"contracts/DiamodSafe copy.sol\":13182:13194  accountArray */\n      dup1\n        /* \"contracts/DiamodSafe copy.sol\":13175:13194  return accountArray */\n      swap3\n      pop\n      pop\n      pop\n        /* \"contracts/DiamodSafe copy.sol\":12604:13201  function accountOf(address _user) public view returns (uint256[14] memory) {... */\n      swap2\n      swap1\n      pop\n      jump\t// out\n        /* \"contracts/DiamodSafe copy.sol\":1641:1692  uint256 public constant payoutFrequency = 2 seconds */\n    tag_124:\n        /* \"contracts/DiamodSafe copy.sol\":1683:1692  2 seconds */\n      0x02\n        /* \"contracts/DiamodSafe copy.sol\":1641:1692  uint256 public constant payoutFrequency = 2 seconds */\n      dup2\n      jump\t// out\n        /* \"contracts/DiamodSafe copy.sol\":11680:11944  function buyPrice() public pure returns (uint256) {... */\n    tag_127:\n        /* \"contracts/DiamodSafe copy.sol\":11721:11728  uint256 */\n      0x00\n        /* \"contracts/DiamodSafe copy.sol\":11758:11762  1e18 */\n      0x0de0b6b3a7640000\n        /* \"contracts/DiamodSafe copy.sol\":11721:11728  uint256 */\n      dup2\n        /* \"contracts/DiamodSafe copy.sol\":11793:11842  SafeMath.div(SafeMath.mul(_tokens, divsFee), 100) */\n      tag_295\n        /* \"contracts/DiamodSafe copy.sol\":11806:11836  SafeMath.mul(_tokens, divsFee) */\n      tag_225\n        /* \"contracts/DiamodSafe copy.sol\":11758:11762  1e18 */\n      dup4\n        /* \"contracts/DiamodSafe copy.sol\":1380:1381  3 */\n      0x03\n        /* \"contracts/DiamodSafe copy.sol\":11806:11818  SafeMath.mul */\n      tag_226\n        /* \"contracts/DiamodSafe copy.sol\":11806:11836  SafeMath.mul(_tokens, divsFee) */\n      jump\t// in\n        /* \"contracts/DiamodSafe copy.sol\":11793:11842  SafeMath.div(SafeMath.mul(_tokens, divsFee), 100) */\n    tag_295:\n        /* \"contracts/DiamodSafe copy.sol\":11772:11842  uint256 _dividends = SafeMath.div(SafeMath.mul(_tokens, divsFee), 100) */\n      swap1\n      pop\n        /* \"contracts/DiamodSafe copy.sol\":11852:11872  uint256 _taxedTokens */\n      0x00\n        /* \"contracts/DiamodSafe copy.sol\":11875:11908  SafeMath.add(_tokens, _dividends) */\n      tag_273\n        /* \"contracts/DiamodSafe copy.sol\":11888:11895  _tokens */\n      dup4\n        /* \"contracts/DiamodSafe copy.sol\":11897:11907  _dividends */\n      dup4\n        /* \"contracts/DiamodSafe copy.sol\":11875:11887  SafeMath.add */\n      tag_268\n        /* \"contracts/DiamodSafe copy.sol\":11875:11908  SafeMath.add(_tokens, _dividends) */\n      jump\t// in\n        /* \"contracts/DiamodSafe copy.sol\":1586:1635  uint256 public constant rebaseFrequency = 6 hours */\n    tag_130:\n        /* \"contracts/DiamodSafe copy.sol\":1628:1635  6 hours */\n      0x5460\n        /* \"contracts/DiamodSafe copy.sol\":1586:1635  uint256 public constant rebaseFrequency = 6 hours */\n      dup2\n      jump\t// out\n        /* \"contracts/Ownable.sol\":1078:1163  function owner() public view virtual returns (address) {... */\n    tag_133:\n        /* \"contracts/Ownable.sol\":1124:1131  address */\n      0x00\n        /* \"contracts/Ownable.sol\":1150:1156  _owner */\n      sload\n      sub(shl(0xa0, 0x01), 0x01)\n      and\n        /* \"contracts/Ownable.sol\":1078:1163  function owner() public view virtual returns (address) {... */\n      swap1\n      jump\t// out\n        /* \"contracts/DiamodSafe copy.sol\":10513:10608  function myTokens() public view returns (uint256) {... */\n    tag_136:\n        /* \"contracts/DiamodSafe copy.sol\":10554:10561  uint256 */\n      0x00\n        /* \"contracts/DiamodSafe copy.sol\":10580:10601  balanceOf(msg.sender) */\n      tag_300\n        /* \"contracts/DiamodSafe copy.sol\":10590:10600  msg.sender */\n      caller\n        /* \"contracts/DiamodSafe copy.sol\":10580:10589  balanceOf */\n      tag_101\n        /* \"contracts/DiamodSafe copy.sol\":10580:10601  balanceOf(msg.sender) */\n      jump\t// in\n    tag_300:\n        /* \"contracts/DiamodSafe copy.sol\":10573:10601  return balanceOf(msg.sender) */\n      swap1\n      pop\n        /* \"contracts/DiamodSafe copy.sol\":10513:10608  function myTokens() public view returns (uint256) {... */\n      swap1\n      jump\t// out\n        /* \"contracts/DiamodSafe copy.sol\":699:726  address public tokenAddress */\n    tag_139:\n      and(sub(shl(0xa0, 0x01), 0x01), sload(0x04))\n      dup2\n      jump\t// out\n        /* \"contracts/DiamodSafe copy.sol\":1500:1519  uint public forPool */\n    tag_142:\n      sload(0x0e)\n      dup2\n      jump\t// out\n        /* \"contracts/DiamodSafe copy.sol\":9792:9951  function transfer(... */\n    tag_146:\n        /* \"contracts/DiamodSafe copy.sol\":9892:9896  bool */\n      0x00\n        /* \"contracts/DiamodSafe copy.sol\":2136:2137  0 */\n      dup1\n        /* \"contracts/DiamodSafe copy.sol\":2123:2133  myTokens() */\n      tag_302\n        /* \"contracts/DiamodSafe copy.sol\":2123:2131  myTokens */\n      tag_136\n        /* \"contracts/DiamodSafe copy.sol\":2123:2133  myTokens() */\n      jump\t// in\n    tag_302:\n        /* \"contracts/DiamodSafe copy.sol\":2123:2137  myTokens() > 0 */\n      gt\n        /* \"contracts/DiamodSafe copy.sol\":2115:2138  require(myTokens() > 0) */\n      tag_303\n      jumpi\n      0x00\n      dup1\n      revert\n    tag_303:\n        /* \"contracts/DiamodSafe copy.sol\":9915:9944  _transferTokens(_to, _amount) */\n      tag_305\n        /* \"contracts/DiamodSafe copy.sol\":9931:9934  _to */\n      dup4\n        /* \"contracts/DiamodSafe copy.sol\":9936:9943  _amount */\n      dup4\n        /* \"contracts/DiamodSafe copy.sol\":9915:9930  _transferTokens */\n      tag_306\n        /* \"contracts/DiamodSafe copy.sol\":9915:9944  _transferTokens(_to, _amount) */\n      jump\t// in\n    tag_305:\n        /* \"contracts/DiamodSafe copy.sol\":9908:9944  return _transferTokens(_to, _amount) */\n      swap4\n        /* \"contracts/DiamodSafe copy.sol\":9792:9951  function transfer(... */\n      swap3\n      pop\n      pop\n      pop\n      jump\t// out\n        /* \"contracts/DiamodSafe copy.sol\":10940:11055  function totalBalance() public view returns (uint256) {... */\n    tag_149:\n        /* \"contracts/DiamodSafe copy.sol\":11011:11023  stakingToken */\n      sload(0x02)\n        /* \"contracts/DiamodSafe copy.sol\":11011:11048  stakingToken.balanceOf(address(this)) */\n      0x40\n      dup1\n      mload\n      shl(0xe0, 0x70a08231)\n      dup2\n      mstore\n        /* \"contracts/DiamodSafe copy.sol\":11042:11046  this */\n      address\n        /* \"contracts/DiamodSafe copy.sol\":11011:11048  stakingToken.balanceOf(address(this)) */\n      0x04\n      dup3\n      add\n      mstore\n      swap1\n      mload\n        /* \"contracts/DiamodSafe copy.sol\":10985:10992  uint256 */\n      0x00\n      swap3\n      sub(shl(0xa0, 0x01), 0x01)\n        /* \"contracts/DiamodSafe copy.sol\":11011:11023  stakingToken */\n      and\n      swap2\n        /* \"contracts/DiamodSafe copy.sol\":11011:11033  stakingToken.balanceOf */\n      0x70a08231\n      swap2\n        /* \"contracts/DiamodSafe copy.sol\":11011:11048  stakingToken.balanceOf(address(this)) */\n      0x24\n      dup1\n      dup4\n      add\n      swap3\n      0x20\n      swap3\n      swap2\n      swap1\n      dup3\n      swap1\n      sub\n      add\n      dup2\n        /* \"contracts/DiamodSafe copy.sol\":11011:11023  stakingToken */\n      dup7\n        /* \"contracts/DiamodSafe copy.sol\":11011:11048  stakingToken.balanceOf(address(this)) */\n      dup1\n      extcodesize\n      iszero\n      dup1\n      iszero\n      tag_308\n      jumpi\n      0x00\n      dup1\n      revert\n    tag_308:\n      pop\n      gas\n      staticcall\n      iszero\n      dup1\n      iszero\n      tag_310\n      jumpi\n      returndatasize\n      0x00\n      dup1\n      returndatacopy\n      revert(0x00, returndatasize)\n    tag_310:\n      pop\n      pop\n      pop\n      pop\n      mload(0x40)\n      returndatasize\n      0x20\n      dup2\n      lt\n      iszero\n      tag_311\n      jumpi\n      0x00\n      dup1\n      revert\n    tag_311:\n      pop\n      mload\n      swap1\n      pop\n        /* \"contracts/DiamodSafe copy.sol\":10940:11055  function totalBalance() public view returns (uint256) {... */\n      swap1\n      jump\t// out\n        /* \"contracts/DiamodSafe copy.sol\":1213:1240  uint public dripPoolBalance */\n    tag_152:\n      sload(0x0c)\n      dup2\n      jump\t// out\n        /* \"contracts/DiamodSafe copy.sol\":772:793  IERC721[] public jpeg */\n    tag_156:\n      0x06\n      dup2\n      dup2\n      sload\n      dup2\n      lt\n      tag_312\n      jumpi\n      0x00\n      dup1\n      revert\n    tag_312:\n      0x00\n      swap2\n      dup3\n      mstore\n      0x20\n      swap1\n      swap2\n      keccak256\n      add\n      sload\n      sub(shl(0xa0, 0x01), 0x01)\n      and\n      swap1\n      pop\n      dup2\n      jump\t// out\n        /* \"contracts/DiamodSafe copy.sol\":6242:6352  function deposit(uint _amount) public returns (uint256) {... */\n    tag_160:\n        /* \"contracts/DiamodSafe copy.sol\":6289:6296  uint256 */\n      0x00\n        /* \"contracts/DiamodSafe copy.sol\":6315:6345  depositTo(msg.sender, _amount) */\n      tag_285\n        /* \"contracts/DiamodSafe copy.sol\":6325:6335  msg.sender */\n      caller\n        /* \"contracts/DiamodSafe copy.sol\":6337:6344  _amount */\n      dup4\n        /* \"contracts/DiamodSafe copy.sol\":6315:6324  depositTo */\n      tag_209\n        /* \"contracts/DiamodSafe copy.sol\":6315:6345  depositTo(msg.sender, _amount) */\n      jump\t// in\n        /* \"contracts/DiamodSafe copy.sol\":975:997  uint public lastPayout */\n    tag_163:\n      sload(0x09)\n      dup2\n      jump\t// out\n        /* \"contracts/DiamodSafe copy.sol\":1246:1267  uint8 public dripRate */\n    tag_166:\n      and(0xff, sload(0x0d))\n      dup2\n      jump\t// out\n        /* \"contracts/DiamodSafe copy.sol\":732:766  address payable public bnbReceiver */\n    tag_169:\n      and(sub(shl(0xa0, 0x01), 0x01), sload(0x05))\n      dup2\n      jump\t// out\n        /* \"contracts/DiamodSafe copy.sol\":11950:12247  function calculateSharesReceived(... */\n    tag_173:\n        /* \"contracts/DiamodSafe copy.sol\":12035:12042  uint256 */\n      0x00\n      dup1\n        /* \"contracts/DiamodSafe copy.sol\":12072:12121  SafeMath.div(SafeMath.mul(_amount, divsFee), 100) */\n      tag_317\n        /* \"contracts/DiamodSafe copy.sol\":12085:12115  SafeMath.mul(_amount, divsFee) */\n      tag_225\n        /* \"contracts/DiamodSafe copy.sol\":12098:12105  _amount */\n      dup5\n        /* \"contracts/DiamodSafe copy.sol\":1380:1381  3 */\n      0x03\n        /* \"contracts/DiamodSafe copy.sol\":12085:12097  SafeMath.mul */\n      tag_226\n        /* \"contracts/DiamodSafe copy.sol\":12085:12115  SafeMath.mul(_amount, divsFee) */\n      jump\t// in\n        /* \"contracts/DiamodSafe copy.sol\":12072:12121  SafeMath.div(SafeMath.mul(_amount, divsFee), 100) */\n    tag_317:\n        /* \"contracts/DiamodSafe copy.sol\":12054:12121  uint256 _divies = SafeMath.div(SafeMath.mul(_amount, divsFee), 100) */\n      swap1\n      pop\n        /* \"contracts/DiamodSafe copy.sol\":12131:12147  uint256 _remains */\n      0x00\n        /* \"contracts/DiamodSafe copy.sol\":12150:12180  SafeMath.sub(_amount, _divies) */\n      tag_319\n        /* \"contracts/DiamodSafe copy.sol\":12163:12170  _amount */\n      dup5\n        /* \"contracts/DiamodSafe copy.sol\":12172:12179  _divies */\n      dup4\n        /* \"contracts/DiamodSafe copy.sol\":12150:12162  SafeMath.sub */\n      tag_229\n        /* \"contracts/DiamodSafe copy.sol\":12150:12180  SafeMath.sub(_amount, _divies) */\n      jump\t// in\n    tag_319:\n        /* \"contracts/DiamodSafe copy.sol\":12131:12180  uint256 _remains = SafeMath.sub(_amount, _divies) */\n      swap5\n        /* \"contracts/DiamodSafe copy.sol\":11950:12247  function calculateSharesReceived(... */\n      swap4\n      pop\n      pop\n      pop\n      pop\n      jump\t// out\n        /* \"contracts/DiamodSafe copy.sol\":10830:10934  function tokenBalance(address _user) public view returns (uint256) {... */\n    tag_177:\n      sub(shl(0xa0, 0x01), 0x01)\n        /* \"contracts/DiamodSafe copy.sol\":10914:10927  _user.balance */\n      and\n      balance\n      swap1\n        /* \"contracts/DiamodSafe copy.sol\":10830:10934  function tokenBalance(address _user) public view returns (uint256) {... */\n      jump\t// out\n        /* \"contracts/DiamodSafe copy.sol\":5646:6221  function donate(uint _amount) public returns (uint256) {... */\n    tag_181:\n        /* \"contracts/DiamodSafe copy.sol\":5789:5800  rewardToken */\n      sload(0x0d)\n        /* \"contracts/DiamodSafe copy.sol\":5789:5849  rewardToken.transferFrom(msg.sender, address(this), _amount) */\n      0x40\n      dup1\n      mload\n      shl(0xe0, 0x23b872dd)\n      dup2\n      mstore\n        /* \"contracts/DiamodSafe copy.sol\":5814:5824  msg.sender */\n      caller\n        /* \"contracts/DiamodSafe copy.sol\":5789:5849  rewardToken.transferFrom(msg.sender, address(this), _amount) */\n      0x04\n      dup3\n      add\n      mstore\n        /* \"contracts/DiamodSafe copy.sol\":5834:5838  this */\n      address\n        /* \"contracts/DiamodSafe copy.sol\":5789:5849  rewardToken.transferFrom(msg.sender, address(this), _amount) */\n      0x24\n      dup3\n      add\n      mstore\n      0x44\n      dup2\n      add\n      dup5\n      swap1\n      mstore\n      swap1\n      mload\n      0x00\n      swap3\n        /* \"contracts/DiamodSafe copy.sol\":5789:5800  rewardToken */\n      0x0100\n      swap1\n      div\n      sub(shl(0xa0, 0x01), 0x01)\n      and\n      swap2\n        /* \"contracts/DiamodSafe copy.sol\":5789:5813  rewardToken.transferFrom */\n      0x23b872dd\n      swap2\n        /* \"contracts/DiamodSafe copy.sol\":5789:5849  rewardToken.transferFrom(msg.sender, address(this), _amount) */\n      0x64\n      dup1\n      dup4\n      add\n      swap3\n      0x20\n      swap3\n      swap2\n      swap1\n      dup3\n      swap1\n      sub\n      add\n      dup2\n      dup8\n        /* \"contracts/DiamodSafe copy.sol\":5789:5800  rewardToken */\n      dup8\n        /* \"contracts/DiamodSafe copy.sol\":5789:5849  rewardToken.transferFrom(msg.sender, address(this), _amount) */\n      dup1\n      extcodesize\n      iszero\n      dup1\n      iszero\n      tag_322\n      jumpi\n      0x00\n      dup1\n      revert\n    tag_322:\n      pop\n      gas\n      call\n      iszero\n      dup1\n      iszero\n      tag_324\n      jumpi\n      returndatasize\n      0x00\n      dup1\n      returndatacopy\n      revert(0x00, returndatasize)\n    tag_324:\n      pop\n      pop\n      pop\n      pop\n      mload(0x40)\n      returndatasize\n      0x20\n      dup2\n      lt\n      iszero\n      tag_325\n      jumpi\n      0x00\n      dup1\n      revert\n    tag_325:\n      pop\n      mload\n        /* \"contracts/DiamodSafe copy.sol\":5781:5850  require(rewardToken.transferFrom(msg.sender, address(this), _amount)) */\n      tag_326\n      jumpi\n      0x00\n      dup1\n      revert\n    tag_326:\n        /* \"contracts/DiamodSafe copy.sol\":5912:5927  dripPoolBalance */\n      0x0c\n        /* \"contracts/DiamodSafe copy.sol\":5912:5938  dripPoolBalance += _amount */\n      dup1\n      sload\n      dup4\n      add\n      swap1\n      sstore\n        /* \"contracts/DiamodSafe copy.sol\":5959:5969  msg.sender */\n      caller\n        /* \"contracts/DiamodSafe copy.sol\":5912:5927  dripPoolBalance */\n      0x00\n        /* \"contracts/DiamodSafe copy.sol\":5948:5970  accountOf_[msg.sender] */\n      dup2\n      dup2\n      mstore\n        /* \"contracts/DiamodSafe copy.sol\":5948:5958  accountOf_ */\n      0x15\n        /* \"contracts/DiamodSafe copy.sol\":5948:5970  accountOf_[msg.sender] */\n      0x20\n      swap1\n      dup2\n      mstore\n      0x40\n      swap2\n      dup3\n      swap1\n      keccak256\n        /* \"contracts/DiamodSafe copy.sol\":5948:5983  accountOf_[msg.sender].xContributed */\n      0x0b\n      dup2\n      add\n        /* \"contracts/DiamodSafe copy.sol\":5948:5988  accountOf_[msg.sender].xContributed += 1 */\n      dup1\n      sload\n      0x01\n      add\n      swap1\n      sstore\n        /* \"contracts/DiamodSafe copy.sol\":5998:6032  accountOf_[msg.sender].contributed */\n      0x05\n      add\n        /* \"contracts/DiamodSafe copy.sol\":5998:6043  accountOf_[msg.sender].contributed += _amount */\n      dup1\n      sload\n      dup7\n      add\n      swap1\n      sstore\n        /* \"contracts/DiamodSafe copy.sol\":6136:6182  onDonate(msg.sender, _amount, block.timestamp) */\n      dup2\n      mload\n      dup6\n      dup2\n      mstore\n        /* \"contracts/DiamodSafe copy.sol\":6166:6181  block.timestamp */\n      timestamp\n        /* \"contracts/DiamodSafe copy.sol\":6136:6182  onDonate(msg.sender, _amount, block.timestamp) */\n      swap2\n      dup2\n      add\n      swap2\n      swap1\n      swap2\n      mstore\n      dup2\n      mload\n      0x0da1788c3e861a58a47f0d46073b13c4d66efcc259714744f920d1afe7b8dee5\n      swap3\n      swap2\n      dup2\n      swap1\n      sub\n      swap1\n      swap2\n      add\n      swap1\n      log2\n      pop\n      pop\n        /* \"contracts/DiamodSafe copy.sol\":6199:6214  dripPoolBalance */\n      sload(0x0c)\n      swap1\n        /* \"contracts/DiamodSafe copy.sol\":5646:6221  function donate(uint _amount) public returns (uint256) {... */\n      jump\t// out\n        /* \"contracts/DiamodSafe copy.sol\":854:871  uint public users */\n    tag_184:\n      sload(0x07)\n      dup2\n      jump\t// out\n        /* \"contracts/Ownable.sol\":2004:2244  function transferOwnership(address newOwner) public virtual onlyOwner {... */\n    tag_188:\n        /* \"contracts/Ownable.sol\":1301:1313  _msgSender() */\n      tag_328\n        /* \"contracts/Ownable.sol\":1301:1311  _msgSender */\n      tag_277\n        /* \"contracts/Ownable.sol\":1301:1313  _msgSender() */\n      jump\t// in\n    tag_328:\n      sub(shl(0xa0, 0x01), 0x01)\n        /* \"contracts/Ownable.sol\":1290:1313  owner() == _msgSender() */\n      and\n        /* \"contracts/Ownable.sol\":1290:1297  owner() */\n      tag_329\n        /* \"contracts/Ownable.sol\":1290:1295  owner */\n      tag_133\n        /* \"contracts/Ownable.sol\":1290:1297  owner() */\n      jump\t// in\n    tag_329:\n      sub(shl(0xa0, 0x01), 0x01)\n        /* \"contracts/Ownable.sol\":1290:1313  owner() == _msgSender() */\n      and\n      eq\n        /* \"contracts/Ownable.sol\":1282:1350  require(owner() == _msgSender(), \"Ownable: caller is not the owner\") */\n      tag_330\n      jumpi\n      0x40\n      dup1\n      mload\n      shl(0xe5, 0x461bcd)\n      dup2\n      mstore\n      0x20\n      0x04\n      dup3\n      add\n      dup2\n      swap1\n      mstore\n      0x24\n      dup3\n      add\n      mstore\n      0x00\n      dup1\n      mload\n      0x20\n      data_9924ebdf1add33d25d4ef888e16131f0a5687b0580a36c21b5c301a6c462effe\n      dup4\n      codecopy\n      dup2\n      mload\n      swap2\n      mstore\n      0x44\n      dup3\n      add\n      mstore\n      swap1\n      mload\n      swap1\n      dup2\n      swap1\n      sub\n      0x64\n      add\n      swap1\n      revert\n    tag_330:\n      sub(shl(0xa0, 0x01), 0x01)\n        /* \"contracts/Ownable.sol\":2092:2114  newOwner != address(0) */\n      dup2\n      and\n        /* \"contracts/Ownable.sol\":2084:2157  require(newOwner != address(0), \"Ownable: new owner is the zero address\") */\n      tag_332\n      jumpi\n      mload(0x40)\n      shl(0xe5, 0x461bcd)\n      dup2\n      mstore\n      0x04\n      add\n      dup1\n      dup1\n      0x20\n      add\n      dup3\n      dup2\n      sub\n      dup3\n      mstore\n      0x26\n      dup2\n      mstore\n      0x20\n      add\n      dup1\n      data_245f15ff17f551913a7a18385165551503906a406f905ac1c2437281a7cd0cfe\n      0x26\n      swap2\n      codecopy\n      0x40\n      add\n      swap2\n      pop\n      pop\n      mload(0x40)\n      dup1\n      swap2\n      sub\n      swap1\n      revert\n    tag_332:\n        /* \"contracts/Ownable.sol\":2193:2199  _owner */\n      0x00\n      dup1\n      sload\n        /* \"contracts/Ownable.sol\":2172:2210  OwnershipTransferred(_owner, newOwner) */\n      mload(0x40)\n      sub(shl(0xa0, 0x01), 0x01)\n      dup1\n      dup6\n      and\n      swap4\n        /* \"contracts/Ownable.sol\":2193:2199  _owner */\n      swap3\n      and\n      swap2\n        /* \"contracts/Ownable.sol\":2172:2210  OwnershipTransferred(_owner, newOwner) */\n      0x8be0079c531659141344cd1fd0a4f28419497f9722a3daafe3b4186f6b6457e0\n      swap2\n      log3\n        /* \"contracts/Ownable.sol\":2220:2226  _owner */\n      0x00\n        /* \"contracts/Ownable.sol\":2220:2237  _owner = newOwner */\n      dup1\n      sload\n      not(sub(shl(0xa0, 0x01), 0x01))\n      and\n      sub(shl(0xa0, 0x01), 0x01)\n      swap3\n      swap1\n      swap3\n      and\n      swap2\n      swap1\n      swap2\n      or\n      swap1\n      sstore\n        /* \"contracts/Ownable.sol\":2004:2244  function transferOwnership(address newOwner) public virtual onlyOwner {... */\n      jump\t// out\n        /* \"contracts/DiamodSafe copy.sol\":7239:7312  function compound() public onlyEarners {... */\n    tag_191:\n        /* \"contracts/DiamodSafe copy.sol\":2271:2272  0 */\n      0x00\n        /* \"contracts/DiamodSafe copy.sol\":2256:2268  myEarnings() */\n      tag_334\n        /* \"contracts/DiamodSafe copy.sol\":2256:2266  myEarnings */\n      tag_212\n        /* \"contracts/DiamodSafe copy.sol\":2256:2268  myEarnings() */\n      jump\t// in\n    tag_334:\n        /* \"contracts/DiamodSafe copy.sol\":2256:2272  myEarnings() > 0 */\n      gt\n        /* \"contracts/DiamodSafe copy.sol\":2248:2273  require(myEarnings() > 0) */\n      tag_335\n      jumpi\n      0x00\n      dup1\n      revert\n    tag_335:\n        /* \"contracts/DiamodSafe copy.sol\":7288:7305  _compoundTokens() */\n      tag_337\n        /* \"contracts/DiamodSafe copy.sol\":7288:7303  _compoundTokens */\n      tag_338\n        /* \"contracts/DiamodSafe copy.sol\":7288:7305  _compoundTokens() */\n      jump\t// in\n    tag_337:\n      pop\n        /* \"contracts/DiamodSafe copy.sol\":7239:7312  function compound() public onlyEarners {... */\n      jump\t// out\n        /* \"contracts/DiamodSafe copy.sol\":14083:14607  function setImmunityToken(... */\n    tag_198:\n        /* \"contracts/DiamodSafe copy.sol\":14177:14190  bool _success */\n      0x00\n        /* \"contracts/Ownable.sol\":1301:1313  _msgSender() */\n      tag_340\n        /* \"contracts/Ownable.sol\":1301:1311  _msgSender */\n      tag_277\n        /* \"contracts/Ownable.sol\":1301:1313  _msgSender() */\n      jump\t// in\n    tag_340:\n      sub(shl(0xa0, 0x01), 0x01)\n        /* \"contracts/Ownable.sol\":1290:1313  owner() == _msgSender() */\n      and\n        /* \"contracts/Ownable.sol\":1290:1297  owner() */\n      tag_341\n        /* \"contracts/Ownable.sol\":1290:1295  owner */\n      tag_133\n        /* \"contracts/Ownable.sol\":1290:1297  owner() */\n      jump\t// in\n    tag_341:\n      sub(shl(0xa0, 0x01), 0x01)\n        /* \"contracts/Ownable.sol\":1290:1313  owner() == _msgSender() */\n      and\n      eq\n        /* \"contracts/Ownable.sol\":1282:1350  require(owner() == _msgSender(), \"Ownable: caller is not the owner\") */\n      tag_342\n      jumpi\n      0x40\n      dup1\n      mload\n      shl(0xe5, 0x461bcd)\n      dup2\n      mstore\n      0x20\n      0x04\n      dup3\n      add\n      dup2\n      swap1\n      mstore\n      0x24\n      dup3\n      add\n      mstore\n      0x00\n      dup1\n      mload\n      0x20\n      data_9924ebdf1add33d25d4ef888e16131f0a5687b0580a36c21b5c301a6c462effe\n      dup4\n      codecopy\n      dup2\n      mload\n      swap2\n      mstore\n      0x44\n      dup3\n      add\n      mstore\n      swap1\n      mload\n      swap1\n      dup2\n      swap1\n      sub\n      0x64\n      add\n      swap1\n      revert\n    tag_342:\n        /* \"contracts/DiamodSafe copy.sol\":14202:14208  uint i */\n      0x00\n        /* \"contracts/DiamodSafe copy.sol\":14198:14364  for(uint i =0; i < jpeg.length; i++){... */\n    tag_344:\n        /* \"contracts/DiamodSafe copy.sol\":14217:14221  jpeg */\n      0x06\n        /* \"contracts/DiamodSafe copy.sol\":14217:14228  jpeg.length */\n      sload\n        /* \"contracts/DiamodSafe copy.sol\":14213:14228  i < jpeg.length */\n      dup2\n      lt\n        /* \"contracts/DiamodSafe copy.sol\":14198:14364  for(uint i =0; i < jpeg.length; i++){... */\n      iszero\n      tag_345\n      jumpi\n        /* \"contracts/DiamodSafe copy.sol\":14296:14305  _contract */\n      dup3\n        /* \"contracts/DiamodSafe copy.sol\":14306:14307  i */\n      dup2\n        /* \"contracts/DiamodSafe copy.sol\":14296:14308  _contract[i] */\n      dup2\n      mload\n      dup2\n      lt\n      tag_347\n      jumpi\n      invalid\n    tag_347:\n      0x20\n      mul\n      0x20\n      add\n      add\n      mload\n      sub(shl(0xa0, 0x01), 0x01)\n        /* \"contracts/DiamodSafe copy.sol\":14296:14326  _contract[i].supportsInterface */\n      and\n      0x01ffc9a7\n        /* \"contracts/DiamodSafe copy.sol\":14327:14337  0x80ac58cd */\n      0x80ac58cd\n        /* \"contracts/DiamodSafe copy.sol\":14296:14338  _contract[i].supportsInterface(0x80ac58cd) */\n      mload(0x40)\n      dup3\n      0xffffffff\n      and\n      0xe0\n      shl\n      dup2\n      mstore\n      0x04\n      add\n      dup1\n      dup3\n      0xe0\n      shl\n      dup2\n      mstore\n      0x20\n      add\n      swap2\n      pop\n      pop\n      0x20\n      mload(0x40)\n      dup1\n      dup4\n      sub\n      dup2\n      dup7\n      dup1\n      extcodesize\n      iszero\n      dup1\n      iszero\n      tag_348\n      jumpi\n      0x00\n      dup1\n      revert\n    tag_348:\n      pop\n      gas\n      staticcall\n      iszero\n      dup1\n      iszero\n      tag_350\n      jumpi\n      returndatasize\n      0x00\n      dup1\n      returndatacopy\n      revert(0x00, returndatasize)\n    tag_350:\n      pop\n      pop\n      pop\n      pop\n      mload(0x40)\n      returndatasize\n      0x20\n      dup2\n      lt\n      iszero\n      tag_351\n      jumpi\n      0x00\n      dup1\n      revert\n    tag_351:\n      pop\n      mload\n        /* \"contracts/DiamodSafe copy.sol\":14288:14353  require(_contract[i].supportsInterface(0x80ac58cd), \"NOT_ERC721\") */\n      tag_352\n      jumpi\n      0x40\n      dup1\n      mload\n      shl(0xe5, 0x461bcd)\n      dup2\n      mstore\n      0x20\n      0x04\n      dup3\n      add\n      mstore\n      0x0a\n      0x24\n      dup3\n      add\n      mstore\n      shl(0xb0, 0x4e4f545f455243373231)\n      0x44\n      dup3\n      add\n      mstore\n      swap1\n      mload\n      swap1\n      dup2\n      swap1\n      sub\n      0x64\n      add\n      swap1\n      revert\n    tag_352:\n        /* \"contracts/DiamodSafe copy.sol\":14230:14233  i++ */\n      0x01\n      add\n        /* \"contracts/DiamodSafe copy.sol\":14198:14364  for(uint i =0; i < jpeg.length; i++){... */\n      jump(tag_344)\n    tag_345:\n      pop\n        /* \"contracts/DiamodSafe copy.sol\":14373:14401  IERC721[] memory oldContract */\n      0x60\n        /* \"contracts/DiamodSafe copy.sol\":14404:14408  jpeg */\n      0x06\n        /* \"contracts/DiamodSafe copy.sol\":14373:14408  IERC721[] memory oldContract = jpeg */\n      dup1\n      sload\n      dup1\n      0x20\n      mul\n      0x20\n      add\n      mload(0x40)\n      swap1\n      dup2\n      add\n      0x40\n      mstore\n      dup1\n      swap3\n      swap2\n      swap1\n      dup2\n      dup2\n      mstore\n      0x20\n      add\n      dup3\n      dup1\n      sload\n      dup1\n      iszero\n      tag_353\n      jumpi\n      0x20\n      mul\n      dup3\n      add\n      swap2\n      swap1\n      0x00\n      mstore\n      keccak256(0x00, 0x20)\n      swap1\n    tag_354:\n      dup2\n      sload\n      sub(shl(0xa0, 0x01), 0x01)\n      and\n      dup2\n      mstore\n      0x01\n      swap1\n      swap2\n      add\n      swap1\n      0x20\n      add\n      dup1\n      dup4\n      gt\n      tag_354\n      jumpi\n    tag_353:\n      pop\n      pop\n        /* \"contracts/DiamodSafe copy.sol\":14418:14434  jpeg = _contract */\n      dup7\n      mload\n        /* \"contracts/DiamodSafe copy.sol\":14373:14408  IERC721[] memory oldContract = jpeg */\n      swap4\n      swap5\n      pop\n        /* \"contracts/DiamodSafe copy.sol\":14418:14434  jpeg = _contract */\n      tag_355\n      swap4\n        /* \"contracts/DiamodSafe copy.sol\":14418:14422  jpeg */\n      0x06\n      swap4\n      pop\n        /* \"contracts/DiamodSafe copy.sol\":14418:14434  jpeg = _contract */\n      0x20\n      dup9\n      add\n      swap3\n      pop\n      swap1\n      pop\n      tag_356\n      jump\t// in\n    tag_355:\n      pop\n        /* \"contracts/DiamodSafe copy.sol\":14482:14492  msg.sender */\n      caller\n      sub(shl(0xa0, 0x01), 0x01)\n        /* \"contracts/DiamodSafe copy.sol\":14450:14579  onSetImmunityToken(... */\n      and\n      0xf0650831416f723858005cfeae97a2d6f5e127d1e6ae8938574d1d73e7f4727c\n        /* \"contracts/DiamodSafe copy.sol\":14506:14517  oldContract */\n      dup3\n        /* \"contracts/DiamodSafe copy.sol\":14531:14540  _contract */\n      dup6\n        /* \"contracts/DiamodSafe copy.sol\":14554:14569  block.timestamp */\n      timestamp\n        /* \"contracts/DiamodSafe copy.sol\":14450:14579  onSetImmunityToken(... */\n      mload(0x40)\n      dup1\n      dup1\n      0x20\n      add\n      dup1\n      0x20\n      add\n      dup5\n      dup2\n      mstore\n      0x20\n      add\n      dup4\n      dup2\n      sub\n      dup4\n      mstore\n      dup7\n      dup2\n      dup2\n      mload\n      dup2\n      mstore\n      0x20\n      add\n      swap2\n      pop\n      dup1\n      mload\n      swap1\n      0x20\n      add\n      swap1\n      0x20\n      mul\n      dup1\n      dup4\n      dup4\n      0x00\n    tag_357:\n      dup4\n      dup2\n      lt\n      iszero\n      tag_359\n      jumpi\n      dup2\n      dup2\n      add\n      mload\n      dup4\n      dup3\n      add\n      mstore\n      0x20\n      add\n      jump(tag_357)\n    tag_359:\n      pop\n      pop\n      pop\n      pop\n      swap1\n      pop\n      add\n      dup4\n      dup2\n      sub\n      dup3\n      mstore\n      dup6\n      dup2\n      dup2\n      mload\n      dup2\n      mstore\n      0x20\n      add\n      swap2\n      pop\n      dup1\n      mload\n      swap1\n      0x20\n      add\n      swap1\n      0x20\n      mul\n      dup1\n      dup4\n      dup4\n      0x00\n    tag_360:\n      dup4\n      dup2\n      lt\n      iszero\n      tag_362\n      jumpi\n      dup2\n      dup2\n      add\n      mload\n      dup4\n      dup3\n      add\n      mstore\n      0x20\n      add\n      jump(tag_360)\n    tag_362:\n      pop\n      pop\n      pop\n      pop\n      swap1\n      pop\n      add\n      swap6\n      pop\n      pop\n      pop\n      pop\n      pop\n      pop\n      mload(0x40)\n      dup1\n      swap2\n      sub\n      swap1\n      log2\n      pop\n        /* \"contracts/DiamodSafe copy.sol\":14596:14600  true */\n      0x01\n      swap3\n        /* \"contracts/DiamodSafe copy.sol\":14083:14607  function setImmunityToken(... */\n      swap2\n      pop\n      pop\n      jump\t// out\n        /* \"contracts/DiamodSafe copy.sol\":1273:1298  IERC20 public rewardToken */\n    tag_201:\n      sload(0x0d)\n      0x0100\n      swap1\n      div\n      sub(shl(0xa0, 0x01), 0x01)\n      and\n      dup2\n      jump\t// out\n        /* \"contracts/DiamodSafe copy.sol\":13207:13490  function dailyEstimate(address _user) public view returns (uint256) {... */\n    tag_205:\n        /* \"contracts/DiamodSafe copy.sol\":13321:13329  dripRate */\n      sload(0x0d)\n        /* \"contracts/DiamodSafe copy.sol\":13301:13316  dripPoolBalance */\n      sload(0x0c)\n        /* \"contracts/DiamodSafe copy.sol\":13266:13273  uint256 */\n      0x00\n      swap2\n      dup3\n      swap2\n        /* \"contracts/DiamodSafe copy.sol\":13301:13339  dripPoolBalance.mul(dripRate).div(100) */\n      tag_364\n      swap2\n        /* \"contracts/DiamodSafe copy.sol\":13335:13338  100 */\n      0x64\n      swap2\n        /* \"contracts/DiamodSafe copy.sol\":13301:13330  dripPoolBalance.mul(dripRate) */\n      tag_365\n      swap2\n        /* \"contracts/DiamodSafe copy.sol\":13321:13329  dripRate */\n      0xff\n      and\n        /* \"contracts/DiamodSafe copy.sol\":13301:13320  dripPoolBalance.mul */\n      tag_226\n        /* \"contracts/DiamodSafe copy.sol\":13301:13330  dripPoolBalance.mul(dripRate) */\n      jump\t// in\n    tag_365:\n        /* \"contracts/DiamodSafe copy.sol\":13301:13334  dripPoolBalance.mul(dripRate).div */\n      swap1\n      tag_227\n        /* \"contracts/DiamodSafe copy.sol\":13301:13339  dripPoolBalance.mul(dripRate).div(100) */\n      jump\t// in\n    tag_364:\n        /* \"contracts/DiamodSafe copy.sol\":13285:13339  uint256 share = dripPoolBalance.mul(dripRate).div(100) */\n      swap1\n      pop\n        /* \"contracts/DiamodSafe copy.sol\":13390:13391  0 */\n      0x00\n        /* \"contracts/DiamodSafe copy.sol\":13369:13387  currentTotalStaked */\n      sload(0x11)\n        /* \"contracts/DiamodSafe copy.sol\":13369:13391  currentTotalStaked > 0 */\n      gt\n        /* \"contracts/DiamodSafe copy.sol\":13368:13483  (currentTotalStaked > 0)... */\n      tag_366\n      jumpi\n        /* \"contracts/DiamodSafe copy.sol\":13482:13483  0 */\n      0x00\n        /* \"contracts/DiamodSafe copy.sol\":13368:13483  (currentTotalStaked > 0)... */\n      jump(tag_305)\n    tag_366:\n        /* \"contracts/DiamodSafe copy.sol\":13444:13462  currentTotalStaked */\n      sload(0x11)\n      sub(shl(0xa0, 0x01), 0x01)\n        /* \"contracts/DiamodSafe copy.sol\":13421:13438  balanceOf_[_user] */\n      dup5\n      and\n      0x00\n      swap1\n      dup2\n      mstore\n        /* \"contracts/DiamodSafe copy.sol\":13421:13431  balanceOf_ */\n      0x14\n        /* \"contracts/DiamodSafe copy.sol\":13421:13438  balanceOf_[_user] */\n      0x20\n      mstore\n      0x40\n      swap1\n      keccak256\n      sload\n        /* \"contracts/DiamodSafe copy.sol\":13411:13463  share.mul(balanceOf_[_user]).div(currentTotalStaked) */\n      tag_305\n      swap2\n        /* \"contracts/DiamodSafe copy.sol\":13444:13462  currentTotalStaked */\n      swap1\n        /* \"contracts/DiamodSafe copy.sol\":13411:13439  share.mul(balanceOf_[_user]) */\n      tag_365\n      swap1\n        /* \"contracts/DiamodSafe copy.sol\":13411:13416  share */\n      dup5\n      swap1\n        /* \"contracts/DiamodSafe copy.sol\":13411:13420  share.mul */\n      tag_226\n        /* \"contracts/DiamodSafe copy.sol\":13411:13439  share.mul(balanceOf_[_user]) */\n      jump\t// in\n        /* \"contracts/DiamodSafe copy.sol\":6375:7217  function depositTo(address _user, uint _amount) public returns (uint256) {... */\n    tag_209:\n        /* \"contracts/DiamodSafe copy.sol\":6536:6548  stakingToken */\n      sload(0x02)\n        /* \"contracts/DiamodSafe copy.sol\":6536:6597  stakingToken.transferFrom(msg.sender, address(this), _amount) */\n      0x40\n      dup1\n      mload\n      shl(0xe0, 0x23b872dd)\n      dup2\n      mstore\n        /* \"contracts/DiamodSafe copy.sol\":6562:6572  msg.sender */\n      caller\n        /* \"contracts/DiamodSafe copy.sol\":6536:6597  stakingToken.transferFrom(msg.sender, address(this), _amount) */\n      0x04\n      dup3\n      add\n      mstore\n        /* \"contracts/DiamodSafe copy.sol\":6582:6586  this */\n      address\n        /* \"contracts/DiamodSafe copy.sol\":6536:6597  stakingToken.transferFrom(msg.sender, address(this), _amount) */\n      0x24\n      dup3\n      add\n      mstore\n      0x44\n      dup2\n      add\n      dup5\n      swap1\n      mstore\n      swap1\n      mload\n        /* \"contracts/DiamodSafe copy.sol\":6439:6446  uint256 */\n      0x00\n      swap3\n      sub(shl(0xa0, 0x01), 0x01)\n        /* \"contracts/DiamodSafe copy.sol\":6536:6548  stakingToken */\n      and\n      swap2\n        /* \"contracts/DiamodSafe copy.sol\":6536:6561  stakingToken.transferFrom */\n      0x23b872dd\n      swap2\n        /* \"contracts/DiamodSafe copy.sol\":6536:6597  stakingToken.transferFrom(msg.sender, address(this), _amount) */\n      0x64\n      dup1\n      dup4\n      add\n      swap3\n      0x20\n      swap3\n      swap2\n      swap1\n      dup3\n      swap1\n      sub\n      add\n      dup2\n        /* \"contracts/DiamodSafe copy.sol\":6439:6446  uint256 */\n      dup8\n        /* \"contracts/DiamodSafe copy.sol\":6536:6548  stakingToken */\n      dup8\n        /* \"contracts/DiamodSafe copy.sol\":6536:6597  stakingToken.transferFrom(msg.sender, address(this), _amount) */\n      dup1\n      extcodesize\n      iszero\n      dup1\n      iszero\n      tag_371\n      jumpi\n      0x00\n      dup1\n      revert\n    tag_371:\n      pop\n      gas\n      call\n      iszero\n      dup1\n      iszero\n      tag_373\n      jumpi\n      returndatasize\n      0x00\n      dup1\n      returndatacopy\n      revert(0x00, returndatasize)\n    tag_373:\n      pop\n      pop\n      pop\n      pop\n      mload(0x40)\n      returndatasize\n      0x20\n      dup2\n      lt\n      iszero\n      tag_374\n      jumpi\n      0x00\n      dup1\n      revert\n    tag_374:\n      pop\n      mload\n        /* \"contracts/DiamodSafe copy.sol\":6528:6598  require(stakingToken.transferFrom(msg.sender, address(this), _amount)) */\n      tag_375\n      jumpi\n      0x00\n      dup1\n      revert\n    tag_375:\n        /* \"contracts/DiamodSafe copy.sol\":6660:6673  totalDeposits */\n      0x0b\n        /* \"contracts/DiamodSafe copy.sol\":6660:6684  totalDeposits += _amount */\n      dup1\n      sload\n      dup4\n      add\n      swap1\n      sstore\n        /* \"contracts/DiamodSafe copy.sol\":6660:6673  totalDeposits */\n      0x00\n        /* \"contracts/DiamodSafe copy.sol\":6761:6791  _depositTokens(_user, _amount) */\n      tag_376\n        /* \"contracts/DiamodSafe copy.sol\":6776:6781  _user */\n      dup5\n        /* \"contracts/DiamodSafe copy.sol\":6677:6684  _amount */\n      dup5\n        /* \"contracts/DiamodSafe copy.sol\":6761:6775  _depositTokens */\n      tag_377\n        /* \"contracts/DiamodSafe copy.sol\":6761:6791  _depositTokens(_user, _amount) */\n      jump\t// in\n    tag_376:\n      sub(shl(0xa0, 0x01), 0x01)\n        /* \"contracts/DiamodSafe copy.sol\":6844:7023  onUpdate(... */\n      dup6\n      and\n        /* \"contracts/DiamodSafe copy.sol\":6885:6902  accountOf_[_user] */\n      0x00\n      dup2\n      dup2\n      mstore\n        /* \"contracts/DiamodSafe copy.sol\":6885:6895  accountOf_ */\n      0x15\n        /* \"contracts/DiamodSafe copy.sol\":6885:6902  accountOf_[_user] */\n      0x20\n      dup2\n      dup2\n      mstore\n      0x40\n      dup1\n      dup5\n      keccak256\n        /* \"contracts/DiamodSafe copy.sol\":6885:6912  accountOf_[_user].deposited */\n      dup1\n      sload\n        /* \"contracts/DiamodSafe copy.sol\":6926:6936  balanceOf_ */\n      0x14\n        /* \"contracts/DiamodSafe copy.sol\":6926:6943  balanceOf_[_user] */\n      dup5\n      mstore\n      swap5\n      dup3\n      swap1\n      keccak256\n      sload\n        /* \"contracts/DiamodSafe copy.sol\":6957:6974  accountOf_[_user] */\n      swap4\n      dup4\n      mstore\n        /* \"contracts/DiamodSafe copy.sol\":6957:6984  accountOf_[_user].withdrawn */\n      0x02\n      add\n      sload\n        /* \"contracts/DiamodSafe copy.sol\":6844:7023  onUpdate(... */\n      dup2\n      mload\n      swap5\n      dup6\n      mstore\n      swap2\n      dup5\n      add\n      swap3\n      swap1\n      swap3\n      mstore\n      dup3\n      dup3\n      add\n      mstore\n        /* \"contracts/DiamodSafe copy.sol\":6998:7013  block.timestamp */\n      timestamp\n        /* \"contracts/DiamodSafe copy.sol\":6844:7023  onUpdate(... */\n      0x60\n      dup4\n      add\n      mstore\n      mload\n        /* \"contracts/DiamodSafe copy.sol\":6747:6791  uint amount = _depositTokens(_user, _amount) */\n      swap3\n      swap4\n      pop\n        /* \"contracts/DiamodSafe copy.sol\":6844:7023  onUpdate(... */\n      swap1\n      swap2\n      0x00\n      dup1\n      mload\n      0x20\n      data_27cc9c295b15a532bb1b5f9308f1d54813e694c2ebdd1c2ced210bfe52dcd57e\n      dup4\n      codecopy\n      dup2\n      mload\n      swap2\n      mstore\n      swap2\n      dup2\n      swap1\n      sub\n      0x80\n      add\n      swap1\n      log2\n        /* \"contracts/DiamodSafe copy.sol\":7098:7110  distribute() */\n      tag_305\n        /* \"contracts/DiamodSafe copy.sol\":7098:7108  distribute */\n      tag_246\n        /* \"contracts/DiamodSafe copy.sol\":7098:7110  distribute() */\n      jump\t// in\n        /* \"contracts/DiamodSafe copy.sol\":10614:10713  function myEarnings() public view returns (uint256) {... */\n    tag_212:\n        /* \"contracts/DiamodSafe copy.sol\":10657:10664  uint256 */\n      0x00\n        /* \"contracts/DiamodSafe copy.sol\":10683:10706  dividendsOf(msg.sender) */\n      tag_300\n        /* \"contracts/DiamodSafe copy.sol\":10695:10705  msg.sender */\n      caller\n        /* \"contracts/DiamodSafe copy.sol\":10683:10694  dividendsOf */\n      tag_61\n        /* \"contracts/DiamodSafe copy.sol\":10683:10706  dividendsOf(msg.sender) */\n      jump\t// in\n        /* \"contracts/Address.sol\":726:1139  function isContract(address account) internal view returns (bool) {... */\n    tag_213:\n        /* \"contracts/Address.sol\":1086:1106  extcodesize(account) */\n      extcodesize\n        /* \"contracts/Address.sol\":1124:1132  size > 0 */\n      iszero\n      iszero\n      swap1\n        /* \"contracts/Address.sol\":726:1139  function isContract(address account) internal view returns (bool) {... */\n      jump\t// out\n        /* \"contracts/SafeMath.sol\":3538:3753  function mul(uint256 a, uint256 b) internal pure returns (uint256) {... */\n    tag_226:\n        /* \"contracts/SafeMath.sol\":3596:3603  uint256 */\n      0x00\n        /* \"contracts/SafeMath.sol\":3619:3625  a == 0 */\n      dup3\n        /* \"contracts/SafeMath.sol\":3615:3635  if (a == 0) return 0 */\n      tag_383\n      jumpi\n      pop\n        /* \"contracts/SafeMath.sol\":3634:3635  0 */\n      0x00\n        /* \"contracts/SafeMath.sol\":3627:3635  return 0 */\n      jump(tag_285)\n        /* \"contracts/SafeMath.sol\":3615:3635  if (a == 0) return 0 */\n    tag_383:\n        /* \"contracts/SafeMath.sol\":3657:3662  a * b */\n      dup3\n      dup3\n      mul\n        /* \"contracts/SafeMath.sol\":3661:3662  b */\n      dup3\n        /* \"contracts/SafeMath.sol\":3657:3658  a */\n      dup5\n        /* \"contracts/SafeMath.sol\":3657:3662  a * b */\n      dup3\n        /* \"contracts/SafeMath.sol\":3657:3658  a */\n      dup2\n        /* \"contracts/SafeMath.sol\":3680:3685  c / a */\n      tag_384\n      jumpi\n      invalid\n    tag_384:\n      div\n        /* \"contracts/SafeMath.sol\":3680:3690  c / a == b */\n      eq\n        /* \"contracts/SafeMath.sol\":3672:3728  require(c / a == b, \"SafeMath: multiplication overflow\") */\n      tag_305\n      jumpi\n      mload(0x40)\n      shl(0xe5, 0x461bcd)\n      dup2\n      mstore\n      0x04\n      add\n      dup1\n      dup1\n      0x20\n      add\n      dup3\n      dup2\n      sub\n      dup3\n      mstore\n      0x21\n      dup2\n      mstore\n      0x20\n      add\n      dup1\n      data_9113bb53c2876a3805b2c9242029423fc540a728243ce887ab24c82cf119fba3\n      0x21\n      swap2\n      codecopy\n      0x40\n      add\n      swap2\n      pop\n      pop\n      mload(0x40)\n      dup1\n      swap2\n      sub\n      swap1\n      revert\n        /* \"contracts/SafeMath.sol\":4217:4367  function div(uint256 a, uint256 b) internal pure returns (uint256) {... */\n    tag_227:\n        /* \"contracts/SafeMath.sol\":4275:4282  uint256 */\n      0x00\n        /* \"contracts/SafeMath.sol\":4306:4307  0 */\n      dup1\n        /* \"contracts/SafeMath.sol\":4302:4303  b */\n      dup3\n        /* \"contracts/SafeMath.sol\":4302:4307  b > 0 */\n      gt\n        /* \"contracts/SafeMath.sol\":4294:4338  require(b > 0, \"SafeMath: division by zero\") */\n      tag_387\n      jumpi\n      0x40\n      dup1\n      mload\n      shl(0xe5, 0x461bcd)\n      dup2\n      mstore\n      0x20\n      0x04\n      dup3\n      add\n      mstore\n      0x1a\n      0x24\n      dup3\n      add\n      mstore\n      0x536166654d6174683a206469766973696f6e206279207a65726f000000000000\n      0x44\n      dup3\n      add\n      mstore\n      swap1\n      mload\n      swap1\n      dup2\n      swap1\n      sub\n      0x64\n      add\n      swap1\n      revert\n    tag_387:\n        /* \"contracts/SafeMath.sol\":4359:4360  b */\n      dup2\n        /* \"contracts/SafeMath.sol\":4355:4356  a */\n      dup4\n        /* \"contracts/SafeMath.sol\":4355:4360  a / b */\n      dup2\n      tag_388\n      jumpi\n      invalid\n    tag_388:\n      div\n      swap4\n        /* \"contracts/SafeMath.sol\":4217:4367  function div(uint256 a, uint256 b) internal pure returns (uint256) {... */\n      swap3\n      pop\n      pop\n      pop\n      jump\t// out\n        /* \"contracts/SafeMath.sol\":3136:3291  function sub(uint256 a, uint256 b) internal pure returns (uint256) {... */\n    tag_229:\n        /* \"contracts/SafeMath.sol\":3194:3201  uint256 */\n      0x00\n        /* \"contracts/SafeMath.sol\":3226:3227  a */\n      dup3\n        /* \"contracts/SafeMath.sol\":3221:3222  b */\n      dup3\n        /* \"contracts/SafeMath.sol\":3221:3227  b <= a */\n      gt\n      iszero\n        /* \"contracts/SafeMath.sol\":3213:3262  require(b <= a, \"SafeMath: subtraction overflow\") */\n      tag_390\n      jumpi\n      0x40\n      dup1\n      mload\n      shl(0xe5, 0x461bcd)\n      dup2\n      mstore\n      0x20\n      0x04\n      dup3\n      add\n      mstore\n      0x1e\n      0x24\n      dup3\n      add\n      mstore\n      0x536166654d6174683a207375627472616374696f6e206f766572666c6f770000\n      0x44\n      dup3\n      add\n      mstore\n      swap1\n      mload\n      swap1\n      dup2\n      swap1\n      sub\n      0x64\n      add\n      swap1\n      revert\n    tag_390:\n      pop\n        /* \"contracts/SafeMath.sol\":3279:3284  a - b */\n      swap1\n      sub\n      swap1\n        /* \"contracts/SafeMath.sol\":3136:3291  function sub(uint256 a, uint256 b) internal pure returns (uint256) {... */\n      jump\t// out\n        /* \"contracts/DiamodSafe copy.sol\":14777:15514  function allocateFees(uint fee) private {... */\n    tag_244:\n        /* \"contracts/DiamodSafe copy.sol\":14827:14844  uint256 _onePiece */\n      0x00\n        /* \"contracts/DiamodSafe copy.sol\":14847:14858  fee.div(10) */\n      tag_392\n        /* \"contracts/DiamodSafe copy.sol\":14847:14850  fee */\n      dup3\n        /* \"contracts/DiamodSafe copy.sol\":14855:14857  10 */\n      0x0a\n        /* \"contracts/DiamodSafe copy.sol\":14847:14854  fee.div */\n      tag_227\n        /* \"contracts/DiamodSafe copy.sol\":14847:14858  fee.div(10) */\n      jump\t// in\n    tag_392:\n        /* \"contracts/DiamodSafe copy.sol\":14827:14858  uint256 _onePiece = fee.div(10) */\n      swap1\n      pop\n        /* \"contracts/DiamodSafe copy.sol\":14869:14885  uint256 _forPool */\n      0x00\n        /* \"contracts/DiamodSafe copy.sol\":14889:14911  _onePiece.mul(forPool) */\n      tag_393\n        /* \"contracts/DiamodSafe copy.sol\":14903:14910  forPool */\n      sload(0x0e)\n        /* \"contracts/DiamodSafe copy.sol\":14889:14898  _onePiece */\n      dup4\n        /* \"contracts/DiamodSafe copy.sol\":14889:14902  _onePiece.mul */\n      tag_226\n      swap1\n        /* \"contracts/DiamodSafe copy.sol\":14889:14911  _onePiece.mul(forPool) */\n      swap2\n      swap1\n      0xffffffff\n      and\n      jump\t// in\n    tag_393:\n        /* \"contracts/DiamodSafe copy.sol\":14869:14912  uint256 _forPool = (_onePiece.mul(forPool)) */\n      swap1\n      pop\n        /* \"contracts/DiamodSafe copy.sol\":14943:14959  uint256 _forDivs */\n      0x00\n        /* \"contracts/DiamodSafe copy.sol\":14963:14985  _onePiece.mul(forDivs) */\n      tag_394\n        /* \"contracts/DiamodSafe copy.sol\":14977:14984  forDivs */\n      sload(0x0f)\n        /* \"contracts/DiamodSafe copy.sol\":14963:14972  _onePiece */\n      dup5\n        /* \"contracts/DiamodSafe copy.sol\":14963:14976  _onePiece.mul */\n      tag_226\n      swap1\n        /* \"contracts/DiamodSafe copy.sol\":14963:14985  _onePiece.mul(forDivs) */\n      swap2\n      swap1\n      0xffffffff\n      and\n      jump\t// in\n    tag_394:\n        /* \"contracts/DiamodSafe copy.sol\":15035:15050  dripPoolBalance */\n      sload(0x0c)\n        /* \"contracts/DiamodSafe copy.sol\":14943:14986  uint256 _forDivs = (_onePiece.mul(forDivs)) */\n      swap1\n      swap2\n      pop\n        /* \"contracts/DiamodSafe copy.sol\":15035:15064  dripPoolBalance.add(_forPool) */\n      tag_395\n      swap1\n        /* \"contracts/DiamodSafe copy.sol\":15055:15063  _forPool */\n      dup4\n        /* \"contracts/DiamodSafe copy.sol\":15035:15054  dripPoolBalance.add */\n      tag_268\n        /* \"contracts/DiamodSafe copy.sol\":15035:15064  dripPoolBalance.add(_forPool) */\n      jump\t// in\n    tag_395:\n        /* \"contracts/DiamodSafe copy.sol\":15017:15032  dripPoolBalance */\n      0x0c\n        /* \"contracts/DiamodSafe copy.sol\":15017:15064  dripPoolBalance = dripPoolBalance.add(_forPool) */\n      sstore\n        /* \"contracts/DiamodSafe copy.sol\":15143:15161  currentTotalStaked */\n      sload(0x11)\n        /* \"contracts/DiamodSafe copy.sol\":15143:15165  currentTotalStaked > 0 */\n      iszero\n        /* \"contracts/DiamodSafe copy.sol\":15139:15508  if (currentTotalStaked > 0) {... */\n      tag_396\n      jumpi\n        /* \"contracts/DiamodSafe copy.sol\":15247:15367  SafeMath.add(... */\n      tag_397\n        /* \"contracts/DiamodSafe copy.sol\":15277:15292  profitPerShare_ */\n      sload(0x12)\n        /* \"contracts/DiamodSafe copy.sol\":15335:15353  currentTotalStaked */\n      sload(0x11)\n      shl(0x40, 0x01)\n        /* \"contracts/DiamodSafe copy.sol\":15311:15319  _forDivs */\n      dup5\n        /* \"contracts/DiamodSafe copy.sol\":15311:15331  _forDivs * magnitude */\n      mul\n        /* \"contracts/DiamodSafe copy.sol\":15310:15353  (_forDivs * magnitude) / currentTotalStaked */\n      dup2\n      tag_398\n      jumpi\n      invalid\n    tag_398:\n      div\n        /* \"contracts/DiamodSafe copy.sol\":15247:15259  SafeMath.add */\n      tag_268\n        /* \"contracts/DiamodSafe copy.sol\":15247:15367  SafeMath.add(... */\n      jump\t// in\n    tag_397:\n        /* \"contracts/DiamodSafe copy.sol\":15229:15244  profitPerShare_ */\n      0x12\n        /* \"contracts/DiamodSafe copy.sol\":15229:15367  profitPerShare_ = SafeMath.add(... */\n      sstore\n        /* \"contracts/DiamodSafe copy.sol\":15139:15508  if (currentTotalStaked > 0) {... */\n      jump(tag_399)\n    tag_396:\n        /* \"contracts/DiamodSafe copy.sol\":15470:15485  dripPoolBalance */\n      0x0c\n        /* \"contracts/DiamodSafe copy.sol\":15470:15497  dripPoolBalance += _forDivs */\n      dup1\n      sload\n      dup3\n      add\n      swap1\n      sstore\n        /* \"contracts/DiamodSafe copy.sol\":15139:15508  if (currentTotalStaked > 0) {... */\n    tag_399:\n        /* \"contracts/DiamodSafe copy.sol\":14777:15514  function allocateFees(uint fee) private {... */\n      pop\n      pop\n      pop\n      pop\n      jump\t// out\n        /* \"contracts/DiamodSafe copy.sol\":15555:16797  function distribute() private {... */\n    tag_246:\n        /* \"contracts/DiamodSafe copy.sol\":15728:15742  lastRebaseTime */\n      sload(0x10)\n        /* \"contracts/DiamodSafe copy.sol\":15621:15636  block.timestamp */\n      timestamp\n      swap1\n        /* \"contracts/DiamodSafe copy.sol\":1628:1635  6 hours */\n      0x5460\n      swap1\n        /* \"contracts/DiamodSafe copy.sol\":15702:15743  _currentTimestamp.safeSub(lastRebaseTime) */\n      tag_401\n      swap1\n        /* \"contracts/DiamodSafe copy.sol\":15621:15636  block.timestamp */\n      dup4\n      swap1\n        /* \"contracts/DiamodSafe copy.sol\":15702:15727  _currentTimestamp.safeSub */\n      tag_402\n        /* \"contracts/DiamodSafe copy.sol\":15702:15743  _currentTimestamp.safeSub(lastRebaseTime) */\n      jump\t// in\n    tag_401:\n        /* \"contracts/DiamodSafe copy.sol\":15702:15761  _currentTimestamp.safeSub(lastRebaseTime) > rebaseFrequency */\n      gt\n        /* \"contracts/DiamodSafe copy.sol\":15698:15976  if (_currentTimestamp.safeSub(lastRebaseTime) > rebaseFrequency) {... */\n      iszero\n      tag_403\n      jumpi\n        /* \"contracts/DiamodSafe copy.sol\":15817:15860  onRebase(totalBalance(), _currentTimestamp) */\n      0x2cfce469a63f2e9972b7f23da751e6943ed2b091c10e40b5c43b5f6105bf20ea\n        /* \"contracts/DiamodSafe copy.sol\":15826:15840  totalBalance() */\n      tag_404\n        /* \"contracts/DiamodSafe copy.sol\":15826:15838  totalBalance */\n      tag_149\n        /* \"contracts/DiamodSafe copy.sol\":15826:15840  totalBalance() */\n      jump\t// in\n    tag_404:\n        /* \"contracts/DiamodSafe copy.sol\":15817:15860  onRebase(totalBalance(), _currentTimestamp) */\n      0x40\n      dup1\n      mload\n      swap2\n      dup3\n      mstore\n      0x20\n      dup3\n      add\n      dup5\n      swap1\n      mstore\n      dup1\n      mload\n      swap2\n      dup3\n      swap1\n      sub\n      add\n      swap1\n      log1\n        /* \"contracts/DiamodSafe copy.sol\":15931:15945  lastRebaseTime */\n      0x10\n        /* \"contracts/DiamodSafe copy.sol\":15931:15965  lastRebaseTime = _currentTimestamp */\n      dup2\n      swap1\n      sstore\n        /* \"contracts/DiamodSafe copy.sol\":15698:15976  if (_currentTimestamp.safeSub(lastRebaseTime) > rebaseFrequency) {... */\n    tag_403:\n        /* \"contracts/DiamodSafe copy.sol\":1683:1692  2 seconds */\n      0x02\n        /* \"contracts/DiamodSafe copy.sol\":16048:16095  SafeMath.safeSub(_currentTimestamp, lastPayout) */\n      tag_405\n        /* \"contracts/DiamodSafe copy.sol\":16065:16082  _currentTimestamp */\n      dup3\n        /* \"contracts/DiamodSafe copy.sol\":16084:16094  lastPayout */\n      sload(0x09)\n        /* \"contracts/DiamodSafe copy.sol\":16048:16064  SafeMath.safeSub */\n      tag_402\n        /* \"contracts/DiamodSafe copy.sol\":16048:16095  SafeMath.safeSub(_currentTimestamp, lastPayout) */\n      jump\t// in\n    tag_405:\n        /* \"contracts/DiamodSafe copy.sol\":16048:16113  SafeMath.safeSub(_currentTimestamp, lastPayout) > payoutFrequency */\n      gt\n        /* \"contracts/DiamodSafe copy.sol\":16048:16151  SafeMath.safeSub(_currentTimestamp, lastPayout) > payoutFrequency &&... */\n      dup1\n      iszero\n      tag_406\n      jumpi\n      pop\n        /* \"contracts/DiamodSafe copy.sol\":16150:16151  0 */\n      0x00\n        /* \"contracts/DiamodSafe copy.sol\":16129:16147  currentTotalStaked */\n      sload(0x11)\n        /* \"contracts/DiamodSafe copy.sol\":16129:16151  currentTotalStaked > 0 */\n      gt\n        /* \"contracts/DiamodSafe copy.sol\":16048:16151  SafeMath.safeSub(_currentTimestamp, lastPayout) > payoutFrequency &&... */\n    tag_406:\n        /* \"contracts/DiamodSafe copy.sol\":16031:16791  if (... */\n      iszero\n      tag_337\n      jumpi\n        /* \"contracts/DiamodSafe copy.sol\":16259:16267  dripRate */\n      sload(0x0d)\n        /* \"contracts/DiamodSafe copy.sol\":16239:16254  dripPoolBalance */\n      sload(0x0c)\n        /* \"contracts/DiamodSafe copy.sol\":16223:16236  uint256 share */\n      0x00\n      swap2\n        /* \"contracts/DiamodSafe copy.sol\":16239:16321  dripPoolBalance.mul(dripRate).div(100).div(... */\n      tag_408\n      swap2\n        /* \"contracts/DiamodSafe copy.sol\":16299:16307  24 hours */\n      0x015180\n      swap2\n        /* \"contracts/DiamodSafe copy.sol\":16239:16277  dripPoolBalance.mul(dripRate).div(100) */\n      tag_365\n      swap2\n        /* \"contracts/DiamodSafe copy.sol\":16273:16276  100 */\n      0x64\n      swap2\n        /* \"contracts/DiamodSafe copy.sol\":16239:16277  dripPoolBalance.mul(dripRate).div(100) */\n      dup4\n      swap2\n        /* \"contracts/DiamodSafe copy.sol\":16239:16254  dripPoolBalance */\n      swap1\n        /* \"contracts/DiamodSafe copy.sol\":16259:16267  dripRate */\n      0xff\n      and\n        /* \"contracts/DiamodSafe copy.sol\":16239:16258  dripPoolBalance.mul */\n      tag_226\n        /* \"contracts/DiamodSafe copy.sol\":16239:16268  dripPoolBalance.mul(dripRate) */\n      jump\t// in\n        /* \"contracts/DiamodSafe copy.sol\":16239:16321  dripPoolBalance.mul(dripRate).div(100).div(... */\n    tag_408:\n        /* \"contracts/DiamodSafe copy.sol\":16223:16321  uint256 share = dripPoolBalance.mul(dripRate).div(100).div(... */\n      swap1\n      pop\n        /* \"contracts/DiamodSafe copy.sol\":16335:16349  uint256 profit */\n      0x00\n        /* \"contracts/DiamodSafe copy.sol\":16360:16397  _currentTimestamp.safeSub(lastPayout) */\n      tag_411\n        /* \"contracts/DiamodSafe copy.sol\":16386:16396  lastPayout */\n      sload(0x09)\n        /* \"contracts/DiamodSafe copy.sol\":16360:16377  _currentTimestamp */\n      dup5\n        /* \"contracts/DiamodSafe copy.sol\":16360:16385  _currentTimestamp.safeSub */\n      tag_402\n      swap1\n        /* \"contracts/DiamodSafe copy.sol\":16360:16397  _currentTimestamp.safeSub(lastPayout) */\n      swap2\n      swap1\n      0xffffffff\n      and\n      jump\t// in\n    tag_411:\n        /* \"contracts/DiamodSafe copy.sol\":16506:16521  dripPoolBalance */\n      sload(0x0c)\n        /* \"contracts/DiamodSafe copy.sol\":16352:16397  share * _currentTimestamp.safeSub(lastPayout) */\n      swap1\n      dup4\n      mul\n      swap2\n      pop\n        /* \"contracts/DiamodSafe copy.sol\":16506:16537  dripPoolBalance.safeSub(profit) */\n      tag_412\n      swap1\n        /* \"contracts/DiamodSafe copy.sol\":16352:16397  share * _currentTimestamp.safeSub(lastPayout) */\n      dup3\n        /* \"contracts/DiamodSafe copy.sol\":16506:16529  dripPoolBalance.safeSub */\n      tag_402\n        /* \"contracts/DiamodSafe copy.sol\":16506:16537  dripPoolBalance.safeSub(profit) */\n      jump\t// in\n    tag_412:\n        /* \"contracts/DiamodSafe copy.sol\":16488:16503  dripPoolBalance */\n      0x0c\n        /* \"contracts/DiamodSafe copy.sol\":16488:16537  dripPoolBalance = dripPoolBalance.safeSub(profit) */\n      sstore\n        /* \"contracts/DiamodSafe copy.sol\":16599:16614  profitPerShare_ */\n      sload(0x12)\n        /* \"contracts/DiamodSafe copy.sol\":16655:16673  currentTotalStaked */\n      sload(0x11)\n        /* \"contracts/DiamodSafe copy.sol\":16569:16687  SafeMath.add(... */\n      tag_413\n      swap2\n        /* \"contracts/DiamodSafe copy.sol\":16599:16614  profitPerShare_ */\n      swap1\n      shl(0x40, 0x01)\n        /* \"contracts/DiamodSafe copy.sol\":16633:16651  profit * magnitude */\n      dup5\n      mul\n        /* \"contracts/DiamodSafe copy.sol\":16655:16673  currentTotalStaked */\n      dup2\n        /* \"contracts/DiamodSafe copy.sol\":16632:16673  (profit * magnitude) / currentTotalStaked */\n      tag_398\n      jumpi\n      invalid\n        /* \"contracts/DiamodSafe copy.sol\":16569:16687  SafeMath.add(... */\n    tag_413:\n        /* \"contracts/DiamodSafe copy.sol\":16551:16566  profitPerShare_ */\n      0x12\n        /* \"contracts/DiamodSafe copy.sol\":16551:16687  profitPerShare_ = SafeMath.add(... */\n      sstore\n      pop\n      pop\n        /* \"contracts/DiamodSafe copy.sol\":16750:16760  lastPayout */\n      0x09\n        /* \"contracts/DiamodSafe copy.sol\":16750:16780  lastPayout = _currentTimestamp */\n      sstore\n        /* \"contracts/DiamodSafe copy.sol\":15555:16797  function distribute() private {... */\n      jump\t// out\n        /* \"contracts/SafeMath.sol\":2690:2865  function add(uint256 a, uint256 b) internal pure returns (uint256) {... */\n    tag_268:\n        /* \"contracts/SafeMath.sol\":2748:2755  uint256 */\n      0x00\n        /* \"contracts/SafeMath.sol\":2779:2784  a + b */\n      dup3\n      dup3\n      add\n        /* \"contracts/SafeMath.sol\":2802:2808  c >= a */\n      dup4\n      dup2\n      lt\n      iszero\n        /* \"contracts/SafeMath.sol\":2794:2840  require(c >= a, \"SafeMath: addition overflow\") */\n      tag_305\n      jumpi\n      0x40\n      dup1\n      mload\n      shl(0xe5, 0x461bcd)\n      dup2\n      mstore\n      0x20\n      0x04\n      dup3\n      add\n      mstore\n      0x1b\n      0x24\n      dup3\n      add\n      mstore\n      0x536166654d6174683a206164646974696f6e206f766572666c6f770000000000\n      0x44\n      dup3\n      add\n      mstore\n      swap1\n      mload\n      swap1\n      dup2\n      swap1\n      sub\n      0x64\n      add\n      swap1\n      revert\n        /* \"contracts/Context.sol\":598:702  function _msgSender() internal view virtual returns (address payable) {... */\n    tag_277:\n        /* \"contracts/Context.sol\":685:695  msg.sender */\n      caller\n        /* \"contracts/Context.sol\":598:702  function _msgSender() internal view virtual returns (address payable) {... */\n      swap1\n      jump\t// out\n        /* \"contracts/DiamodSafe copy.sol\":19684:21653  function _transferTokens(... */\n    tag_306:\n        /* \"contracts/DiamodSafe copy.sol\":19829:19839  msg.sender */\n      caller\n        /* \"contracts/DiamodSafe copy.sol\":19786:19799  bool _success */\n      0x00\n        /* \"contracts/DiamodSafe copy.sol\":19868:19887  balanceOf_[_sender] */\n      dup2\n      dup2\n      mstore\n        /* \"contracts/DiamodSafe copy.sol\":19868:19878  balanceOf_ */\n      0x14\n        /* \"contracts/DiamodSafe copy.sol\":19868:19887  balanceOf_[_sender] */\n      0x20\n      mstore\n      0x40\n      dup2\n      keccak256\n      sload\n        /* \"contracts/DiamodSafe copy.sol\":19786:19799  bool _success */\n      swap1\n      swap2\n        /* \"contracts/DiamodSafe copy.sol\":19829:19839  msg.sender */\n      swap1\n        /* \"contracts/DiamodSafe copy.sol\":19857:19887  _amount <= balanceOf_[_sender] */\n      dup4\n      gt\n      iszero\n        /* \"contracts/DiamodSafe copy.sol\":19849:19888  require(_amount <= balanceOf_[_sender]) */\n      tag_419\n      jumpi\n      0x00\n      dup1\n      revert\n    tag_419:\n        /* \"contracts/DiamodSafe copy.sol\":20003:20004  0 */\n      0x00\n        /* \"contracts/DiamodSafe copy.sol\":19988:20000  myEarnings() */\n      tag_420\n        /* \"contracts/DiamodSafe copy.sol\":19988:19998  myEarnings */\n      tag_212\n        /* \"contracts/DiamodSafe copy.sol\":19988:20000  myEarnings() */\n      jump\t// in\n    tag_420:\n        /* \"contracts/DiamodSafe copy.sol\":19988:20004  myEarnings() > 0 */\n      gt\n        /* \"contracts/DiamodSafe copy.sol\":19984:20040  if (myEarnings() > 0) {... */\n      iszero\n      tag_422\n      jumpi\n        /* \"contracts/DiamodSafe copy.sol\":20020:20029  harvest() */\n      tag_422\n        /* \"contracts/DiamodSafe copy.sol\":20020:20027  harvest */\n      tag_91\n        /* \"contracts/DiamodSafe copy.sol\":20020:20029  harvest() */\n      jump\t// in\n    tag_422:\n      sub(shl(0xa0, 0x01), 0x01)\n        /* \"contracts/DiamodSafe copy.sol\":20117:20136  balanceOf_[_sender] */\n      dup2\n      and\n      0x00\n      swap1\n      dup2\n      mstore\n        /* \"contracts/DiamodSafe copy.sol\":20117:20127  balanceOf_ */\n      0x14\n        /* \"contracts/DiamodSafe copy.sol\":20117:20136  balanceOf_[_sender] */\n      0x20\n      mstore\n      0x40\n      swap1\n      keccak256\n      sload\n        /* \"contracts/DiamodSafe copy.sol\":20104:20146  SafeMath.sub(balanceOf_[_sender], _amount) */\n      tag_423\n      swap1\n        /* \"contracts/DiamodSafe copy.sol\":20138:20145  _amount */\n      dup5\n        /* \"contracts/DiamodSafe copy.sol\":20104:20116  SafeMath.sub */\n      tag_229\n        /* \"contracts/DiamodSafe copy.sol\":20104:20146  SafeMath.sub(balanceOf_[_sender], _amount) */\n      jump\t// in\n    tag_423:\n      sub(shl(0xa0, 0x01), 0x01)\n        /* \"contracts/DiamodSafe copy.sol\":20082:20101  balanceOf_[_sender] */\n      dup1\n      dup4\n      and\n      0x00\n      swap1\n      dup2\n      mstore\n        /* \"contracts/DiamodSafe copy.sol\":20082:20092  balanceOf_ */\n      0x14\n        /* \"contracts/DiamodSafe copy.sol\":20082:20101  balanceOf_[_sender] */\n      0x20\n      mstore\n      0x40\n      dup1\n      dup3\n      keccak256\n        /* \"contracts/DiamodSafe copy.sol\":20082:20146  balanceOf_[_sender] = SafeMath.sub(balanceOf_[_sender], _amount) */\n      swap4\n      swap1\n      swap4\n      sstore\n        /* \"contracts/DiamodSafe copy.sol\":20194:20216  balanceOf_[_recipient] */\n      swap1\n      dup7\n      and\n      dup2\n      mstore\n      keccak256\n      sload\n        /* \"contracts/DiamodSafe copy.sol\":20181:20226  SafeMath.add(balanceOf_[_recipient], _amount) */\n      tag_424\n      swap1\n        /* \"contracts/DiamodSafe copy.sol\":20218:20225  _amount */\n      dup5\n        /* \"contracts/DiamodSafe copy.sol\":20181:20193  SafeMath.add */\n      tag_268\n        /* \"contracts/DiamodSafe copy.sol\":20181:20226  SafeMath.add(balanceOf_[_recipient], _amount) */\n      jump\t// in\n    tag_424:\n      sub(shl(0xa0, 0x01), 0x01)\n        /* \"contracts/DiamodSafe copy.sol\":20156:20178  balanceOf_[_recipient] */\n      dup6\n      dup2\n      and\n      0x00\n      dup2\n      dup2\n      mstore\n        /* \"contracts/DiamodSafe copy.sol\":20156:20166  balanceOf_ */\n      0x14\n        /* \"contracts/DiamodSafe copy.sol\":20156:20178  balanceOf_[_recipient] */\n      0x20\n      swap1\n      dup2\n      mstore\n      0x40\n      dup1\n      dup4\n      keccak256\n        /* \"contracts/DiamodSafe copy.sol\":20156:20226  balanceOf_[_recipient] = SafeMath.add(balanceOf_[_recipient], _amount) */\n      swap6\n      swap1\n      swap6\n      sstore\n        /* \"contracts/DiamodSafe copy.sol\":20330:20345  profitPerShare_ */\n      0x12\n      dup1\n      sload\n        /* \"contracts/DiamodSafe copy.sol\":20298:20317  payoutsOf_[_sender] */\n      swap5\n      dup8\n      and\n      dup4\n      mstore\n        /* \"contracts/DiamodSafe copy.sol\":20298:20308  payoutsOf_ */\n      0x13\n        /* \"contracts/DiamodSafe copy.sol\":20298:20317  payoutsOf_[_sender] */\n      dup3\n      mstore\n      dup6\n      dup4\n      keccak256\n        /* \"contracts/DiamodSafe copy.sol\":20298:20356  payoutsOf_[_sender] -= (int256)(profitPerShare_ * _amount) */\n      dup1\n      sload\n        /* \"contracts/DiamodSafe copy.sol\":20330:20355  profitPerShare_ * _amount */\n      swap6\n      dup11\n      mul\n        /* \"contracts/DiamodSafe copy.sol\":20298:20356  payoutsOf_[_sender] -= (int256)(profitPerShare_ * _amount) */\n      swap1\n      swap6\n      sub\n      swap1\n      swap5\n      sstore\n        /* \"contracts/DiamodSafe copy.sol\":20401:20416  profitPerShare_ */\n      swap3\n      sload\n        /* \"contracts/DiamodSafe copy.sol\":20366:20388  payoutsOf_[_recipient] */\n      swap2\n      dup2\n      mstore\n      dup4\n      dup2\n      keccak256\n        /* \"contracts/DiamodSafe copy.sol\":20366:20427  payoutsOf_[_recipient] += (int256)(profitPerShare_ * _amount) */\n      dup1\n      sload\n        /* \"contracts/DiamodSafe copy.sol\":20401:20426  profitPerShare_ * _amount */\n      swap3\n      dup9\n      mul\n        /* \"contracts/DiamodSafe copy.sol\":20366:20427  payoutsOf_[_recipient] += (int256)(profitPerShare_ * _amount) */\n      swap1\n      swap3\n      add\n      swap1\n      swap2\n      sstore\n        /* \"contracts/DiamodSafe copy.sol\":20530:20540  accountOf_ */\n      0x15\n        /* \"contracts/DiamodSafe copy.sol\":20530:20552  accountOf_[_recipient] */\n      swap1\n      swap2\n      mstore\n      keccak256\n        /* \"contracts/DiamodSafe copy.sol\":20530:20562  accountOf_[_recipient].deposited */\n      sload\n        /* \"contracts/DiamodSafe copy.sol\":20530:20567  accountOf_[_recipient].deposited == 0 */\n      iszero\n        /* \"contracts/DiamodSafe copy.sol\":20530:20625  accountOf_[_recipient].deposited == 0 &&... */\n      dup1\n      iszero\n      tag_425\n      jumpi\n      pop\n      sub(shl(0xa0, 0x01), 0x01)\n        /* \"contracts/DiamodSafe copy.sol\":20583:20605  accountOf_[_recipient] */\n      dup5\n      and\n      0x00\n      swap1\n      dup2\n      mstore\n        /* \"contracts/DiamodSafe copy.sol\":20583:20593  accountOf_ */\n      0x15\n        /* \"contracts/DiamodSafe copy.sol\":20583:20605  accountOf_[_recipient] */\n      0x20\n      mstore\n      0x40\n      swap1\n      keccak256\n        /* \"contracts/DiamodSafe copy.sol\":20583:20620  accountOf_[_recipient].receivedShares */\n      0x07\n      add\n      sload\n        /* \"contracts/DiamodSafe copy.sol\":20583:20625  accountOf_[_recipient].receivedShares == 0 */\n      iszero\n        /* \"contracts/DiamodSafe copy.sol\":20530:20625  accountOf_[_recipient].deposited == 0 &&... */\n    tag_425:\n        /* \"contracts/DiamodSafe copy.sol\":20513:20671  if (... */\n      iszero\n      tag_426\n      jumpi\n        /* \"contracts/DiamodSafe copy.sol\":20650:20655  users */\n      0x07\n        /* \"contracts/DiamodSafe copy.sol\":20650:20660  users += 1 */\n      dup1\n      sload\n        /* \"contracts/DiamodSafe copy.sol\":20659:20660  1 */\n      0x01\n        /* \"contracts/DiamodSafe copy.sol\":20650:20660  users += 1 */\n      add\n      swap1\n      sstore\n        /* \"contracts/DiamodSafe copy.sol\":20513:20671  if (... */\n    tag_426:\n      sub(shl(0xa0, 0x01), 0x01)\n        /* \"contracts/DiamodSafe copy.sol\":20707:20726  accountOf_[_sender] */\n      dup1\n      dup3\n      and\n      0x00\n      dup2\n      dup2\n      mstore\n        /* \"contracts/DiamodSafe copy.sol\":20707:20717  accountOf_ */\n      0x15\n        /* \"contracts/DiamodSafe copy.sol\":20707:20726  accountOf_[_sender] */\n      0x20\n      swap1\n      dup2\n      mstore\n      0x40\n      dup1\n      dup4\n      keccak256\n        /* \"contracts/DiamodSafe copy.sol\":20707:20745  accountOf_[_sender].xTransferredShares */\n      0x0d\n      dup2\n      add\n        /* \"contracts/DiamodSafe copy.sol\":20707:20750  accountOf_[_sender].xTransferredShares += 1 */\n      dup1\n      sload\n        /* \"contracts/DiamodSafe copy.sol\":20749:20750  1 */\n      0x01\n        /* \"contracts/DiamodSafe copy.sol\":20707:20750  accountOf_[_sender].xTransferredShares += 1 */\n      swap1\n      dup2\n      add\n      swap1\n      swap2\n      sstore\n        /* \"contracts/DiamodSafe copy.sol\":20760:20797  accountOf_[_sender].transferredShares */\n      0x06\n      swap1\n      swap2\n      add\n        /* \"contracts/DiamodSafe copy.sol\":20760:20808  accountOf_[_sender].transferredShares += _amount */\n      dup1\n      sload\n      dup11\n      add\n      swap1\n      sstore\n        /* \"contracts/DiamodSafe copy.sol\":20818:20840  accountOf_[_recipient] */\n      swap5\n      dup10\n      and\n      dup1\n      dup5\n      mstore\n      swap3\n      dup2\n      swap1\n      keccak256\n      0x07\n        /* \"contracts/DiamodSafe copy.sol\":20818:20855  accountOf_[_recipient].receivedShares */\n      dup2\n      add\n        /* \"contracts/DiamodSafe copy.sol\":20818:20866  accountOf_[_recipient].receivedShares += _amount */\n      dup1\n      sload\n      dup11\n      add\n      swap1\n      sstore\n        /* \"contracts/DiamodSafe copy.sol\":20876:20914  accountOf_[_recipient].xReceivedShares */\n      0x0e\n      add\n        /* \"contracts/DiamodSafe copy.sol\":20876:20919  accountOf_[_recipient].xReceivedShares += 1 */\n      dup1\n      sload\n      dup7\n      add\n      swap1\n      sstore\n        /* \"contracts/DiamodSafe copy.sol\":20971:20979  totalTxs */\n      0x08\n        /* \"contracts/DiamodSafe copy.sol\":20971:20984  totalTxs += 1 */\n      dup1\n      sload\n      swap1\n      swap6\n      add\n      swap1\n      swap5\n      sstore\n        /* \"contracts/DiamodSafe copy.sol\":21050:21107  onTransfer(_sender, _recipient, _amount, block.timestamp) */\n      dup4\n      mload\n      dup8\n      dup2\n      mstore\n        /* \"contracts/DiamodSafe copy.sol\":21091:21106  block.timestamp */\n      timestamp\n        /* \"contracts/DiamodSafe copy.sol\":21050:21107  onTransfer(_sender, _recipient, _amount, block.timestamp) */\n      swap2\n      dup2\n      add\n      swap2\n      swap1\n      swap2\n      mstore\n      dup4\n      mload\n        /* \"contracts/DiamodSafe copy.sol\":20818:20840  accountOf_[_recipient] */\n      swap2\n      swap4\n        /* \"contracts/DiamodSafe copy.sol\":21050:21107  onTransfer(_sender, _recipient, _amount, block.timestamp) */\n      0x91c7d71a3ae3fb7cf61e00517bf4868e9e23d0bace5e304cbc3b68de5d85350e\n      swap3\n      swap2\n      dup3\n      swap1\n      sub\n      add\n      swap1\n      log3\n      sub(shl(0xa0, 0x01), 0x01)\n        /* \"contracts/DiamodSafe copy.sol\":21171:21358  onUpdate(... */\n      dup2\n      and\n        /* \"contracts/DiamodSafe copy.sol\":21214:21233  accountOf_[_sender] */\n      0x00\n      dup2\n      dup2\n      mstore\n        /* \"contracts/DiamodSafe copy.sol\":21214:21224  accountOf_ */\n      0x15\n        /* \"contracts/DiamodSafe copy.sol\":21214:21233  accountOf_[_sender] */\n      0x20\n      dup2\n      dup2\n      mstore\n      0x40\n      dup1\n      dup5\n      keccak256\n        /* \"contracts/DiamodSafe copy.sol\":21214:21243  accountOf_[_sender].deposited */\n      dup1\n      sload\n        /* \"contracts/DiamodSafe copy.sol\":21257:21267  balanceOf_ */\n      0x14\n        /* \"contracts/DiamodSafe copy.sol\":21257:21276  balanceOf_[_sender] */\n      dup5\n      mstore\n      swap5\n      dup3\n      swap1\n      keccak256\n      sload\n        /* \"contracts/DiamodSafe copy.sol\":21290:21309  accountOf_[_sender] */\n      swap4\n      dup4\n      mstore\n        /* \"contracts/DiamodSafe copy.sol\":21290:21319  accountOf_[_sender].withdrawn */\n      0x02\n      add\n      sload\n        /* \"contracts/DiamodSafe copy.sol\":21171:21358  onUpdate(... */\n      dup2\n      mload\n      swap5\n      dup6\n      mstore\n      swap2\n      dup5\n      add\n      swap3\n      swap1\n      swap3\n      mstore\n      dup3\n      dup3\n      add\n      mstore\n        /* \"contracts/DiamodSafe copy.sol\":21333:21348  block.timestamp */\n      timestamp\n        /* \"contracts/DiamodSafe copy.sol\":21171:21358  onUpdate(... */\n      0x60\n      dup4\n      add\n      mstore\n      mload\n      0x00\n      dup1\n      mload\n      0x20\n      data_27cc9c295b15a532bb1b5f9308f1d54813e694c2ebdd1c2ced210bfe52dcd57e\n      dup4\n      codecopy\n      dup2\n      mload\n      swap2\n      mstore\n      swap2\n      dup2\n      swap1\n      sub\n      0x80\n      add\n      swap1\n      log2\n      sub(shl(0xa0, 0x01), 0x01)\n        /* \"contracts/DiamodSafe copy.sol\":21425:21624  onUpdate(... */\n      dup5\n      and\n        /* \"contracts/DiamodSafe copy.sol\":21471:21493  accountOf_[_recipient] */\n      0x00\n      dup2\n      dup2\n      mstore\n        /* \"contracts/DiamodSafe copy.sol\":21471:21481  accountOf_ */\n      0x15\n        /* \"contracts/DiamodSafe copy.sol\":21471:21493  accountOf_[_recipient] */\n      0x20\n      dup2\n      dup2\n      mstore\n      0x40\n      dup1\n      dup5\n      keccak256\n        /* \"contracts/DiamodSafe copy.sol\":21471:21503  accountOf_[_recipient].deposited */\n      dup1\n      sload\n        /* \"contracts/DiamodSafe copy.sol\":21517:21527  balanceOf_ */\n      0x14\n        /* \"contracts/DiamodSafe copy.sol\":21517:21539  balanceOf_[_recipient] */\n      dup5\n      mstore\n      swap5\n      dup3\n      swap1\n      keccak256\n      sload\n        /* \"contracts/DiamodSafe copy.sol\":21553:21575  accountOf_[_recipient] */\n      swap4\n      dup4\n      mstore\n        /* \"contracts/DiamodSafe copy.sol\":21553:21585  accountOf_[_recipient].withdrawn */\n      0x02\n      add\n      sload\n        /* \"contracts/DiamodSafe copy.sol\":21425:21624  onUpdate(... */\n      dup2\n      mload\n      swap5\n      dup6\n      mstore\n      swap2\n      dup5\n      add\n      swap3\n      swap1\n      swap3\n      mstore\n      dup3\n      dup3\n      add\n      mstore\n        /* \"contracts/DiamodSafe copy.sol\":21599:21614  block.timestamp */\n      timestamp\n        /* \"contracts/DiamodSafe copy.sol\":21425:21624  onUpdate(... */\n      0x60\n      dup4\n      add\n      mstore\n      mload\n      0x00\n      dup1\n      mload\n      0x20\n      data_27cc9c295b15a532bb1b5f9308f1d54813e694c2ebdd1c2ced210bfe52dcd57e\n      dup4\n      codecopy\n      dup2\n      mload\n      swap2\n      mstore\n      swap2\n      dup2\n      swap1\n      sub\n      0x80\n      add\n      swap1\n      log2\n      pop\n        /* \"contracts/DiamodSafe copy.sol\":21642:21646  true */\n      0x01\n      swap4\n        /* \"contracts/DiamodSafe copy.sol\":19684:21653  function _transferTokens(... */\n      swap3\n      pop\n      pop\n      pop\n      jump\t// out\n        /* \"contracts/DiamodSafe copy.sol\":18459:19637  function _compoundTokens() internal returns (uint256) {... */\n    tag_338:\n        /* \"contracts/DiamodSafe copy.sol\":18504:18511  uint256 */\n      0x00\n        /* \"contracts/DiamodSafe copy.sol\":18539:18549  msg.sender */\n      caller\n        /* \"contracts/DiamodSafe copy.sol\":18504:18511  uint256 */\n      dup2\n        /* \"contracts/DiamodSafe copy.sol\":18646:18664  dividendsOf(_user) */\n      tag_428\n        /* \"contracts/DiamodSafe copy.sol\":18539:18549  msg.sender */\n      dup3\n        /* \"contracts/DiamodSafe copy.sol\":18646:18657  dividendsOf */\n      tag_61\n        /* \"contracts/DiamodSafe copy.sol\":18646:18664  dividendsOf(_user) */\n      jump\t// in\n    tag_428:\n      sub(shl(0xa0, 0x01), 0x01)\n        /* \"contracts/DiamodSafe copy.sol\":18674:18691  payoutsOf_[_user] */\n      dup4\n      and\n      0x00\n      swap1\n      dup2\n      mstore\n        /* \"contracts/DiamodSafe copy.sol\":18674:18684  payoutsOf_ */\n      0x13\n        /* \"contracts/DiamodSafe copy.sol\":18674:18691  payoutsOf_[_user] */\n      0x20\n      mstore\n      0x40\n      dup2\n      keccak256\n        /* \"contracts/DiamodSafe copy.sol\":18674:18727  payoutsOf_[_user] += (int256)(_dividends * magnitude) */\n      dup1\n      sload\n      shl(0x40, 0x01)\n        /* \"contracts/DiamodSafe copy.sol\":18704:18726  _dividends * magnitude */\n      dup5\n      mul\n        /* \"contracts/DiamodSafe copy.sol\":18674:18727  payoutsOf_[_user] += (int256)(_dividends * magnitude) */\n      add\n      swap1\n      sstore\n        /* \"contracts/DiamodSafe copy.sol\":18625:18664  uint256 _dividends = dividendsOf(_user) */\n      swap1\n      swap2\n      pop\n        /* \"contracts/DiamodSafe copy.sol\":18900:18938  _depositTokens(msg.sender, _dividends) */\n      tag_429\n        /* \"contracts/DiamodSafe copy.sol\":18915:18925  msg.sender */\n      caller\n        /* \"contracts/DiamodSafe copy.sol\":18625:18664  uint256 _dividends = dividendsOf(_user) */\n      dup4\n        /* \"contracts/DiamodSafe copy.sol\":18900:18914  _depositTokens */\n      tag_377\n        /* \"contracts/DiamodSafe copy.sol\":18900:18938  _depositTokens(msg.sender, _dividends) */\n      jump\t// in\n    tag_429:\n        /* \"contracts/DiamodSafe copy.sol\":18985:19040  onCompound(_user, _dividends, _tokens, block.timestamp) */\n      0x40\n      dup1\n      mload\n      dup5\n      dup2\n      mstore\n      0x20\n      dup2\n      add\n      dup4\n      swap1\n      mstore\n        /* \"contracts/DiamodSafe copy.sol\":19024:19039  block.timestamp */\n      timestamp\n        /* \"contracts/DiamodSafe copy.sol\":18985:19040  onCompound(_user, _dividends, _tokens, block.timestamp) */\n      dup2\n      dup4\n      add\n      mstore\n      swap1\n      mload\n        /* \"contracts/DiamodSafe copy.sol\":18882:18938  uint256 _tokens = _depositTokens(msg.sender, _dividends) */\n      swap2\n      swap3\n      pop\n      sub(shl(0xa0, 0x01), 0x01)\n        /* \"contracts/DiamodSafe copy.sol\":18985:19040  onCompound(_user, _dividends, _tokens, block.timestamp) */\n      dup6\n      and\n      swap2\n      0x193a876ac91d11a4a0a71ebef73b195ba55aa7c16d6755c93c21d973e692a02c\n      swap2\n      dup2\n      swap1\n      sub\n      0x60\n      add\n      swap1\n      log2\n      sub(shl(0xa0, 0x01), 0x01)\n        /* \"contracts/DiamodSafe copy.sol\":19144:19161  accountOf_[_user] */\n      dup4\n      and\n      0x00\n      swap1\n      dup2\n      mstore\n        /* \"contracts/DiamodSafe copy.sol\":19144:19154  accountOf_ */\n      0x15\n        /* \"contracts/DiamodSafe copy.sol\":19144:19161  accountOf_[_user] */\n      0x20\n      mstore\n      0x40\n      swap1\n      keccak256\n        /* \"contracts/DiamodSafe copy.sol\":19144:19172  accountOf_[_user].compounded */\n      0x03\n      add\n      sload\n        /* \"contracts/DiamodSafe copy.sol\":19118:19206  SafeMath.add(... */\n      tag_430\n      swap1\n        /* \"contracts/DiamodSafe copy.sol\":19186:19196  _dividends */\n      dup4\n        /* \"contracts/DiamodSafe copy.sol\":19118:19130  SafeMath.add */\n      tag_268\n        /* \"contracts/DiamodSafe copy.sol\":19118:19206  SafeMath.add(... */\n      jump\t// in\n    tag_430:\n      sub(shl(0xa0, 0x01), 0x01)\n        /* \"contracts/DiamodSafe copy.sol\":19087:19104  accountOf_[_user] */\n      dup5\n      and\n      0x00\n      dup2\n      dup2\n      mstore\n        /* \"contracts/DiamodSafe copy.sol\":19087:19097  accountOf_ */\n      0x15\n        /* \"contracts/DiamodSafe copy.sol\":19087:19104  accountOf_[_user] */\n      0x20\n      dup2\n      dup2\n      mstore\n      0x40\n      dup1\n      dup5\n      keccak256\n        /* \"contracts/DiamodSafe copy.sol\":19087:19115  accountOf_[_user].compounded */\n      0x03\n      dup2\n      add\n        /* \"contracts/DiamodSafe copy.sol\":19087:19206  accountOf_[_user].compounded = SafeMath.add(... */\n      swap7\n      swap1\n      swap7\n      sstore\n        /* \"contracts/DiamodSafe copy.sol\":19216:19245  accountOf_[_user].xCompounded */\n      0x09\n      dup7\n      add\n        /* \"contracts/DiamodSafe copy.sol\":19216:19250  accountOf_[_user].xCompounded += 1 */\n      dup1\n      sload\n        /* \"contracts/DiamodSafe copy.sol\":19249:19250  1 */\n      0x01\n        /* \"contracts/DiamodSafe copy.sol\":19216:19250  accountOf_[_user].xCompounded += 1 */\n      add\n      swap1\n      sstore\n        /* \"contracts/DiamodSafe copy.sol\":19344:19371  accountOf_[_user].deposited */\n      dup6\n      sload\n        /* \"contracts/DiamodSafe copy.sol\":19385:19395  balanceOf_ */\n      0x14\n        /* \"contracts/DiamodSafe copy.sol\":19385:19402  balanceOf_[_user] */\n      dup4\n      mstore\n      swap4\n      dup2\n      swap1\n      keccak256\n      sload\n        /* \"contracts/DiamodSafe copy.sol\":19416:19433  accountOf_[_user] */\n      swap3\n      dup3\n      mstore\n        /* \"contracts/DiamodSafe copy.sol\":19416:19443  accountOf_[_user].withdrawn */\n      0x02\n      swap1\n      swap6\n      add\n      sload\n        /* \"contracts/DiamodSafe copy.sol\":19303:19482  onUpdate(... */\n      dup6\n      mload\n      swap4\n      dup5\n      mstore\n      swap1\n      dup4\n      add\n      swap2\n      swap1\n      swap2\n      mstore\n      dup2\n      dup5\n      add\n      mstore\n        /* \"contracts/DiamodSafe copy.sol\":19457:19472  block.timestamp */\n      timestamp\n        /* \"contracts/DiamodSafe copy.sol\":19303:19482  onUpdate(... */\n      0x60\n      dup3\n      add\n      mstore\n      swap2\n      mload\n        /* \"contracts/DiamodSafe copy.sol\":19087:19104  accountOf_[_user] */\n      swap1\n      swap2\n      0x00\n      dup1\n      mload\n      0x20\n      data_27cc9c295b15a532bb1b5f9308f1d54813e694c2ebdd1c2ced210bfe52dcd57e\n      dup4\n      codecopy\n      dup2\n      mload\n      swap2\n      mstore\n        /* \"contracts/DiamodSafe copy.sol\":19303:19482  onUpdate(... */\n      swap2\n      swap1\n      dup2\n      swap1\n      sub\n      0x80\n      add\n      swap1\n      log2\n        /* \"contracts/DiamodSafe copy.sol\":19561:19573  distribute() */\n      tag_431\n        /* \"contracts/DiamodSafe copy.sol\":19561:19571  distribute */\n      tag_246\n        /* \"contracts/DiamodSafe copy.sol\":19561:19573  distribute() */\n      jump\t// in\n    tag_431:\n        /* \"contracts/DiamodSafe copy.sol\":19623:19630  _tokens */\n      swap3\n      pop\n      pop\n      pop\n        /* \"contracts/DiamodSafe copy.sol\":18459:19637  function _compoundTokens() internal returns (uint256) {... */\n      swap1\n      jump\t// out\n        /* \"contracts/DiamodSafe copy.sol\":16843:18419  function _depositTokens(... */\n    tag_377:\n      sub(shl(0xa0, 0x01), 0x01)\n        /* \"contracts/DiamodSafe copy.sol\":17055:17077  accountOf_[_recipient] */\n      dup3\n      and\n        /* \"contracts/DiamodSafe copy.sol\":16944:16951  uint256 */\n      0x00\n        /* \"contracts/DiamodSafe copy.sol\":17055:17077  accountOf_[_recipient] */\n      swap1\n      dup2\n      mstore\n        /* \"contracts/DiamodSafe copy.sol\":17055:17065  accountOf_ */\n      0x15\n        /* \"contracts/DiamodSafe copy.sol\":17055:17077  accountOf_[_recipient] */\n      0x20\n      mstore\n      0x40\n      dup2\n      keccak256\n        /* \"contracts/DiamodSafe copy.sol\":17055:17087  accountOf_[_recipient].deposited */\n      sload\n        /* \"contracts/DiamodSafe copy.sol\":17055:17092  accountOf_[_recipient].deposited == 0 */\n      iszero\n        /* \"contracts/DiamodSafe copy.sol\":17055:17150  accountOf_[_recipient].deposited == 0 &&... */\n      dup1\n      iszero\n      tag_433\n      jumpi\n      pop\n      sub(shl(0xa0, 0x01), 0x01)\n        /* \"contracts/DiamodSafe copy.sol\":17108:17130  accountOf_[_recipient] */\n      dup4\n      and\n      0x00\n      swap1\n      dup2\n      mstore\n        /* \"contracts/DiamodSafe copy.sol\":17108:17118  accountOf_ */\n      0x15\n        /* \"contracts/DiamodSafe copy.sol\":17108:17130  accountOf_[_recipient] */\n      0x20\n      mstore\n      0x40\n      swap1\n      keccak256\n        /* \"contracts/DiamodSafe copy.sol\":17108:17145  accountOf_[_recipient].receivedShares */\n      0x07\n      add\n      sload\n        /* \"contracts/DiamodSafe copy.sol\":17108:17150  accountOf_[_recipient].receivedShares == 0 */\n      iszero\n        /* \"contracts/DiamodSafe copy.sol\":17055:17150  accountOf_[_recipient].deposited == 0 &&... */\n    tag_433:\n        /* \"contracts/DiamodSafe copy.sol\":17038:17196  if (... */\n      iszero\n      tag_434\n      jumpi\n        /* \"contracts/DiamodSafe copy.sol\":17175:17180  users */\n      0x07\n        /* \"contracts/DiamodSafe copy.sol\":17175:17185  users += 1 */\n      dup1\n      sload\n        /* \"contracts/DiamodSafe copy.sol\":17184:17185  1 */\n      0x01\n        /* \"contracts/DiamodSafe copy.sol\":17175:17185  users += 1 */\n      add\n      swap1\n      sstore\n        /* \"contracts/DiamodSafe copy.sol\":17038:17196  if (... */\n    tag_434:\n        /* \"contracts/DiamodSafe copy.sol\":17234:17242  totalTxs */\n      0x08\n        /* \"contracts/DiamodSafe copy.sol\":17234:17247  totalTxs += 1 */\n      dup1\n      sload\n        /* \"contracts/DiamodSafe copy.sol\":17246:17247  1 */\n      0x01\n        /* \"contracts/DiamodSafe copy.sol\":17234:17247  totalTxs += 1 */\n      add\n      swap1\n      sstore\n        /* \"contracts/DiamodSafe copy.sol\":17234:17242  totalTxs */\n      0x00\n        /* \"contracts/DiamodSafe copy.sol\":17326:17329  100 */\n      0x64\n        /* \"contracts/DiamodSafe copy.sol\":17293:17323  SafeMath.mul(_amount, divsFee) */\n      tag_435\n        /* \"contracts/DiamodSafe copy.sol\":17306:17313  _amount */\n      dup5\n        /* \"contracts/DiamodSafe copy.sol\":1380:1381  3 */\n      0x03\n        /* \"contracts/DiamodSafe copy.sol\":17293:17305  SafeMath.mul */\n      tag_226\n        /* \"contracts/DiamodSafe copy.sol\":17293:17323  SafeMath.mul(_amount, divsFee) */\n      jump\t// in\n    tag_435:\n        /* \"contracts/DiamodSafe copy.sol\":17293:17329  SafeMath.mul(_amount, divsFee) / 100 */\n      dup2\n      tag_436\n      jumpi\n      invalid\n    tag_436:\n      div\n        /* \"contracts/DiamodSafe copy.sol\":17263:17329  uint256 _undividedDividends = SafeMath.mul(_amount, divsFee) / 100 */\n      swap1\n      pop\n        /* \"contracts/DiamodSafe copy.sol\":17341:17358  uint256   _tokens */\n      0x00\n        /* \"contracts/DiamodSafe copy.sol\":17361:17403  SafeMath.sub(_amount, _undividedDividends) */\n      tag_437\n        /* \"contracts/DiamodSafe copy.sol\":17374:17381  _amount */\n      dup5\n        /* \"contracts/DiamodSafe copy.sol\":17383:17402  _undividedDividends */\n      dup4\n        /* \"contracts/DiamodSafe copy.sol\":17361:17373  SafeMath.sub */\n      tag_229\n        /* \"contracts/DiamodSafe copy.sol\":17361:17403  SafeMath.sub(_amount, _undividedDividends) */\n      jump\t// in\n    tag_437:\n        /* \"contracts/DiamodSafe copy.sol\":17458:17514  onDeposit(_recipient, _amount, _tokens, block.timestamp) */\n      0x40\n      dup1\n      mload\n      dup7\n      dup2\n      mstore\n      0x20\n      dup2\n      add\n      dup4\n      swap1\n      mstore\n        /* \"contracts/DiamodSafe copy.sol\":17498:17513  block.timestamp */\n      timestamp\n        /* \"contracts/DiamodSafe copy.sol\":17458:17514  onDeposit(_recipient, _amount, _tokens, block.timestamp) */\n      dup2\n      dup4\n      add\n      mstore\n      swap1\n      mload\n        /* \"contracts/DiamodSafe copy.sol\":17341:17403  uint256   _tokens = SafeMath.sub(_amount, _undividedDividends) */\n      swap2\n      swap3\n      pop\n      sub(shl(0xa0, 0x01), 0x01)\n        /* \"contracts/DiamodSafe copy.sol\":17458:17514  onDeposit(_recipient, _amount, _tokens, block.timestamp) */\n      dup8\n      and\n      swap2\n      0xb49bb132260f6aa1c86e2d2a3957c097216e6ec9b5fa15867289f058b4d297ac\n      swap2\n      dup2\n      swap1\n      sub\n      0x60\n      add\n      swap1\n      log2\n        /* \"contracts/DiamodSafe copy.sol\":17623:17624  0 */\n      0x00\n        /* \"contracts/DiamodSafe copy.sol\":17613:17620  _tokens */\n      dup2\n        /* \"contracts/DiamodSafe copy.sol\":17613:17624  _tokens > 0 */\n      gt\n        /* \"contracts/DiamodSafe copy.sol\":17613:17706  _tokens > 0 &&... */\n      dup1\n      iszero\n      tag_438\n      jumpi\n      pop\n        /* \"contracts/DiamodSafe copy.sol\":17688:17706  currentTotalStaked */\n      sload(0x11)\n        /* \"contracts/DiamodSafe copy.sol\":17644:17685  SafeMath.add(_tokens, currentTotalStaked) */\n      tag_439\n        /* \"contracts/DiamodSafe copy.sol\":17657:17664  _tokens */\n      dup3\n        /* \"contracts/DiamodSafe copy.sol\":17688:17706  currentTotalStaked */\n      dup3\n        /* \"contracts/DiamodSafe copy.sol\":17644:17656  SafeMath.add */\n      tag_268\n        /* \"contracts/DiamodSafe copy.sol\":17644:17685  SafeMath.add(_tokens, currentTotalStaked) */\n      jump\t// in\n    tag_439:\n        /* \"contracts/DiamodSafe copy.sol\":17644:17706  SafeMath.add(_tokens, currentTotalStaked) > currentTotalStaked */\n      gt\n        /* \"contracts/DiamodSafe copy.sol\":17613:17706  _tokens > 0 &&... */\n    tag_438:\n        /* \"contracts/DiamodSafe copy.sol\":17592:17716  require(... */\n      tag_440\n      jumpi\n      0x00\n      dup1\n      revert\n    tag_440:\n        /* \"contracts/DiamodSafe copy.sol\":17730:17748  currentTotalStaked */\n      sload(0x11)\n        /* \"contracts/DiamodSafe copy.sol\":17730:17752  currentTotalStaked > 0 */\n      iszero\n        /* \"contracts/DiamodSafe copy.sol\":17726:17867  if (currentTotalStaked > 0) {... */\n      tag_441\n      jumpi\n        /* \"contracts/DiamodSafe copy.sol\":17768:17786  currentTotalStaked */\n      0x11\n        /* \"contracts/DiamodSafe copy.sol\":17768:17797  currentTotalStaked += _tokens */\n      dup1\n      sload\n      dup3\n      add\n      swap1\n      sstore\n        /* \"contracts/DiamodSafe copy.sol\":17726:17867  if (currentTotalStaked > 0) {... */\n      jump(tag_442)\n    tag_441:\n        /* \"contracts/DiamodSafe copy.sol\":17828:17846  currentTotalStaked */\n      0x11\n        /* \"contracts/DiamodSafe copy.sol\":17828:17856  currentTotalStaked = _tokens */\n      dup2\n      swap1\n      sstore\n        /* \"contracts/DiamodSafe copy.sol\":17726:17867  if (currentTotalStaked > 0) {... */\n    tag_442:\n        /* \"contracts/DiamodSafe copy.sol\":17932:17965  allocateFees(_undividedDividends) */\n      tag_443\n        /* \"contracts/DiamodSafe copy.sol\":17945:17964  _undividedDividends */\n      dup3\n        /* \"contracts/DiamodSafe copy.sol\":17932:17944  allocateFees */\n      tag_244\n        /* \"contracts/DiamodSafe copy.sol\":17932:17965  allocateFees(_undividedDividends) */\n      jump\t// in\n    tag_443:\n      sub(shl(0xa0, 0x01), 0x01)\n        /* \"contracts/DiamodSafe copy.sol\":18013:18035  balanceOf_[_recipient] */\n      dup6\n      and\n      0x00\n      swap1\n      dup2\n      mstore\n        /* \"contracts/DiamodSafe copy.sol\":18013:18023  balanceOf_ */\n      0x14\n        /* \"contracts/DiamodSafe copy.sol\":18013:18035  balanceOf_[_recipient] */\n      0x20\n      mstore\n      0x40\n      swap1\n      keccak256\n      sload\n        /* \"contracts/DiamodSafe copy.sol\":18000:18045  SafeMath.add(balanceOf_[_recipient], _tokens) */\n      tag_444\n      swap1\n        /* \"contracts/DiamodSafe copy.sol\":18037:18044  _tokens */\n      dup3\n        /* \"contracts/DiamodSafe copy.sol\":18000:18012  SafeMath.add */\n      tag_268\n        /* \"contracts/DiamodSafe copy.sol\":18000:18045  SafeMath.add(balanceOf_[_recipient], _tokens) */\n      jump\t// in\n    tag_444:\n      sub(shl(0xa0, 0x01), 0x01)\n        /* \"contracts/DiamodSafe copy.sol\":17975:17997  balanceOf_[_recipient] */\n      dup7\n      and\n      0x00\n      swap1\n      dup2\n      mstore\n        /* \"contracts/DiamodSafe copy.sol\":17975:17985  balanceOf_ */\n      0x14\n        /* \"contracts/DiamodSafe copy.sol\":17975:17997  balanceOf_[_recipient] */\n      0x20\n      swap1\n      dup2\n      mstore\n      0x40\n      dup1\n      dup4\n      keccak256\n        /* \"contracts/DiamodSafe copy.sol\":17975:18045  balanceOf_[_recipient] = SafeMath.add(balanceOf_[_recipient], _tokens) */\n      swap4\n      swap1\n      swap4\n      sstore\n        /* \"contracts/DiamodSafe copy.sol\":18120:18135  profitPerShare_ */\n      sload(0x12)\n        /* \"contracts/DiamodSafe copy.sol\":18184:18194  payoutsOf_ */\n      0x13\n        /* \"contracts/DiamodSafe copy.sol\":18184:18206  payoutsOf_[_recipient] */\n      dup3\n      mstore\n      dup4\n      dup4\n      keccak256\n        /* \"contracts/DiamodSafe copy.sol\":18184:18225  payoutsOf_[_recipient] += _updatedPayouts */\n      dup1\n      sload\n        /* \"contracts/DiamodSafe copy.sol\":18120:18145  profitPerShare_ * _tokens */\n      swap2\n      dup7\n      mul\n        /* \"contracts/DiamodSafe copy.sol\":18184:18225  payoutsOf_[_recipient] += _updatedPayouts */\n      swap2\n      swap1\n      swap2\n      add\n      swap1\n      sstore\n        /* \"contracts/DiamodSafe copy.sol\":18235:18245  accountOf_ */\n      0x15\n        /* \"contracts/DiamodSafe copy.sol\":18235:18257  accountOf_[_recipient] */\n      swap1\n      mstore\n      keccak256\n        /* \"contracts/DiamodSafe copy.sol\":18235:18278  accountOf_[_recipient].deposited += _amount */\n      dup1\n      sload\n      dup6\n      add\n      dup2\n      sstore\n        /* \"contracts/DiamodSafe copy.sol\":18288:18320  accountOf_[_recipient].xInvested */\n      0x08\n      add\n        /* \"contracts/DiamodSafe copy.sol\":18288:18325  accountOf_[_recipient].xInvested += 1 */\n      dup1\n      sload\n      0x01\n      add\n      swap1\n      sstore\n        /* \"contracts/DiamodSafe copy.sol\":18138:18145  _tokens */\n      swap2\n      pop\n      pop\n        /* \"contracts/DiamodSafe copy.sol\":16843:18419  function _depositTokens(... */\n      swap3\n      swap2\n      pop\n      pop\n      jump\t// out\n        /* \"contracts/SafeMath.sol\":7288:7453  function safeSub(uint a, uint b) internal pure returns (uint) {... */\n    tag_402:\n        /* \"contracts/SafeMath.sol\":7344:7348  uint */\n      0x00\n        /* \"contracts/SafeMath.sol\":7368:7369  a */\n      dup3\n        /* \"contracts/SafeMath.sol\":7364:7365  b */\n      dup3\n        /* \"contracts/SafeMath.sol\":7364:7369  b > a */\n      gt\n        /* \"contracts/SafeMath.sol\":7360:7447  if (b > a) {... */\n      iszero\n      tag_446\n      jumpi\n      pop\n        /* \"contracts/SafeMath.sol\":7392:7393  0 */\n      0x00\n        /* \"contracts/SafeMath.sol\":7385:7393  return 0 */\n      jump(tag_285)\n        /* \"contracts/SafeMath.sol\":7360:7447  if (b > a) {... */\n    tag_446:\n      pop\n        /* \"contracts/SafeMath.sol\":7431:7436  a - b */\n      dup1\n      dup3\n      sub\n        /* \"contracts/SafeMath.sol\":7424:7436  return a - b */\n      jump(tag_285)\n    tag_289:\n      mload(0x40)\n      dup1\n      0x01c0\n      add\n      0x40\n      mstore\n      dup1\n      0x0e\n      swap1\n      0x20\n      dup3\n      mul\n      dup1\n      calldatasize\n      dup4\n      calldatacopy\n      pop\n      swap2\n      swap3\n      swap2\n      pop\n      pop\n      jump\t// out\n    tag_292:\n      mload(0x40)\n      dup1\n      0x01e0\n      add\n      0x40\n      mstore\n      dup1\n      0x00\n      dup2\n      mstore\n      0x20\n      add\n      0x00\n      dup2\n      mstore\n      0x20\n      add\n      0x00\n      dup2\n      mstore\n      0x20\n      add\n      0x00\n      dup2\n      mstore\n      0x20\n      add\n      0x00\n      dup2\n      mstore\n      0x20\n      add\n      0x00\n      dup2\n      mstore\n      0x20\n      add\n      0x00\n      dup2\n      mstore\n      0x20\n      add\n      0x00\n      dup2\n      mstore\n      0x20\n      add\n      0x00\n      dup2\n      mstore\n      0x20\n      add\n      0x00\n      dup2\n      mstore\n      0x20\n      add\n      0x00\n      dup2\n      mstore\n      0x20\n      add\n      0x00\n      dup2\n      mstore\n      0x20\n      add\n      0x00\n      dup2\n      mstore\n      0x20\n      add\n      0x00\n      dup2\n      mstore\n      0x20\n      add\n      0x00\n      dup2\n      mstore\n      pop\n      swap1\n      jump\t// out\n    tag_356:\n      dup3\n      dup1\n      sload\n      dup3\n      dup3\n      sstore\n      swap1\n      0x00\n      mstore\n      keccak256(0x00, 0x20)\n      swap1\n      dup2\n      add\n      swap3\n      dup3\n      iszero\n      tag_450\n      jumpi\n      swap2\n      0x20\n      mul\n      dup3\n      add\n    tag_449:\n      dup3\n      dup2\n      gt\n      iszero\n      tag_450\n      jumpi\n      dup3\n      mload\n      dup3\n      sload\n      not(sub(shl(0xa0, 0x01), 0x01))\n      and\n      sub(shl(0xa0, 0x01), 0x01)\n      swap1\n      swap2\n      and\n      or\n      dup3\n      sstore\n      0x20\n      swap1\n      swap3\n      add\n      swap2\n      0x01\n      swap1\n      swap2\n      add\n      swap1\n      jump(tag_449)\n    tag_450:\n      pop\n      tag_451\n      swap3\n      swap2\n      pop\n      tag_452\n      jump\t// in\n    tag_451:\n      pop\n      swap1\n      jump\t// out\n    tag_452:\n    tag_453:\n      dup1\n      dup3\n      gt\n      iszero\n      tag_451\n      jumpi\n      0x00\n      dup2\n      sstore\n      0x01\n      add\n      jump(tag_453)\n    stop\n    data_245f15ff17f551913a7a18385165551503906a406f905ac1c2437281a7cd0cfe 4f776e61626c653a206e6577206f776e657220697320746865207a65726f2061646472657373\n    data_27cc9c295b15a532bb1b5f9308f1d54813e694c2ebdd1c2ced210bfe52dcd57e 29f64f6f46c82c5ecfa955fe7d093e63b4106b6dbe5193e00efd62c7384ef177\n    data_51ddaa38748c0a1144620fb5bfe8edab31ea437571ad591a7734bbfd0429aeae 416464726573733a20756e61626c6520746f2073656e642076616c75652c20726563697069656e74206d61792068617665207265766572746564\n    data_9113bb53c2876a3805b2c9242029423fc540a728243ce887ab24c82cf119fba3 536166654d6174683a206d756c7469706c69636174696f6e206f766572666c6f77\n    data_9924ebdf1add33d25d4ef888e16131f0a5687b0580a36c21b5c301a6c462effe 4f776e61626c653a2063616c6c6572206973206e6f7420746865206f776e6572\n\n    auxdata: 0xa264697066735822122036c8969b296e230c736747f6dc7e1ecadd2e50a652eb4d913b73ecfe4159641264736f6c63430007040033\n}\n",
				"bytecode": {
					"linkReferences": {},
					"object": "60806040523480156200001157600080fd5b506040516200261338038062002613833981810160405260608110156200003757600080fd5b50805160208201516040909201519091906000620000546200018a565b600080546001600160a01b0319166001600160a01b0383169081178255604051929350917f8be0079c531659141344cd1fd0a4f28419497f9722a3daafe3b4186f6b6457e0908290a350600180556001600160a01b03831615801590620000cc5750620000cc836200018e60201b62001a231760201c565b62000110576040805162461bcd60e51b815260206004820152600f60248201526e494e56414c49445f4144445245535360881b604482015290519081900360640190fd5b600d8054600480546001600160a01b039687166001600160a01b031991821681179092556002805482169092178255600580549091163317905560ff90931660ff199590941661010002610100600160a81b031990911617939093169190911790915542600955600e556001600f81905560035562000194565b3390565b3b151590565b61246f80620001a46000396000f3fe60806040526004361061026a5760003560e01c8063949e8acd11610144578063e02e1e9c116100b6578063f69e20461161007a578063f69e2046146107e7578063f6db0da0146107fc578063f7c618c1146108ac578063fbaf1bbd146108c1578063ffaad6a5146108f4578063ffe6bbd81461092d576102c0565b8063e02e1e9c14610718578063eedc966a14610742578063f14faf6f14610775578063f20202751461079f578063f2fde38b146107b4576102c0565b8063aecb6d2811610108578063aecb6d281461065a578063b03cf5a71461066f578063b6b55f2514610699578063b9db102a146106c3578063d3261592146106d8578063d7c3771d14610703576102c0565b8063949e8acd146105cd5780639d76ea58146105e2578063a01496de146105f7578063a9059cbb1461060c578063ad7a672f14610645576102c0565b8063537a39bb116101dd5780637e6335c7116101a15780637e6335c7146104dd5780638086b8ba1461050d57806381fce645146105795780638620410b1461058e57806389375abf146105a35780638da5cb5b146105b8576102c0565b8063537a39bb1461043a57806370a082311461044f578063715018a61461048257806372f702f3146104975780637d882097146104c8576102c0565b80631f38b9cd1161022f5780631f38b9cd146103735780632e1a7d4d1461038857806336599ead146103b457806341c61383146103fb5780634641257d146104105780634b75033414610425576102c0565b806265318b146102c557806308560ace1461030a57806310d0ffdd1461031f57806318160ddd146103495780631924063e1461035e576102c0565b366102c057600554610285906001600160a01b031634610942565b60408051348152426020820152815133927f3c2bd1b3f5ca07afb09fbee41ac43da2b98d9c2e9832673052e546bd1d4c091d928290030190a2005b600080fd5b3480156102d157600080fd5b506102f8600480360360208110156102e857600080fd5b50356001600160a01b0316610a2c565b60408051918252519081900360200190f35b34801561031657600080fd5b506102f8610a65565b34801561032b57600080fd5b506102f86004803603602081101561034257600080fd5b5035610a6b565b34801561035557600080fd5b506102f8610aab565b34801561036a57600080fd5b506102f8610ab1565b34801561037f57600080fd5b506102f8610ab7565b34801561039457600080fd5b506103b2600480360360208110156103ab57600080fd5b5035610abd565b005b3480156103c057600080fd5b506103e7600480360360208110156103d757600080fd5b50356001600160a01b0316610c5b565b604080519115158252519081900360200190f35b34801561040757600080fd5b506102f8610d26565b34801561041c57600080fd5b506103b2610d2c565b34801561043157600080fd5b506102f8610e9d565b34801561044657600080fd5b506102f8610ecd565b34801561045b57600080fd5b506102f86004803603602081101561047257600080fd5b50356001600160a01b0316610ed3565b34801561048e57600080fd5b506103b2610eee565b3480156104a357600080fd5b506104ac610f9a565b604080516001600160a01b039092168252519081900360200190f35b3480156104d457600080fd5b506102f8610fa9565b3480156104e957600080fd5b506103e76004803603604081101561050057600080fd5b5080359060200135610faf565b34801561051957600080fd5b506105406004803603602081101561053057600080fd5b50356001600160a01b03166110c4565b60405180826101c080838360005b8381101561056657818101518382015260200161054e565b5050505090500191505060405180910390f35b34801561058557600080fd5b506102f8611247565b34801561059a57600080fd5b506102f861124c565b3480156105af57600080fd5b506102f8611274565b3480156105c457600080fd5b506104ac61127a565b3480156105d957600080fd5b506102f8611289565b3480156105ee57600080fd5b506104ac611299565b34801561060357600080fd5b506102f86112a8565b34801561061857600080fd5b506103e76004803603604081101561062f57600080fd5b506001600160a01b0381351690602001356112ae565b34801561065157600080fd5b506102f86112d4565b34801561066657600080fd5b506102f8611350565b34801561067b57600080fd5b506104ac6004803603602081101561069257600080fd5b5035611356565b3480156106a557600080fd5b506102f8600480360360208110156106bc57600080fd5b5035611380565b3480156106cf57600080fd5b506102f861138c565b3480156106e457600080fd5b506106ed611392565b6040805160ff9092168252519081900360200190f35b34801561070f57600080fd5b506104ac61139b565b34801561072457600080fd5b506102f86004803603602081101561073b57600080fd5b50356113aa565b34801561074e57600080fd5b506102f86004803603602081101561076557600080fd5b50356001600160a01b03166113d1565b34801561078157600080fd5b506102f86004803603602081101561079857600080fd5b50356113de565b3480156107ab57600080fd5b506102f86114e2565b3480156107c057600080fd5b506103b2600480360360208110156107d757600080fd5b50356001600160a01b03166114e8565b3480156107f357600080fd5b506103b26115ea565b34801561080857600080fd5b506103e76004803603602081101561081f57600080fd5b81019060208101813564010000000081111561083a57600080fd5b82018360208201111561084c57600080fd5b8035906020019184602083028401116401000000008311171561086e57600080fd5b919080806020026020016040519081016040528093929190818152602001838360200280828437600092019190915250929550611609945050505050565b3480156108b857600080fd5b506104ac611896565b3480156108cd57600080fd5b506102f8600480360360208110156108e457600080fd5b50356001600160a01b03166118aa565b34801561090057600080fd5b506102f86004803603604081101561091757600080fd5b506001600160a01b03813516906020013561190d565b34801561093957600080fd5b506102f8611a18565b80471015610997576040805162461bcd60e51b815260206004820152601d60248201527f416464726573733a20696e73756666696369656e742062616c616e6365000000604482015290519081900360640190fd5b6040516000906001600160a01b0384169083908381818185875af1925050503d80600081146109e2576040519150601f19603f3d011682016040523d82523d6000602084013e6109e7565b606091505b5050905080610a275760405162461bcd60e51b815260040180806020018281038252603a8152602001806123bf603a913960400191505060405180910390fd5b505050565b6001600160a01b0381166000908152601360209081526040808320546014909252822054601254600160401b929102030490505b919050565b60035481565b6000601154821115610a7c57600080fd5b816000610a94610a8d836003611a29565b6064611a82565b90506000610aa28383611ae9565b95945050505050565b60115490565b60105481565b600f5481565b6000610ac7611289565b11610ad157600080fd5b33600081815260146020526040902054821115610aed57600080fd5b60006064610afc846003611a29565b81610b0357fe5b0490506000610b1133610c5b565b90508015610b1e57600091505b6000610b2a8584611ae9565b9050610b3860115486611ae9565b6011556001600160a01b038416600090815260146020526040902054610b5e9086611ae9565b6001600160a01b03851660009081526014602090815260408083209390935560125460139091529190208054918702600160401b840201918290039055610ba484611b46565b6040805187815260208101849052428183015290516001600160a01b038716917f90ebb005d68efee044927e1e77e1fd0cecc508368aa72c39250a787eed5f0a70919081900360600190a26001600160a01b0385166000818152601560208181526040808420805460148452948290205493835260020154815194855291840192909252828201524260608301525160008051602061239f8339815191529181900360800190a2610c53611bd4565b505050505050565b60008080805b600654811015610d075760068181548110610c7857fe5b60009182526020918290200154604080516370a0823160e01b81526001600160a01b038981166004830152915191909216945084926370a082319260248082019391829003018186803b158015610cce57600080fd5b505afa158015610ce2573d6000803e3d6000fd5b505050506040513d6020811015610cf857600080fd5b50519290920191600101610c61565b506003548210610d1c57600192505050610a60565b5060009392505050565b600a5481565b6000610d36611a18565b11610d4057600080fd5b336000610d4b611a18565b6001600160a01b0380841660008181526013602090815260408083208054600160401b8802019055600254815163a9059cbb60e01b815260048101959095526024850187905290519596509093169363a9059cbb936044808501949193918390030190829087803b158015610dbf57600080fd5b505af1158015610dd3573d6000803e3d6000fd5b505050506040513d6020811015610de957600080fd5b50506001600160a01b038216600090815260156020526040902060020154610e119082611ccb565b6001600160a01b0383166000818152601560209081526040918290206002810194909455600c90930180546001908101909155600880549091019055600a80548501905580518481524293810193909352805191927f1b091269e929df55d64d6ea7e9cadbe4fb38dce5ccdc995767bc515030dbfbbf929081900390910190a2610e99611bd4565b5050565b6000670de0b6b3a764000081610eb7610a8d836003611a29565b90506000610ec58383611ae9565b935050505090565b60085481565b6001600160a01b031660009081526014602052604090205490565b610ef6611d25565b6001600160a01b0316610f0761127a565b6001600160a01b031614610f50576040805162461bcd60e51b8152602060048201819052602482015260008051602061241a833981519152604482015290519081900360640190fd5b600080546040516001600160a01b03909116907f8be0079c531659141344cd1fd0a4f28419497f9722a3daafe3b4186f6b6457e0908390a3600080546001600160a01b0319169055565b6002546001600160a01b031681565b600b5481565b6000610fb9611d25565b6001600160a01b0316610fca61127a565b6001600160a01b031614611013576040805162461bcd60e51b8152602060048201819052602482015260008051602061241a833981519152604482015290519081900360640190fd5b61101d8383611ccb565b600314611071576040805162461bcd60e51b815260206004820152601d60248201527f54454e5f504f5254494f4e535f524551554952455f4449564953494f4e000000604482015290519081900360640190fd5b600e839055600f8290556040805184815260208101849052428183015290517f677017fa3a0fe0f50a95e6024c5b688f2b14a4696c4a897c459715cabfc1c03a9181900360600190a15060015b92915050565b6110cc612269565b6110d4612288565b506001600160a01b03821660009081526015602090815260409182902082516101e081018452815481526001820154928101929092526002810154928201929092526003820154606082015260048201546080820152600582015460a0820152600682015460c0820152600782015460e082015260088201546101008201526009820154610120820152600a820154610140820152600b820154610160820152600c820154610180820152600d8201546101a0820152600e909101546101c082015261119e612269565b604051806101c00160405280836000015181526020018360400151815260200183608001518152602001836060015181526020018360a0015181526020018360c0015181526020018360e0015181526020018361010001518152602001836101400151815260200183610160015181526020018361018001518152602001836101a001518152602001836101c00151815260200183610120015181525090508092505050919050565b600281565b6000670de0b6b3a764000081611266610a8d836003611a29565b90506000610ec58383611ccb565b61546081565b6000546001600160a01b031690565b600061129433610ed3565b905090565b6004546001600160a01b031681565b600e5481565b6000806112b9611289565b116112c357600080fd5b6112cd8383611d29565b9392505050565b600254604080516370a0823160e01b815230600482015290516000926001600160a01b0316916370a08231916024808301926020929190829003018186803b15801561131f57600080fd5b505afa158015611333573d6000803e3d6000fd5b505050506040513d602081101561134957600080fd5b5051905090565b600c5481565b6006818154811061136657600080fd5b6000918252602090912001546001600160a01b0316905081565b60006110be338361190d565b60095481565b600d5460ff1681565b6005546001600160a01b031681565b6000806113bb610a8d846003611a29565b905060006113c98483611ae9565b949350505050565b6001600160a01b03163190565b600d54604080516323b872dd60e01b815233600482015230602482015260448101849052905160009261010090046001600160a01b0316916323b872dd91606480830192602092919082900301818787803b15801561143c57600080fd5b505af1158015611450573d6000803e3d6000fd5b505050506040513d602081101561146657600080fd5b505161147157600080fd5b600c80548301905533600081815260156020908152604091829020600b8101805460010190556005018054860190558151858152429181019190915281517f0da1788c3e861a58a47f0d46073b13c4d66efcc259714744f920d1afe7b8dee5929181900390910190a25050600c5490565b60075481565b6114f0611d25565b6001600160a01b031661150161127a565b6001600160a01b03161461154a576040805162461bcd60e51b8152602060048201819052602482015260008051602061241a833981519152604482015290519081900360640190fd5b6001600160a01b03811661158f5760405162461bcd60e51b81526004018080602001828103825260268152602001806123796026913960400191505060405180910390fd5b600080546040516001600160a01b03808516939216917f8be0079c531659141344cd1fd0a4f28419497f9722a3daafe3b4186f6b6457e091a3600080546001600160a01b0319166001600160a01b0392909216919091179055565b60006115f4611a18565b116115fe57600080fd5b611606611f94565b50565b6000611613611d25565b6001600160a01b031661162461127a565b6001600160a01b03161461166d576040805162461bcd60e51b8152602060048201819052602482015260008051602061241a833981519152604482015290519081900360640190fd5b60005b60065481101561174a5782818151811061168657fe5b60200260200101516001600160a01b03166301ffc9a76380ac58cd6040518263ffffffff1660e01b8152600401808260e01b815260200191505060206040518083038186803b1580156116d857600080fd5b505afa1580156116ec573d6000803e3d6000fd5b505050506040513d602081101561170257600080fd5b5051611742576040805162461bcd60e51b815260206004820152600a6024820152694e4f545f45524337323160b01b604482015290519081900360640190fd5b600101611670565b50606060068054806020026020016040519081016040528092919081815260200182805480156117a357602002820191906000526020600020905b81546001600160a01b03168152600190910190602001808311611785575b505086519394506117bf936006935060208801925090506122fe565b50336001600160a01b03167ff0650831416f723858005cfeae97a2d6f5e127d1e6ae8938574d1d73e7f4727c828542604051808060200180602001848152602001838103835286818151815260200191508051906020019060200280838360005b83811015611838578181015183820152602001611820565b50505050905001838103825285818151815260200191508051906020019060200280838360005b8381101561187757818101518382015260200161185f565b505050509050019550505050505060405180910390a250600192915050565b600d5461010090046001600160a01b031681565b600d54600c5460009182916118ce916064916118c89160ff16611a29565b90611a82565b90506000601154116118e15760006112cd565b6011546001600160a01b0384166000908152601460205260409020546112cd91906118c8908490611a29565b600254604080516323b872dd60e01b81523360048201523060248201526044810184905290516000926001600160a01b0316916323b872dd91606480830192602092919082900301818787803b15801561196657600080fd5b505af115801561197a573d6000803e3d6000fd5b505050506040513d602081101561199057600080fd5b505161199b57600080fd5b600b80548301905560006119af84846120c9565b6001600160a01b03851660008181526015602081815260408084208054601484529482902054938352600201548151948552918401929092528282015242606083015251929350909160008051602061239f8339815191529181900360800190a26112cd611bd4565b600061129433610a2c565b3b151590565b600082611a38575060006110be565b82820282848281611a4557fe5b04146112cd5760405162461bcd60e51b81526004018080602001828103825260218152602001806123f96021913960400191505060405180910390fd5b6000808211611ad8576040805162461bcd60e51b815260206004820152601a60248201527f536166654d6174683a206469766973696f6e206279207a65726f000000000000604482015290519081900360640190fd5b818381611ae157fe5b049392505050565b600082821115611b40576040805162461bcd60e51b815260206004820152601e60248201527f536166654d6174683a207375627472616374696f6e206f766572666c6f770000604482015290519081900360640190fd5b50900390565b6000611b5382600a611a82565b90506000611b6c600e5483611a2990919063ffffffff16565b90506000611b85600f5484611a2990919063ffffffff16565b600c54909150611b959083611ccb565b600c5560115415611bc557611bbd601254601154600160401b840281611bb757fe5b04611ccb565b601255611bce565b600c8054820190555b50505050565b601054429061546090611be890839061224e565b1115611c34577f2cfce469a63f2e9972b7f23da751e6943ed2b091c10e40b5c43b5f6105bf20ea611c176112d4565b60408051918252602082018490528051918290030190a160108190555b6002611c428260095461224e565b118015611c5157506000601154115b1561160657600d54600c54600091611c7a9162015180916118c89160649183919060ff16611a29565b90506000611c936009548461224e90919063ffffffff16565b600c549083029150611ca5908261224e565b600c55601254601154611cc19190600160401b840281611bb757fe5b6012555050600955565b6000828201838110156112cd576040805162461bcd60e51b815260206004820152601b60248201527f536166654d6174683a206164646974696f6e206f766572666c6f770000000000604482015290519081900360640190fd5b3390565b33600081815260146020526040812054909190831115611d4857600080fd5b6000611d52611a18565b1115611d6057611d60610d2c565b6001600160a01b038116600090815260146020526040902054611d839084611ae9565b6001600160a01b038083166000908152601460205260408082209390935590861681522054611db29084611ccb565b6001600160a01b03858116600081815260146020908152604080832095909555601280549487168352601382528583208054958a029095039094559254918152838120805492880290920190915560159091522054158015611e2d57506001600160a01b038416600090815260156020526040902060070154155b15611e3c576007805460010190555b6001600160a01b038082166000818152601560209081526040808320600d810180546001908101909155600690910180548a019055948916808452928190206007810180548a019055600e018054860190556008805490950190945583518781524291810191909152835191937f91c7d71a3ae3fb7cf61e00517bf4868e9e23d0bace5e304cbc3b68de5d85350e92918290030190a36001600160a01b0381166000818152601560208181526040808420805460148452948290205493835260020154815194855291840192909252828201524260608301525160008051602061239f8339815191529181900360800190a26001600160a01b0384166000818152601560208181526040808420805460148452948290205493835260020154815194855291840192909252828201524260608301525160008051602061239f8339815191529181900360800190a25060019392505050565b60003381611fa182610a2c565b6001600160a01b03831660009081526013602052604081208054600160401b8402019055909150611fd233836120c9565b6040805184815260208101839052428183015290519192506001600160a01b038516917f193a876ac91d11a4a0a71ebef73b195ba55aa7c16d6755c93c21d973e692a02c9181900360600190a26001600160a01b0383166000908152601560205260409020600301546120459083611ccb565b6001600160a01b0384166000818152601560208181526040808420600381019690965560098601805460010190558554601483529381902054928252600290950154855193845290830191909152818401524260608201529151909160008051602061239f833981519152919081900360800190a26120c2611bd4565b9250505090565b6001600160a01b03821660009081526015602052604081205415801561210857506001600160a01b038316600090815260156020526040902060070154155b15612117576007805460010190555b6008805460010190556000606461212f846003611a29565b8161213657fe5b04905060006121458483611ae9565b6040805186815260208101839052428183015290519192506001600160a01b038716917fb49bb132260f6aa1c86e2d2a3957c097216e6ec9b5fa15867289f058b4d297ac9181900360600190a26000811180156121ac57506011546121aa8282611ccb565b115b6121b557600080fd5b601154156121ca5760118054820190556121d0565b60118190555b6121d982611b46565b6001600160a01b0385166000908152601460205260409020546121fc9082611ccb565b6001600160a01b03861660009081526014602090815260408083209390935560125460138252838320805491860291909101905560159052208054850181556008018054600101905591505092915050565b600082821115612260575060006110be565b508082036110be565b604051806101c00160405280600e906020820280368337509192915050565b604051806101e001604052806000815260200160008152602001600081526020016000815260200160008152602001600081526020016000815260200160008152602001600081526020016000815260200160008152602001600081526020016000815260200160008152602001600081525090565b828054828255906000526020600020908101928215612353579160200282015b8281111561235357825182546001600160a01b0319166001600160a01b0390911617825560209092019160019091019061231e565b5061235f929150612363565b5090565b5b8082111561235f576000815560010161236456fe4f776e61626c653a206e6577206f776e657220697320746865207a65726f206164647265737329f64f6f46c82c5ecfa955fe7d093e63b4106b6dbe5193e00efd62c7384ef177416464726573733a20756e61626c6520746f2073656e642076616c75652c20726563697069656e74206d61792068617665207265766572746564536166654d6174683a206d756c7469706c69636174696f6e206f766572666c6f774f776e61626c653a2063616c6c6572206973206e6f7420746865206f776e6572a264697066735822122036c8969b296e230c736747f6dc7e1ecadd2e50a652eb4d913b73ecfe4159641264736f6c63430007040033",
					"opcodes": "PUSH1 0x80 PUSH1 0x40 MSTORE CALLVALUE DUP1 ISZERO PUSH3 0x11 JUMPI PUSH1 0x0 DUP1 REVERT JUMPDEST POP PUSH1 0x40 MLOAD PUSH3 0x2613 CODESIZE SUB DUP1 PUSH3 0x2613 DUP4 CODECOPY DUP2 DUP2 ADD PUSH1 0x40 MSTORE PUSH1 0x60 DUP2 LT ISZERO PUSH3 0x37 JUMPI PUSH1 0x0 DUP1 REVERT JUMPDEST POP DUP1 MLOAD PUSH1 0x20 DUP3 ADD MLOAD PUSH1 0x40 SWAP1 SWAP3 ADD MLOAD SWAP1 SWAP2 SWAP1 PUSH1 0x0 PUSH3 0x54 PUSH3 0x18A JUMP JUMPDEST PUSH1 0x0 DUP1 SLOAD PUSH1 0x1 PUSH1 0x1 PUSH1 0xA0 SHL SUB NOT AND PUSH1 0x1 PUSH1 0x1 PUSH1 0xA0 SHL SUB DUP4 AND SWAP1 DUP2 OR DUP3 SSTORE PUSH1 0x40 MLOAD SWAP3 SWAP4 POP SWAP2 PUSH32 0x8BE0079C531659141344CD1FD0A4F28419497F9722A3DAAFE3B4186F6B6457E0 SWAP1 DUP3 SWAP1 LOG3 POP PUSH1 0x1 DUP1 SSTORE PUSH1 0x1 PUSH1 0x1 PUSH1 0xA0 SHL SUB DUP4 AND ISZERO DUP1 ISZERO SWAP1 PUSH3 0xCC JUMPI POP PUSH3 0xCC DUP4 PUSH3 0x18E PUSH1 0x20 SHL PUSH3 0x1A23 OR PUSH1 0x20 SHR JUMP JUMPDEST PUSH3 0x110 JUMPI PUSH1 0x40 DUP1 MLOAD PUSH3 0x461BCD PUSH1 0xE5 SHL DUP2 MSTORE PUSH1 0x20 PUSH1 0x4 DUP3 ADD MSTORE PUSH1 0xF PUSH1 0x24 DUP3 ADD MSTORE PUSH15 0x494E56414C49445F41444452455353 PUSH1 0x88 SHL PUSH1 0x44 DUP3 ADD MSTORE SWAP1 MLOAD SWAP1 DUP2 SWAP1 SUB PUSH1 0x64 ADD SWAP1 REVERT JUMPDEST PUSH1 0xD DUP1 SLOAD PUSH1 0x4 DUP1 SLOAD PUSH1 0x1 PUSH1 0x1 PUSH1 0xA0 SHL SUB SWAP7 DUP8 AND PUSH1 0x1 PUSH1 0x1 PUSH1 0xA0 SHL SUB NOT SWAP2 DUP3 AND DUP2 OR SWAP1 SWAP3 SSTORE PUSH1 0x2 DUP1 SLOAD DUP3 AND SWAP1 SWAP3 OR DUP3 SSTORE PUSH1 0x5 DUP1 SLOAD SWAP1 SWAP2 AND CALLER OR SWAP1 SSTORE PUSH1 0xFF SWAP1 SWAP4 AND PUSH1 0xFF NOT SWAP6 SWAP1 SWAP5 AND PUSH2 0x100 MUL PUSH2 0x100 PUSH1 0x1 PUSH1 0xA8 SHL SUB NOT SWAP1 SWAP2 AND OR SWAP4 SWAP1 SWAP4 AND SWAP2 SWAP1 SWAP2 OR SWAP1 SWAP2 SSTORE TIMESTAMP PUSH1 0x9 SSTORE PUSH1 0xE SSTORE PUSH1 0x1 PUSH1 0xF DUP2 SWAP1 SSTORE PUSH1 0x3 SSTORE PUSH3 0x194 JUMP JUMPDEST CALLER SWAP1 JUMP JUMPDEST EXTCODESIZE ISZERO ISZERO SWAP1 JUMP JUMPDEST PUSH2 0x246F DUP1 PUSH3 0x1A4 PUSH1 0x0 CODECOPY PUSH1 0x0 RETURN INVALID PUSH1 0x80 PUSH1 0x40 MSTORE PUSH1 0x4 CALLDATASIZE LT PUSH2 0x26A JUMPI PUSH1 0x0 CALLDATALOAD PUSH1 0xE0 SHR DUP1 PUSH4 0x949E8ACD GT PUSH2 0x144 JUMPI DUP1 PUSH4 0xE02E1E9C GT PUSH2 0xB6 JUMPI DUP1 PUSH4 0xF69E2046 GT PUSH2 0x7A JUMPI DUP1 PUSH4 0xF69E2046 EQ PUSH2 0x7E7 JUMPI DUP1 PUSH4 0xF6DB0DA0 EQ PUSH2 0x7FC JUMPI DUP1 PUSH4 0xF7C618C1 EQ PUSH2 0x8AC JUMPI DUP1 PUSH4 0xFBAF1BBD EQ PUSH2 0x8C1 JUMPI DUP1 PUSH4 0xFFAAD6A5 EQ PUSH2 0x8F4 JUMPI DUP1 PUSH4 0xFFE6BBD8 EQ PUSH2 0x92D JUMPI PUSH2 0x2C0 JUMP JUMPDEST DUP1 PUSH4 0xE02E1E9C EQ PUSH2 0x718 JUMPI DUP1 PUSH4 0xEEDC966A EQ PUSH2 0x742 JUMPI DUP1 PUSH4 0xF14FAF6F EQ PUSH2 0x775 JUMPI DUP1 PUSH4 0xF2020275 EQ PUSH2 0x79F JUMPI DUP1 PUSH4 0xF2FDE38B EQ PUSH2 0x7B4 JUMPI PUSH2 0x2C0 JUMP JUMPDEST DUP1 PUSH4 0xAECB6D28 GT PUSH2 0x108 JUMPI DUP1 PUSH4 0xAECB6D28 EQ PUSH2 0x65A JUMPI DUP1 PUSH4 0xB03CF5A7 EQ PUSH2 0x66F JUMPI DUP1 PUSH4 0xB6B55F25 EQ PUSH2 0x699 JUMPI DUP1 PUSH4 0xB9DB102A EQ PUSH2 0x6C3 JUMPI DUP1 PUSH4 0xD3261592 EQ PUSH2 0x6D8 JUMPI DUP1 PUSH4 0xD7C3771D EQ PUSH2 0x703 JUMPI PUSH2 0x2C0 JUMP JUMPDEST DUP1 PUSH4 0x949E8ACD EQ PUSH2 0x5CD JUMPI DUP1 PUSH4 0x9D76EA58 EQ PUSH2 0x5E2 JUMPI DUP1 PUSH4 0xA01496DE EQ PUSH2 0x5F7 JUMPI DUP1 PUSH4 0xA9059CBB EQ PUSH2 0x60C JUMPI DUP1 PUSH4 0xAD7A672F EQ PUSH2 0x645 JUMPI PUSH2 0x2C0 JUMP JUMPDEST DUP1 PUSH4 0x537A39BB GT PUSH2 0x1DD JUMPI DUP1 PUSH4 0x7E6335C7 GT PUSH2 0x1A1 JUMPI DUP1 PUSH4 0x7E6335C7 EQ PUSH2 0x4DD JUMPI DUP1 PUSH4 0x8086B8BA EQ PUSH2 0x50D JUMPI DUP1 PUSH4 0x81FCE645 EQ PUSH2 0x579 JUMPI DUP1 PUSH4 0x8620410B EQ PUSH2 0x58E JUMPI DUP1 PUSH4 0x89375ABF EQ PUSH2 0x5A3 JUMPI DUP1 PUSH4 0x8DA5CB5B EQ PUSH2 0x5B8 JUMPI PUSH2 0x2C0 JUMP JUMPDEST DUP1 PUSH4 0x537A39BB EQ PUSH2 0x43A JUMPI DUP1 PUSH4 0x70A08231 EQ PUSH2 0x44F JUMPI DUP1 PUSH4 0x715018A6 EQ PUSH2 0x482 JUMPI DUP1 PUSH4 0x72F702F3 EQ PUSH2 0x497 JUMPI DUP1 PUSH4 0x7D882097 EQ PUSH2 0x4C8 JUMPI PUSH2 0x2C0 JUMP JUMPDEST DUP1 PUSH4 0x1F38B9CD GT PUSH2 0x22F JUMPI DUP1 PUSH4 0x1F38B9CD EQ PUSH2 0x373 JUMPI DUP1 PUSH4 0x2E1A7D4D EQ PUSH2 0x388 JUMPI DUP1 PUSH4 0x36599EAD EQ PUSH2 0x3B4 JUMPI DUP1 PUSH4 0x41C61383 EQ PUSH2 0x3FB JUMPI DUP1 PUSH4 0x4641257D EQ PUSH2 0x410 JUMPI DUP1 PUSH4 0x4B750334 EQ PUSH2 0x425 JUMPI PUSH2 0x2C0 JUMP JUMPDEST DUP1 PUSH3 0x65318B EQ PUSH2 0x2C5 JUMPI DUP1 PUSH4 0x8560ACE EQ PUSH2 0x30A JUMPI DUP1 PUSH4 0x10D0FFDD EQ PUSH2 0x31F JUMPI DUP1 PUSH4 0x18160DDD EQ PUSH2 0x349 JUMPI DUP1 PUSH4 0x1924063E EQ PUSH2 0x35E JUMPI PUSH2 0x2C0 JUMP JUMPDEST CALLDATASIZE PUSH2 0x2C0 JUMPI PUSH1 0x5 SLOAD PUSH2 0x285 SWAP1 PUSH1 0x1 PUSH1 0x1 PUSH1 0xA0 SHL SUB AND CALLVALUE PUSH2 0x942 JUMP JUMPDEST PUSH1 0x40 DUP1 MLOAD CALLVALUE DUP2 MSTORE TIMESTAMP PUSH1 0x20 DUP3 ADD MSTORE DUP2 MLOAD CALLER SWAP3 PUSH32 0x3C2BD1B3F5CA07AFB09FBEE41AC43DA2B98D9C2E9832673052E546BD1D4C091D SWAP3 DUP3 SWAP1 SUB ADD SWAP1 LOG2 STOP JUMPDEST PUSH1 0x0 DUP1 REVERT JUMPDEST CALLVALUE DUP1 ISZERO PUSH2 0x2D1 JUMPI PUSH1 0x0 DUP1 REVERT JUMPDEST POP PUSH2 0x2F8 PUSH1 0x4 DUP1 CALLDATASIZE SUB PUSH1 0x20 DUP2 LT ISZERO PUSH2 0x2E8 JUMPI PUSH1 0x0 DUP1 REVERT JUMPDEST POP CALLDATALOAD PUSH1 0x1 PUSH1 0x1 PUSH1 0xA0 SHL SUB AND PUSH2 0xA2C JUMP JUMPDEST PUSH1 0x40 DUP1 MLOAD SWAP2 DUP3 MSTORE MLOAD SWAP1 DUP2 SWAP1 SUB PUSH1 0x20 ADD SWAP1 RETURN JUMPDEST CALLVALUE DUP1 ISZERO PUSH2 0x316 JUMPI PUSH1 0x0 DUP1 REVERT JUMPDEST POP PUSH2 0x2F8 PUSH2 0xA65 JUMP JUMPDEST CALLVALUE DUP1 ISZERO PUSH2 0x32B JUMPI PUSH1 0x0 DUP1 REVERT JUMPDEST POP PUSH2 0x2F8 PUSH1 0x4 DUP1 CALLDATASIZE SUB PUSH1 0x20 DUP2 LT ISZERO PUSH2 0x342 JUMPI PUSH1 0x0 DUP1 REVERT JUMPDEST POP CALLDATALOAD PUSH2 0xA6B JUMP JUMPDEST CALLVALUE DUP1 ISZERO PUSH2 0x355 JUMPI PUSH1 0x0 DUP1 REVERT JUMPDEST POP PUSH2 0x2F8 PUSH2 0xAAB JUMP JUMPDEST CALLVALUE DUP1 ISZERO PUSH2 0x36A JUMPI PUSH1 0x0 DUP1 REVERT JUMPDEST POP PUSH2 0x2F8 PUSH2 0xAB1 JUMP JUMPDEST CALLVALUE DUP1 ISZERO PUSH2 0x37F JUMPI PUSH1 0x0 DUP1 REVERT JUMPDEST POP PUSH2 0x2F8 PUSH2 0xAB7 JUMP JUMPDEST CALLVALUE DUP1 ISZERO PUSH2 0x394 JUMPI PUSH1 0x0 DUP1 REVERT JUMPDEST POP PUSH2 0x3B2 PUSH1 0x4 DUP1 CALLDATASIZE SUB PUSH1 0x20 DUP2 LT ISZERO PUSH2 0x3AB JUMPI PUSH1 0x0 DUP1 REVERT JUMPDEST POP CALLDATALOAD PUSH2 0xABD JUMP JUMPDEST STOP JUMPDEST CALLVALUE DUP1 ISZERO PUSH2 0x3C0 JUMPI PUSH1 0x0 DUP1 REVERT JUMPDEST POP PUSH2 0x3E7 PUSH1 0x4 DUP1 CALLDATASIZE SUB PUSH1 0x20 DUP2 LT ISZERO PUSH2 0x3D7 JUMPI PUSH1 0x0 DUP1 REVERT JUMPDEST POP CALLDATALOAD PUSH1 0x1 PUSH1 0x1 PUSH1 0xA0 SHL SUB AND PUSH2 0xC5B JUMP JUMPDEST PUSH1 0x40 DUP1 MLOAD SWAP2 ISZERO ISZERO DUP3 MSTORE MLOAD SWAP1 DUP2 SWAP1 SUB PUSH1 0x20 ADD SWAP1 RETURN JUMPDEST CALLVALUE DUP1 ISZERO PUSH2 0x407 JUMPI PUSH1 0x0 DUP1 REVERT JUMPDEST POP PUSH2 0x2F8 PUSH2 0xD26 JUMP JUMPDEST CALLVALUE DUP1 ISZERO PUSH2 0x41C JUMPI PUSH1 0x0 DUP1 REVERT JUMPDEST POP PUSH2 0x3B2 PUSH2 0xD2C JUMP JUMPDEST CALLVALUE DUP1 ISZERO PUSH2 0x431 JUMPI PUSH1 0x0 DUP1 REVERT JUMPDEST POP PUSH2 0x2F8 PUSH2 0xE9D JUMP JUMPDEST CALLVALUE DUP1 ISZERO PUSH2 0x446 JUMPI PUSH1 0x0 DUP1 REVERT JUMPDEST POP PUSH2 0x2F8 PUSH2 0xECD JUMP JUMPDEST CALLVALUE DUP1 ISZERO PUSH2 0x45B JUMPI PUSH1 0x0 DUP1 REVERT JUMPDEST POP PUSH2 0x2F8 PUSH1 0x4 DUP1 CALLDATASIZE SUB PUSH1 0x20 DUP2 LT ISZERO PUSH2 0x472 JUMPI PUSH1 0x0 DUP1 REVERT JUMPDEST POP CALLDATALOAD PUSH1 0x1 PUSH1 0x1 PUSH1 0xA0 SHL SUB AND PUSH2 0xED3 JUMP JUMPDEST CALLVALUE DUP1 ISZERO PUSH2 0x48E JUMPI PUSH1 0x0 DUP1 REVERT JUMPDEST POP PUSH2 0x3B2 PUSH2 0xEEE JUMP JUMPDEST CALLVALUE DUP1 ISZERO PUSH2 0x4A3 JUMPI PUSH1 0x0 DUP1 REVERT JUMPDEST POP PUSH2 0x4AC PUSH2 0xF9A JUMP JUMPDEST PUSH1 0x40 DUP1 MLOAD PUSH1 0x1 PUSH1 0x1 PUSH1 0xA0 SHL SUB SWAP1 SWAP3 AND DUP3 MSTORE MLOAD SWAP1 DUP2 SWAP1 SUB PUSH1 0x20 ADD SWAP1 RETURN JUMPDEST CALLVALUE DUP1 ISZERO PUSH2 0x4D4 JUMPI PUSH1 0x0 DUP1 REVERT JUMPDEST POP PUSH2 0x2F8 PUSH2 0xFA9 JUMP JUMPDEST CALLVALUE DUP1 ISZERO PUSH2 0x4E9 JUMPI PUSH1 0x0 DUP1 REVERT JUMPDEST POP PUSH2 0x3E7 PUSH1 0x4 DUP1 CALLDATASIZE SUB PUSH1 0x40 DUP2 LT ISZERO PUSH2 0x500 JUMPI PUSH1 0x0 DUP1 REVERT JUMPDEST POP DUP1 CALLDATALOAD SWAP1 PUSH1 0x20 ADD CALLDATALOAD PUSH2 0xFAF JUMP JUMPDEST CALLVALUE DUP1 ISZERO PUSH2 0x519 JUMPI PUSH1 0x0 DUP1 REVERT JUMPDEST POP PUSH2 0x540 PUSH1 0x4 DUP1 CALLDATASIZE SUB PUSH1 0x20 DUP2 LT ISZERO PUSH2 0x530 JUMPI PUSH1 0x0 DUP1 REVERT JUMPDEST POP CALLDATALOAD PUSH1 0x1 PUSH1 0x1 PUSH1 0xA0 SHL SUB AND PUSH2 0x10C4 JUMP JUMPDEST PUSH1 0x40 MLOAD DUP1 DUP3 PUSH2 0x1C0 DUP1 DUP4 DUP4 PUSH1 0x0 JUMPDEST DUP4 DUP2 LT ISZERO PUSH2 0x566 JUMPI DUP2 DUP2 ADD MLOAD DUP4 DUP3 ADD MSTORE PUSH1 0x20 ADD PUSH2 0x54E JUMP JUMPDEST POP POP POP POP SWAP1 POP ADD SWAP2 POP POP PUSH1 0x40 MLOAD DUP1 SWAP2 SUB SWAP1 RETURN JUMPDEST CALLVALUE DUP1 ISZERO PUSH2 0x585 JUMPI PUSH1 0x0 DUP1 REVERT JUMPDEST POP PUSH2 0x2F8 PUSH2 0x1247 JUMP JUMPDEST CALLVALUE DUP1 ISZERO PUSH2 0x59A JUMPI PUSH1 0x0 DUP1 REVERT JUMPDEST POP PUSH2 0x2F8 PUSH2 0x124C JUMP JUMPDEST CALLVALUE DUP1 ISZERO PUSH2 0x5AF JUMPI PUSH1 0x0 DUP1 REVERT JUMPDEST POP PUSH2 0x2F8 PUSH2 0x1274 JUMP JUMPDEST CALLVALUE DUP1 ISZERO PUSH2 0x5C4 JUMPI PUSH1 0x0 DUP1 REVERT JUMPDEST POP PUSH2 0x4AC PUSH2 0x127A JUMP JUMPDEST CALLVALUE DUP1 ISZERO PUSH2 0x5D9 JUMPI PUSH1 0x0 DUP1 REVERT JUMPDEST POP PUSH2 0x2F8 PUSH2 0x1289 JUMP JUMPDEST CALLVALUE DUP1 ISZERO PUSH2 0x5EE JUMPI PUSH1 0x0 DUP1 REVERT JUMPDEST POP PUSH2 0x4AC PUSH2 0x1299 JUMP JUMPDEST CALLVALUE DUP1 ISZERO PUSH2 0x603 JUMPI PUSH1 0x0 DUP1 REVERT JUMPDEST POP PUSH2 0x2F8 PUSH2 0x12A8 JUMP JUMPDEST CALLVALUE DUP1 ISZERO PUSH2 0x618 JUMPI PUSH1 0x0 DUP1 REVERT JUMPDEST POP PUSH2 0x3E7 PUSH1 0x4 DUP1 CALLDATASIZE SUB PUSH1 0x40 DUP2 LT ISZERO PUSH2 0x62F JUMPI PUSH1 0x0 DUP1 REVERT JUMPDEST POP PUSH1 0x1 PUSH1 0x1 PUSH1 0xA0 SHL SUB DUP2 CALLDATALOAD AND SWAP1 PUSH1 0x20 ADD CALLDATALOAD PUSH2 0x12AE JUMP JUMPDEST CALLVALUE DUP1 ISZERO PUSH2 0x651 JUMPI PUSH1 0x0 DUP1 REVERT JUMPDEST POP PUSH2 0x2F8 PUSH2 0x12D4 JUMP JUMPDEST CALLVALUE DUP1 ISZERO PUSH2 0x666 JUMPI PUSH1 0x0 DUP1 REVERT JUMPDEST POP PUSH2 0x2F8 PUSH2 0x1350 JUMP JUMPDEST CALLVALUE DUP1 ISZERO PUSH2 0x67B JUMPI PUSH1 0x0 DUP1 REVERT JUMPDEST POP PUSH2 0x4AC PUSH1 0x4 DUP1 CALLDATASIZE SUB PUSH1 0x20 DUP2 LT ISZERO PUSH2 0x692 JUMPI PUSH1 0x0 DUP1 REVERT JUMPDEST POP CALLDATALOAD PUSH2 0x1356 JUMP JUMPDEST CALLVALUE DUP1 ISZERO PUSH2 0x6A5 JUMPI PUSH1 0x0 DUP1 REVERT JUMPDEST POP PUSH2 0x2F8 PUSH1 0x4 DUP1 CALLDATASIZE SUB PUSH1 0x20 DUP2 LT ISZERO PUSH2 0x6BC JUMPI PUSH1 0x0 DUP1 REVERT JUMPDEST POP CALLDATALOAD PUSH2 0x1380 JUMP JUMPDEST CALLVALUE DUP1 ISZERO PUSH2 0x6CF JUMPI PUSH1 0x0 DUP1 REVERT JUMPDEST POP PUSH2 0x2F8 PUSH2 0x138C JUMP JUMPDEST CALLVALUE DUP1 ISZERO PUSH2 0x6E4 JUMPI PUSH1 0x0 DUP1 REVERT JUMPDEST POP PUSH2 0x6ED PUSH2 0x1392 JUMP JUMPDEST PUSH1 0x40 DUP1 MLOAD PUSH1 0xFF SWAP1 SWAP3 AND DUP3 MSTORE MLOAD SWAP1 DUP2 SWAP1 SUB PUSH1 0x20 ADD SWAP1 RETURN JUMPDEST CALLVALUE DUP1 ISZERO PUSH2 0x70F JUMPI PUSH1 0x0 DUP1 REVERT JUMPDEST POP PUSH2 0x4AC PUSH2 0x139B JUMP JUMPDEST CALLVALUE DUP1 ISZERO PUSH2 0x724 JUMPI PUSH1 0x0 DUP1 REVERT JUMPDEST POP PUSH2 0x2F8 PUSH1 0x4 DUP1 CALLDATASIZE SUB PUSH1 0x20 DUP2 LT ISZERO PUSH2 0x73B JUMPI PUSH1 0x0 DUP1 REVERT JUMPDEST POP CALLDATALOAD PUSH2 0x13AA JUMP JUMPDEST CALLVALUE DUP1 ISZERO PUSH2 0x74E JUMPI PUSH1 0x0 DUP1 REVERT JUMPDEST POP PUSH2 0x2F8 PUSH1 0x4 DUP1 CALLDATASIZE SUB PUSH1 0x20 DUP2 LT ISZERO PUSH2 0x765 JUMPI PUSH1 0x0 DUP1 REVERT JUMPDEST POP CALLDATALOAD PUSH1 0x1 PUSH1 0x1 PUSH1 0xA0 SHL SUB AND PUSH2 0x13D1 JUMP JUMPDEST CALLVALUE DUP1 ISZERO PUSH2 0x781 JUMPI PUSH1 0x0 DUP1 REVERT JUMPDEST POP PUSH2 0x2F8 PUSH1 0x4 DUP1 CALLDATASIZE SUB PUSH1 0x20 DUP2 LT ISZERO PUSH2 0x798 JUMPI PUSH1 0x0 DUP1 REVERT JUMPDEST POP CALLDATALOAD PUSH2 0x13DE JUMP JUMPDEST CALLVALUE DUP1 ISZERO PUSH2 0x7AB JUMPI PUSH1 0x0 DUP1 REVERT JUMPDEST POP PUSH2 0x2F8 PUSH2 0x14E2 JUMP JUMPDEST CALLVALUE DUP1 ISZERO PUSH2 0x7C0 JUMPI PUSH1 0x0 DUP1 REVERT JUMPDEST POP PUSH2 0x3B2 PUSH1 0x4 DUP1 CALLDATASIZE SUB PUSH1 0x20 DUP2 LT ISZERO PUSH2 0x7D7 JUMPI PUSH1 0x0 DUP1 REVERT JUMPDEST POP CALLDATALOAD PUSH1 0x1 PUSH1 0x1 PUSH1 0xA0 SHL SUB AND PUSH2 0x14E8 JUMP JUMPDEST CALLVALUE DUP1 ISZERO PUSH2 0x7F3 JUMPI PUSH1 0x0 DUP1 REVERT JUMPDEST POP PUSH2 0x3B2 PUSH2 0x15EA JUMP JUMPDEST CALLVALUE DUP1 ISZERO PUSH2 0x808 JUMPI PUSH1 0x0 DUP1 REVERT JUMPDEST POP PUSH2 0x3E7 PUSH1 0x4 DUP1 CALLDATASIZE SUB PUSH1 0x20 DUP2 LT ISZERO PUSH2 0x81F JUMPI PUSH1 0x0 DUP1 REVERT JUMPDEST DUP2 ADD SWAP1 PUSH1 0x20 DUP2 ADD DUP2 CALLDATALOAD PUSH5 0x100000000 DUP2 GT ISZERO PUSH2 0x83A JUMPI PUSH1 0x0 DUP1 REVERT JUMPDEST DUP3 ADD DUP4 PUSH1 0x20 DUP3 ADD GT ISZERO PUSH2 0x84C JUMPI PUSH1 0x0 DUP1 REVERT JUMPDEST DUP1 CALLDATALOAD SWAP1 PUSH1 0x20 ADD SWAP2 DUP5 PUSH1 0x20 DUP4 MUL DUP5 ADD GT PUSH5 0x100000000 DUP4 GT OR ISZERO PUSH2 0x86E JUMPI PUSH1 0x0 DUP1 REVERT JUMPDEST SWAP2 SWAP1 DUP1 DUP1 PUSH1 0x20 MUL PUSH1 0x20 ADD PUSH1 0x40 MLOAD SWAP1 DUP2 ADD PUSH1 0x40 MSTORE DUP1 SWAP4 SWAP3 SWAP2 SWAP1 DUP2 DUP2 MSTORE PUSH1 0x20 ADD DUP4 DUP4 PUSH1 0x20 MUL DUP1 DUP3 DUP5 CALLDATACOPY PUSH1 0x0 SWAP3 ADD SWAP2 SWAP1 SWAP2 MSTORE POP SWAP3 SWAP6 POP PUSH2 0x1609 SWAP5 POP POP POP POP POP JUMP JUMPDEST CALLVALUE DUP1 ISZERO PUSH2 0x8B8 JUMPI PUSH1 0x0 DUP1 REVERT JUMPDEST POP PUSH2 0x4AC PUSH2 0x1896 JUMP JUMPDEST CALLVALUE DUP1 ISZERO PUSH2 0x8CD JUMPI PUSH1 0x0 DUP1 REVERT JUMPDEST POP PUSH2 0x2F8 PUSH1 0x4 DUP1 CALLDATASIZE SUB PUSH1 0x20 DUP2 LT ISZERO PUSH2 0x8E4 JUMPI PUSH1 0x0 DUP1 REVERT JUMPDEST POP CALLDATALOAD PUSH1 0x1 PUSH1 0x1 PUSH1 0xA0 SHL SUB AND PUSH2 0x18AA JUMP JUMPDEST CALLVALUE DUP1 ISZERO PUSH2 0x900 JUMPI PUSH1 0x0 DUP1 REVERT JUMPDEST POP PUSH2 0x2F8 PUSH1 0x4 DUP1 CALLDATASIZE SUB PUSH1 0x40 DUP2 LT ISZERO PUSH2 0x917 JUMPI PUSH1 0x0 DUP1 REVERT JUMPDEST POP PUSH1 0x1 PUSH1 0x1 PUSH1 0xA0 SHL SUB DUP2 CALLDATALOAD AND SWAP1 PUSH1 0x20 ADD CALLDATALOAD PUSH2 0x190D JUMP JUMPDEST CALLVALUE DUP1 ISZERO PUSH2 0x939 JUMPI PUSH1 0x0 DUP1 REVERT JUMPDEST POP PUSH2 0x2F8 PUSH2 0x1A18 JUMP JUMPDEST DUP1 SELFBALANCE LT ISZERO PUSH2 0x997 JUMPI PUSH1 0x40 DUP1 MLOAD PUSH3 0x461BCD PUSH1 0xE5 SHL DUP2 MSTORE PUSH1 0x20 PUSH1 0x4 DUP3 ADD MSTORE PUSH1 0x1D PUSH1 0x24 DUP3 ADD MSTORE PUSH32 0x416464726573733A20696E73756666696369656E742062616C616E6365000000 PUSH1 0x44 DUP3 ADD MSTORE SWAP1 MLOAD SWAP1 DUP2 SWAP1 SUB PUSH1 0x64 ADD SWAP1 REVERT JUMPDEST PUSH1 0x40 MLOAD PUSH1 0x0 SWAP1 PUSH1 0x1 PUSH1 0x1 PUSH1 0xA0 SHL SUB DUP5 AND SWAP1 DUP4 SWAP1 DUP4 DUP2 DUP2 DUP2 DUP6 DUP8 GAS CALL SWAP3 POP POP POP RETURNDATASIZE DUP1 PUSH1 0x0 DUP2 EQ PUSH2 0x9E2 JUMPI PUSH1 0x40 MLOAD SWAP2 POP PUSH1 0x1F NOT PUSH1 0x3F RETURNDATASIZE ADD AND DUP3 ADD PUSH1 0x40 MSTORE RETURNDATASIZE DUP3 MSTORE RETURNDATASIZE PUSH1 0x0 PUSH1 0x20 DUP5 ADD RETURNDATACOPY PUSH2 0x9E7 JUMP JUMPDEST PUSH1 0x60 SWAP2 POP JUMPDEST POP POP SWAP1 POP DUP1 PUSH2 0xA27 JUMPI PUSH1 0x40 MLOAD PUSH3 0x461BCD PUSH1 0xE5 SHL DUP2 MSTORE PUSH1 0x4 ADD DUP1 DUP1 PUSH1 0x20 ADD DUP3 DUP2 SUB DUP3 MSTORE PUSH1 0x3A DUP2 MSTORE PUSH1 0x20 ADD DUP1 PUSH2 0x23BF PUSH1 0x3A SWAP2 CODECOPY PUSH1 0x40 ADD SWAP2 POP POP PUSH1 0x40 MLOAD DUP1 SWAP2 SUB SWAP1 REVERT JUMPDEST POP POP POP JUMP JUMPDEST PUSH1 0x1 PUSH1 0x1 PUSH1 0xA0 SHL SUB DUP2 AND PUSH1 0x0 SWAP1 DUP2 MSTORE PUSH1 0x13 PUSH1 0x20 SWAP1 DUP2 MSTORE PUSH1 0x40 DUP1 DUP4 KECCAK256 SLOAD PUSH1 0x14 SWAP1 SWAP3 MSTORE DUP3 KECCAK256 SLOAD PUSH1 0x12 SLOAD PUSH1 0x1 PUSH1 0x40 SHL SWAP3 SWAP2 MUL SUB DIV SWAP1 POP JUMPDEST SWAP2 SWAP1 POP JUMP JUMPDEST PUSH1 0x3 SLOAD DUP2 JUMP JUMPDEST PUSH1 0x0 PUSH1 0x11 SLOAD DUP3 GT ISZERO PUSH2 0xA7C JUMPI PUSH1 0x0 DUP1 REVERT JUMPDEST DUP2 PUSH1 0x0 PUSH2 0xA94 PUSH2 0xA8D DUP4 PUSH1 0x3 PUSH2 0x1A29 JUMP JUMPDEST PUSH1 0x64 PUSH2 0x1A82 JUMP JUMPDEST SWAP1 POP PUSH1 0x0 PUSH2 0xAA2 DUP4 DUP4 PUSH2 0x1AE9 JUMP JUMPDEST SWAP6 SWAP5 POP POP POP POP POP JUMP JUMPDEST PUSH1 0x11 SLOAD SWAP1 JUMP JUMPDEST PUSH1 0x10 SLOAD DUP2 JUMP JUMPDEST PUSH1 0xF SLOAD DUP2 JUMP JUMPDEST PUSH1 0x0 PUSH2 0xAC7 PUSH2 0x1289 JUMP JUMPDEST GT PUSH2 0xAD1 JUMPI PUSH1 0x0 DUP1 REVERT JUMPDEST CALLER PUSH1 0x0 DUP2 DUP2 MSTORE PUSH1 0x14 PUSH1 0x20 MSTORE PUSH1 0x40 SWAP1 KECCAK256 SLOAD DUP3 GT ISZERO PUSH2 0xAED JUMPI PUSH1 0x0 DUP1 REVERT JUMPDEST PUSH1 0x0 PUSH1 0x64 PUSH2 0xAFC DUP5 PUSH1 0x3 PUSH2 0x1A29 JUMP JUMPDEST DUP2 PUSH2 0xB03 JUMPI INVALID JUMPDEST DIV SWAP1 POP PUSH1 0x0 PUSH2 0xB11 CALLER PUSH2 0xC5B JUMP JUMPDEST SWAP1 POP DUP1 ISZERO PUSH2 0xB1E JUMPI PUSH1 0x0 SWAP2 POP JUMPDEST PUSH1 0x0 PUSH2 0xB2A DUP6 DUP5 PUSH2 0x1AE9 JUMP JUMPDEST SWAP1 POP PUSH2 0xB38 PUSH1 0x11 SLOAD DUP7 PUSH2 0x1AE9 JUMP JUMPDEST PUSH1 0x11 SSTORE PUSH1 0x1 PUSH1 0x1 PUSH1 0xA0 SHL SUB DUP5 AND PUSH1 0x0 SWAP1 DUP2 MSTORE PUSH1 0x14 PUSH1 0x20 MSTORE PUSH1 0x40 SWAP1 KECCAK256 SLOAD PUSH2 0xB5E SWAP1 DUP7 PUSH2 0x1AE9 JUMP JUMPDEST PUSH1 0x1 PUSH1 0x1 PUSH1 0xA0 SHL SUB DUP6 AND PUSH1 0x0 SWAP1 DUP2 MSTORE PUSH1 0x14 PUSH1 0x20 SWAP1 DUP2 MSTORE PUSH1 0x40 DUP1 DUP4 KECCAK256 SWAP4 SWAP1 SWAP4 SSTORE PUSH1 0x12 SLOAD PUSH1 0x13 SWAP1 SWAP2 MSTORE SWAP2 SWAP1 KECCAK256 DUP1 SLOAD SWAP2 DUP8 MUL PUSH1 0x1 PUSH1 0x40 SHL DUP5 MUL ADD SWAP2 DUP3 SWAP1 SUB SWAP1 SSTORE PUSH2 0xBA4 DUP5 PUSH2 0x1B46 JUMP JUMPDEST PUSH1 0x40 DUP1 MLOAD DUP8 DUP2 MSTORE PUSH1 0x20 DUP2 ADD DUP5 SWAP1 MSTORE TIMESTAMP DUP2 DUP4 ADD MSTORE SWAP1 MLOAD PUSH1 0x1 PUSH1 0x1 PUSH1 0xA0 SHL SUB DUP8 AND SWAP2 PUSH32 0x90EBB005D68EFEE044927E1E77E1FD0CECC508368AA72C39250A787EED5F0A70 SWAP2 SWAP1 DUP2 SWAP1 SUB PUSH1 0x60 ADD SWAP1 LOG2 PUSH1 0x1 PUSH1 0x1 PUSH1 0xA0 SHL SUB DUP6 AND PUSH1 0x0 DUP2 DUP2 MSTORE PUSH1 0x15 PUSH1 0x20 DUP2 DUP2 MSTORE PUSH1 0x40 DUP1 DUP5 KECCAK256 DUP1 SLOAD PUSH1 0x14 DUP5 MSTORE SWAP5 DUP3 SWAP1 KECCAK256 SLOAD SWAP4 DUP4 MSTORE PUSH1 0x2 ADD SLOAD DUP2 MLOAD SWAP5 DUP6 MSTORE SWAP2 DUP5 ADD SWAP3 SWAP1 SWAP3 MSTORE DUP3 DUP3 ADD MSTORE TIMESTAMP PUSH1 0x60 DUP4 ADD MSTORE MLOAD PUSH1 0x0 DUP1 MLOAD PUSH1 0x20 PUSH2 0x239F DUP4 CODECOPY DUP2 MLOAD SWAP2 MSTORE SWAP2 DUP2 SWAP1 SUB PUSH1 0x80 ADD SWAP1 LOG2 PUSH2 0xC53 PUSH2 0x1BD4 JUMP JUMPDEST POP POP POP POP POP POP JUMP JUMPDEST PUSH1 0x0 DUP1 DUP1 DUP1 JUMPDEST PUSH1 0x6 SLOAD DUP2 LT ISZERO PUSH2 0xD07 JUMPI PUSH1 0x6 DUP2 DUP2 SLOAD DUP2 LT PUSH2 0xC78 JUMPI INVALID JUMPDEST PUSH1 0x0 SWAP2 DUP3 MSTORE PUSH1 0x20 SWAP2 DUP3 SWAP1 KECCAK256 ADD SLOAD PUSH1 0x40 DUP1 MLOAD PUSH4 0x70A08231 PUSH1 0xE0 SHL DUP2 MSTORE PUSH1 0x1 PUSH1 0x1 PUSH1 0xA0 SHL SUB DUP10 DUP2 AND PUSH1 0x4 DUP4 ADD MSTORE SWAP2 MLOAD SWAP2 SWAP1 SWAP3 AND SWAP5 POP DUP5 SWAP3 PUSH4 0x70A08231 SWAP3 PUSH1 0x24 DUP1 DUP3 ADD SWAP4 SWAP2 DUP3 SWAP1 SUB ADD DUP2 DUP7 DUP1 EXTCODESIZE ISZERO DUP1 ISZERO PUSH2 0xCCE JUMPI PUSH1 0x0 DUP1 REVERT JUMPDEST POP GAS STATICCALL ISZERO DUP1 ISZERO PUSH2 0xCE2 JUMPI RETURNDATASIZE PUSH1 0x0 DUP1 RETURNDATACOPY RETURNDATASIZE PUSH1 0x0 REVERT JUMPDEST POP POP POP POP PUSH1 0x40 MLOAD RETURNDATASIZE PUSH1 0x20 DUP2 LT ISZERO PUSH2 0xCF8 JUMPI PUSH1 0x0 DUP1 REVERT JUMPDEST POP MLOAD SWAP3 SWAP1 SWAP3 ADD SWAP2 PUSH1 0x1 ADD PUSH2 0xC61 JUMP JUMPDEST POP PUSH1 0x3 SLOAD DUP3 LT PUSH2 0xD1C JUMPI PUSH1 0x1 SWAP3 POP POP POP PUSH2 0xA60 JUMP JUMPDEST POP PUSH1 0x0 SWAP4 SWAP3 POP POP POP JUMP JUMPDEST PUSH1 0xA SLOAD DUP2 JUMP JUMPDEST PUSH1 0x0 PUSH2 0xD36 PUSH2 0x1A18 JUMP JUMPDEST GT PUSH2 0xD40 JUMPI PUSH1 0x0 DUP1 REVERT JUMPDEST CALLER PUSH1 0x0 PUSH2 0xD4B PUSH2 0x1A18 JUMP JUMPDEST PUSH1 0x1 PUSH1 0x1 PUSH1 0xA0 SHL SUB DUP1 DUP5 AND PUSH1 0x0 DUP2 DUP2 MSTORE PUSH1 0x13 PUSH1 0x20 SWAP1 DUP2 MSTORE PUSH1 0x40 DUP1 DUP4 KECCAK256 DUP1 SLOAD PUSH1 0x1 PUSH1 0x40 SHL DUP9 MUL ADD SWAP1 SSTORE PUSH1 0x2 SLOAD DUP2 MLOAD PUSH4 0xA9059CBB PUSH1 0xE0 SHL DUP2 MSTORE PUSH1 0x4 DUP2 ADD SWAP6 SWAP1 SWAP6 MSTORE PUSH1 0x24 DUP6 ADD DUP8 SWAP1 MSTORE SWAP1 MLOAD SWAP6 SWAP7 POP SWAP1 SWAP4 AND SWAP4 PUSH4 0xA9059CBB SWAP4 PUSH1 0x44 DUP1 DUP6 ADD SWAP5 SWAP2 SWAP4 SWAP2 DUP4 SWAP1 SUB ADD SWAP1 DUP3 SWAP1 DUP8 DUP1 EXTCODESIZE ISZERO DUP1 ISZERO PUSH2 0xDBF JUMPI PUSH1 0x0 DUP1 REVERT JUMPDEST POP GAS CALL ISZERO DUP1 ISZERO PUSH2 0xDD3 JUMPI RETURNDATASIZE PUSH1 0x0 DUP1 RETURNDATACOPY RETURNDATASIZE PUSH1 0x0 REVERT JUMPDEST POP POP POP POP PUSH1 0x40 MLOAD RETURNDATASIZE PUSH1 0x20 DUP2 LT ISZERO PUSH2 0xDE9 JUMPI PUSH1 0x0 DUP1 REVERT JUMPDEST POP POP PUSH1 0x1 PUSH1 0x1 PUSH1 0xA0 SHL SUB DUP3 AND PUSH1 0x0 SWAP1 DUP2 MSTORE PUSH1 0x15 PUSH1 0x20 MSTORE PUSH1 0x40 SWAP1 KECCAK256 PUSH1 0x2 ADD SLOAD PUSH2 0xE11 SWAP1 DUP3 PUSH2 0x1CCB JUMP JUMPDEST PUSH1 0x1 PUSH1 0x1 PUSH1 0xA0 SHL SUB DUP4 AND PUSH1 0x0 DUP2 DUP2 MSTORE PUSH1 0x15 PUSH1 0x20 SWAP1 DUP2 MSTORE PUSH1 0x40 SWAP2 DUP3 SWAP1 KECCAK256 PUSH1 0x2 DUP2 ADD SWAP5 SWAP1 SWAP5 SSTORE PUSH1 0xC SWAP1 SWAP4 ADD DUP1 SLOAD PUSH1 0x1 SWAP1 DUP2 ADD SWAP1 SWAP2 SSTORE PUSH1 0x8 DUP1 SLOAD SWAP1 SWAP2 ADD SWAP1 SSTORE PUSH1 0xA DUP1 SLOAD DUP6 ADD SWAP1 SSTORE DUP1 MLOAD DUP5 DUP2 MSTORE TIMESTAMP SWAP4 DUP2 ADD SWAP4 SWAP1 SWAP4 MSTORE DUP1 MLOAD SWAP2 SWAP3 PUSH32 0x1B091269E929DF55D64D6EA7E9CADBE4FB38DCE5CCDC995767BC515030DBFBBF SWAP3 SWAP1 DUP2 SWAP1 SUB SWAP1 SWAP2 ADD SWAP1 LOG2 PUSH2 0xE99 PUSH2 0x1BD4 JUMP JUMPDEST POP POP JUMP JUMPDEST PUSH1 0x0 PUSH8 0xDE0B6B3A7640000 DUP2 PUSH2 0xEB7 PUSH2 0xA8D DUP4 PUSH1 0x3 PUSH2 0x1A29 JUMP JUMPDEST SWAP1 POP PUSH1 0x0 PUSH2 0xEC5 DUP4 DUP4 PUSH2 0x1AE9 JUMP JUMPDEST SWAP4 POP POP POP POP SWAP1 JUMP JUMPDEST PUSH1 0x8 SLOAD DUP2 JUMP JUMPDEST PUSH1 0x1 PUSH1 0x1 PUSH1 0xA0 SHL SUB AND PUSH1 0x0 SWAP1 DUP2 MSTORE PUSH1 0x14 PUSH1 0x20 MSTORE PUSH1 0x40 SWAP1 KECCAK256 SLOAD SWAP1 JUMP JUMPDEST PUSH2 0xEF6 PUSH2 0x1D25 JUMP JUMPDEST PUSH1 0x1 PUSH1 0x1 PUSH1 0xA0 SHL SUB AND PUSH2 0xF07 PUSH2 0x127A JUMP JUMPDEST PUSH1 0x1 PUSH1 0x1 PUSH1 0xA0 SHL SUB AND EQ PUSH2 0xF50 JUMPI PUSH1 0x40 DUP1 MLOAD PUSH3 0x461BCD PUSH1 0xE5 SHL DUP2 MSTORE PUSH1 0x20 PUSH1 0x4 DUP3 ADD DUP2 SWAP1 MSTORE PUSH1 0x24 DUP3 ADD MSTORE PUSH1 0x0 DUP1 MLOAD PUSH1 0x20 PUSH2 0x241A DUP4 CODECOPY DUP2 MLOAD SWAP2 MSTORE PUSH1 0x44 DUP3 ADD MSTORE SWAP1 MLOAD SWAP1 DUP2 SWAP1 SUB PUSH1 0x64 ADD SWAP1 REVERT JUMPDEST PUSH1 0x0 DUP1 SLOAD PUSH1 0x40 MLOAD PUSH1 0x1 PUSH1 0x1 PUSH1 0xA0 SHL SUB SWAP1 SWAP2 AND SWAP1 PUSH32 0x8BE0079C531659141344CD1FD0A4F28419497F9722A3DAAFE3B4186F6B6457E0 SWAP1 DUP4 SWAP1 LOG3 PUSH1 0x0 DUP1 SLOAD PUSH1 0x1 PUSH1 0x1 PUSH1 0xA0 SHL SUB NOT AND SWAP1 SSTORE JUMP JUMPDEST PUSH1 0x2 SLOAD PUSH1 0x1 PUSH1 0x1 PUSH1 0xA0 SHL SUB AND DUP2 JUMP JUMPDEST PUSH1 0xB SLOAD DUP2 JUMP JUMPDEST PUSH1 0x0 PUSH2 0xFB9 PUSH2 0x1D25 JUMP JUMPDEST PUSH1 0x1 PUSH1 0x1 PUSH1 0xA0 SHL SUB AND PUSH2 0xFCA PUSH2 0x127A JUMP JUMPDEST PUSH1 0x1 PUSH1 0x1 PUSH1 0xA0 SHL SUB AND EQ PUSH2 0x1013 JUMPI PUSH1 0x40 DUP1 MLOAD PUSH3 0x461BCD PUSH1 0xE5 SHL DUP2 MSTORE PUSH1 0x20 PUSH1 0x4 DUP3 ADD DUP2 SWAP1 MSTORE PUSH1 0x24 DUP3 ADD MSTORE PUSH1 0x0 DUP1 MLOAD PUSH1 0x20 PUSH2 0x241A DUP4 CODECOPY DUP2 MLOAD SWAP2 MSTORE PUSH1 0x44 DUP3 ADD MSTORE SWAP1 MLOAD SWAP1 DUP2 SWAP1 SUB PUSH1 0x64 ADD SWAP1 REVERT JUMPDEST PUSH2 0x101D DUP4 DUP4 PUSH2 0x1CCB JUMP JUMPDEST PUSH1 0x3 EQ PUSH2 0x1071 JUMPI PUSH1 0x40 DUP1 MLOAD PUSH3 0x461BCD PUSH1 0xE5 SHL DUP2 MSTORE PUSH1 0x20 PUSH1 0x4 DUP3 ADD MSTORE PUSH1 0x1D PUSH1 0x24 DUP3 ADD MSTORE PUSH32 0x54454E5F504F5254494F4E535F524551554952455F4449564953494F4E000000 PUSH1 0x44 DUP3 ADD MSTORE SWAP1 MLOAD SWAP1 DUP2 SWAP1 SUB PUSH1 0x64 ADD SWAP1 REVERT JUMPDEST PUSH1 0xE DUP4 SWAP1 SSTORE PUSH1 0xF DUP3 SWAP1 SSTORE PUSH1 0x40 DUP1 MLOAD DUP5 DUP2 MSTORE PUSH1 0x20 DUP2 ADD DUP5 SWAP1 MSTORE TIMESTAMP DUP2 DUP4 ADD MSTORE SWAP1 MLOAD PUSH32 0x677017FA3A0FE0F50A95E6024C5B688F2B14A4696C4A897C459715CABFC1C03A SWAP2 DUP2 SWAP1 SUB PUSH1 0x60 ADD SWAP1 LOG1 POP PUSH1 0x1 JUMPDEST SWAP3 SWAP2 POP POP JUMP JUMPDEST PUSH2 0x10CC PUSH2 0x2269 JUMP JUMPDEST PUSH2 0x10D4 PUSH2 0x2288 JUMP JUMPDEST POP PUSH1 0x1 PUSH1 0x1 PUSH1 0xA0 SHL SUB DUP3 AND PUSH1 0x0 SWAP1 DUP2 MSTORE PUSH1 0x15 PUSH1 0x20 SWAP1 DUP2 MSTORE PUSH1 0x40 SWAP2 DUP3 SWAP1 KECCAK256 DUP3 MLOAD PUSH2 0x1E0 DUP2 ADD DUP5 MSTORE DUP2 SLOAD DUP2 MSTORE PUSH1 0x1 DUP3 ADD SLOAD SWAP3 DUP2 ADD SWAP3 SWAP1 SWAP3 MSTORE PUSH1 0x2 DUP2 ADD SLOAD SWAP3 DUP3 ADD SWAP3 SWAP1 SWAP3 MSTORE PUSH1 0x3 DUP3 ADD SLOAD PUSH1 0x60 DUP3 ADD MSTORE PUSH1 0x4 DUP3 ADD SLOAD PUSH1 0x80 DUP3 ADD MSTORE PUSH1 0x5 DUP3 ADD SLOAD PUSH1 0xA0 DUP3 ADD MSTORE PUSH1 0x6 DUP3 ADD SLOAD PUSH1 0xC0 DUP3 ADD MSTORE PUSH1 0x7 DUP3 ADD SLOAD PUSH1 0xE0 DUP3 ADD MSTORE PUSH1 0x8 DUP3 ADD SLOAD PUSH2 0x100 DUP3 ADD MSTORE PUSH1 0x9 DUP3 ADD SLOAD PUSH2 0x120 DUP3 ADD MSTORE PUSH1 0xA DUP3 ADD SLOAD PUSH2 0x140 DUP3 ADD MSTORE PUSH1 0xB DUP3 ADD SLOAD PUSH2 0x160 DUP3 ADD MSTORE PUSH1 0xC DUP3 ADD SLOAD PUSH2 0x180 DUP3 ADD MSTORE PUSH1 0xD DUP3 ADD SLOAD PUSH2 0x1A0 DUP3 ADD MSTORE PUSH1 0xE SWAP1 SWAP2 ADD SLOAD PUSH2 0x1C0 DUP3 ADD MSTORE PUSH2 0x119E PUSH2 0x2269 JUMP JUMPDEST PUSH1 0x40 MLOAD DUP1 PUSH2 0x1C0 ADD PUSH1 0x40 MSTORE DUP1 DUP4 PUSH1 0x0 ADD MLOAD DUP2 MSTORE PUSH1 0x20 ADD DUP4 PUSH1 0x40 ADD MLOAD DUP2 MSTORE PUSH1 0x20 ADD DUP4 PUSH1 0x80 ADD MLOAD DUP2 MSTORE PUSH1 0x20 ADD DUP4 PUSH1 0x60 ADD MLOAD DUP2 MSTORE PUSH1 0x20 ADD DUP4 PUSH1 0xA0 ADD MLOAD DUP2 MSTORE PUSH1 0x20 ADD DUP4 PUSH1 0xC0 ADD MLOAD DUP2 MSTORE PUSH1 0x20 ADD DUP4 PUSH1 0xE0 ADD MLOAD DUP2 MSTORE PUSH1 0x20 ADD DUP4 PUSH2 0x100 ADD MLOAD DUP2 MSTORE PUSH1 0x20 ADD DUP4 PUSH2 0x140 ADD MLOAD DUP2 MSTORE PUSH1 0x20 ADD DUP4 PUSH2 0x160 ADD MLOAD DUP2 MSTORE PUSH1 0x20 ADD DUP4 PUSH2 0x180 ADD MLOAD DUP2 MSTORE PUSH1 0x20 ADD DUP4 PUSH2 0x1A0 ADD MLOAD DUP2 MSTORE PUSH1 0x20 ADD DUP4 PUSH2 0x1C0 ADD MLOAD DUP2 MSTORE PUSH1 0x20 ADD DUP4 PUSH2 0x120 ADD MLOAD DUP2 MSTORE POP SWAP1 POP DUP1 SWAP3 POP POP POP SWAP2 SWAP1 POP JUMP JUMPDEST PUSH1 0x2 DUP2 JUMP JUMPDEST PUSH1 0x0 PUSH8 0xDE0B6B3A7640000 DUP2 PUSH2 0x1266 PUSH2 0xA8D DUP4 PUSH1 0x3 PUSH2 0x1A29 JUMP JUMPDEST SWAP1 POP PUSH1 0x0 PUSH2 0xEC5 DUP4 DUP4 PUSH2 0x1CCB JUMP JUMPDEST PUSH2 0x5460 DUP2 JUMP JUMPDEST PUSH1 0x0 SLOAD PUSH1 0x1 PUSH1 0x1 PUSH1 0xA0 SHL SUB AND SWAP1 JUMP JUMPDEST PUSH1 0x0 PUSH2 0x1294 CALLER PUSH2 0xED3 JUMP JUMPDEST SWAP1 POP SWAP1 JUMP JUMPDEST PUSH1 0x4 SLOAD PUSH1 0x1 PUSH1 0x1 PUSH1 0xA0 SHL SUB AND DUP2 JUMP JUMPDEST PUSH1 0xE SLOAD DUP2 JUMP JUMPDEST PUSH1 0x0 DUP1 PUSH2 0x12B9 PUSH2 0x1289 JUMP JUMPDEST GT PUSH2 0x12C3 JUMPI PUSH1 0x0 DUP1 REVERT JUMPDEST PUSH2 0x12CD DUP4 DUP4 PUSH2 0x1D29 JUMP JUMPDEST SWAP4 SWAP3 POP POP POP JUMP JUMPDEST PUSH1 0x2 SLOAD PUSH1 0x40 DUP1 MLOAD PUSH4 0x70A08231 PUSH1 0xE0 SHL DUP2 MSTORE ADDRESS PUSH1 0x4 DUP3 ADD MSTORE SWAP1 MLOAD PUSH1 0x0 SWAP3 PUSH1 0x1 PUSH1 0x1 PUSH1 0xA0 SHL SUB AND SWAP2 PUSH4 0x70A08231 SWAP2 PUSH1 0x24 DUP1 DUP4 ADD SWAP3 PUSH1 0x20 SWAP3 SWAP2 SWAP1 DUP3 SWAP1 SUB ADD DUP2 DUP7 DUP1 EXTCODESIZE ISZERO DUP1 ISZERO PUSH2 0x131F JUMPI PUSH1 0x0 DUP1 REVERT JUMPDEST POP GAS STATICCALL ISZERO DUP1 ISZERO PUSH2 0x1333 JUMPI RETURNDATASIZE PUSH1 0x0 DUP1 RETURNDATACOPY RETURNDATASIZE PUSH1 0x0 REVERT JUMPDEST POP POP POP POP PUSH1 0x40 MLOAD RETURNDATASIZE PUSH1 0x20 DUP2 LT ISZERO PUSH2 0x1349 JUMPI PUSH1 0x0 DUP1 REVERT JUMPDEST POP MLOAD SWAP1 POP SWAP1 JUMP JUMPDEST PUSH1 0xC SLOAD DUP2 JUMP JUMPDEST PUSH1 0x6 DUP2 DUP2 SLOAD DUP2 LT PUSH2 0x1366 JUMPI PUSH1 0x0 DUP1 REVERT JUMPDEST PUSH1 0x0 SWAP2 DUP3 MSTORE PUSH1 0x20 SWAP1 SWAP2 KECCAK256 ADD SLOAD PUSH1 0x1 PUSH1 0x1 PUSH1 0xA0 SHL SUB AND SWAP1 POP DUP2 JUMP JUMPDEST PUSH1 0x0 PUSH2 0x10BE CALLER DUP4 PUSH2 0x190D JUMP JUMPDEST PUSH1 0x9 SLOAD DUP2 JUMP JUMPDEST PUSH1 0xD SLOAD PUSH1 0xFF AND DUP2 JUMP JUMPDEST PUSH1 0x5 SLOAD PUSH1 0x1 PUSH1 0x1 PUSH1 0xA0 SHL SUB AND DUP2 JUMP JUMPDEST PUSH1 0x0 DUP1 PUSH2 0x13BB PUSH2 0xA8D DUP5 PUSH1 0x3 PUSH2 0x1A29 JUMP JUMPDEST SWAP1 POP PUSH1 0x0 PUSH2 0x13C9 DUP5 DUP4 PUSH2 0x1AE9 JUMP JUMPDEST SWAP5 SWAP4 POP POP POP POP JUMP JUMPDEST PUSH1 0x1 PUSH1 0x1 PUSH1 0xA0 SHL SUB AND BALANCE SWAP1 JUMP JUMPDEST PUSH1 0xD SLOAD PUSH1 0x40 DUP1 MLOAD PUSH4 0x23B872DD PUSH1 0xE0 SHL DUP2 MSTORE CALLER PUSH1 0x4 DUP3 ADD MSTORE ADDRESS PUSH1 0x24 DUP3 ADD MSTORE PUSH1 0x44 DUP2 ADD DUP5 SWAP1 MSTORE SWAP1 MLOAD PUSH1 0x0 SWAP3 PUSH2 0x100 SWAP1 DIV PUSH1 0x1 PUSH1 0x1 PUSH1 0xA0 SHL SUB AND SWAP2 PUSH4 0x23B872DD SWAP2 PUSH1 0x64 DUP1 DUP4 ADD SWAP3 PUSH1 0x20 SWAP3 SWAP2 SWAP1 DUP3 SWAP1 SUB ADD DUP2 DUP8 DUP8 DUP1 EXTCODESIZE ISZERO DUP1 ISZERO PUSH2 0x143C JUMPI PUSH1 0x0 DUP1 REVERT JUMPDEST POP GAS CALL ISZERO DUP1 ISZERO PUSH2 0x1450 JUMPI RETURNDATASIZE PUSH1 0x0 DUP1 RETURNDATACOPY RETURNDATASIZE PUSH1 0x0 REVERT JUMPDEST POP POP POP POP PUSH1 0x40 MLOAD RETURNDATASIZE PUSH1 0x20 DUP2 LT ISZERO PUSH2 0x1466 JUMPI PUSH1 0x0 DUP1 REVERT JUMPDEST POP MLOAD PUSH2 0x1471 JUMPI PUSH1 0x0 DUP1 REVERT JUMPDEST PUSH1 0xC DUP1 SLOAD DUP4 ADD SWAP1 SSTORE CALLER PUSH1 0x0 DUP2 DUP2 MSTORE PUSH1 0x15 PUSH1 0x20 SWAP1 DUP2 MSTORE PUSH1 0x40 SWAP2 DUP3 SWAP1 KECCAK256 PUSH1 0xB DUP2 ADD DUP1 SLOAD PUSH1 0x1 ADD SWAP1 SSTORE PUSH1 0x5 ADD DUP1 SLOAD DUP7 ADD SWAP1 SSTORE DUP2 MLOAD DUP6 DUP2 MSTORE TIMESTAMP SWAP2 DUP2 ADD SWAP2 SWAP1 SWAP2 MSTORE DUP2 MLOAD PUSH32 0xDA1788C3E861A58A47F0D46073B13C4D66EFCC259714744F920D1AFE7B8DEE5 SWAP3 SWAP2 DUP2 SWAP1 SUB SWAP1 SWAP2 ADD SWAP1 LOG2 POP POP PUSH1 0xC SLOAD SWAP1 JUMP JUMPDEST PUSH1 0x7 SLOAD DUP2 JUMP JUMPDEST PUSH2 0x14F0 PUSH2 0x1D25 JUMP JUMPDEST PUSH1 0x1 PUSH1 0x1 PUSH1 0xA0 SHL SUB AND PUSH2 0x1501 PUSH2 0x127A JUMP JUMPDEST PUSH1 0x1 PUSH1 0x1 PUSH1 0xA0 SHL SUB AND EQ PUSH2 0x154A JUMPI PUSH1 0x40 DUP1 MLOAD PUSH3 0x461BCD PUSH1 0xE5 SHL DUP2 MSTORE PUSH1 0x20 PUSH1 0x4 DUP3 ADD DUP2 SWAP1 MSTORE PUSH1 0x24 DUP3 ADD MSTORE PUSH1 0x0 DUP1 MLOAD PUSH1 0x20 PUSH2 0x241A DUP4 CODECOPY DUP2 MLOAD SWAP2 MSTORE PUSH1 0x44 DUP3 ADD MSTORE SWAP1 MLOAD SWAP1 DUP2 SWAP1 SUB PUSH1 0x64 ADD SWAP1 REVERT JUMPDEST PUSH1 0x1 PUSH1 0x1 PUSH1 0xA0 SHL SUB DUP2 AND PUSH2 0x158F JUMPI PUSH1 0x40 MLOAD PUSH3 0x461BCD PUSH1 0xE5 SHL DUP2 MSTORE PUSH1 0x4 ADD DUP1 DUP1 PUSH1 0x20 ADD DUP3 DUP2 SUB DUP3 MSTORE PUSH1 0x26 DUP2 MSTORE PUSH1 0x20 ADD DUP1 PUSH2 0x2379 PUSH1 0x26 SWAP2 CODECOPY PUSH1 0x40 ADD SWAP2 POP POP PUSH1 0x40 MLOAD DUP1 SWAP2 SUB SWAP1 REVERT JUMPDEST PUSH1 0x0 DUP1 SLOAD PUSH1 0x40 MLOAD PUSH1 0x1 PUSH1 0x1 PUSH1 0xA0 SHL SUB DUP1 DUP6 AND SWAP4 SWAP3 AND SWAP2 PUSH32 0x8BE0079C531659141344CD1FD0A4F28419497F9722A3DAAFE3B4186F6B6457E0 SWAP2 LOG3 PUSH1 0x0 DUP1 SLOAD PUSH1 0x1 PUSH1 0x1 PUSH1 0xA0 SHL SUB NOT AND PUSH1 0x1 PUSH1 0x1 PUSH1 0xA0 SHL SUB SWAP3 SWAP1 SWAP3 AND SWAP2 SWAP1 SWAP2 OR SWAP1 SSTORE JUMP JUMPDEST PUSH1 0x0 PUSH2 0x15F4 PUSH2 0x1A18 JUMP JUMPDEST GT PUSH2 0x15FE JUMPI PUSH1 0x0 DUP1 REVERT JUMPDEST PUSH2 0x1606 PUSH2 0x1F94 JUMP JUMPDEST POP JUMP JUMPDEST PUSH1 0x0 PUSH2 0x1613 PUSH2 0x1D25 JUMP JUMPDEST PUSH1 0x1 PUSH1 0x1 PUSH1 0xA0 SHL SUB AND PUSH2 0x1624 PUSH2 0x127A JUMP JUMPDEST PUSH1 0x1 PUSH1 0x1 PUSH1 0xA0 SHL SUB AND EQ PUSH2 0x166D JUMPI PUSH1 0x40 DUP1 MLOAD PUSH3 0x461BCD PUSH1 0xE5 SHL DUP2 MSTORE PUSH1 0x20 PUSH1 0x4 DUP3 ADD DUP2 SWAP1 MSTORE PUSH1 0x24 DUP3 ADD MSTORE PUSH1 0x0 DUP1 MLOAD PUSH1 0x20 PUSH2 0x241A DUP4 CODECOPY DUP2 MLOAD SWAP2 MSTORE PUSH1 0x44 DUP3 ADD MSTORE SWAP1 MLOAD SWAP1 DUP2 SWAP1 SUB PUSH1 0x64 ADD SWAP1 REVERT JUMPDEST PUSH1 0x0 JUMPDEST PUSH1 0x6 SLOAD DUP2 LT ISZERO PUSH2 0x174A JUMPI DUP3 DUP2 DUP2 MLOAD DUP2 LT PUSH2 0x1686 JUMPI INVALID JUMPDEST PUSH1 0x20 MUL PUSH1 0x20 ADD ADD MLOAD PUSH1 0x1 PUSH1 0x1 PUSH1 0xA0 SHL SUB AND PUSH4 0x1FFC9A7 PUSH4 0x80AC58CD PUSH1 0x40 MLOAD DUP3 PUSH4 0xFFFFFFFF AND PUSH1 0xE0 SHL DUP2 MSTORE PUSH1 0x4 ADD DUP1 DUP3 PUSH1 0xE0 SHL DUP2 MSTORE PUSH1 0x20 ADD SWAP2 POP POP PUSH1 0x20 PUSH1 0x40 MLOAD DUP1 DUP4 SUB DUP2 DUP7 DUP1 EXTCODESIZE ISZERO DUP1 ISZERO PUSH2 0x16D8 JUMPI PUSH1 0x0 DUP1 REVERT JUMPDEST POP GAS STATICCALL ISZERO DUP1 ISZERO PUSH2 0x16EC JUMPI RETURNDATASIZE PUSH1 0x0 DUP1 RETURNDATACOPY RETURNDATASIZE PUSH1 0x0 REVERT JUMPDEST POP POP POP POP PUSH1 0x40 MLOAD RETURNDATASIZE PUSH1 0x20 DUP2 LT ISZERO PUSH2 0x1702 JUMPI PUSH1 0x0 DUP1 REVERT JUMPDEST POP MLOAD PUSH2 0x1742 JUMPI PUSH1 0x40 DUP1 MLOAD PUSH3 0x461BCD PUSH1 0xE5 SHL DUP2 MSTORE PUSH1 0x20 PUSH1 0x4 DUP3 ADD MSTORE PUSH1 0xA PUSH1 0x24 DUP3 ADD MSTORE PUSH10 0x4E4F545F455243373231 PUSH1 0xB0 SHL PUSH1 0x44 DUP3 ADD MSTORE SWAP1 MLOAD SWAP1 DUP2 SWAP1 SUB PUSH1 0x64 ADD SWAP1 REVERT JUMPDEST PUSH1 0x1 ADD PUSH2 0x1670 JUMP JUMPDEST POP PUSH1 0x60 PUSH1 0x6 DUP1 SLOAD DUP1 PUSH1 0x20 MUL PUSH1 0x20 ADD PUSH1 0x40 MLOAD SWAP1 DUP2 ADD PUSH1 0x40 MSTORE DUP1 SWAP3 SWAP2 SWAP1 DUP2 DUP2 MSTORE PUSH1 0x20 ADD DUP3 DUP1 SLOAD DUP1 ISZERO PUSH2 0x17A3 JUMPI PUSH1 0x20 MUL DUP3 ADD SWAP2 SWAP1 PUSH1 0x0 MSTORE PUSH1 0x20 PUSH1 0x0 KECCAK256 SWAP1 JUMPDEST DUP2 SLOAD PUSH1 0x1 PUSH1 0x1 PUSH1 0xA0 SHL SUB AND DUP2 MSTORE PUSH1 0x1 SWAP1 SWAP2 ADD SWAP1 PUSH1 0x20 ADD DUP1 DUP4 GT PUSH2 0x1785 JUMPI JUMPDEST POP POP DUP7 MLOAD SWAP4 SWAP5 POP PUSH2 0x17BF SWAP4 PUSH1 0x6 SWAP4 POP PUSH1 0x20 DUP9 ADD SWAP3 POP SWAP1 POP PUSH2 0x22FE JUMP JUMPDEST POP CALLER PUSH1 0x1 PUSH1 0x1 PUSH1 0xA0 SHL SUB AND PUSH32 0xF0650831416F723858005CFEAE97A2D6F5E127D1E6AE8938574D1D73E7F4727C DUP3 DUP6 TIMESTAMP PUSH1 0x40 MLOAD DUP1 DUP1 PUSH1 0x20 ADD DUP1 PUSH1 0x20 ADD DUP5 DUP2 MSTORE PUSH1 0x20 ADD DUP4 DUP2 SUB DUP4 MSTORE DUP7 DUP2 DUP2 MLOAD DUP2 MSTORE PUSH1 0x20 ADD SWAP2 POP DUP1 MLOAD SWAP1 PUSH1 0x20 ADD SWAP1 PUSH1 0x20 MUL DUP1 DUP4 DUP4 PUSH1 0x0 JUMPDEST DUP4 DUP2 LT ISZERO PUSH2 0x1838 JUMPI DUP2 DUP2 ADD MLOAD DUP4 DUP3 ADD MSTORE PUSH1 0x20 ADD PUSH2 0x1820 JUMP JUMPDEST POP POP POP POP SWAP1 POP ADD DUP4 DUP2 SUB DUP3 MSTORE DUP6 DUP2 DUP2 MLOAD DUP2 MSTORE PUSH1 0x20 ADD SWAP2 POP DUP1 MLOAD SWAP1 PUSH1 0x20 ADD SWAP1 PUSH1 0x20 MUL DUP1 DUP4 DUP4 PUSH1 0x0 JUMPDEST DUP4 DUP2 LT ISZERO PUSH2 0x1877 JUMPI DUP2 DUP2 ADD MLOAD DUP4 DUP3 ADD MSTORE PUSH1 0x20 ADD PUSH2 0x185F JUMP JUMPDEST POP POP POP POP SWAP1 POP ADD SWAP6 POP POP POP POP POP POP PUSH1 0x40 MLOAD DUP1 SWAP2 SUB SWAP1 LOG2 POP PUSH1 0x1 SWAP3 SWAP2 POP POP JUMP JUMPDEST PUSH1 0xD SLOAD PUSH2 0x100 SWAP1 DIV PUSH1 0x1 PUSH1 0x1 PUSH1 0xA0 SHL SUB AND DUP2 JUMP JUMPDEST PUSH1 0xD SLOAD PUSH1 0xC SLOAD PUSH1 0x0 SWAP2 DUP3 SWAP2 PUSH2 0x18CE SWAP2 PUSH1 0x64 SWAP2 PUSH2 0x18C8 SWAP2 PUSH1 0xFF AND PUSH2 0x1A29 JUMP JUMPDEST SWAP1 PUSH2 0x1A82 JUMP JUMPDEST SWAP1 POP PUSH1 0x0 PUSH1 0x11 SLOAD GT PUSH2 0x18E1 JUMPI PUSH1 0x0 PUSH2 0x12CD JUMP JUMPDEST PUSH1 0x11 SLOAD PUSH1 0x1 PUSH1 0x1 PUSH1 0xA0 SHL SUB DUP5 AND PUSH1 0x0 SWAP1 DUP2 MSTORE PUSH1 0x14 PUSH1 0x20 MSTORE PUSH1 0x40 SWAP1 KECCAK256 SLOAD PUSH2 0x12CD SWAP2 SWAP1 PUSH2 0x18C8 SWAP1 DUP5 SWAP1 PUSH2 0x1A29 JUMP JUMPDEST PUSH1 0x2 SLOAD PUSH1 0x40 DUP1 MLOAD PUSH4 0x23B872DD PUSH1 0xE0 SHL DUP2 MSTORE CALLER PUSH1 0x4 DUP3 ADD MSTORE ADDRESS PUSH1 0x24 DUP3 ADD MSTORE PUSH1 0x44 DUP2 ADD DUP5 SWAP1 MSTORE SWAP1 MLOAD PUSH1 0x0 SWAP3 PUSH1 0x1 PUSH1 0x1 PUSH1 0xA0 SHL SUB AND SWAP2 PUSH4 0x23B872DD SWAP2 PUSH1 0x64 DUP1 DUP4 ADD SWAP3 PUSH1 0x20 SWAP3 SWAP2 SWAP1 DUP3 SWAP1 SUB ADD DUP2 DUP8 DUP8 DUP1 EXTCODESIZE ISZERO DUP1 ISZERO PUSH2 0x1966 JUMPI PUSH1 0x0 DUP1 REVERT JUMPDEST POP GAS CALL ISZERO DUP1 ISZERO PUSH2 0x197A JUMPI RETURNDATASIZE PUSH1 0x0 DUP1 RETURNDATACOPY RETURNDATASIZE PUSH1 0x0 REVERT JUMPDEST POP POP POP POP PUSH1 0x40 MLOAD RETURNDATASIZE PUSH1 0x20 DUP2 LT ISZERO PUSH2 0x1990 JUMPI PUSH1 0x0 DUP1 REVERT JUMPDEST POP MLOAD PUSH2 0x199B JUMPI PUSH1 0x0 DUP1 REVERT JUMPDEST PUSH1 0xB DUP1 SLOAD DUP4 ADD SWAP1 SSTORE PUSH1 0x0 PUSH2 0x19AF DUP5 DUP5 PUSH2 0x20C9 JUMP JUMPDEST PUSH1 0x1 PUSH1 0x1 PUSH1 0xA0 SHL SUB DUP6 AND PUSH1 0x0 DUP2 DUP2 MSTORE PUSH1 0x15 PUSH1 0x20 DUP2 DUP2 MSTORE PUSH1 0x40 DUP1 DUP5 KECCAK256 DUP1 SLOAD PUSH1 0x14 DUP5 MSTORE SWAP5 DUP3 SWAP1 KECCAK256 SLOAD SWAP4 DUP4 MSTORE PUSH1 0x2 ADD SLOAD DUP2 MLOAD SWAP5 DUP6 MSTORE SWAP2 DUP5 ADD SWAP3 SWAP1 SWAP3 MSTORE DUP3 DUP3 ADD MSTORE TIMESTAMP PUSH1 0x60 DUP4 ADD MSTORE MLOAD SWAP3 SWAP4 POP SWAP1 SWAP2 PUSH1 0x0 DUP1 MLOAD PUSH1 0x20 PUSH2 0x239F DUP4 CODECOPY DUP2 MLOAD SWAP2 MSTORE SWAP2 DUP2 SWAP1 SUB PUSH1 0x80 ADD SWAP1 LOG2 PUSH2 0x12CD PUSH2 0x1BD4 JUMP JUMPDEST PUSH1 0x0 PUSH2 0x1294 CALLER PUSH2 0xA2C JUMP JUMPDEST EXTCODESIZE ISZERO ISZERO SWAP1 JUMP JUMPDEST PUSH1 0x0 DUP3 PUSH2 0x1A38 JUMPI POP PUSH1 0x0 PUSH2 0x10BE JUMP JUMPDEST DUP3 DUP3 MUL DUP3 DUP5 DUP3 DUP2 PUSH2 0x1A45 JUMPI INVALID JUMPDEST DIV EQ PUSH2 0x12CD JUMPI PUSH1 0x40 MLOAD PUSH3 0x461BCD PUSH1 0xE5 SHL DUP2 MSTORE PUSH1 0x4 ADD DUP1 DUP1 PUSH1 0x20 ADD DUP3 DUP2 SUB DUP3 MSTORE PUSH1 0x21 DUP2 MSTORE PUSH1 0x20 ADD DUP1 PUSH2 0x23F9 PUSH1 0x21 SWAP2 CODECOPY PUSH1 0x40 ADD SWAP2 POP POP PUSH1 0x40 MLOAD DUP1 SWAP2 SUB SWAP1 REVERT JUMPDEST PUSH1 0x0 DUP1 DUP3 GT PUSH2 0x1AD8 JUMPI PUSH1 0x40 DUP1 MLOAD PUSH3 0x461BCD PUSH1 0xE5 SHL DUP2 MSTORE PUSH1 0x20 PUSH1 0x4 DUP3 ADD MSTORE PUSH1 0x1A PUSH1 0x24 DUP3 ADD MSTORE PUSH32 0x536166654D6174683A206469766973696F6E206279207A65726F000000000000 PUSH1 0x44 DUP3 ADD MSTORE SWAP1 MLOAD SWAP1 DUP2 SWAP1 SUB PUSH1 0x64 ADD SWAP1 REVERT JUMPDEST DUP2 DUP4 DUP2 PUSH2 0x1AE1 JUMPI INVALID JUMPDEST DIV SWAP4 SWAP3 POP POP POP JUMP JUMPDEST PUSH1 0x0 DUP3 DUP3 GT ISZERO PUSH2 0x1B40 JUMPI PUSH1 0x40 DUP1 MLOAD PUSH3 0x461BCD PUSH1 0xE5 SHL DUP2 MSTORE PUSH1 0x20 PUSH1 0x4 DUP3 ADD MSTORE PUSH1 0x1E PUSH1 0x24 DUP3 ADD MSTORE PUSH32 0x536166654D6174683A207375627472616374696F6E206F766572666C6F770000 PUSH1 0x44 DUP3 ADD MSTORE SWAP1 MLOAD SWAP1 DUP2 SWAP1 SUB PUSH1 0x64 ADD SWAP1 REVERT JUMPDEST POP SWAP1 SUB SWAP1 JUMP JUMPDEST PUSH1 0x0 PUSH2 0x1B53 DUP3 PUSH1 0xA PUSH2 0x1A82 JUMP JUMPDEST SWAP1 POP PUSH1 0x0 PUSH2 0x1B6C PUSH1 0xE SLOAD DUP4 PUSH2 0x1A29 SWAP1 SWAP2 SWAP1 PUSH4 0xFFFFFFFF AND JUMP JUMPDEST SWAP1 POP PUSH1 0x0 PUSH2 0x1B85 PUSH1 0xF SLOAD DUP5 PUSH2 0x1A29 SWAP1 SWAP2 SWAP1 PUSH4 0xFFFFFFFF AND JUMP JUMPDEST PUSH1 0xC SLOAD SWAP1 SWAP2 POP PUSH2 0x1B95 SWAP1 DUP4 PUSH2 0x1CCB JUMP JUMPDEST PUSH1 0xC SSTORE PUSH1 0x11 SLOAD ISZERO PUSH2 0x1BC5 JUMPI PUSH2 0x1BBD PUSH1 0x12 SLOAD PUSH1 0x11 SLOAD PUSH1 0x1 PUSH1 0x40 SHL DUP5 MUL DUP2 PUSH2 0x1BB7 JUMPI INVALID JUMPDEST DIV PUSH2 0x1CCB JUMP JUMPDEST PUSH1 0x12 SSTORE PUSH2 0x1BCE JUMP JUMPDEST PUSH1 0xC DUP1 SLOAD DUP3 ADD SWAP1 SSTORE JUMPDEST POP POP POP POP JUMP JUMPDEST PUSH1 0x10 SLOAD TIMESTAMP SWAP1 PUSH2 0x5460 SWAP1 PUSH2 0x1BE8 SWAP1 DUP4 SWAP1 PUSH2 0x224E JUMP JUMPDEST GT ISZERO PUSH2 0x1C34 JUMPI PUSH32 0x2CFCE469A63F2E9972B7F23DA751E6943ED2B091C10E40B5C43B5F6105BF20EA PUSH2 0x1C17 PUSH2 0x12D4 JUMP JUMPDEST PUSH1 0x40 DUP1 MLOAD SWAP2 DUP3 MSTORE PUSH1 0x20 DUP3 ADD DUP5 SWAP1 MSTORE DUP1 MLOAD SWAP2 DUP3 SWAP1 SUB ADD SWAP1 LOG1 PUSH1 0x10 DUP2 SWAP1 SSTORE JUMPDEST PUSH1 0x2 PUSH2 0x1C42 DUP3 PUSH1 0x9 SLOAD PUSH2 0x224E JUMP JUMPDEST GT DUP1 ISZERO PUSH2 0x1C51 JUMPI POP PUSH1 0x0 PUSH1 0x11 SLOAD GT JUMPDEST ISZERO PUSH2 0x1606 JUMPI PUSH1 0xD SLOAD PUSH1 0xC SLOAD PUSH1 0x0 SWAP2 PUSH2 0x1C7A SWAP2 PUSH3 0x15180 SWAP2 PUSH2 0x18C8 SWAP2 PUSH1 0x64 SWAP2 DUP4 SWAP2 SWAP1 PUSH1 0xFF AND PUSH2 0x1A29 JUMP JUMPDEST SWAP1 POP PUSH1 0x0 PUSH2 0x1C93 PUSH1 0x9 SLOAD DUP5 PUSH2 0x224E SWAP1 SWAP2 SWAP1 PUSH4 0xFFFFFFFF AND JUMP JUMPDEST PUSH1 0xC SLOAD SWAP1 DUP4 MUL SWAP2 POP PUSH2 0x1CA5 SWAP1 DUP3 PUSH2 0x224E JUMP JUMPDEST PUSH1 0xC SSTORE PUSH1 0x12 SLOAD PUSH1 0x11 SLOAD PUSH2 0x1CC1 SWAP2 SWAP1 PUSH1 0x1 PUSH1 0x40 SHL DUP5 MUL DUP2 PUSH2 0x1BB7 JUMPI INVALID JUMPDEST PUSH1 0x12 SSTORE POP POP PUSH1 0x9 SSTORE JUMP JUMPDEST PUSH1 0x0 DUP3 DUP3 ADD DUP4 DUP2 LT ISZERO PUSH2 0x12CD JUMPI PUSH1 0x40 DUP1 MLOAD PUSH3 0x461BCD PUSH1 0xE5 SHL DUP2 MSTORE PUSH1 0x20 PUSH1 0x4 DUP3 ADD MSTORE PUSH1 0x1B PUSH1 0x24 DUP3 ADD MSTORE PUSH32 0x536166654D6174683A206164646974696F6E206F766572666C6F770000000000 PUSH1 0x44 DUP3 ADD MSTORE SWAP1 MLOAD SWAP1 DUP2 SWAP1 SUB PUSH1 0x64 ADD SWAP1 REVERT JUMPDEST CALLER SWAP1 JUMP JUMPDEST CALLER PUSH1 0x0 DUP2 DUP2 MSTORE PUSH1 0x14 PUSH1 0x20 MSTORE PUSH1 0x40 DUP2 KECCAK256 SLOAD SWAP1 SWAP2 SWAP1 DUP4 GT ISZERO PUSH2 0x1D48 JUMPI PUSH1 0x0 DUP1 REVERT JUMPDEST PUSH1 0x0 PUSH2 0x1D52 PUSH2 0x1A18 JUMP JUMPDEST GT ISZERO PUSH2 0x1D60 JUMPI PUSH2 0x1D60 PUSH2 0xD2C JUMP JUMPDEST PUSH1 0x1 PUSH1 0x1 PUSH1 0xA0 SHL SUB DUP2 AND PUSH1 0x0 SWAP1 DUP2 MSTORE PUSH1 0x14 PUSH1 0x20 MSTORE PUSH1 0x40 SWAP1 KECCAK256 SLOAD PUSH2 0x1D83 SWAP1 DUP5 PUSH2 0x1AE9 JUMP JUMPDEST PUSH1 0x1 PUSH1 0x1 PUSH1 0xA0 SHL SUB DUP1 DUP4 AND PUSH1 0x0 SWAP1 DUP2 MSTORE PUSH1 0x14 PUSH1 0x20 MSTORE PUSH1 0x40 DUP1 DUP3 KECCAK256 SWAP4 SWAP1 SWAP4 SSTORE SWAP1 DUP7 AND DUP2 MSTORE KECCAK256 SLOAD PUSH2 0x1DB2 SWAP1 DUP5 PUSH2 0x1CCB JUMP JUMPDEST PUSH1 0x1 PUSH1 0x1 PUSH1 0xA0 SHL SUB DUP6 DUP2 AND PUSH1 0x0 DUP2 DUP2 MSTORE PUSH1 0x14 PUSH1 0x20 SWAP1 DUP2 MSTORE PUSH1 0x40 DUP1 DUP4 KECCAK256 SWAP6 SWAP1 SWAP6 SSTORE PUSH1 0x12 DUP1 SLOAD SWAP5 DUP8 AND DUP4 MSTORE PUSH1 0x13 DUP3 MSTORE DUP6 DUP4 KECCAK256 DUP1 SLOAD SWAP6 DUP11 MUL SWAP1 SWAP6 SUB SWAP1 SWAP5 SSTORE SWAP3 SLOAD SWAP2 DUP2 MSTORE DUP4 DUP2 KECCAK256 DUP1 SLOAD SWAP3 DUP9 MUL SWAP1 SWAP3 ADD SWAP1 SWAP2 SSTORE PUSH1 0x15 SWAP1 SWAP2 MSTORE KECCAK256 SLOAD ISZERO DUP1 ISZERO PUSH2 0x1E2D JUMPI POP PUSH1 0x1 PUSH1 0x1 PUSH1 0xA0 SHL SUB DUP5 AND PUSH1 0x0 SWAP1 DUP2 MSTORE PUSH1 0x15 PUSH1 0x20 MSTORE PUSH1 0x40 SWAP1 KECCAK256 PUSH1 0x7 ADD SLOAD ISZERO JUMPDEST ISZERO PUSH2 0x1E3C JUMPI PUSH1 0x7 DUP1 SLOAD PUSH1 0x1 ADD SWAP1 SSTORE JUMPDEST PUSH1 0x1 PUSH1 0x1 PUSH1 0xA0 SHL SUB DUP1 DUP3 AND PUSH1 0x0 DUP2 DUP2 MSTORE PUSH1 0x15 PUSH1 0x20 SWAP1 DUP2 MSTORE PUSH1 0x40 DUP1 DUP4 KECCAK256 PUSH1 0xD DUP2 ADD DUP1 SLOAD PUSH1 0x1 SWAP1 DUP2 ADD SWAP1 SWAP2 SSTORE PUSH1 0x6 SWAP1 SWAP2 ADD DUP1 SLOAD DUP11 ADD SWAP1 SSTORE SWAP5 DUP10 AND DUP1 DUP5 MSTORE SWAP3 DUP2 SWAP1 KECCAK256 PUSH1 0x7 DUP2 ADD DUP1 SLOAD DUP11 ADD SWAP1 SSTORE PUSH1 0xE ADD DUP1 SLOAD DUP7 ADD SWAP1 SSTORE PUSH1 0x8 DUP1 SLOAD SWAP1 SWAP6 ADD SWAP1 SWAP5 SSTORE DUP4 MLOAD DUP8 DUP2 MSTORE TIMESTAMP SWAP2 DUP2 ADD SWAP2 SWAP1 SWAP2 MSTORE DUP4 MLOAD SWAP2 SWAP4 PUSH32 0x91C7D71A3AE3FB7CF61E00517BF4868E9E23D0BACE5E304CBC3B68DE5D85350E SWAP3 SWAP2 DUP3 SWAP1 SUB ADD SWAP1 LOG3 PUSH1 0x1 PUSH1 0x1 PUSH1 0xA0 SHL SUB DUP2 AND PUSH1 0x0 DUP2 DUP2 MSTORE PUSH1 0x15 PUSH1 0x20 DUP2 DUP2 MSTORE PUSH1 0x40 DUP1 DUP5 KECCAK256 DUP1 SLOAD PUSH1 0x14 DUP5 MSTORE SWAP5 DUP3 SWAP1 KECCAK256 SLOAD SWAP4 DUP4 MSTORE PUSH1 0x2 ADD SLOAD DUP2 MLOAD SWAP5 DUP6 MSTORE SWAP2 DUP5 ADD SWAP3 SWAP1 SWAP3 MSTORE DUP3 DUP3 ADD MSTORE TIMESTAMP PUSH1 0x60 DUP4 ADD MSTORE MLOAD PUSH1 0x0 DUP1 MLOAD PUSH1 0x20 PUSH2 0x239F DUP4 CODECOPY DUP2 MLOAD SWAP2 MSTORE SWAP2 DUP2 SWAP1 SUB PUSH1 0x80 ADD SWAP1 LOG2 PUSH1 0x1 PUSH1 0x1 PUSH1 0xA0 SHL SUB DUP5 AND PUSH1 0x0 DUP2 DUP2 MSTORE PUSH1 0x15 PUSH1 0x20 DUP2 DUP2 MSTORE PUSH1 0x40 DUP1 DUP5 KECCAK256 DUP1 SLOAD PUSH1 0x14 DUP5 MSTORE SWAP5 DUP3 SWAP1 KECCAK256 SLOAD SWAP4 DUP4 MSTORE PUSH1 0x2 ADD SLOAD DUP2 MLOAD SWAP5 DUP6 MSTORE SWAP2 DUP5 ADD SWAP3 SWAP1 SWAP3 MSTORE DUP3 DUP3 ADD MSTORE TIMESTAMP PUSH1 0x60 DUP4 ADD MSTORE MLOAD PUSH1 0x0 DUP1 MLOAD PUSH1 0x20 PUSH2 0x239F DUP4 CODECOPY DUP2 MLOAD SWAP2 MSTORE SWAP2 DUP2 SWAP1 SUB PUSH1 0x80 ADD SWAP1 LOG2 POP PUSH1 0x1 SWAP4 SWAP3 POP POP POP JUMP JUMPDEST PUSH1 0x0 CALLER DUP2 PUSH2 0x1FA1 DUP3 PUSH2 0xA2C JUMP JUMPDEST PUSH1 0x1 PUSH1 0x1 PUSH1 0xA0 SHL SUB DUP4 AND PUSH1 0x0 SWAP1 DUP2 MSTORE PUSH1 0x13 PUSH1 0x20 MSTORE PUSH1 0x40 DUP2 KECCAK256 DUP1 SLOAD PUSH1 0x1 PUSH1 0x40 SHL DUP5 MUL ADD SWAP1 SSTORE SWAP1 SWAP2 POP PUSH2 0x1FD2 CALLER DUP4 PUSH2 0x20C9 JUMP JUMPDEST PUSH1 0x40 DUP1 MLOAD DUP5 DUP2 MSTORE PUSH1 0x20 DUP2 ADD DUP4 SWAP1 MSTORE TIMESTAMP DUP2 DUP4 ADD MSTORE SWAP1 MLOAD SWAP2 SWAP3 POP PUSH1 0x1 PUSH1 0x1 PUSH1 0xA0 SHL SUB DUP6 AND SWAP2 PUSH32 0x193A876AC91D11A4A0A71EBEF73B195BA55AA7C16D6755C93C21D973E692A02C SWAP2 DUP2 SWAP1 SUB PUSH1 0x60 ADD SWAP1 LOG2 PUSH1 0x1 PUSH1 0x1 PUSH1 0xA0 SHL SUB DUP4 AND PUSH1 0x0 SWAP1 DUP2 MSTORE PUSH1 0x15 PUSH1 0x20 MSTORE PUSH1 0x40 SWAP1 KECCAK256 PUSH1 0x3 ADD SLOAD PUSH2 0x2045 SWAP1 DUP4 PUSH2 0x1CCB JUMP JUMPDEST PUSH1 0x1 PUSH1 0x1 PUSH1 0xA0 SHL SUB DUP5 AND PUSH1 0x0 DUP2 DUP2 MSTORE PUSH1 0x15 PUSH1 0x20 DUP2 DUP2 MSTORE PUSH1 0x40 DUP1 DUP5 KECCAK256 PUSH1 0x3 DUP2 ADD SWAP7 SWAP1 SWAP7 SSTORE PUSH1 0x9 DUP7 ADD DUP1 SLOAD PUSH1 0x1 ADD SWAP1 SSTORE DUP6 SLOAD PUSH1 0x14 DUP4 MSTORE SWAP4 DUP2 SWAP1 KECCAK256 SLOAD SWAP3 DUP3 MSTORE PUSH1 0x2 SWAP1 SWAP6 ADD SLOAD DUP6 MLOAD SWAP4 DUP5 MSTORE SWAP1 DUP4 ADD SWAP2 SWAP1 SWAP2 MSTORE DUP2 DUP5 ADD MSTORE TIMESTAMP PUSH1 0x60 DUP3 ADD MSTORE SWAP2 MLOAD SWAP1 SWAP2 PUSH1 0x0 DUP1 MLOAD PUSH1 0x20 PUSH2 0x239F DUP4 CODECOPY DUP2 MLOAD SWAP2 MSTORE SWAP2 SWAP1 DUP2 SWAP1 SUB PUSH1 0x80 ADD SWAP1 LOG2 PUSH2 0x20C2 PUSH2 0x1BD4 JUMP JUMPDEST SWAP3 POP POP POP SWAP1 JUMP JUMPDEST PUSH1 0x1 PUSH1 0x1 PUSH1 0xA0 SHL SUB DUP3 AND PUSH1 0x0 SWAP1 DUP2 MSTORE PUSH1 0x15 PUSH1 0x20 MSTORE PUSH1 0x40 DUP2 KECCAK256 SLOAD ISZERO DUP1 ISZERO PUSH2 0x2108 JUMPI POP PUSH1 0x1 PUSH1 0x1 PUSH1 0xA0 SHL SUB DUP4 AND PUSH1 0x0 SWAP1 DUP2 MSTORE PUSH1 0x15 PUSH1 0x20 MSTORE PUSH1 0x40 SWAP1 KECCAK256 PUSH1 0x7 ADD SLOAD ISZERO JUMPDEST ISZERO PUSH2 0x2117 JUMPI PUSH1 0x7 DUP1 SLOAD PUSH1 0x1 ADD SWAP1 SSTORE JUMPDEST PUSH1 0x8 DUP1 SLOAD PUSH1 0x1 ADD SWAP1 SSTORE PUSH1 0x0 PUSH1 0x64 PUSH2 0x212F DUP5 PUSH1 0x3 PUSH2 0x1A29 JUMP JUMPDEST DUP2 PUSH2 0x2136 JUMPI INVALID JUMPDEST DIV SWAP1 POP PUSH1 0x0 PUSH2 0x2145 DUP5 DUP4 PUSH2 0x1AE9 JUMP JUMPDEST PUSH1 0x40 DUP1 MLOAD DUP7 DUP2 MSTORE PUSH1 0x20 DUP2 ADD DUP4 SWAP1 MSTORE TIMESTAMP DUP2 DUP4 ADD MSTORE SWAP1 MLOAD SWAP2 SWAP3 POP PUSH1 0x1 PUSH1 0x1 PUSH1 0xA0 SHL SUB DUP8 AND SWAP2 PUSH32 0xB49BB132260F6AA1C86E2D2A3957C097216E6EC9B5FA15867289F058B4D297AC SWAP2 DUP2 SWAP1 SUB PUSH1 0x60 ADD SWAP1 LOG2 PUSH1 0x0 DUP2 GT DUP1 ISZERO PUSH2 0x21AC JUMPI POP PUSH1 0x11 SLOAD PUSH2 0x21AA DUP3 DUP3 PUSH2 0x1CCB JUMP JUMPDEST GT JUMPDEST PUSH2 0x21B5 JUMPI PUSH1 0x0 DUP1 REVERT JUMPDEST PUSH1 0x11 SLOAD ISZERO PUSH2 0x21CA JUMPI PUSH1 0x11 DUP1 SLOAD DUP3 ADD SWAP1 SSTORE PUSH2 0x21D0 JUMP JUMPDEST PUSH1 0x11 DUP2 SWAP1 SSTORE JUMPDEST PUSH2 0x21D9 DUP3 PUSH2 0x1B46 JUMP JUMPDEST PUSH1 0x1 PUSH1 0x1 PUSH1 0xA0 SHL SUB DUP6 AND PUSH1 0x0 SWAP1 DUP2 MSTORE PUSH1 0x14 PUSH1 0x20 MSTORE PUSH1 0x40 SWAP1 KECCAK256 SLOAD PUSH2 0x21FC SWAP1 DUP3 PUSH2 0x1CCB JUMP JUMPDEST PUSH1 0x1 PUSH1 0x1 PUSH1 0xA0 SHL SUB DUP7 AND PUSH1 0x0 SWAP1 DUP2 MSTORE PUSH1 0x14 PUSH1 0x20 SWAP1 DUP2 MSTORE PUSH1 0x40 DUP1 DUP4 KECCAK256 SWAP4 SWAP1 SWAP4 SSTORE PUSH1 0x12 SLOAD PUSH1 0x13 DUP3 MSTORE DUP4 DUP4 KECCAK256 DUP1 SLOAD SWAP2 DUP7 MUL SWAP2 SWAP1 SWAP2 ADD SWAP1 SSTORE PUSH1 0x15 SWAP1 MSTORE KECCAK256 DUP1 SLOAD DUP6 ADD DUP2 SSTORE PUSH1 0x8 ADD DUP1 SLOAD PUSH1 0x1 ADD SWAP1 SSTORE SWAP2 POP POP SWAP3 SWAP2 POP POP JUMP JUMPDEST PUSH1 0x0 DUP3 DUP3 GT ISZERO PUSH2 0x2260 JUMPI POP PUSH1 0x0 PUSH2 0x10BE JUMP JUMPDEST POP DUP1 DUP3 SUB PUSH2 0x10BE JUMP JUMPDEST PUSH1 0x40 MLOAD DUP1 PUSH2 0x1C0 ADD PUSH1 0x40 MSTORE DUP1 PUSH1 0xE SWAP1 PUSH1 0x20 DUP3 MUL DUP1 CALLDATASIZE DUP4 CALLDATACOPY POP SWAP2 SWAP3 SWAP2 POP POP JUMP JUMPDEST PUSH1 0x40 MLOAD DUP1 PUSH2 0x1E0 ADD PUSH1 0x40 MSTORE DUP1 PUSH1 0x0 DUP2 MSTORE PUSH1 0x20 ADD PUSH1 0x0 DUP2 MSTORE PUSH1 0x20 ADD PUSH1 0x0 DUP2 MSTORE PUSH1 0x20 ADD PUSH1 0x0 DUP2 MSTORE PUSH1 0x20 ADD PUSH1 0x0 DUP2 MSTORE PUSH1 0x20 ADD PUSH1 0x0 DUP2 MSTORE PUSH1 0x20 ADD PUSH1 0x0 DUP2 MSTORE PUSH1 0x20 ADD PUSH1 0x0 DUP2 MSTORE PUSH1 0x20 ADD PUSH1 0x0 DUP2 MSTORE PUSH1 0x20 ADD PUSH1 0x0 DUP2 MSTORE PUSH1 0x20 ADD PUSH1 0x0 DUP2 MSTORE PUSH1 0x20 ADD PUSH1 0x0 DUP2 MSTORE PUSH1 0x20 ADD PUSH1 0x0 DUP2 MSTORE PUSH1 0x20 ADD PUSH1 0x0 DUP2 MSTORE PUSH1 0x20 ADD PUSH1 0x0 DUP2 MSTORE POP SWAP1 JUMP JUMPDEST DUP3 DUP1 SLOAD DUP3 DUP3 SSTORE SWAP1 PUSH1 0x0 MSTORE PUSH1 0x20 PUSH1 0x0 KECCAK256 SWAP1 DUP2 ADD SWAP3 DUP3 ISZERO PUSH2 0x2353 JUMPI SWAP2 PUSH1 0x20 MUL DUP3 ADD JUMPDEST DUP3 DUP2 GT ISZERO PUSH2 0x2353 JUMPI DUP3 MLOAD DUP3 SLOAD PUSH1 0x1 PUSH1 0x1 PUSH1 0xA0 SHL SUB NOT AND PUSH1 0x1 PUSH1 0x1 PUSH1 0xA0 SHL SUB SWAP1 SWAP2 AND OR DUP3 SSTORE PUSH1 0x20 SWAP1 SWAP3 ADD SWAP2 PUSH1 0x1 SWAP1 SWAP2 ADD SWAP1 PUSH2 0x231E JUMP JUMPDEST POP PUSH2 0x235F SWAP3 SWAP2 POP PUSH2 0x2363 JUMP JUMPDEST POP SWAP1 JUMP JUMPDEST JUMPDEST DUP1 DUP3 GT ISZERO PUSH2 0x235F JUMPI PUSH1 0x0 DUP2 SSTORE PUSH1 0x1 ADD PUSH2 0x2364 JUMP INVALID 0x4F PUSH24 0x6E61626C653A206E6577206F776E65722069732074686520 PUSH27 0x65726F206164647265737329F64F6F46C82C5ECFA955FE7D093E63 0xB4 LT PUSH12 0x6DBE5193E00EFD62C7384EF1 PUSH24 0x416464726573733A20756E61626C6520746F2073656E6420 PUSH23 0x616C75652C20726563697069656E74206D617920686176 PUSH6 0x207265766572 PUSH21 0x6564536166654D6174683A206D756C7469706C6963 PUSH2 0x7469 PUSH16 0x6E206F766572666C6F774F776E61626C PUSH6 0x3A2063616C6C PUSH6 0x72206973206E PUSH16 0x7420746865206F776E6572A264697066 PUSH20 0x5822122036C8969B296E230C736747F6DC7E1ECA 0xDD 0x2E POP 0xA6 MSTORE 0xEB 0x4D SWAP2 EXTCODESIZE PUSH20 0xECFE4159641264736F6C63430007040033000000 "
				},
				"gasEstimates": {
					"creation": {
						"codeDepositCost": "1865400",
						"executionCost": "infinite",
						"totalCost": "infinite"
					},
					"external": {
						"accountOf(address)": "infinite",
						"balanceOf(address)": "1210",
						"bnbReceiver()": "1192",
						"buyPrice()": "infinite",
						"calculateSharesReceived(uint256)": "infinite",
						"calculateTokensReceived(uint256)": "infinite",
						"checkImmunity(address)": "infinite",
						"compound()": "infinite",
						"dailyEstimate(address)": "infinite",
						"deposit(uint256)": "infinite",
						"depositTo(address,uint256)": "infinite",
						"dividendsOf(address)": "2900",
						"donate(uint256)": "infinite",
						"dripPoolBalance()": "1043",
						"dripRate()": "1146",
						"forDivs()": "1044",
						"forPool()": "1088",
						"harvest()": "infinite",
						"jpeg(uint256)": "2037",
						"lastPayout()": "1109",
						"lastRebaseTime()": "1133",
						"myEarnings()": "2984",
						"myTokens()": "1165",
						"owner()": "1192",
						"payoutFrequency()": "287",
						"rebaseFrequency()": "331",
						"renounceOwnership()": "infinite",
						"requiredBalance()": "1067",
						"rewardToken()": "1136",
						"sellPrice()": "663",
						"setFeeSplit(uint256,uint256)": "infinite",
						"setImmunityToken(address[])": "infinite",
						"stakingToken()": "1149",
						"tokenAddress()": "1105",
						"tokenBalance(address)": "1040",
						"totalBalance()": "infinite",
						"totalClaims()": "1110",
						"totalDeposits()": "1132",
						"totalSupply()": "1111",
						"totalTxs()": "1044",
						"transfer(address,uint256)": "infinite",
						"transferOwnership(address)": "infinite",
						"users()": "1109",
						"withdraw(uint256)": "infinite"
					},
					"internal": {
						"_compoundTokens()": "infinite",
						"_depositTokens(address,uint256)": "infinite",
						"_transferTokens(address,uint256)": "infinite",
						"allocateFees(uint256)": "infinite",
						"distribute()": "infinite"
					}
				},
				"methodIdentifiers": {
					"accountOf(address)": "8086b8ba",
					"balanceOf(address)": "70a08231",
					"bnbReceiver()": "d7c3771d",
					"buyPrice()": "8620410b",
					"calculateSharesReceived(uint256)": "e02e1e9c",
					"calculateTokensReceived(uint256)": "10d0ffdd",
					"checkImmunity(address)": "36599ead",
					"compound()": "f69e2046",
					"dailyEstimate(address)": "fbaf1bbd",
					"deposit(uint256)": "b6b55f25",
					"depositTo(address,uint256)": "ffaad6a5",
					"dividendsOf(address)": "0065318b",
					"donate(uint256)": "f14faf6f",
					"dripPoolBalance()": "aecb6d28",
					"dripRate()": "d3261592",
					"forDivs()": "1f38b9cd",
					"forPool()": "a01496de",
					"harvest()": "4641257d",
					"jpeg(uint256)": "b03cf5a7",
					"lastPayout()": "b9db102a",
					"lastRebaseTime()": "1924063e",
					"myEarnings()": "ffe6bbd8",
					"myTokens()": "949e8acd",
					"owner()": "8da5cb5b",
					"payoutFrequency()": "81fce645",
					"rebaseFrequency()": "89375abf",
					"renounceOwnership()": "715018a6",
					"requiredBalance()": "08560ace",
					"rewardToken()": "f7c618c1",
					"sellPrice()": "4b750334",
					"setFeeSplit(uint256,uint256)": "7e6335c7",
					"setImmunityToken(address[])": "f6db0da0",
					"stakingToken()": "72f702f3",
					"tokenAddress()": "9d76ea58",
					"tokenBalance(address)": "eedc966a",
					"totalBalance()": "ad7a672f",
					"totalClaims()": "41c61383",
					"totalDeposits()": "7d882097",
					"totalSupply()": "18160ddd",
					"totalTxs()": "537a39bb",
					"transfer(address,uint256)": "a9059cbb",
					"transferOwnership(address)": "f2fde38b",
					"users()": "f2020275",
					"withdraw(uint256)": "2e1a7d4d"
				}
			},
			"storageLayout": {
				"storage": [
					{
						"astId": 2207,
						"contract": "contracts/DiamodSafe copy.sol:DiamondSafe",
						"label": "_owner",
						"offset": 0,
						"slot": "0",
						"type": "t_address"
					},
					{
						"astId": 2320,
						"contract": "contracts/DiamodSafe copy.sol:DiamondSafe",
						"label": "_status",
						"offset": 0,
						"slot": "1",
						"type": "t_uint256"
					},
					{
						"astId": 339,
						"contract": "contracts/DiamodSafe copy.sol:DiamondSafe",
						"label": "stakingToken",
						"offset": 0,
						"slot": "2",
						"type": "t_contract(IERC20)2083"
					},
					{
						"astId": 341,
						"contract": "contracts/DiamodSafe copy.sol:DiamondSafe",
						"label": "requiredBalance",
						"offset": 0,
						"slot": "3",
						"type": "t_uint256"
					},
					{
						"astId": 343,
						"contract": "contracts/DiamodSafe copy.sol:DiamondSafe",
						"label": "tokenAddress",
						"offset": 0,
						"slot": "4",
						"type": "t_address"
					},
					{
						"astId": 345,
						"contract": "contracts/DiamodSafe copy.sol:DiamondSafe",
						"label": "bnbReceiver",
						"offset": 0,
						"slot": "5",
						"type": "t_address_payable"
					},
					{
						"astId": 348,
						"contract": "contracts/DiamodSafe copy.sol:DiamondSafe",
						"label": "jpeg",
						"offset": 0,
						"slot": "6",
						"type": "t_array(t_contract(IERC721)2199)dyn_storage"
					},
					{
						"astId": 350,
						"contract": "contracts/DiamodSafe copy.sol:DiamondSafe",
						"label": "users",
						"offset": 0,
						"slot": "7",
						"type": "t_uint256"
					},
					{
						"astId": 352,
						"contract": "contracts/DiamodSafe copy.sol:DiamondSafe",
						"label": "totalTxs",
						"offset": 0,
						"slot": "8",
						"type": "t_uint256"
					},
					{
						"astId": 354,
						"contract": "contracts/DiamodSafe copy.sol:DiamondSafe",
						"label": "lastPayout",
						"offset": 0,
						"slot": "9",
						"type": "t_uint256"
					},
					{
						"astId": 356,
						"contract": "contracts/DiamodSafe copy.sol:DiamondSafe",
						"label": "totalClaims",
						"offset": 0,
						"slot": "10",
						"type": "t_uint256"
					},
					{
						"astId": 358,
						"contract": "contracts/DiamodSafe copy.sol:DiamondSafe",
						"label": "totalDeposits",
						"offset": 0,
						"slot": "11",
						"type": "t_uint256"
					},
					{
						"astId": 360,
						"contract": "contracts/DiamodSafe copy.sol:DiamondSafe",
						"label": "dripPoolBalance",
						"offset": 0,
						"slot": "12",
						"type": "t_uint256"
					},
					{
						"astId": 362,
						"contract": "contracts/DiamodSafe copy.sol:DiamondSafe",
						"label": "dripRate",
						"offset": 0,
						"slot": "13",
						"type": "t_uint8"
					},
					{
						"astId": 364,
						"contract": "contracts/DiamodSafe copy.sol:DiamondSafe",
						"label": "rewardToken",
						"offset": 1,
						"slot": "13",
						"type": "t_contract(IERC20)2083"
					},
					{
						"astId": 374,
						"contract": "contracts/DiamodSafe copy.sol:DiamondSafe",
						"label": "forPool",
						"offset": 0,
						"slot": "14",
						"type": "t_uint256"
					},
					{
						"astId": 376,
						"contract": "contracts/DiamodSafe copy.sol:DiamondSafe",
						"label": "forDivs",
						"offset": 0,
						"slot": "15",
						"type": "t_uint256"
					},
					{
						"astId": 384,
						"contract": "contracts/DiamodSafe copy.sol:DiamondSafe",
						"label": "lastRebaseTime",
						"offset": 0,
						"slot": "16",
						"type": "t_uint256"
					},
					{
						"astId": 386,
						"contract": "contracts/DiamodSafe copy.sol:DiamondSafe",
						"label": "currentTotalStaked",
						"offset": 0,
						"slot": "17",
						"type": "t_uint256"
					},
					{
						"astId": 388,
						"contract": "contracts/DiamodSafe copy.sol:DiamondSafe",
						"label": "profitPerShare_",
						"offset": 0,
						"slot": "18",
						"type": "t_uint256"
					},
					{
						"astId": 445,
						"contract": "contracts/DiamodSafe copy.sol:DiamondSafe",
						"label": "payoutsOf_",
						"offset": 0,
						"slot": "19",
						"type": "t_mapping(t_address,t_int256)"
					},
					{
						"astId": 449,
						"contract": "contracts/DiamodSafe copy.sol:DiamondSafe",
						"label": "balanceOf_",
						"offset": 0,
						"slot": "20",
						"type": "t_mapping(t_address,t_uint256)"
					},
					{
						"astId": 453,
						"contract": "contracts/DiamodSafe copy.sol:DiamondSafe",
						"label": "accountOf_",
						"offset": 0,
						"slot": "21",
						"type": "t_mapping(t_address,t_struct(Account)441_storage)"
					}
				],
				"types": {
					"t_address": {
						"encoding": "inplace",
						"label": "address",
						"numberOfBytes": "20"
					},
					"t_address_payable": {
						"encoding": "inplace",
						"label": "address payable",
						"numberOfBytes": "20"
					},
					"t_array(t_contract(IERC721)2199)dyn_storage": {
						"base": "t_contract(IERC721)2199",
						"encoding": "dynamic_array",
						"label": "contract IERC721[]",
						"numberOfBytes": "32"
					},
					"t_contract(IERC20)2083": {
						"encoding": "inplace",
						"label": "contract IERC20",
						"numberOfBytes": "20"
					},
					"t_contract(IERC721)2199": {
						"encoding": "inplace",
						"label": "contract IERC721",
						"numberOfBytes": "20"
					},
					"t_int256": {
						"encoding": "inplace",
						"label": "int256",
						"numberOfBytes": "32"
					},
					"t_mapping(t_address,t_int256)": {
						"encoding": "mapping",
						"key": "t_address",
						"label": "mapping(address => int256)",
						"numberOfBytes": "32",
						"value": "t_int256"
					},
					"t_mapping(t_address,t_struct(Account)441_storage)": {
						"encoding": "mapping",
						"key": "t_address",
						"label": "mapping(address => struct DiamondSafe.Account)",
						"numberOfBytes": "32",
						"value": "t_struct(Account)441_storage"
					},
					"t_mapping(t_address,t_uint256)": {
						"encoding": "mapping",
						"key": "t_address",
						"label": "mapping(address => uint256)",
						"numberOfBytes": "32",
						"value": "t_uint256"
					},
					"t_struct(Account)441_storage": {
						"encoding": "inplace",
						"label": "struct DiamondSafe.Account",
						"members": [
							{
								"astId": 412,
								"contract": "contracts/DiamodSafe copy.sol:DiamondSafe",
								"label": "deposited",
								"offset": 0,
								"slot": "0",
								"type": "t_uint256"
							},
							{
								"astId": 414,
								"contract": "contracts/DiamodSafe copy.sol:DiamondSafe",
								"label": "rewards",
								"offset": 0,
								"slot": "1",
								"type": "t_uint256"
							},
							{
								"astId": 416,
								"contract": "contracts/DiamodSafe copy.sol:DiamondSafe",
								"label": "withdrawn",
								"offset": 0,
								"slot": "2",
								"type": "t_uint256"
							},
							{
								"astId": 418,
								"contract": "contracts/DiamodSafe copy.sol:DiamondSafe",
								"label": "compounded",
								"offset": 0,
								"slot": "3",
								"type": "t_uint256"
							},
							{
								"astId": 420,
								"contract": "contracts/DiamodSafe copy.sol:DiamondSafe",
								"label": "rewarded",
								"offset": 0,
								"slot": "4",
								"type": "t_uint256"
							},
							{
								"astId": 422,
								"contract": "contracts/DiamodSafe copy.sol:DiamondSafe",
								"label": "contributed",
								"offset": 0,
								"slot": "5",
								"type": "t_uint256"
							},
							{
								"astId": 424,
								"contract": "contracts/DiamodSafe copy.sol:DiamondSafe",
								"label": "transferredShares",
								"offset": 0,
								"slot": "6",
								"type": "t_uint256"
							},
							{
								"astId": 426,
								"contract": "contracts/DiamodSafe copy.sol:DiamondSafe",
								"label": "receivedShares",
								"offset": 0,
								"slot": "7",
								"type": "t_uint256"
							},
							{
								"astId": 428,
								"contract": "contracts/DiamodSafe copy.sol:DiamondSafe",
								"label": "xInvested",
								"offset": 0,
								"slot": "8",
								"type": "t_uint256"
							},
							{
								"astId": 430,
								"contract": "contracts/DiamodSafe copy.sol:DiamondSafe",
								"label": "xCompounded",
								"offset": 0,
								"slot": "9",
								"type": "t_uint256"
							},
							{
								"astId": 432,
								"contract": "contracts/DiamodSafe copy.sol:DiamondSafe",
								"label": "xRewarded",
								"offset": 0,
								"slot": "10",
								"type": "t_uint256"
							},
							{
								"astId": 434,
								"contract": "contracts/DiamodSafe copy.sol:DiamondSafe",
								"label": "xContributed",
								"offset": 0,
								"slot": "11",
								"type": "t_uint256"
							},
							{
								"astId": 436,
								"contract": "contracts/DiamodSafe copy.sol:DiamondSafe",
								"label": "xWithdrawn",
								"offset": 0,
								"slot": "12",
								"type": "t_uint256"
							},
							{
								"astId": 438,
								"contract": "contracts/DiamodSafe copy.sol:DiamondSafe",
								"label": "xTransferredShares",
								"offset": 0,
								"slot": "13",
								"type": "t_uint256"
							},
							{
								"astId": 440,
								"contract": "contracts/DiamodSafe copy.sol:DiamondSafe",
								"label": "xReceivedShares",
								"offset": 0,
								"slot": "14",
								"type": "t_uint256"
							}
						],
						"numberOfBytes": "480"
					},
					"t_uint256": {
						"encoding": "inplace",
						"label": "uint256",
						"numberOfBytes": "32"
					},
					"t_uint8": {
						"encoding": "inplace",
						"label": "uint8",
						"numberOfBytes": "1"
					}
				}
			},
			"userdoc": {
				"kind": "user",
				"methods": {},
				"version": 1
			}
		}
	}
}