{
  "abi": [
    {
      "inputs": [
        {
          "internalType": "address",
          "name": "_tokenAddress",
          "type": "address"
        },
        {
          "internalType": "uint8",
          "name": "_dripRate",
          "type": "uint8"
        }
      ],
      "stateMutability": "nonpayable",
      "type": "constructor"
    },
    {
      "anonymous": false,
      "inputs": [
        {
          "indexed": true,
          "internalType": "address",
          "name": "previousOwner",
          "type": "address"
        },
        {
          "indexed": true,
          "internalType": "address",
          "name": "newOwner",
          "type": "address"
        }
      ],
      "name": "OwnershipTransferred",
      "type": "event"
    },
    {
      "anonymous": false,
      "inputs": [
        {
          "indexed": true,
          "internalType": "address",
          "name": "_user",
          "type": "address"
        },
        {
          "indexed": false,
          "internalType": "uint256",
          "name": "_compounded",
          "type": "uint256"
        },
        {
          "indexed": false,
          "internalType": "uint256",
          "name": "tokensMinted",
          "type": "uint256"
        },
        {
          "indexed": false,
          "internalType": "uint256",
          "name": "timestamp",
          "type": "uint256"
        }
      ],
      "name": "onCompound",
      "type": "event"
    },
    {
      "anonymous": false,
      "inputs": [
        {
          "indexed": true,
          "internalType": "address",
          "name": "_user",
          "type": "address"
        },
        {
          "indexed": false,
          "internalType": "uint256",
          "name": "_deposited",
          "type": "uint256"
        },
        {
          "indexed": false,
          "internalType": "uint256",
          "name": "tokensMinted",
          "type": "uint256"
        },
        {
          "indexed": false,
          "internalType": "uint256",
          "name": "timestamp",
          "type": "uint256"
        }
      ],
      "name": "onDeposit",
      "type": "event"
    },
    {
      "anonymous": false,
      "inputs": [
        {
          "indexed": true,
          "internalType": "address",
          "name": "from",
          "type": "address"
        },
        {
          "indexed": false,
          "internalType": "uint256",
          "name": "_contributed",
          "type": "uint256"
        },
        {
          "indexed": false,
          "internalType": "uint256",
          "name": "timestamp",
          "type": "uint256"
        }
      ],
      "name": "onDonate",
      "type": "event"
    },
    {
      "anonymous": false,
      "inputs": [
        {
          "indexed": true,
          "internalType": "address",
          "name": "from",
          "type": "address"
        },
        {
          "indexed": false,
          "internalType": "uint256",
          "name": "amount",
          "type": "uint256"
        },
        {
          "indexed": false,
          "internalType": "uint256",
          "name": "timestamp",
          "type": "uint256"
        }
      ],
      "name": "onDonateBNB",
      "type": "event"
    },
    {
      "anonymous": false,
      "inputs": [
        {
          "indexed": false,
          "internalType": "uint256",
          "name": "balance",
          "type": "uint256"
        },
        {
          "indexed": false,
          "internalType": "uint256",
          "name": "timestamp",
          "type": "uint256"
        }
      ],
      "name": "onRebase",
      "type": "event"
    },
    {
      "anonymous": false,
      "inputs": [
        {
          "indexed": false,
          "internalType": "uint256",
          "name": "_pool",
          "type": "uint256"
        },
        {
          "indexed": false,
          "internalType": "uint256",
          "name": "_divs",
          "type": "uint256"
        },
        {
          "indexed": false,
          "internalType": "uint256",
          "name": "timestamp",
          "type": "uint256"
        }
      ],
      "name": "onSetFeeSplit",
      "type": "event"
    },
    {
      "anonymous": false,
      "inputs": [
        {
          "indexed": true,
          "internalType": "address",
          "name": "_caller",
          "type": "address"
        },
        {
          "indexed": false,
          "internalType": "contract IERC721[]",
          "name": "oldOne",
          "type": "address[]"
        },
        {
          "indexed": false,
          "internalType": "contract IERC721[]",
          "name": "newOne",
          "type": "address[]"
        },
        {
          "indexed": false,
          "internalType": "uint256",
          "name": "timestamp",
          "type": "uint256"
        }
      ],
      "name": "onSetImmunityToken",
      "type": "event"
    },
    {
      "anonymous": false,
      "inputs": [
        {
          "indexed": true,
          "internalType": "address",
          "name": "from",
          "type": "address"
        },
        {
          "indexed": true,
          "internalType": "address",
          "name": "to",
          "type": "address"
        },
        {
          "indexed": false,
          "internalType": "uint256",
          "name": "tokens",
          "type": "uint256"
        },
        {
          "indexed": false,
          "internalType": "uint256",
          "name": "timestamp",
          "type": "uint256"
        }
      ],
      "name": "onTransfer",
      "type": "event"
    },
    {
      "anonymous": false,
      "inputs": [
        {
          "indexed": true,
          "internalType": "address",
          "name": "_user",
          "type": "address"
        },
        {
          "indexed": false,
          "internalType": "uint256",
          "name": "invested",
          "type": "uint256"
        },
        {
          "indexed": false,
          "internalType": "uint256",
          "name": "tokens",
          "type": "uint256"
        },
        {
          "indexed": false,
          "internalType": "uint256",
          "name": "soldTokens",
          "type": "uint256"
        },
        {
          "indexed": false,
          "internalType": "uint256",
          "name": "timestamp",
          "type": "uint256"
        }
      ],
      "name": "onUpdate",
      "type": "event"
    },
    {
      "anonymous": false,
      "inputs": [
        {
          "indexed": true,
          "internalType": "address",
          "name": "_user",
          "type": "address"
        },
        {
          "indexed": false,
          "internalType": "uint256",
          "name": "_liquidated",
          "type": "uint256"
        },
        {
          "indexed": false,
          "internalType": "uint256",
          "name": "tokensEarned",
          "type": "uint256"
        },
        {
          "indexed": false,
          "internalType": "uint256",
          "name": "timestamp",
          "type": "uint256"
        }
      ],
      "name": "onWithdraw",
      "type": "event"
    },
    {
      "anonymous": false,
      "inputs": [
        {
          "indexed": true,
          "internalType": "address",
          "name": "_user",
          "type": "address"
        },
        {
          "indexed": false,
          "internalType": "uint256",
          "name": "_withdrawn",
          "type": "uint256"
        },
        {
          "indexed": false,
          "internalType": "uint256",
          "name": "timestamp",
          "type": "uint256"
        }
      ],
      "name": "onWithdraw",
      "type": "event"
    },
    {
      "inputs": [
        {
          "internalType": "address",
          "name": "_user",
          "type": "address"
        }
      ],
      "name": "accountOf",
      "outputs": [
        {
          "internalType": "uint256[14]",
          "name": "",
          "type": "uint256[14]"
        }
      ],
      "stateMutability": "view",
      "type": "function"
    },
    {
      "inputs": [
        {
          "internalType": "address",
          "name": "_user",
          "type": "address"
        }
      ],
      "name": "balanceOf",
      "outputs": [
        {
          "internalType": "uint256",
          "name": "",
          "type": "uint256"
        }
      ],
      "stateMutability": "view",
      "type": "function"
    },
    {
      "inputs": [],
      "name": "bnbReceiver",
      "outputs": [
        {
          "internalType": "address payable",
          "name": "",
          "type": "address"
        }
      ],
      "stateMutability": "view",
      "type": "function"
    },
    {
      "inputs": [],
      "name": "buyPrice",
      "outputs": [
        {
          "internalType": "uint256",
          "name": "",
          "type": "uint256"
        }
      ],
      "stateMutability": "pure",
      "type": "function"
    },
    {
      "inputs": [
        {
          "internalType": "uint256",
          "name": "_amount",
          "type": "uint256"
        }
      ],
      "name": "calculateSharesReceived",
      "outputs": [
        {
          "internalType": "uint256",
          "name": "",
          "type": "uint256"
        }
      ],
      "stateMutability": "pure",
      "type": "function"
    },
    {
      "inputs": [
        {
          "internalType": "uint256",
          "name": "_amount",
          "type": "uint256"
        }
      ],
      "name": "calculateTokensReceived",
      "outputs": [
        {
          "internalType": "uint256",
          "name": "",
          "type": "uint256"
        }
      ],
      "stateMutability": "view",
      "type": "function"
    },
    {
      "inputs": [
        {
          "internalType": "address",
          "name": "_user",
          "type": "address"
        }
      ],
      "name": "checkImmunity",
      "outputs": [
        {
          "internalType": "bool",
          "name": "isImmune",
          "type": "bool"
        }
      ],
      "stateMutability": "view",
      "type": "function"
    },
    {
      "inputs": [],
      "name": "compound",
      "outputs": [],
      "stateMutability": "nonpayable",
      "type": "function"
    },
    {
      "inputs": [
        {
          "internalType": "address",
          "name": "_user",
          "type": "address"
        }
      ],
      "name": "dailyEstimate",
      "outputs": [
        {
          "internalType": "uint256",
          "name": "",
          "type": "uint256"
        }
      ],
      "stateMutability": "view",
      "type": "function"
    },
    {
      "inputs": [
        {
          "internalType": "uint256",
          "name": "_amount",
          "type": "uint256"
        }
      ],
      "name": "deposit",
      "outputs": [
        {
          "internalType": "uint256",
          "name": "",
          "type": "uint256"
        }
      ],
      "stateMutability": "nonpayable",
      "type": "function"
    },
    {
      "inputs": [
        {
          "internalType": "address",
          "name": "_user",
          "type": "address"
        },
        {
          "internalType": "uint256",
          "name": "_amount",
          "type": "uint256"
        }
      ],
      "name": "depositTo",
      "outputs": [
        {
          "internalType": "uint256",
          "name": "",
          "type": "uint256"
        }
      ],
      "stateMutability": "nonpayable",
      "type": "function"
    },
    {
      "inputs": [
        {
          "internalType": "address",
          "name": "_user",
          "type": "address"
        }
      ],
      "name": "dividendsOf",
      "outputs": [
        {
          "internalType": "uint256",
          "name": "",
          "type": "uint256"
        }
      ],
      "stateMutability": "view",
      "type": "function"
    },
    {
      "inputs": [
        {
          "internalType": "uint256",
          "name": "_amount",
          "type": "uint256"
        }
      ],
      "name": "donate",
      "outputs": [
        {
          "internalType": "uint256",
          "name": "",
          "type": "uint256"
        }
      ],
      "stateMutability": "nonpayable",
      "type": "function"
    },
    {
      "inputs": [],
      "name": "dripPoolBalance",
      "outputs": [
        {
          "internalType": "uint256",
          "name": "",
          "type": "uint256"
        }
      ],
      "stateMutability": "view",
      "type": "function"
    },
    {
      "inputs": [],
      "name": "dripRate",
      "outputs": [
        {
          "internalType": "uint8",
          "name": "",
          "type": "uint8"
        }
      ],
      "stateMutability": "view",
      "type": "function"
    },
    {
      "inputs": [],
      "name": "forDivs",
      "outputs": [
        {
          "internalType": "uint256",
          "name": "",
          "type": "uint256"
        }
      ],
      "stateMutability": "view",
      "type": "function"
    },
    {
      "inputs": [],
      "name": "forPool",
      "outputs": [
        {
          "internalType": "uint256",
          "name": "",
          "type": "uint256"
        }
      ],
      "stateMutability": "view",
      "type": "function"
    },
    {
      "inputs": [],
      "name": "harvest",
      "outputs": [],
      "stateMutability": "nonpayable",
      "type": "function"
    },
    {
      "inputs": [
        {
          "internalType": "uint256",
          "name": "",
          "type": "uint256"
        }
      ],
      "name": "jpeg",
      "outputs": [
        {
          "internalType": "contract IERC721",
          "name": "",
          "type": "address"
        }
      ],
      "stateMutability": "view",
      "type": "function"
    },
    {
      "inputs": [],
      "name": "lastPayout",
      "outputs": [
        {
          "internalType": "uint256",
          "name": "",
          "type": "uint256"
        }
      ],
      "stateMutability": "view",
      "type": "function"
    },
    {
      "inputs": [],
      "name": "lastRebaseTime",
      "outputs": [
        {
          "internalType": "uint256",
          "name": "",
          "type": "uint256"
        }
      ],
      "stateMutability": "view",
      "type": "function"
    },
    {
      "inputs": [],
      "name": "myEarnings",
      "outputs": [
        {
          "internalType": "uint256",
          "name": "",
          "type": "uint256"
        }
      ],
      "stateMutability": "view",
      "type": "function"
    },
    {
      "inputs": [],
      "name": "myTokens",
      "outputs": [
        {
          "internalType": "uint256",
          "name": "",
          "type": "uint256"
        }
      ],
      "stateMutability": "view",
      "type": "function"
    },
    {
      "inputs": [],
      "name": "owner",
      "outputs": [
        {
          "internalType": "address",
          "name": "",
          "type": "address"
        }
      ],
      "stateMutability": "view",
      "type": "function"
    },
    {
      "inputs": [],
      "name": "payoutFrequency",
      "outputs": [
        {
          "internalType": "uint256",
          "name": "",
          "type": "uint256"
        }
      ],
      "stateMutability": "view",
      "type": "function"
    },
    {
      "inputs": [],
      "name": "rebaseFrequency",
      "outputs": [
        {
          "internalType": "uint256",
          "name": "",
          "type": "uint256"
        }
      ],
      "stateMutability": "view",
      "type": "function"
    },
    {
      "inputs": [],
      "name": "renounceOwnership",
      "outputs": [],
      "stateMutability": "nonpayable",
      "type": "function"
    },
    {
      "inputs": [],
      "name": "requiredBalance",
      "outputs": [
        {
          "internalType": "uint256",
          "name": "",
          "type": "uint256"
        }
      ],
      "stateMutability": "view",
      "type": "function"
    },
    {
      "inputs": [],
      "name": "sellPrice",
      "outputs": [
        {
          "internalType": "uint256",
          "name": "",
          "type": "uint256"
        }
      ],
      "stateMutability": "pure",
      "type": "function"
    },
    {
      "inputs": [
        {
          "internalType": "uint256",
          "name": "_pool",
          "type": "uint256"
        },
        {
          "internalType": "uint256",
          "name": "_divs",
          "type": "uint256"
        }
      ],
      "name": "setFeeSplit",
      "outputs": [
        {
          "internalType": "bool",
          "name": "_success",
          "type": "bool"
        }
      ],
      "stateMutability": "nonpayable",
      "type": "function"
    },
    {
      "inputs": [
        {
          "internalType": "contract IERC721[]",
          "name": "_contract",
          "type": "address[]"
        }
      ],
      "name": "setImmunityToken",
      "outputs": [
        {
          "internalType": "bool",
          "name": "_success",
          "type": "bool"
        }
      ],
      "stateMutability": "nonpayable",
      "type": "function"
    },
    {
      "inputs": [],
      "name": "stakingToken",
      "outputs": [
        {
          "internalType": "contract IERC20",
          "name": "",
          "type": "address"
        }
      ],
      "stateMutability": "view",
      "type": "function"
    },
    {
      "inputs": [],
      "name": "tokenAddress",
      "outputs": [
        {
          "internalType": "address",
          "name": "",
          "type": "address"
        }
      ],
      "stateMutability": "view",
      "type": "function"
    },
    {
      "inputs": [
        {
          "internalType": "address",
          "name": "_user",
          "type": "address"
        }
      ],
      "name": "tokenBalance",
      "outputs": [
        {
          "internalType": "uint256",
          "name": "",
          "type": "uint256"
        }
      ],
      "stateMutability": "view",
      "type": "function"
    },
    {
      "inputs": [],
      "name": "totalBalance",
      "outputs": [
        {
          "internalType": "uint256",
          "name": "",
          "type": "uint256"
        }
      ],
      "stateMutability": "view",
      "type": "function"
    },
    {
      "inputs": [],
      "name": "totalClaims",
      "outputs": [
        {
          "internalType": "uint256",
          "name": "",
          "type": "uint256"
        }
      ],
      "stateMutability": "view",
      "type": "function"
    },
    {
      "inputs": [],
      "name": "totalDeposits",
      "outputs": [
        {
          "internalType": "uint256",
          "name": "",
          "type": "uint256"
        }
      ],
      "stateMutability": "view",
      "type": "function"
    },
    {
      "inputs": [],
      "name": "totalSupply",
      "outputs": [
        {
          "internalType": "uint256",
          "name": "",
          "type": "uint256"
        }
      ],
      "stateMutability": "view",
      "type": "function"
    },
    {
      "inputs": [],
      "name": "totalTxs",
      "outputs": [
        {
          "internalType": "uint256",
          "name": "",
          "type": "uint256"
        }
      ],
      "stateMutability": "view",
      "type": "function"
    },
    {
      "inputs": [
        {
          "internalType": "address",
          "name": "_to",
          "type": "address"
        },
        {
          "internalType": "uint256",
          "name": "_amount",
          "type": "uint256"
        }
      ],
      "name": "transfer",
      "outputs": [
        {
          "internalType": "bool",
          "name": "",
          "type": "bool"
        }
      ],
      "stateMutability": "nonpayable",
      "type": "function"
    },
    {
      "inputs": [
        {
          "internalType": "address",
          "name": "newOwner",
          "type": "address"
        }
      ],
      "name": "transferOwnership",
      "outputs": [],
      "stateMutability": "nonpayable",
      "type": "function"
    },
    {
      "inputs": [],
      "name": "users",
      "outputs": [
        {
          "internalType": "uint256",
          "name": "",
          "type": "uint256"
        }
      ],
      "stateMutability": "view",
      "type": "function"
    },
    {
      "inputs": [
        {
          "internalType": "uint256",
          "name": "_amount",
          "type": "uint256"
        }
      ],
      "name": "withdraw",
      "outputs": [],
      "stateMutability": "nonpayable",
      "type": "function"
    },
    {
      "stateMutability": "payable",
      "type": "receive"
    }
  ],
  "bytecode": {
    "object": "0x60806040523480156200001157600080fd5b50604051620025a5380380620025a5833981810160405260408110156200003757600080fd5b50805160209091015160006200004c6200016b565b600080546001600160a01b0319166001600160a01b0383169081178255604051929350917f8be0079c531659141344cd1fd0a4f28419497f9722a3daafe3b4186f6b6457e0908290a350600180556001600160a01b03821615801590620000c45750620000c4826200016f60201b620019da1760201c565b62000108576040805162461bcd60e51b815260206004820152600f60248201526e494e56414c49445f4144445245535360881b604482015290519081900360640190fd5b600480546001600160a01b039093166001600160a01b031993841681179091556002805484169091178155600580549093163317909255600d805460ff90921660ff1990921691909117905542600955600e556001600f81905560035562000175565b3390565b3b151590565b61242080620001856000396000f3fe60806040526004361061025f5760003560e01c80638da5cb5b11610144578063d7c3771d116100b6578063f2fde38b1161007a578063f2fde38b146107a9578063f69e2046146107dc578063f6db0da0146107f1578063fbaf1bbd146108a1578063ffaad6a5146108d4578063ffe6bbd81461090d576102b5565b8063d7c3771d146106f8578063e02e1e9c1461070d578063eedc966a14610737578063f14faf6f1461076a578063f202027514610794576102b5565b8063ad7a672f11610108578063ad7a672f1461063a578063aecb6d281461064f578063b03cf5a714610664578063b6b55f251461068e578063b9db102a146106b8578063d3261592146106cd576102b5565b80638da5cb5b146105ad578063949e8acd146105c25780639d76ea58146105d7578063a01496de146105ec578063a9059cbb14610601576102b5565b80634b750334116101dd5780637d882097116101a15780637d882097146104bd5780637e6335c7146104d25780638086b8ba1461050257806381fce6451461056e5780638620410b1461058357806389375abf14610598576102b5565b80634b7503341461041a578063537a39bb1461042f57806370a0823114610444578063715018a61461047757806372f702f31461048c576102b5565b80631f38b9cd116102245780631f38b9cd146103685780632e1a7d4d1461037d57806336599ead146103a957806341c61383146103f05780634641257d14610405576102b5565b806265318b146102ba57806308560ace146102ff57806310d0ffdd1461031457806318160ddd1461033e5780631924063e14610353576102b5565b366102b55760055461027a906001600160a01b031634610922565b60408051348152426020820152815133927f3c2bd1b3f5ca07afb09fbee41ac43da2b98d9c2e9832673052e546bd1d4c091d928290030190a2005b600080fd5b3480156102c657600080fd5b506102ed600480360360208110156102dd57600080fd5b50356001600160a01b0316610a0c565b60408051918252519081900360200190f35b34801561030b57600080fd5b506102ed610a45565b34801561032057600080fd5b506102ed6004803603602081101561033757600080fd5b5035610a4b565b34801561034a57600080fd5b506102ed610a8b565b34801561035f57600080fd5b506102ed610a91565b34801561037457600080fd5b506102ed610a97565b34801561038957600080fd5b506103a7600480360360208110156103a057600080fd5b5035610a9d565b005b3480156103b557600080fd5b506103dc600480360360208110156103cc57600080fd5b50356001600160a01b0316610c3b565b604080519115158252519081900360200190f35b3480156103fc57600080fd5b506102ed610d06565b34801561041157600080fd5b506103a7610d0c565b34801561042657600080fd5b506102ed610e79565b34801561043b57600080fd5b506102ed610ea9565b34801561045057600080fd5b506102ed6004803603602081101561046757600080fd5b50356001600160a01b0316610eaf565b34801561048357600080fd5b506103a7610eca565b34801561049857600080fd5b506104a1610f76565b604080516001600160a01b039092168252519081900360200190f35b3480156104c957600080fd5b506102ed610f85565b3480156104de57600080fd5b506103dc600480360360408110156104f557600080fd5b5080359060200135610f8b565b34801561050e57600080fd5b506105356004803603602081101561052557600080fd5b50356001600160a01b03166110a0565b60405180826101c080838360005b8381101561055b578181015183820152602001610543565b5050505090500191505060405180910390f35b34801561057a57600080fd5b506102ed611217565b34801561058f57600080fd5b506102ed61121c565b3480156105a457600080fd5b506102ed611244565b3480156105b957600080fd5b506104a161124a565b3480156105ce57600080fd5b506102ed611259565b3480156105e357600080fd5b506104a1611269565b3480156105f857600080fd5b506102ed611278565b34801561060d57600080fd5b506103dc6004803603604081101561062457600080fd5b506001600160a01b03813516906020013561127e565b34801561064657600080fd5b506102ed6112a4565b34801561065b57600080fd5b506102ed611320565b34801561067057600080fd5b506104a16004803603602081101561068757600080fd5b5035611326565b34801561069a57600080fd5b506102ed600480360360208110156106b157600080fd5b5035611350565b3480156106c457600080fd5b506102ed61135c565b3480156106d957600080fd5b506106e2611362565b6040805160ff9092168252519081900360200190f35b34801561070457600080fd5b506104a161136b565b34801561071957600080fd5b506102ed6004803603602081101561073057600080fd5b503561137a565b34801561074357600080fd5b506102ed6004803603602081101561075a57600080fd5b50356001600160a01b03166113a1565b34801561077657600080fd5b506102ed6004803603602081101561078d57600080fd5b50356113ae565b3480156107a057600080fd5b506102ed6114ad565b3480156107b557600080fd5b506103a7600480360360208110156107cc57600080fd5b50356001600160a01b03166114b3565b3480156107e857600080fd5b506103a76115b5565b3480156107fd57600080fd5b506103dc6004803603602081101561081457600080fd5b81019060208101813564010000000081111561082f57600080fd5b82018360208201111561084157600080fd5b8035906020019184602083028401116401000000008311171561086357600080fd5b9190808060200260200160405190810160405280939291908181526020018383602002808284376000920191909152509295506115d4945050505050565b3480156108ad57600080fd5b506102ed600480360360208110156108c457600080fd5b50356001600160a01b0316611861565b3480156108e057600080fd5b506102ed600480360360408110156108f757600080fd5b506001600160a01b0381351690602001356118c4565b34801561091957600080fd5b506102ed6119cf565b80471015610977576040805162461bcd60e51b815260206004820152601d60248201527f416464726573733a20696e73756666696369656e742062616c616e6365000000604482015290519081900360640190fd5b6040516000906001600160a01b0384169083908381818185875af1925050503d80600081146109c2576040519150601f19603f3d011682016040523d82523d6000602084013e6109c7565b606091505b5050905080610a075760405162461bcd60e51b815260040180806020018281038252603a815260200180612370603a913960400191505060405180910390fd5b505050565b6001600160a01b0381166000908152601360209081526040808320546014909252822054601254600160401b929102030490505b919050565b60035481565b6000601154821115610a5c57600080fd5b816000610a74610a6d8360036119e0565b6064611a39565b90506000610a828383611aa0565b95945050505050565b60115490565b60105481565b600f5481565b6000610aa7611259565b11610ab157600080fd5b33600081815260146020526040902054821115610acd57600080fd5b60006064610adc8460036119e0565b81610ae357fe5b0490506000610af133610c3b565b90508015610afe57600091505b6000610b0a8584611aa0565b9050610b1860115486611aa0565b6011556001600160a01b038416600090815260146020526040902054610b3e9086611aa0565b6001600160a01b03851660009081526014602090815260408083209390935560125460139091529190208054918702600160401b840201918290039055610b8484611afd565b6040805187815260208101849052428183015290516001600160a01b038716917f90ebb005d68efee044927e1e77e1fd0cecc508368aa72c39250a787eed5f0a70919081900360600190a26001600160a01b038516600081815260156020818152604080842080546014845294829020549383526001015481519485529184019290925282820152426060830152516000805160206123508339815191529181900360800190a2610c33611b8b565b505050505050565b60008080805b600654811015610ce75760068181548110610c5857fe5b60009182526020918290200154604080516370a0823160e01b81526001600160a01b038981166004830152915191909216945084926370a082319260248082019391829003018186803b158015610cae57600080fd5b505afa158015610cc2573d6000803e3d6000fd5b505050506040513d6020811015610cd857600080fd5b50519290920191600101610c41565b506003548210610cfc57600192505050610a40565b5060009392505050565b600a5481565b6000610d166119cf565b11610d2057600080fd5b336000610d2b6119cf565b6001600160a01b0380841660008181526013602090815260408083208054600160401b8802019055600254815163a9059cbb60e01b815260048101959095526024850187905290519596509093169363a9059cbb936044808501949193918390030190829087803b158015610d9f57600080fd5b505af1158015610db3573d6000803e3d6000fd5b505050506040513d6020811015610dc957600080fd5b50506001600160a01b038216600090815260156020526040902060010154610df19082611c82565b6001600160a01b038316600081815260156020908152604091829020600180820195909555600b0180548501905560088054909401909355600a80548501905580518481524293810193909352805191927f1b091269e929df55d64d6ea7e9cadbe4fb38dce5ccdc995767bc515030dbfbbf929081900390910190a2610e75611b8b565b5050565b6000670de0b6b3a764000081610e93610a6d8360036119e0565b90506000610ea18383611aa0565b935050505090565b60085481565b6001600160a01b031660009081526014602052604090205490565b610ed2611cdc565b6001600160a01b0316610ee361124a565b6001600160a01b031614610f2c576040805162461bcd60e51b815260206004820181905260248201526000805160206123cb833981519152604482015290519081900360640190fd5b600080546040516001600160a01b03909116907f8be0079c531659141344cd1fd0a4f28419497f9722a3daafe3b4186f6b6457e0908390a3600080546001600160a01b0319169055565b6002546001600160a01b031681565b600b5481565b6000610f95611cdc565b6001600160a01b0316610fa661124a565b6001600160a01b031614610fef576040805162461bcd60e51b815260206004820181905260248201526000805160206123cb833981519152604482015290519081900360640190fd5b610ff98383611c82565b60031461104d576040805162461bcd60e51b815260206004820152601d60248201527f54454e5f504f5254494f4e535f524551554952455f4449564953494f4e000000604482015290519081900360640190fd5b600e839055600f8290556040805184815260208101849052428183015290517f677017fa3a0fe0f50a95e6024c5b688f2b14a4696c4a897c459715cabfc1c03a9181900360600190a15060015b92915050565b6110a8612221565b6110b0612240565b506001600160a01b03821660009081526015602090815260409182902082516101c081018452815481526001820154928101929092526002810154928201929092526003820154606082015260048201546080820152600582015460a0820152600682015460c0820152600782015460e082015260088201546101008201526009820154610120820152600a820154610140820152600b820154610160820152600c820154610180820152600d909101546101a082015261116f612221565b604051806101c0016040528083600001518152602001836020015181526020018360600151815260200183604001518152602001836080015181526020018360a0015181526020018360c0015181526020018360e0015181526020018361012001518152602001836101400151815260200183610160015181526020018361018001518152602001836101a00151815260200183610100015181525090508092505050919050565b600281565b6000670de0b6b3a764000081611236610a6d8360036119e0565b90506000610ea18383611c82565b61546081565b6000546001600160a01b031690565b600061126433610eaf565b905090565b6004546001600160a01b031681565b600e5481565b600080611289611259565b1161129357600080fd5b61129d8383611ce0565b9392505050565b600254604080516370a0823160e01b815230600482015290516000926001600160a01b0316916370a08231916024808301926020929190829003018186803b1580156112ef57600080fd5b505afa158015611303573d6000803e3d6000fd5b505050506040513d602081101561131957600080fd5b5051905090565b600c5481565b6006818154811061133657600080fd5b6000918252602090912001546001600160a01b0316905081565b600061109a33836118c4565b60095481565b600d5460ff1681565b6005546001600160a01b031681565b60008061138b610a6d8460036119e0565b905060006113998483611aa0565b949350505050565b6001600160a01b03163190565b600254604080516323b872dd60e01b81523360048201523060248201526044810184905290516000926001600160a01b0316916323b872dd91606480830192602092919082900301818787803b15801561140757600080fd5b505af115801561141b573d6000803e3d6000fd5b505050506040513d602081101561143157600080fd5b505161143c57600080fd5b600c80548301905533600081815260156020908152604091829020600a8101805460010190556004018054860190558151858152429181019190915281517f0da1788c3e861a58a47f0d46073b13c4d66efcc259714744f920d1afe7b8dee5929181900390910190a25050600c5490565b60075481565b6114bb611cdc565b6001600160a01b03166114cc61124a565b6001600160a01b031614611515576040805162461bcd60e51b815260206004820181905260248201526000805160206123cb833981519152604482015290519081900360640190fd5b6001600160a01b03811661155a5760405162461bcd60e51b815260040180806020018281038252602681526020018061232a6026913960400191505060405180910390fd5b600080546040516001600160a01b03808516939216917f8be0079c531659141344cd1fd0a4f28419497f9722a3daafe3b4186f6b6457e091a3600080546001600160a01b0319166001600160a01b0392909216919091179055565b60006115bf6119cf565b116115c957600080fd5b6115d1611f4b565b50565b60006115de611cdc565b6001600160a01b03166115ef61124a565b6001600160a01b031614611638576040805162461bcd60e51b815260206004820181905260248201526000805160206123cb833981519152604482015290519081900360640190fd5b60005b6006548110156117155782818151811061165157fe5b60200260200101516001600160a01b03166301ffc9a76380ac58cd6040518263ffffffff1660e01b8152600401808260e01b815260200191505060206040518083038186803b1580156116a357600080fd5b505afa1580156116b7573d6000803e3d6000fd5b505050506040513d60208110156116cd57600080fd5b505161170d576040805162461bcd60e51b815260206004820152600a6024820152694e4f545f45524337323160b01b604482015290519081900360640190fd5b60010161163b565b506060600680548060200260200160405190810160405280929190818152602001828054801561176e57602002820191906000526020600020905b81546001600160a01b03168152600190910190602001808311611750575b5050865193945061178a936006935060208801925090506122af565b50336001600160a01b03167ff0650831416f723858005cfeae97a2d6f5e127d1e6ae8938574d1d73e7f4727c828542604051808060200180602001848152602001838103835286818151815260200191508051906020019060200280838360005b838110156118035781810151838201526020016117eb565b50505050905001838103825285818151815260200191508051906020019060200280838360005b8381101561184257818101518382015260200161182a565b505050509050019550505050505060405180910390a250600192915050565b600d54600c5460009182916118859160649161187f9160ff166119e0565b90611a39565b905060006011541161189857600061129d565b6011546001600160a01b03841660009081526014602052604090205461129d919061187f9084906119e0565b600254604080516323b872dd60e01b81523360048201523060248201526044810184905290516000926001600160a01b0316916323b872dd91606480830192602092919082900301818787803b15801561191d57600080fd5b505af1158015611931573d6000803e3d6000fd5b505050506040513d602081101561194757600080fd5b505161195257600080fd5b600b80548301905560006119668484612081565b6001600160a01b0385166000818152601560208181526040808420805460148452948290205493835260010154815194855291840192909252828201524260608301525192935090916000805160206123508339815191529181900360800190a261129d611b8b565b600061126433610a0c565b3b151590565b6000826119ef5750600061109a565b828202828482816119fc57fe5b041461129d5760405162461bcd60e51b81526004018080602001828103825260218152602001806123aa6021913960400191505060405180910390fd5b6000808211611a8f576040805162461bcd60e51b815260206004820152601a60248201527f536166654d6174683a206469766973696f6e206279207a65726f000000000000604482015290519081900360640190fd5b818381611a9857fe5b049392505050565b600082821115611af7576040805162461bcd60e51b815260206004820152601e60248201527f536166654d6174683a207375627472616374696f6e206f766572666c6f770000604482015290519081900360640190fd5b50900390565b6000611b0a82600a611a39565b90506000611b23600e54836119e090919063ffffffff16565b90506000611b3c600f54846119e090919063ffffffff16565b600c54909150611b4c9083611c82565b600c5560115415611b7c57611b74601254601154600160401b840281611b6e57fe5b04611c82565b601255611b85565b600c8054820190555b50505050565b601054429061546090611b9f908390612206565b1115611beb577f2cfce469a63f2e9972b7f23da751e6943ed2b091c10e40b5c43b5f6105bf20ea611bce6112a4565b60408051918252602082018490528051918290030190a160108190555b6002611bf982600954612206565b118015611c0857506000601154115b156115d157600d54600c54600091611c3191620151809161187f9160649183919060ff166119e0565b90506000611c4a6009548461220690919063ffffffff16565b600c549083029150611c5c9082612206565b600c55601254601154611c789190600160401b840281611b6e57fe5b6012555050600955565b60008282018381101561129d576040805162461bcd60e51b815260206004820152601b60248201527f536166654d6174683a206164646974696f6e206f766572666c6f770000000000604482015290519081900360640190fd5b3390565b33600081815260146020526040812054909190831115611cff57600080fd5b6000611d096119cf565b1115611d1757611d17610d0c565b6001600160a01b038116600090815260146020526040902054611d3a9084611aa0565b6001600160a01b038083166000908152601460205260408082209390935590861681522054611d699084611c82565b6001600160a01b03858116600081815260146020908152604080832095909555601280549487168352601382528583208054958a029095039094559254918152838120805492880290920190915560159091522054158015611de457506001600160a01b038416600090815260156020526040902060060154155b15611df3576007805460010190555b6001600160a01b038082166000818152601560209081526040808320600c810180546001908101909155600590910180548a019055948916808452928190206006810180548a019055600d018054860190556008805490950190945583518781524291810191909152835191937f91c7d71a3ae3fb7cf61e00517bf4868e9e23d0bace5e304cbc3b68de5d85350e92918290030190a36001600160a01b038116600081815260156020818152604080842080546014845294829020549383526001015481519485529184019290925282820152426060830152516000805160206123508339815191529181900360800190a26001600160a01b038416600081815260156020818152604080842080546014845294829020549383526001015481519485529184019290925282820152426060830152516000805160206123508339815191529181900360800190a25060019392505050565b60003381611f5882610a0c565b6001600160a01b03831660009081526013602052604081208054600160401b8402019055909150611f893383612081565b6040805184815260208101839052428183015290519192506001600160a01b038516917f193a876ac91d11a4a0a71ebef73b195ba55aa7c16d6755c93c21d973e692a02c9181900360600190a26001600160a01b038316600090815260156020526040902060020154611ffc9083611c82565b6001600160a01b0384166000818152601560208181526040808420600281019690965560088601805460019081019091558654601484529482902054938352909501548551938452908301919091528184015242606082015291519091600080516020612350833981519152919081900360800190a261207a611b8b565b9250505090565b6001600160a01b0382166000908152601560205260408120541580156120c057506001600160a01b038316600090815260156020526040902060060154155b156120cf576007805460010190555b600880546001019055600060646120e78460036119e0565b816120ee57fe5b04905060006120fd8483611aa0565b6040805186815260208101839052428183015290519192506001600160a01b038716917fb49bb132260f6aa1c86e2d2a3957c097216e6ec9b5fa15867289f058b4d297ac9181900360600190a260008111801561216457506011546121628282611c82565b115b61216d57600080fd5b60115415612182576011805482019055612188565b60118190555b61219182611afd565b6001600160a01b0385166000908152601460205260409020546121b49082611c82565b6001600160a01b03861660009081526014602090815260408083209390935560125460138252838320805491860291909101905560159052208054850181556007018054600101905591505092915050565b6000828211156122185750600061109a565b5080820361109a565b604051806101c00160405280600e906020820280368337509192915050565b604051806101c0016040528060008152602001600081526020016000815260200160008152602001600081526020016000815260200160008152602001600081526020016000815260200160008152602001600081526020016000815260200160008152602001600081525090565b828054828255906000526020600020908101928215612304579160200282015b8281111561230457825182546001600160a01b0319166001600160a01b039091161782556020909201916001909101906122cf565b50612310929150612314565b5090565b5b80821115612310576000815560010161231556fe4f776e61626c653a206e6577206f776e657220697320746865207a65726f206164647265737329f64f6f46c82c5ecfa955fe7d093e63b4106b6dbe5193e00efd62c7384ef177416464726573733a20756e61626c6520746f2073656e642076616c75652c20726563697069656e74206d61792068617665207265766572746564536166654d6174683a206d756c7469706c69636174696f6e206f766572666c6f774f776e61626c653a2063616c6c6572206973206e6f7420746865206f776e6572a2646970667358221220243594be5e3d806dd2ec968e93ef50295ba5c0e02cd7734a8d10625c86601e0b64736f6c63430007040033",
    "linkReferences": {}
  },
  "methodIdentifiers": {
    "accountOf(address)": "8086b8ba",
    "balanceOf(address)": "70a08231",
    "bnbReceiver()": "d7c3771d",
    "buyPrice()": "8620410b",
    "calculateSharesReceived(uint256)": "e02e1e9c",
    "calculateTokensReceived(uint256)": "10d0ffdd",
    "checkImmunity(address)": "36599ead",
    "compound()": "f69e2046",
    "dailyEstimate(address)": "fbaf1bbd",
    "deposit(uint256)": "b6b55f25",
    "depositTo(address,uint256)": "ffaad6a5",
    "dividendsOf(address)": "0065318b",
    "donate(uint256)": "f14faf6f",
    "dripPoolBalance()": "aecb6d28",
    "dripRate()": "d3261592",
    "forDivs()": "1f38b9cd",
    "forPool()": "a01496de",
    "harvest()": "4641257d",
    "jpeg(uint256)": "b03cf5a7",
    "lastPayout()": "b9db102a",
    "lastRebaseTime()": "1924063e",
    "myEarnings()": "ffe6bbd8",
    "myTokens()": "949e8acd",
    "owner()": "8da5cb5b",
    "payoutFrequency()": "81fce645",
    "rebaseFrequency()": "89375abf",
    "renounceOwnership()": "715018a6",
    "requiredBalance()": "08560ace",
    "sellPrice()": "4b750334",
    "setFeeSplit(uint256,uint256)": "7e6335c7",
    "setImmunityToken(address[])": "f6db0da0",
    "stakingToken()": "72f702f3",
    "tokenAddress()": "9d76ea58",
    "tokenBalance(address)": "eedc966a",
    "totalBalance()": "ad7a672f",
    "totalClaims()": "41c61383",
    "totalDeposits()": "7d882097",
    "totalSupply()": "18160ddd",
    "totalTxs()": "537a39bb",
    "transfer(address,uint256)": "a9059cbb",
    "transferOwnership(address)": "f2fde38b",
    "users()": "f2020275",
    "withdraw(uint256)": "2e1a7d4d"
  },
  "id": 3
}