{
	"data": {
		"bytecode": {
			"linkReferences": {},
			"object": "60806040523480156200001157600080fd5b506040516200256e3803806200256e833981810160405260408110156200003757600080fd5b50805160209091015160006200004c6200016b565b600080546001600160a01b0319166001600160a01b0383169081178255604051929350917f8be0079c531659141344cd1fd0a4f28419497f9722a3daafe3b4186f6b6457e0908290a350600180556001600160a01b03821615801590620000c45750620000c4826200016f60201b620019a51760201c565b62000108576040805162461bcd60e51b815260206004820152600f60248201526e494e56414c49445f4144445245535360881b604482015290519081900360640190fd5b600480546001600160a01b039093166001600160a01b031993841681179091556002805484169091178155600580549093163317909255600d805460ff90921660ff1990921691909117905542600955600e556001600f81905560035562000175565b3390565b3b151590565b6123e980620001856000396000f3fe60806040526004361061025f5760003560e01c80638da5cb5b11610144578063d7c3771d116100b6578063f2fde38b1161007a578063f2fde38b14610794578063f69e2046146107c7578063f6db0da0146107dc578063fbaf1bbd1461088c578063ffaad6a5146108bf578063ffe6bbd8146108f8576102b5565b8063d7c3771d146106e3578063e02e1e9c146106f8578063eedc966a14610722578063f14faf6f14610755578063f20202751461077f576102b5565b8063ad7a672f11610108578063ad7a672f14610625578063aecb6d281461063a578063b03cf5a71461064f578063b6b55f2514610679578063b9db102a146106a3578063d3261592146106b8576102b5565b80638da5cb5b14610598578063949e8acd146105ad5780639d76ea58146105c2578063a01496de146105d7578063a9059cbb146105ec576102b5565b80634b750334116101dd5780637d882097116101a15780637d882097146104bd5780637e6335c7146104d25780638086b8ba1461050257806381fce6451461056e5780638620410b1461058357806389375abf1461056e576102b5565b80634b7503341461041a578063537a39bb1461042f57806370a0823114610444578063715018a61461047757806372f702f31461048c576102b5565b80631f38b9cd116102245780631f38b9cd146103685780632e1a7d4d1461037d57806336599ead146103a957806341c61383146103f05780634641257d14610405576102b5565b806265318b146102ba57806308560ace146102ff57806310d0ffdd1461031457806318160ddd1461033e5780631924063e14610353576102b5565b366102b55760055461027a906001600160a01b03163461090d565b60408051348152426020820152815133927f3c2bd1b3f5ca07afb09fbee41ac43da2b98d9c2e9832673052e546bd1d4c091d928290030190a2005b600080fd5b3480156102c657600080fd5b506102ed600480360360208110156102dd57600080fd5b50356001600160a01b03166109f7565b60408051918252519081900360200190f35b34801561030b57600080fd5b506102ed610a30565b34801561032057600080fd5b506102ed6004803603602081101561033757600080fd5b5035610a36565b34801561034a57600080fd5b506102ed610a75565b34801561035f57600080fd5b506102ed610a7b565b34801561037457600080fd5b506102ed610a81565b34801561038957600080fd5b506103a7600480360360208110156103a057600080fd5b5035610a87565b005b3480156103b557600080fd5b506103dc600480360360208110156103cc57600080fd5b50356001600160a01b0316610c0f565b604080519115158252519081900360200190f35b3480156103fc57600080fd5b506102ed610cda565b34801561041157600080fd5b506103a7610ce0565b34801561042657600080fd5b506102ed610e4d565b34801561043b57600080fd5b506102ed610e7c565b34801561045057600080fd5b506102ed6004803603602081101561046757600080fd5b50356001600160a01b0316610e82565b34801561048357600080fd5b506103a7610e9d565b34801561049857600080fd5b506104a1610f49565b604080516001600160a01b039092168252519081900360200190f35b3480156104c957600080fd5b506102ed610f58565b3480156104de57600080fd5b506103dc600480360360408110156104f557600080fd5b5080359060200135610f5e565b34801561050e57600080fd5b506105356004803603602081101561052557600080fd5b50356001600160a01b0316611073565b60405180826101c080838360005b8381101561055b578181015183820152602001610543565b5050505090500191505060405180910390f35b34801561057a57600080fd5b506102ed6111ea565b34801561058f57600080fd5b506102ed6111ef565b3480156105a457600080fd5b506104a1611216565b3480156105b957600080fd5b506102ed611225565b3480156105ce57600080fd5b506104a1611235565b3480156105e357600080fd5b506102ed611244565b3480156105f857600080fd5b506103dc6004803603604081101561060f57600080fd5b506001600160a01b03813516906020013561124a565b34801561063157600080fd5b506102ed611270565b34801561064657600080fd5b506102ed6112ec565b34801561065b57600080fd5b506104a16004803603602081101561067257600080fd5b50356112f2565b34801561068557600080fd5b506102ed6004803603602081101561069c57600080fd5b503561131c565b3480156106af57600080fd5b506102ed611328565b3480156106c457600080fd5b506106cd61132e565b6040805160ff9092168252519081900360200190f35b3480156106ef57600080fd5b506104a1611337565b34801561070457600080fd5b506102ed6004803603602081101561071b57600080fd5b5035611346565b34801561072e57600080fd5b506102ed6004803603602081101561074557600080fd5b50356001600160a01b031661136c565b34801561076157600080fd5b506102ed6004803603602081101561077857600080fd5b5035611379565b34801561078b57600080fd5b506102ed611478565b3480156107a057600080fd5b506103a7600480360360208110156107b757600080fd5b50356001600160a01b031661147e565b3480156107d357600080fd5b506103a7611580565b3480156107e857600080fd5b506103dc600480360360208110156107ff57600080fd5b81019060208101813564010000000081111561081a57600080fd5b82018360208201111561082c57600080fd5b8035906020019184602083028401116401000000008311171561084e57600080fd5b91908080602002602001604051908101604052809392919081815260200183836020028082843760009201919091525092955061159f945050505050565b34801561089857600080fd5b506102ed600480360360208110156108af57600080fd5b50356001600160a01b031661182c565b3480156108cb57600080fd5b506102ed600480360360408110156108e257600080fd5b506001600160a01b03813516906020013561188f565b34801561090457600080fd5b506102ed61199a565b80471015610962576040805162461bcd60e51b815260206004820152601d60248201527f416464726573733a20696e73756666696369656e742062616c616e6365000000604482015290519081900360640190fd5b6040516000906001600160a01b0384169083908381818185875af1925050503d80600081146109ad576040519150601f19603f3d011682016040523d82523d6000602084013e6109b2565b606091505b50509050806109f25760405162461bcd60e51b815260040180806020018281038252603a815260200180612339603a913960400191505060405180910390fd5b505050565b6001600160a01b0381166000908152601360209081526040808320546014909252822054601254600160401b929102030490505b919050565b60035481565b6000601154821115610a4757600080fd5b816000610a5e610a5783836119ab565b6064611a04565b90506000610a6c8383611a6b565b95945050505050565b60115490565b60105481565b600f5481565b6000610a91611225565b11610a9b57600080fd5b33600081815260146020526040902054821115610ab757600080fd5b60006064610ac584836119ab565b81610acc57fe5b049050600090506000610adf8483611a6b565b9050610aed60115485611a6b565b6011556001600160a01b038316600090815260146020526040902054610b139085611a6b565b6001600160a01b03841660009081526014602090815260408083209390935560125460139091529190208054918602600160401b840201918290039055610b5983611ac8565b6040805186815260208101849052428183015290516001600160a01b038616917f90ebb005d68efee044927e1e77e1fd0cecc508368aa72c39250a787eed5f0a70919081900360600190a26001600160a01b038416600081815260156020818152604080842080546014845294829020549383526001015481519485529184019290925282820152426060830152516000805160206123198339815191529181900360800190a2610c08611b56565b5050505050565b60008080805b600654811015610cbb5760068181548110610c2c57fe5b60009182526020918290200154604080516370a0823160e01b81526001600160a01b038981166004830152915191909216945084926370a082319260248082019391829003018186803b158015610c8257600080fd5b505afa158015610c96573d6000803e3d6000fd5b505050506040513d6020811015610cac57600080fd5b50519290920191600101610c15565b506003548210610cd057600192505050610a2b565b5060009392505050565b600a5481565b6000610cea61199a565b11610cf457600080fd5b336000610cff61199a565b6001600160a01b0380841660008181526013602090815260408083208054600160401b8802019055600254815163a9059cbb60e01b815260048101959095526024850187905290519596509093169363a9059cbb936044808501949193918390030190829087803b158015610d7357600080fd5b505af1158015610d87573d6000803e3d6000fd5b505050506040513d6020811015610d9d57600080fd5b50506001600160a01b038216600090815260156020526040902060010154610dc59082611c4c565b6001600160a01b038316600081815260156020908152604091829020600180820195909555600b0180548501905560088054909401909355600a80548501905580518481524293810193909352805191927f1b091269e929df55d64d6ea7e9cadbe4fb38dce5ccdc995767bc515030dbfbbf929081900390910190a2610e49611b56565b5050565b6000670de0b6b3a764000081610e66610a5783836119ab565b90506000610e748383611a6b565b935050505090565b60085481565b6001600160a01b031660009081526014602052604090205490565b610ea5611ca6565b6001600160a01b0316610eb6611216565b6001600160a01b031614610eff576040805162461bcd60e51b81526020600482018190526024820152600080516020612394833981519152604482015290519081900360640190fd5b600080546040516001600160a01b03909116907f8be0079c531659141344cd1fd0a4f28419497f9722a3daafe3b4186f6b6457e0908390a3600080546001600160a01b0319169055565b6002546001600160a01b031681565b600b5481565b6000610f68611ca6565b6001600160a01b0316610f79611216565b6001600160a01b031614610fc2576040805162461bcd60e51b81526020600482018190526024820152600080516020612394833981519152604482015290519081900360640190fd5b610fcc8383611c4c565b600314611020576040805162461bcd60e51b815260206004820152601d60248201527f54454e5f504f5254494f4e535f524551554952455f4449564953494f4e000000604482015290519081900360640190fd5b600e839055600f8290556040805184815260208101849052428183015290517f677017fa3a0fe0f50a95e6024c5b688f2b14a4696c4a897c459715cabfc1c03a9181900360600190a15060015b92915050565b61107b6121ea565b611083612209565b506001600160a01b03821660009081526015602090815260409182902082516101c081018452815481526001820154928101929092526002810154928201929092526003820154606082015260048201546080820152600582015460a0820152600682015460c0820152600782015460e082015260088201546101008201526009820154610120820152600a820154610140820152600b820154610160820152600c820154610180820152600d909101546101a08201526111426121ea565b604051806101c0016040528083600001518152602001836020015181526020018360600151815260200183604001518152602001836080015181526020018360a0015181526020018360c0015181526020018360e0015181526020018361012001518152602001836101400151815260200183610160015181526020018361018001518152602001836101a00151815260200183610100015181525090508092505050919050565b600281565b6000670de0b6b3a764000081611208610a5783836119ab565b90506000610e748383611c4c565b6000546001600160a01b031690565b600061123033610e82565b905090565b6004546001600160a01b031681565b600e5481565b600080611255611225565b1161125f57600080fd5b6112698383611caa565b9392505050565b600254604080516370a0823160e01b815230600482015290516000926001600160a01b0316916370a08231916024808301926020929190829003018186803b1580156112bb57600080fd5b505afa1580156112cf573d6000803e3d6000fd5b505050506040513d60208110156112e557600080fd5b5051905090565b600c5481565b6006818154811061130257600080fd5b6000918252602090912001546001600160a01b0316905081565b600061106d338361188f565b60095481565b600d5460ff1681565b6005546001600160a01b031681565b600080611356610a5784836119ab565b905060006113648483611a6b565b949350505050565b6001600160a01b03163190565b600254604080516323b872dd60e01b81523360048201523060248201526044810184905290516000926001600160a01b0316916323b872dd91606480830192602092919082900301818787803b1580156113d257600080fd5b505af11580156113e6573d6000803e3d6000fd5b505050506040513d60208110156113fc57600080fd5b505161140757600080fd5b600c80548301905533600081815260156020908152604091829020600a8101805460010190556004018054860190558151858152429181019190915281517f0da1788c3e861a58a47f0d46073b13c4d66efcc259714744f920d1afe7b8dee5929181900390910190a25050600c5490565b60075481565b611486611ca6565b6001600160a01b0316611497611216565b6001600160a01b0316146114e0576040805162461bcd60e51b81526020600482018190526024820152600080516020612394833981519152604482015290519081900360640190fd5b6001600160a01b0381166115255760405162461bcd60e51b81526004018080602001828103825260268152602001806122f36026913960400191505060405180910390fd5b600080546040516001600160a01b03808516939216917f8be0079c531659141344cd1fd0a4f28419497f9722a3daafe3b4186f6b6457e091a3600080546001600160a01b0319166001600160a01b0392909216919091179055565b600061158a61199a565b1161159457600080fd5b61159c611f15565b50565b60006115a9611ca6565b6001600160a01b03166115ba611216565b6001600160a01b031614611603576040805162461bcd60e51b81526020600482018190526024820152600080516020612394833981519152604482015290519081900360640190fd5b60005b6006548110156116e05782818151811061161c57fe5b60200260200101516001600160a01b03166301ffc9a76380ac58cd6040518263ffffffff1660e01b8152600401808260e01b815260200191505060206040518083038186803b15801561166e57600080fd5b505afa158015611682573d6000803e3d6000fd5b505050506040513d602081101561169857600080fd5b50516116d8576040805162461bcd60e51b815260206004820152600a6024820152694e4f545f45524337323160b01b604482015290519081900360640190fd5b600101611606565b506060600680548060200260200160405190810160405280929190818152602001828054801561173957602002820191906000526020600020905b81546001600160a01b0316815260019091019060200180831161171b575b5050865193945061175593600693506020880192509050612278565b50336001600160a01b03167ff0650831416f723858005cfeae97a2d6f5e127d1e6ae8938574d1d73e7f4727c828542604051808060200180602001848152602001838103835286818151815260200191508051906020019060200280838360005b838110156117ce5781810151838201526020016117b6565b50505050905001838103825285818151815260200191508051906020019060200280838360005b8381101561180d5781810151838201526020016117f5565b505050509050019550505050505060405180910390a250600192915050565b600d54600c5460009182916118509160019161184a9160ff166119ab565b90611a04565b9050600060115411611863576000611269565b6011546001600160a01b038416600090815260146020526040902054611269919061184a9084906119ab565b600254604080516323b872dd60e01b81523360048201523060248201526044810184905290516000926001600160a01b0316916323b872dd91606480830192602092919082900301818787803b1580156118e857600080fd5b505af11580156118fc573d6000803e3d6000fd5b505050506040513d602081101561191257600080fd5b505161191d57600080fd5b600b8054830190556000611931848461204b565b6001600160a01b0385166000818152601560208181526040808420805460148452948290205493835260010154815194855291840192909252828201524260608301525192935090916000805160206123198339815191529181900360800190a2611269611b56565b6000611230336109f7565b3b151590565b6000826119ba5750600061106d565b828202828482816119c757fe5b04146112695760405162461bcd60e51b81526004018080602001828103825260218152602001806123736021913960400191505060405180910390fd5b6000808211611a5a576040805162461bcd60e51b815260206004820152601a60248201527f536166654d6174683a206469766973696f6e206279207a65726f000000000000604482015290519081900360640190fd5b818381611a6357fe5b049392505050565b600082821115611ac2576040805162461bcd60e51b815260206004820152601e60248201527f536166654d6174683a207375627472616374696f6e206f766572666c6f770000604482015290519081900360640190fd5b50900390565b6000611ad582600a611a04565b90506000611aee600e54836119ab90919063ffffffff16565b90506000611b07600f54846119ab90919063ffffffff16565b600c54909150611b179083611c4c565b600c5560115415611b4757611b3f601254601154600160401b840281611b3957fe5b04611c4c565b601255611b50565b600c8054820190555b50505050565b6010544290600290611b699083906121cf565b1115611bb5577f2cfce469a63f2e9972b7f23da751e6943ed2b091c10e40b5c43b5f6105bf20ea611b98611270565b60408051918252602082018490528051918290030190a160108190555b6002611bc3826009546121cf565b118015611bd257506000601154115b1561159c57600d54600c54600091611bfb91620151809161184a9160019183919060ff166119ab565b90506000611c14600954846121cf90919063ffffffff16565b600c549083029150611c2690826121cf565b600c55601254601154611c429190600160401b840281611b3957fe5b6012555050600955565b600082820183811015611269576040805162461bcd60e51b815260206004820152601b60248201527f536166654d6174683a206164646974696f6e206f766572666c6f770000000000604482015290519081900360640190fd5b3390565b33600081815260146020526040812054909190831115611cc957600080fd5b6000611cd361199a565b1115611ce157611ce1610ce0565b6001600160a01b038116600090815260146020526040902054611d049084611a6b565b6001600160a01b038083166000908152601460205260408082209390935590861681522054611d339084611c4c565b6001600160a01b03858116600081815260146020908152604080832095909555601280549487168352601382528583208054958a029095039094559254918152838120805492880290920190915560159091522054158015611dae57506001600160a01b038416600090815260156020526040902060060154155b15611dbd576007805460010190555b6001600160a01b038082166000818152601560209081526040808320600c810180546001908101909155600590910180548a019055948916808452928190206006810180548a019055600d018054860190556008805490950190945583518781524291810191909152835191937f91c7d71a3ae3fb7cf61e00517bf4868e9e23d0bace5e304cbc3b68de5d85350e92918290030190a36001600160a01b038116600081815260156020818152604080842080546014845294829020549383526001015481519485529184019290925282820152426060830152516000805160206123198339815191529181900360800190a26001600160a01b038416600081815260156020818152604080842080546014845294829020549383526001015481519485529184019290925282820152426060830152516000805160206123198339815191529181900360800190a25060019392505050565b60003381611f22826109f7565b6001600160a01b03831660009081526013602052604081208054600160401b8402019055909150611f53338361204b565b6040805184815260208101839052428183015290519192506001600160a01b038516917f193a876ac91d11a4a0a71ebef73b195ba55aa7c16d6755c93c21d973e692a02c9181900360600190a26001600160a01b038316600090815260156020526040902060020154611fc69083611c4c565b6001600160a01b0384166000818152601560208181526040808420600281019690965560088601805460019081019091558654601484529482902054938352909501548551938452908301919091528184015242606082015291519091600080516020612319833981519152919081900360800190a2612044611b56565b9250505090565b6001600160a01b03821660009081526015602052604081205415801561208a57506001600160a01b038316600090815260156020526040902060060154155b15612099576007805460010190555b600880546001019055600060646120b084836119ab565b816120b757fe5b04905060006120c68483611a6b565b6040805186815260208101839052428183015290519192506001600160a01b038716917fb49bb132260f6aa1c86e2d2a3957c097216e6ec9b5fa15867289f058b4d297ac9181900360600190a260008111801561212d575060115461212b8282611c4c565b115b61213657600080fd5b6011541561214b576011805482019055612151565b60118190555b61215a82611ac8565b6001600160a01b03851660009081526014602052604090205461217d9082611c4c565b6001600160a01b03861660009081526014602090815260408083209390935560125460138252838320805491860291909101905560159052208054850181556007018054600101905591505092915050565b6000828211156121e15750600061106d565b5080820361106d565b604051806101c00160405280600e906020820280368337509192915050565b604051806101c0016040528060008152602001600081526020016000815260200160008152602001600081526020016000815260200160008152602001600081526020016000815260200160008152602001600081526020016000815260200160008152602001600081525090565b8280548282559060005260206000209081019282156122cd579160200282015b828111156122cd57825182546001600160a01b0319166001600160a01b03909116178255602090920191600190910190612298565b506122d99291506122dd565b5090565b5b808211156122d957600081556001016122de56fe4f776e61626c653a206e6577206f776e657220697320746865207a65726f206164647265737329f64f6f46c82c5ecfa955fe7d093e63b4106b6dbe5193e00efd62c7384ef177416464726573733a20756e61626c6520746f2073656e642076616c75652c20726563697069656e74206d61792068617665207265766572746564536166654d6174683a206d756c7469706c69636174696f6e206f766572666c6f774f776e61626c653a2063616c6c6572206973206e6f7420746865206f776e6572a2646970667358221220c4af3c69537b0d4a49627aa93c92a3f3747d74b27d835adbe424730631ee0a9764736f6c63430007040033",
			"opcodes": "PUSH1 0x80 PUSH1 0x40 MSTORE CALLVALUE DUP1 ISZERO PUSH3 0x11 JUMPI PUSH1 0x0 DUP1 REVERT JUMPDEST POP PUSH1 0x40 MLOAD PUSH3 0x256E CODESIZE SUB DUP1 PUSH3 0x256E DUP4 CODECOPY DUP2 DUP2 ADD PUSH1 0x40 MSTORE PUSH1 0x40 DUP2 LT ISZERO PUSH3 0x37 JUMPI PUSH1 0x0 DUP1 REVERT JUMPDEST POP DUP1 MLOAD PUSH1 0x20 SWAP1 SWAP2 ADD MLOAD PUSH1 0x0 PUSH3 0x4C PUSH3 0x16B JUMP JUMPDEST PUSH1 0x0 DUP1 SLOAD PUSH1 0x1 PUSH1 0x1 PUSH1 0xA0 SHL SUB NOT AND PUSH1 0x1 PUSH1 0x1 PUSH1 0xA0 SHL SUB DUP4 AND SWAP1 DUP2 OR DUP3 SSTORE PUSH1 0x40 MLOAD SWAP3 SWAP4 POP SWAP2 PUSH32 0x8BE0079C531659141344CD1FD0A4F28419497F9722A3DAAFE3B4186F6B6457E0 SWAP1 DUP3 SWAP1 LOG3 POP PUSH1 0x1 DUP1 SSTORE PUSH1 0x1 PUSH1 0x1 PUSH1 0xA0 SHL SUB DUP3 AND ISZERO DUP1 ISZERO SWAP1 PUSH3 0xC4 JUMPI POP PUSH3 0xC4 DUP3 PUSH3 0x16F PUSH1 0x20 SHL PUSH3 0x19A5 OR PUSH1 0x20 SHR JUMP JUMPDEST PUSH3 0x108 JUMPI PUSH1 0x40 DUP1 MLOAD PUSH3 0x461BCD PUSH1 0xE5 SHL DUP2 MSTORE PUSH1 0x20 PUSH1 0x4 DUP3 ADD MSTORE PUSH1 0xF PUSH1 0x24 DUP3 ADD MSTORE PUSH15 0x494E56414C49445F41444452455353 PUSH1 0x88 SHL PUSH1 0x44 DUP3 ADD MSTORE SWAP1 MLOAD SWAP1 DUP2 SWAP1 SUB PUSH1 0x64 ADD SWAP1 REVERT JUMPDEST PUSH1 0x4 DUP1 SLOAD PUSH1 0x1 PUSH1 0x1 PUSH1 0xA0 SHL SUB SWAP1 SWAP4 AND PUSH1 0x1 PUSH1 0x1 PUSH1 0xA0 SHL SUB NOT SWAP4 DUP5 AND DUP2 OR SWAP1 SWAP2 SSTORE PUSH1 0x2 DUP1 SLOAD DUP5 AND SWAP1 SWAP2 OR DUP2 SSTORE PUSH1 0x5 DUP1 SLOAD SWAP1 SWAP4 AND CALLER OR SWAP1 SWAP3 SSTORE PUSH1 0xD DUP1 SLOAD PUSH1 0xFF SWAP1 SWAP3 AND PUSH1 0xFF NOT SWAP1 SWAP3 AND SWAP2 SWAP1 SWAP2 OR SWAP1 SSTORE TIMESTAMP PUSH1 0x9 SSTORE PUSH1 0xE SSTORE PUSH1 0x1 PUSH1 0xF DUP2 SWAP1 SSTORE PUSH1 0x3 SSTORE PUSH3 0x175 JUMP JUMPDEST CALLER SWAP1 JUMP JUMPDEST EXTCODESIZE ISZERO ISZERO SWAP1 JUMP JUMPDEST PUSH2 0x23E9 DUP1 PUSH3 0x185 PUSH1 0x0 CODECOPY PUSH1 0x0 RETURN INVALID PUSH1 0x80 PUSH1 0x40 MSTORE PUSH1 0x4 CALLDATASIZE LT PUSH2 0x25F JUMPI PUSH1 0x0 CALLDATALOAD PUSH1 0xE0 SHR DUP1 PUSH4 0x8DA5CB5B GT PUSH2 0x144 JUMPI DUP1 PUSH4 0xD7C3771D GT PUSH2 0xB6 JUMPI DUP1 PUSH4 0xF2FDE38B GT PUSH2 0x7A JUMPI DUP1 PUSH4 0xF2FDE38B EQ PUSH2 0x794 JUMPI DUP1 PUSH4 0xF69E2046 EQ PUSH2 0x7C7 JUMPI DUP1 PUSH4 0xF6DB0DA0 EQ PUSH2 0x7DC JUMPI DUP1 PUSH4 0xFBAF1BBD EQ PUSH2 0x88C JUMPI DUP1 PUSH4 0xFFAAD6A5 EQ PUSH2 0x8BF JUMPI DUP1 PUSH4 0xFFE6BBD8 EQ PUSH2 0x8F8 JUMPI PUSH2 0x2B5 JUMP JUMPDEST DUP1 PUSH4 0xD7C3771D EQ PUSH2 0x6E3 JUMPI DUP1 PUSH4 0xE02E1E9C EQ PUSH2 0x6F8 JUMPI DUP1 PUSH4 0xEEDC966A EQ PUSH2 0x722 JUMPI DUP1 PUSH4 0xF14FAF6F EQ PUSH2 0x755 JUMPI DUP1 PUSH4 0xF2020275 EQ PUSH2 0x77F JUMPI PUSH2 0x2B5 JUMP JUMPDEST DUP1 PUSH4 0xAD7A672F GT PUSH2 0x108 JUMPI DUP1 PUSH4 0xAD7A672F EQ PUSH2 0x625 JUMPI DUP1 PUSH4 0xAECB6D28 EQ PUSH2 0x63A JUMPI DUP1 PUSH4 0xB03CF5A7 EQ PUSH2 0x64F JUMPI DUP1 PUSH4 0xB6B55F25 EQ PUSH2 0x679 JUMPI DUP1 PUSH4 0xB9DB102A EQ PUSH2 0x6A3 JUMPI DUP1 PUSH4 0xD3261592 EQ PUSH2 0x6B8 JUMPI PUSH2 0x2B5 JUMP JUMPDEST DUP1 PUSH4 0x8DA5CB5B EQ PUSH2 0x598 JUMPI DUP1 PUSH4 0x949E8ACD EQ PUSH2 0x5AD JUMPI DUP1 PUSH4 0x9D76EA58 EQ PUSH2 0x5C2 JUMPI DUP1 PUSH4 0xA01496DE EQ PUSH2 0x5D7 JUMPI DUP1 PUSH4 0xA9059CBB EQ PUSH2 0x5EC JUMPI PUSH2 0x2B5 JUMP JUMPDEST DUP1 PUSH4 0x4B750334 GT PUSH2 0x1DD JUMPI DUP1 PUSH4 0x7D882097 GT PUSH2 0x1A1 JUMPI DUP1 PUSH4 0x7D882097 EQ PUSH2 0x4BD JUMPI DUP1 PUSH4 0x7E6335C7 EQ PUSH2 0x4D2 JUMPI DUP1 PUSH4 0x8086B8BA EQ PUSH2 0x502 JUMPI DUP1 PUSH4 0x81FCE645 EQ PUSH2 0x56E JUMPI DUP1 PUSH4 0x8620410B EQ PUSH2 0x583 JUMPI DUP1 PUSH4 0x89375ABF EQ PUSH2 0x56E JUMPI PUSH2 0x2B5 JUMP JUMPDEST DUP1 PUSH4 0x4B750334 EQ PUSH2 0x41A JUMPI DUP1 PUSH4 0x537A39BB EQ PUSH2 0x42F JUMPI DUP1 PUSH4 0x70A08231 EQ PUSH2 0x444 JUMPI DUP1 PUSH4 0x715018A6 EQ PUSH2 0x477 JUMPI DUP1 PUSH4 0x72F702F3 EQ PUSH2 0x48C JUMPI PUSH2 0x2B5 JUMP JUMPDEST DUP1 PUSH4 0x1F38B9CD GT PUSH2 0x224 JUMPI DUP1 PUSH4 0x1F38B9CD EQ PUSH2 0x368 JUMPI DUP1 PUSH4 0x2E1A7D4D EQ PUSH2 0x37D JUMPI DUP1 PUSH4 0x36599EAD EQ PUSH2 0x3A9 JUMPI DUP1 PUSH4 0x41C61383 EQ PUSH2 0x3F0 JUMPI DUP1 PUSH4 0x4641257D EQ PUSH2 0x405 JUMPI PUSH2 0x2B5 JUMP JUMPDEST DUP1 PUSH3 0x65318B EQ PUSH2 0x2BA JUMPI DUP1 PUSH4 0x8560ACE EQ PUSH2 0x2FF JUMPI DUP1 PUSH4 0x10D0FFDD EQ PUSH2 0x314 JUMPI DUP1 PUSH4 0x18160DDD EQ PUSH2 0x33E JUMPI DUP1 PUSH4 0x1924063E EQ PUSH2 0x353 JUMPI PUSH2 0x2B5 JUMP JUMPDEST CALLDATASIZE PUSH2 0x2B5 JUMPI PUSH1 0x5 SLOAD PUSH2 0x27A SWAP1 PUSH1 0x1 PUSH1 0x1 PUSH1 0xA0 SHL SUB AND CALLVALUE PUSH2 0x90D JUMP JUMPDEST PUSH1 0x40 DUP1 MLOAD CALLVALUE DUP2 MSTORE TIMESTAMP PUSH1 0x20 DUP3 ADD MSTORE DUP2 MLOAD CALLER SWAP3 PUSH32 0x3C2BD1B3F5CA07AFB09FBEE41AC43DA2B98D9C2E9832673052E546BD1D4C091D SWAP3 DUP3 SWAP1 SUB ADD SWAP1 LOG2 STOP JUMPDEST PUSH1 0x0 DUP1 REVERT JUMPDEST CALLVALUE DUP1 ISZERO PUSH2 0x2C6 JUMPI PUSH1 0x0 DUP1 REVERT JUMPDEST POP PUSH2 0x2ED PUSH1 0x4 DUP1 CALLDATASIZE SUB PUSH1 0x20 DUP2 LT ISZERO PUSH2 0x2DD JUMPI PUSH1 0x0 DUP1 REVERT JUMPDEST POP CALLDATALOAD PUSH1 0x1 PUSH1 0x1 PUSH1 0xA0 SHL SUB AND PUSH2 0x9F7 JUMP JUMPDEST PUSH1 0x40 DUP1 MLOAD SWAP2 DUP3 MSTORE MLOAD SWAP1 DUP2 SWAP1 SUB PUSH1 0x20 ADD SWAP1 RETURN JUMPDEST CALLVALUE DUP1 ISZERO PUSH2 0x30B JUMPI PUSH1 0x0 DUP1 REVERT JUMPDEST POP PUSH2 0x2ED PUSH2 0xA30 JUMP JUMPDEST CALLVALUE DUP1 ISZERO PUSH2 0x320 JUMPI PUSH1 0x0 DUP1 REVERT JUMPDEST POP PUSH2 0x2ED PUSH1 0x4 DUP1 CALLDATASIZE SUB PUSH1 0x20 DUP2 LT ISZERO PUSH2 0x337 JUMPI PUSH1 0x0 DUP1 REVERT JUMPDEST POP CALLDATALOAD PUSH2 0xA36 JUMP JUMPDEST CALLVALUE DUP1 ISZERO PUSH2 0x34A JUMPI PUSH1 0x0 DUP1 REVERT JUMPDEST POP PUSH2 0x2ED PUSH2 0xA75 JUMP JUMPDEST CALLVALUE DUP1 ISZERO PUSH2 0x35F JUMPI PUSH1 0x0 DUP1 REVERT JUMPDEST POP PUSH2 0x2ED PUSH2 0xA7B JUMP JUMPDEST CALLVALUE DUP1 ISZERO PUSH2 0x374 JUMPI PUSH1 0x0 DUP1 REVERT JUMPDEST POP PUSH2 0x2ED PUSH2 0xA81 JUMP JUMPDEST CALLVALUE DUP1 ISZERO PUSH2 0x389 JUMPI PUSH1 0x0 DUP1 REVERT JUMPDEST POP PUSH2 0x3A7 PUSH1 0x4 DUP1 CALLDATASIZE SUB PUSH1 0x20 DUP2 LT ISZERO PUSH2 0x3A0 JUMPI PUSH1 0x0 DUP1 REVERT JUMPDEST POP CALLDATALOAD PUSH2 0xA87 JUMP JUMPDEST STOP JUMPDEST CALLVALUE DUP1 ISZERO PUSH2 0x3B5 JUMPI PUSH1 0x0 DUP1 REVERT JUMPDEST POP PUSH2 0x3DC PUSH1 0x4 DUP1 CALLDATASIZE SUB PUSH1 0x20 DUP2 LT ISZERO PUSH2 0x3CC JUMPI PUSH1 0x0 DUP1 REVERT JUMPDEST POP CALLDATALOAD PUSH1 0x1 PUSH1 0x1 PUSH1 0xA0 SHL SUB AND PUSH2 0xC0F JUMP JUMPDEST PUSH1 0x40 DUP1 MLOAD SWAP2 ISZERO ISZERO DUP3 MSTORE MLOAD SWAP1 DUP2 SWAP1 SUB PUSH1 0x20 ADD SWAP1 RETURN JUMPDEST CALLVALUE DUP1 ISZERO PUSH2 0x3FC JUMPI PUSH1 0x0 DUP1 REVERT JUMPDEST POP PUSH2 0x2ED PUSH2 0xCDA JUMP JUMPDEST CALLVALUE DUP1 ISZERO PUSH2 0x411 JUMPI PUSH1 0x0 DUP1 REVERT JUMPDEST POP PUSH2 0x3A7 PUSH2 0xCE0 JUMP JUMPDEST CALLVALUE DUP1 ISZERO PUSH2 0x426 JUMPI PUSH1 0x0 DUP1 REVERT JUMPDEST POP PUSH2 0x2ED PUSH2 0xE4D JUMP JUMPDEST CALLVALUE DUP1 ISZERO PUSH2 0x43B JUMPI PUSH1 0x0 DUP1 REVERT JUMPDEST POP PUSH2 0x2ED PUSH2 0xE7C JUMP JUMPDEST CALLVALUE DUP1 ISZERO PUSH2 0x450 JUMPI PUSH1 0x0 DUP1 REVERT JUMPDEST POP PUSH2 0x2ED PUSH1 0x4 DUP1 CALLDATASIZE SUB PUSH1 0x20 DUP2 LT ISZERO PUSH2 0x467 JUMPI PUSH1 0x0 DUP1 REVERT JUMPDEST POP CALLDATALOAD PUSH1 0x1 PUSH1 0x1 PUSH1 0xA0 SHL SUB AND PUSH2 0xE82 JUMP JUMPDEST CALLVALUE DUP1 ISZERO PUSH2 0x483 JUMPI PUSH1 0x0 DUP1 REVERT JUMPDEST POP PUSH2 0x3A7 PUSH2 0xE9D JUMP JUMPDEST CALLVALUE DUP1 ISZERO PUSH2 0x498 JUMPI PUSH1 0x0 DUP1 REVERT JUMPDEST POP PUSH2 0x4A1 PUSH2 0xF49 JUMP JUMPDEST PUSH1 0x40 DUP1 MLOAD PUSH1 0x1 PUSH1 0x1 PUSH1 0xA0 SHL SUB SWAP1 SWAP3 AND DUP3 MSTORE MLOAD SWAP1 DUP2 SWAP1 SUB PUSH1 0x20 ADD SWAP1 RETURN JUMPDEST CALLVALUE DUP1 ISZERO PUSH2 0x4C9 JUMPI PUSH1 0x0 DUP1 REVERT JUMPDEST POP PUSH2 0x2ED PUSH2 0xF58 JUMP JUMPDEST CALLVALUE DUP1 ISZERO PUSH2 0x4DE JUMPI PUSH1 0x0 DUP1 REVERT JUMPDEST POP PUSH2 0x3DC PUSH1 0x4 DUP1 CALLDATASIZE SUB PUSH1 0x40 DUP2 LT ISZERO PUSH2 0x4F5 JUMPI PUSH1 0x0 DUP1 REVERT JUMPDEST POP DUP1 CALLDATALOAD SWAP1 PUSH1 0x20 ADD CALLDATALOAD PUSH2 0xF5E JUMP JUMPDEST CALLVALUE DUP1 ISZERO PUSH2 0x50E JUMPI PUSH1 0x0 DUP1 REVERT JUMPDEST POP PUSH2 0x535 PUSH1 0x4 DUP1 CALLDATASIZE SUB PUSH1 0x20 DUP2 LT ISZERO PUSH2 0x525 JUMPI PUSH1 0x0 DUP1 REVERT JUMPDEST POP CALLDATALOAD PUSH1 0x1 PUSH1 0x1 PUSH1 0xA0 SHL SUB AND PUSH2 0x1073 JUMP JUMPDEST PUSH1 0x40 MLOAD DUP1 DUP3 PUSH2 0x1C0 DUP1 DUP4 DUP4 PUSH1 0x0 JUMPDEST DUP4 DUP2 LT ISZERO PUSH2 0x55B JUMPI DUP2 DUP2 ADD MLOAD DUP4 DUP3 ADD MSTORE PUSH1 0x20 ADD PUSH2 0x543 JUMP JUMPDEST POP POP POP POP SWAP1 POP ADD SWAP2 POP POP PUSH1 0x40 MLOAD DUP1 SWAP2 SUB SWAP1 RETURN JUMPDEST CALLVALUE DUP1 ISZERO PUSH2 0x57A JUMPI PUSH1 0x0 DUP1 REVERT JUMPDEST POP PUSH2 0x2ED PUSH2 0x11EA JUMP JUMPDEST CALLVALUE DUP1 ISZERO PUSH2 0x58F JUMPI PUSH1 0x0 DUP1 REVERT JUMPDEST POP PUSH2 0x2ED PUSH2 0x11EF JUMP JUMPDEST CALLVALUE DUP1 ISZERO PUSH2 0x5A4 JUMPI PUSH1 0x0 DUP1 REVERT JUMPDEST POP PUSH2 0x4A1 PUSH2 0x1216 JUMP JUMPDEST CALLVALUE DUP1 ISZERO PUSH2 0x5B9 JUMPI PUSH1 0x0 DUP1 REVERT JUMPDEST POP PUSH2 0x2ED PUSH2 0x1225 JUMP JUMPDEST CALLVALUE DUP1 ISZERO PUSH2 0x5CE JUMPI PUSH1 0x0 DUP1 REVERT JUMPDEST POP PUSH2 0x4A1 PUSH2 0x1235 JUMP JUMPDEST CALLVALUE DUP1 ISZERO PUSH2 0x5E3 JUMPI PUSH1 0x0 DUP1 REVERT JUMPDEST POP PUSH2 0x2ED PUSH2 0x1244 JUMP JUMPDEST CALLVALUE DUP1 ISZERO PUSH2 0x5F8 JUMPI PUSH1 0x0 DUP1 REVERT JUMPDEST POP PUSH2 0x3DC PUSH1 0x4 DUP1 CALLDATASIZE SUB PUSH1 0x40 DUP2 LT ISZERO PUSH2 0x60F JUMPI PUSH1 0x0 DUP1 REVERT JUMPDEST POP PUSH1 0x1 PUSH1 0x1 PUSH1 0xA0 SHL SUB DUP2 CALLDATALOAD AND SWAP1 PUSH1 0x20 ADD CALLDATALOAD PUSH2 0x124A JUMP JUMPDEST CALLVALUE DUP1 ISZERO PUSH2 0x631 JUMPI PUSH1 0x0 DUP1 REVERT JUMPDEST POP PUSH2 0x2ED PUSH2 0x1270 JUMP JUMPDEST CALLVALUE DUP1 ISZERO PUSH2 0x646 JUMPI PUSH1 0x0 DUP1 REVERT JUMPDEST POP PUSH2 0x2ED PUSH2 0x12EC JUMP JUMPDEST CALLVALUE DUP1 ISZERO PUSH2 0x65B JUMPI PUSH1 0x0 DUP1 REVERT JUMPDEST POP PUSH2 0x4A1 PUSH1 0x4 DUP1 CALLDATASIZE SUB PUSH1 0x20 DUP2 LT ISZERO PUSH2 0x672 JUMPI PUSH1 0x0 DUP1 REVERT JUMPDEST POP CALLDATALOAD PUSH2 0x12F2 JUMP JUMPDEST CALLVALUE DUP1 ISZERO PUSH2 0x685 JUMPI PUSH1 0x0 DUP1 REVERT JUMPDEST POP PUSH2 0x2ED PUSH1 0x4 DUP1 CALLDATASIZE SUB PUSH1 0x20 DUP2 LT ISZERO PUSH2 0x69C JUMPI PUSH1 0x0 DUP1 REVERT JUMPDEST POP CALLDATALOAD PUSH2 0x131C JUMP JUMPDEST CALLVALUE DUP1 ISZERO PUSH2 0x6AF JUMPI PUSH1 0x0 DUP1 REVERT JUMPDEST POP PUSH2 0x2ED PUSH2 0x1328 JUMP JUMPDEST CALLVALUE DUP1 ISZERO PUSH2 0x6C4 JUMPI PUSH1 0x0 DUP1 REVERT JUMPDEST POP PUSH2 0x6CD PUSH2 0x132E JUMP JUMPDEST PUSH1 0x40 DUP1 MLOAD PUSH1 0xFF SWAP1 SWAP3 AND DUP3 MSTORE MLOAD SWAP1 DUP2 SWAP1 SUB PUSH1 0x20 ADD SWAP1 RETURN JUMPDEST CALLVALUE DUP1 ISZERO PUSH2 0x6EF JUMPI PUSH1 0x0 DUP1 REVERT JUMPDEST POP PUSH2 0x4A1 PUSH2 0x1337 JUMP JUMPDEST CALLVALUE DUP1 ISZERO PUSH2 0x704 JUMPI PUSH1 0x0 DUP1 REVERT JUMPDEST POP PUSH2 0x2ED PUSH1 0x4 DUP1 CALLDATASIZE SUB PUSH1 0x20 DUP2 LT ISZERO PUSH2 0x71B JUMPI PUSH1 0x0 DUP1 REVERT JUMPDEST POP CALLDATALOAD PUSH2 0x1346 JUMP JUMPDEST CALLVALUE DUP1 ISZERO PUSH2 0x72E JUMPI PUSH1 0x0 DUP1 REVERT JUMPDEST POP PUSH2 0x2ED PUSH1 0x4 DUP1 CALLDATASIZE SUB PUSH1 0x20 DUP2 LT ISZERO PUSH2 0x745 JUMPI PUSH1 0x0 DUP1 REVERT JUMPDEST POP CALLDATALOAD PUSH1 0x1 PUSH1 0x1 PUSH1 0xA0 SHL SUB AND PUSH2 0x136C JUMP JUMPDEST CALLVALUE DUP1 ISZERO PUSH2 0x761 JUMPI PUSH1 0x0 DUP1 REVERT JUMPDEST POP PUSH2 0x2ED PUSH1 0x4 DUP1 CALLDATASIZE SUB PUSH1 0x20 DUP2 LT ISZERO PUSH2 0x778 JUMPI PUSH1 0x0 DUP1 REVERT JUMPDEST POP CALLDATALOAD PUSH2 0x1379 JUMP JUMPDEST CALLVALUE DUP1 ISZERO PUSH2 0x78B JUMPI PUSH1 0x0 DUP1 REVERT JUMPDEST POP PUSH2 0x2ED PUSH2 0x1478 JUMP JUMPDEST CALLVALUE DUP1 ISZERO PUSH2 0x7A0 JUMPI PUSH1 0x0 DUP1 REVERT JUMPDEST POP PUSH2 0x3A7 PUSH1 0x4 DUP1 CALLDATASIZE SUB PUSH1 0x20 DUP2 LT ISZERO PUSH2 0x7B7 JUMPI PUSH1 0x0 DUP1 REVERT JUMPDEST POP CALLDATALOAD PUSH1 0x1 PUSH1 0x1 PUSH1 0xA0 SHL SUB AND PUSH2 0x147E JUMP JUMPDEST CALLVALUE DUP1 ISZERO PUSH2 0x7D3 JUMPI PUSH1 0x0 DUP1 REVERT JUMPDEST POP PUSH2 0x3A7 PUSH2 0x1580 JUMP JUMPDEST CALLVALUE DUP1 ISZERO PUSH2 0x7E8 JUMPI PUSH1 0x0 DUP1 REVERT JUMPDEST POP PUSH2 0x3DC PUSH1 0x4 DUP1 CALLDATASIZE SUB PUSH1 0x20 DUP2 LT ISZERO PUSH2 0x7FF JUMPI PUSH1 0x0 DUP1 REVERT JUMPDEST DUP2 ADD SWAP1 PUSH1 0x20 DUP2 ADD DUP2 CALLDATALOAD PUSH5 0x100000000 DUP2 GT ISZERO PUSH2 0x81A JUMPI PUSH1 0x0 DUP1 REVERT JUMPDEST DUP3 ADD DUP4 PUSH1 0x20 DUP3 ADD GT ISZERO PUSH2 0x82C JUMPI PUSH1 0x0 DUP1 REVERT JUMPDEST DUP1 CALLDATALOAD SWAP1 PUSH1 0x20 ADD SWAP2 DUP5 PUSH1 0x20 DUP4 MUL DUP5 ADD GT PUSH5 0x100000000 DUP4 GT OR ISZERO PUSH2 0x84E JUMPI PUSH1 0x0 DUP1 REVERT JUMPDEST SWAP2 SWAP1 DUP1 DUP1 PUSH1 0x20 MUL PUSH1 0x20 ADD PUSH1 0x40 MLOAD SWAP1 DUP2 ADD PUSH1 0x40 MSTORE DUP1 SWAP4 SWAP3 SWAP2 SWAP1 DUP2 DUP2 MSTORE PUSH1 0x20 ADD DUP4 DUP4 PUSH1 0x20 MUL DUP1 DUP3 DUP5 CALLDATACOPY PUSH1 0x0 SWAP3 ADD SWAP2 SWAP1 SWAP2 MSTORE POP SWAP3 SWAP6 POP PUSH2 0x159F SWAP5 POP POP POP POP POP JUMP JUMPDEST CALLVALUE DUP1 ISZERO PUSH2 0x898 JUMPI PUSH1 0x0 DUP1 REVERT JUMPDEST POP PUSH2 0x2ED PUSH1 0x4 DUP1 CALLDATASIZE SUB PUSH1 0x20 DUP2 LT ISZERO PUSH2 0x8AF JUMPI PUSH1 0x0 DUP1 REVERT JUMPDEST POP CALLDATALOAD PUSH1 0x1 PUSH1 0x1 PUSH1 0xA0 SHL SUB AND PUSH2 0x182C JUMP JUMPDEST CALLVALUE DUP1 ISZERO PUSH2 0x8CB JUMPI PUSH1 0x0 DUP1 REVERT JUMPDEST POP PUSH2 0x2ED PUSH1 0x4 DUP1 CALLDATASIZE SUB PUSH1 0x40 DUP2 LT ISZERO PUSH2 0x8E2 JUMPI PUSH1 0x0 DUP1 REVERT JUMPDEST POP PUSH1 0x1 PUSH1 0x1 PUSH1 0xA0 SHL SUB DUP2 CALLDATALOAD AND SWAP1 PUSH1 0x20 ADD CALLDATALOAD PUSH2 0x188F JUMP JUMPDEST CALLVALUE DUP1 ISZERO PUSH2 0x904 JUMPI PUSH1 0x0 DUP1 REVERT JUMPDEST POP PUSH2 0x2ED PUSH2 0x199A JUMP JUMPDEST DUP1 SELFBALANCE LT ISZERO PUSH2 0x962 JUMPI PUSH1 0x40 DUP1 MLOAD PUSH3 0x461BCD PUSH1 0xE5 SHL DUP2 MSTORE PUSH1 0x20 PUSH1 0x4 DUP3 ADD MSTORE PUSH1 0x1D PUSH1 0x24 DUP3 ADD MSTORE PUSH32 0x416464726573733A20696E73756666696369656E742062616C616E6365000000 PUSH1 0x44 DUP3 ADD MSTORE SWAP1 MLOAD SWAP1 DUP2 SWAP1 SUB PUSH1 0x64 ADD SWAP1 REVERT JUMPDEST PUSH1 0x40 MLOAD PUSH1 0x0 SWAP1 PUSH1 0x1 PUSH1 0x1 PUSH1 0xA0 SHL SUB DUP5 AND SWAP1 DUP4 SWAP1 DUP4 DUP2 DUP2 DUP2 DUP6 DUP8 GAS CALL SWAP3 POP POP POP RETURNDATASIZE DUP1 PUSH1 0x0 DUP2 EQ PUSH2 0x9AD JUMPI PUSH1 0x40 MLOAD SWAP2 POP PUSH1 0x1F NOT PUSH1 0x3F RETURNDATASIZE ADD AND DUP3 ADD PUSH1 0x40 MSTORE RETURNDATASIZE DUP3 MSTORE RETURNDATASIZE PUSH1 0x0 PUSH1 0x20 DUP5 ADD RETURNDATACOPY PUSH2 0x9B2 JUMP JUMPDEST PUSH1 0x60 SWAP2 POP JUMPDEST POP POP SWAP1 POP DUP1 PUSH2 0x9F2 JUMPI PUSH1 0x40 MLOAD PUSH3 0x461BCD PUSH1 0xE5 SHL DUP2 MSTORE PUSH1 0x4 ADD DUP1 DUP1 PUSH1 0x20 ADD DUP3 DUP2 SUB DUP3 MSTORE PUSH1 0x3A DUP2 MSTORE PUSH1 0x20 ADD DUP1 PUSH2 0x2339 PUSH1 0x3A SWAP2 CODECOPY PUSH1 0x40 ADD SWAP2 POP POP PUSH1 0x40 MLOAD DUP1 SWAP2 SUB SWAP1 REVERT JUMPDEST POP POP POP JUMP JUMPDEST PUSH1 0x1 PUSH1 0x1 PUSH1 0xA0 SHL SUB DUP2 AND PUSH1 0x0 SWAP1 DUP2 MSTORE PUSH1 0x13 PUSH1 0x20 SWAP1 DUP2 MSTORE PUSH1 0x40 DUP1 DUP4 KECCAK256 SLOAD PUSH1 0x14 SWAP1 SWAP3 MSTORE DUP3 KECCAK256 SLOAD PUSH1 0x12 SLOAD PUSH1 0x1 PUSH1 0x40 SHL SWAP3 SWAP2 MUL SUB DIV SWAP1 POP JUMPDEST SWAP2 SWAP1 POP JUMP JUMPDEST PUSH1 0x3 SLOAD DUP2 JUMP JUMPDEST PUSH1 0x0 PUSH1 0x11 SLOAD DUP3 GT ISZERO PUSH2 0xA47 JUMPI PUSH1 0x0 DUP1 REVERT JUMPDEST DUP2 PUSH1 0x0 PUSH2 0xA5E PUSH2 0xA57 DUP4 DUP4 PUSH2 0x19AB JUMP JUMPDEST PUSH1 0x64 PUSH2 0x1A04 JUMP JUMPDEST SWAP1 POP PUSH1 0x0 PUSH2 0xA6C DUP4 DUP4 PUSH2 0x1A6B JUMP JUMPDEST SWAP6 SWAP5 POP POP POP POP POP JUMP JUMPDEST PUSH1 0x11 SLOAD SWAP1 JUMP JUMPDEST PUSH1 0x10 SLOAD DUP2 JUMP JUMPDEST PUSH1 0xF SLOAD DUP2 JUMP JUMPDEST PUSH1 0x0 PUSH2 0xA91 PUSH2 0x1225 JUMP JUMPDEST GT PUSH2 0xA9B JUMPI PUSH1 0x0 DUP1 REVERT JUMPDEST CALLER PUSH1 0x0 DUP2 DUP2 MSTORE PUSH1 0x14 PUSH1 0x20 MSTORE PUSH1 0x40 SWAP1 KECCAK256 SLOAD DUP3 GT ISZERO PUSH2 0xAB7 JUMPI PUSH1 0x0 DUP1 REVERT JUMPDEST PUSH1 0x0 PUSH1 0x64 PUSH2 0xAC5 DUP5 DUP4 PUSH2 0x19AB JUMP JUMPDEST DUP2 PUSH2 0xACC JUMPI INVALID JUMPDEST DIV SWAP1 POP PUSH1 0x0 SWAP1 POP PUSH1 0x0 PUSH2 0xADF DUP5 DUP4 PUSH2 0x1A6B JUMP JUMPDEST SWAP1 POP PUSH2 0xAED PUSH1 0x11 SLOAD DUP6 PUSH2 0x1A6B JUMP JUMPDEST PUSH1 0x11 SSTORE PUSH1 0x1 PUSH1 0x1 PUSH1 0xA0 SHL SUB DUP4 AND PUSH1 0x0 SWAP1 DUP2 MSTORE PUSH1 0x14 PUSH1 0x20 MSTORE PUSH1 0x40 SWAP1 KECCAK256 SLOAD PUSH2 0xB13 SWAP1 DUP6 PUSH2 0x1A6B JUMP JUMPDEST PUSH1 0x1 PUSH1 0x1 PUSH1 0xA0 SHL SUB DUP5 AND PUSH1 0x0 SWAP1 DUP2 MSTORE PUSH1 0x14 PUSH1 0x20 SWAP1 DUP2 MSTORE PUSH1 0x40 DUP1 DUP4 KECCAK256 SWAP4 SWAP1 SWAP4 SSTORE PUSH1 0x12 SLOAD PUSH1 0x13 SWAP1 SWAP2 MSTORE SWAP2 SWAP1 KECCAK256 DUP1 SLOAD SWAP2 DUP7 MUL PUSH1 0x1 PUSH1 0x40 SHL DUP5 MUL ADD SWAP2 DUP3 SWAP1 SUB SWAP1 SSTORE PUSH2 0xB59 DUP4 PUSH2 0x1AC8 JUMP JUMPDEST PUSH1 0x40 DUP1 MLOAD DUP7 DUP2 MSTORE PUSH1 0x20 DUP2 ADD DUP5 SWAP1 MSTORE TIMESTAMP DUP2 DUP4 ADD MSTORE SWAP1 MLOAD PUSH1 0x1 PUSH1 0x1 PUSH1 0xA0 SHL SUB DUP7 AND SWAP2 PUSH32 0x90EBB005D68EFEE044927E1E77E1FD0CECC508368AA72C39250A787EED5F0A70 SWAP2 SWAP1 DUP2 SWAP1 SUB PUSH1 0x60 ADD SWAP1 LOG2 PUSH1 0x1 PUSH1 0x1 PUSH1 0xA0 SHL SUB DUP5 AND PUSH1 0x0 DUP2 DUP2 MSTORE PUSH1 0x15 PUSH1 0x20 DUP2 DUP2 MSTORE PUSH1 0x40 DUP1 DUP5 KECCAK256 DUP1 SLOAD PUSH1 0x14 DUP5 MSTORE SWAP5 DUP3 SWAP1 KECCAK256 SLOAD SWAP4 DUP4 MSTORE PUSH1 0x1 ADD SLOAD DUP2 MLOAD SWAP5 DUP6 MSTORE SWAP2 DUP5 ADD SWAP3 SWAP1 SWAP3 MSTORE DUP3 DUP3 ADD MSTORE TIMESTAMP PUSH1 0x60 DUP4 ADD MSTORE MLOAD PUSH1 0x0 DUP1 MLOAD PUSH1 0x20 PUSH2 0x2319 DUP4 CODECOPY DUP2 MLOAD SWAP2 MSTORE SWAP2 DUP2 SWAP1 SUB PUSH1 0x80 ADD SWAP1 LOG2 PUSH2 0xC08 PUSH2 0x1B56 JUMP JUMPDEST POP POP POP POP POP JUMP JUMPDEST PUSH1 0x0 DUP1 DUP1 DUP1 JUMPDEST PUSH1 0x6 SLOAD DUP2 LT ISZERO PUSH2 0xCBB JUMPI PUSH1 0x6 DUP2 DUP2 SLOAD DUP2 LT PUSH2 0xC2C JUMPI INVALID JUMPDEST PUSH1 0x0 SWAP2 DUP3 MSTORE PUSH1 0x20 SWAP2 DUP3 SWAP1 KECCAK256 ADD SLOAD PUSH1 0x40 DUP1 MLOAD PUSH4 0x70A08231 PUSH1 0xE0 SHL DUP2 MSTORE PUSH1 0x1 PUSH1 0x1 PUSH1 0xA0 SHL SUB DUP10 DUP2 AND PUSH1 0x4 DUP4 ADD MSTORE SWAP2 MLOAD SWAP2 SWAP1 SWAP3 AND SWAP5 POP DUP5 SWAP3 PUSH4 0x70A08231 SWAP3 PUSH1 0x24 DUP1 DUP3 ADD SWAP4 SWAP2 DUP3 SWAP1 SUB ADD DUP2 DUP7 DUP1 EXTCODESIZE ISZERO DUP1 ISZERO PUSH2 0xC82 JUMPI PUSH1 0x0 DUP1 REVERT JUMPDEST POP GAS STATICCALL ISZERO DUP1 ISZERO PUSH2 0xC96 JUMPI RETURNDATASIZE PUSH1 0x0 DUP1 RETURNDATACOPY RETURNDATASIZE PUSH1 0x0 REVERT JUMPDEST POP POP POP POP PUSH1 0x40 MLOAD RETURNDATASIZE PUSH1 0x20 DUP2 LT ISZERO PUSH2 0xCAC JUMPI PUSH1 0x0 DUP1 REVERT JUMPDEST POP MLOAD SWAP3 SWAP1 SWAP3 ADD SWAP2 PUSH1 0x1 ADD PUSH2 0xC15 JUMP JUMPDEST POP PUSH1 0x3 SLOAD DUP3 LT PUSH2 0xCD0 JUMPI PUSH1 0x1 SWAP3 POP POP POP PUSH2 0xA2B JUMP JUMPDEST POP PUSH1 0x0 SWAP4 SWAP3 POP POP POP JUMP JUMPDEST PUSH1 0xA SLOAD DUP2 JUMP JUMPDEST PUSH1 0x0 PUSH2 0xCEA PUSH2 0x199A JUMP JUMPDEST GT PUSH2 0xCF4 JUMPI PUSH1 0x0 DUP1 REVERT JUMPDEST CALLER PUSH1 0x0 PUSH2 0xCFF PUSH2 0x199A JUMP JUMPDEST PUSH1 0x1 PUSH1 0x1 PUSH1 0xA0 SHL SUB DUP1 DUP5 AND PUSH1 0x0 DUP2 DUP2 MSTORE PUSH1 0x13 PUSH1 0x20 SWAP1 DUP2 MSTORE PUSH1 0x40 DUP1 DUP4 KECCAK256 DUP1 SLOAD PUSH1 0x1 PUSH1 0x40 SHL DUP9 MUL ADD SWAP1 SSTORE PUSH1 0x2 SLOAD DUP2 MLOAD PUSH4 0xA9059CBB PUSH1 0xE0 SHL DUP2 MSTORE PUSH1 0x4 DUP2 ADD SWAP6 SWAP1 SWAP6 MSTORE PUSH1 0x24 DUP6 ADD DUP8 SWAP1 MSTORE SWAP1 MLOAD SWAP6 SWAP7 POP SWAP1 SWAP4 AND SWAP4 PUSH4 0xA9059CBB SWAP4 PUSH1 0x44 DUP1 DUP6 ADD SWAP5 SWAP2 SWAP4 SWAP2 DUP4 SWAP1 SUB ADD SWAP1 DUP3 SWAP1 DUP8 DUP1 EXTCODESIZE ISZERO DUP1 ISZERO PUSH2 0xD73 JUMPI PUSH1 0x0 DUP1 REVERT JUMPDEST POP GAS CALL ISZERO DUP1 ISZERO PUSH2 0xD87 JUMPI RETURNDATASIZE PUSH1 0x0 DUP1 RETURNDATACOPY RETURNDATASIZE PUSH1 0x0 REVERT JUMPDEST POP POP POP POP PUSH1 0x40 MLOAD RETURNDATASIZE PUSH1 0x20 DUP2 LT ISZERO PUSH2 0xD9D JUMPI PUSH1 0x0 DUP1 REVERT JUMPDEST POP POP PUSH1 0x1 PUSH1 0x1 PUSH1 0xA0 SHL SUB DUP3 AND PUSH1 0x0 SWAP1 DUP2 MSTORE PUSH1 0x15 PUSH1 0x20 MSTORE PUSH1 0x40 SWAP1 KECCAK256 PUSH1 0x1 ADD SLOAD PUSH2 0xDC5 SWAP1 DUP3 PUSH2 0x1C4C JUMP JUMPDEST PUSH1 0x1 PUSH1 0x1 PUSH1 0xA0 SHL SUB DUP4 AND PUSH1 0x0 DUP2 DUP2 MSTORE PUSH1 0x15 PUSH1 0x20 SWAP1 DUP2 MSTORE PUSH1 0x40 SWAP2 DUP3 SWAP1 KECCAK256 PUSH1 0x1 DUP1 DUP3 ADD SWAP6 SWAP1 SWAP6 SSTORE PUSH1 0xB ADD DUP1 SLOAD DUP6 ADD SWAP1 SSTORE PUSH1 0x8 DUP1 SLOAD SWAP1 SWAP5 ADD SWAP1 SWAP4 SSTORE PUSH1 0xA DUP1 SLOAD DUP6 ADD SWAP1 SSTORE DUP1 MLOAD DUP5 DUP2 MSTORE TIMESTAMP SWAP4 DUP2 ADD SWAP4 SWAP1 SWAP4 MSTORE DUP1 MLOAD SWAP2 SWAP3 PUSH32 0x1B091269E929DF55D64D6EA7E9CADBE4FB38DCE5CCDC995767BC515030DBFBBF SWAP3 SWAP1 DUP2 SWAP1 SUB SWAP1 SWAP2 ADD SWAP1 LOG2 PUSH2 0xE49 PUSH2 0x1B56 JUMP JUMPDEST POP POP JUMP JUMPDEST PUSH1 0x0 PUSH8 0xDE0B6B3A7640000 DUP2 PUSH2 0xE66 PUSH2 0xA57 DUP4 DUP4 PUSH2 0x19AB JUMP JUMPDEST SWAP1 POP PUSH1 0x0 PUSH2 0xE74 DUP4 DUP4 PUSH2 0x1A6B JUMP JUMPDEST SWAP4 POP POP POP POP SWAP1 JUMP JUMPDEST PUSH1 0x8 SLOAD DUP2 JUMP JUMPDEST PUSH1 0x1 PUSH1 0x1 PUSH1 0xA0 SHL SUB AND PUSH1 0x0 SWAP1 DUP2 MSTORE PUSH1 0x14 PUSH1 0x20 MSTORE PUSH1 0x40 SWAP1 KECCAK256 SLOAD SWAP1 JUMP JUMPDEST PUSH2 0xEA5 PUSH2 0x1CA6 JUMP JUMPDEST PUSH1 0x1 PUSH1 0x1 PUSH1 0xA0 SHL SUB AND PUSH2 0xEB6 PUSH2 0x1216 JUMP JUMPDEST PUSH1 0x1 PUSH1 0x1 PUSH1 0xA0 SHL SUB AND EQ PUSH2 0xEFF JUMPI PUSH1 0x40 DUP1 MLOAD PUSH3 0x461BCD PUSH1 0xE5 SHL DUP2 MSTORE PUSH1 0x20 PUSH1 0x4 DUP3 ADD DUP2 SWAP1 MSTORE PUSH1 0x24 DUP3 ADD MSTORE PUSH1 0x0 DUP1 MLOAD PUSH1 0x20 PUSH2 0x2394 DUP4 CODECOPY DUP2 MLOAD SWAP2 MSTORE PUSH1 0x44 DUP3 ADD MSTORE SWAP1 MLOAD SWAP1 DUP2 SWAP1 SUB PUSH1 0x64 ADD SWAP1 REVERT JUMPDEST PUSH1 0x0 DUP1 SLOAD PUSH1 0x40 MLOAD PUSH1 0x1 PUSH1 0x1 PUSH1 0xA0 SHL SUB SWAP1 SWAP2 AND SWAP1 PUSH32 0x8BE0079C531659141344CD1FD0A4F28419497F9722A3DAAFE3B4186F6B6457E0 SWAP1 DUP4 SWAP1 LOG3 PUSH1 0x0 DUP1 SLOAD PUSH1 0x1 PUSH1 0x1 PUSH1 0xA0 SHL SUB NOT AND SWAP1 SSTORE JUMP JUMPDEST PUSH1 0x2 SLOAD PUSH1 0x1 PUSH1 0x1 PUSH1 0xA0 SHL SUB AND DUP2 JUMP JUMPDEST PUSH1 0xB SLOAD DUP2 JUMP JUMPDEST PUSH1 0x0 PUSH2 0xF68 PUSH2 0x1CA6 JUMP JUMPDEST PUSH1 0x1 PUSH1 0x1 PUSH1 0xA0 SHL SUB AND PUSH2 0xF79 PUSH2 0x1216 JUMP JUMPDEST PUSH1 0x1 PUSH1 0x1 PUSH1 0xA0 SHL SUB AND EQ PUSH2 0xFC2 JUMPI PUSH1 0x40 DUP1 MLOAD PUSH3 0x461BCD PUSH1 0xE5 SHL DUP2 MSTORE PUSH1 0x20 PUSH1 0x4 DUP3 ADD DUP2 SWAP1 MSTORE PUSH1 0x24 DUP3 ADD MSTORE PUSH1 0x0 DUP1 MLOAD PUSH1 0x20 PUSH2 0x2394 DUP4 CODECOPY DUP2 MLOAD SWAP2 MSTORE PUSH1 0x44 DUP3 ADD MSTORE SWAP1 MLOAD SWAP1 DUP2 SWAP1 SUB PUSH1 0x64 ADD SWAP1 REVERT JUMPDEST PUSH2 0xFCC DUP4 DUP4 PUSH2 0x1C4C JUMP JUMPDEST PUSH1 0x3 EQ PUSH2 0x1020 JUMPI PUSH1 0x40 DUP1 MLOAD PUSH3 0x461BCD PUSH1 0xE5 SHL DUP2 MSTORE PUSH1 0x20 PUSH1 0x4 DUP3 ADD MSTORE PUSH1 0x1D PUSH1 0x24 DUP3 ADD MSTORE PUSH32 0x54454E5F504F5254494F4E535F524551554952455F4449564953494F4E000000 PUSH1 0x44 DUP3 ADD MSTORE SWAP1 MLOAD SWAP1 DUP2 SWAP1 SUB PUSH1 0x64 ADD SWAP1 REVERT JUMPDEST PUSH1 0xE DUP4 SWAP1 SSTORE PUSH1 0xF DUP3 SWAP1 SSTORE PUSH1 0x40 DUP1 MLOAD DUP5 DUP2 MSTORE PUSH1 0x20 DUP2 ADD DUP5 SWAP1 MSTORE TIMESTAMP DUP2 DUP4 ADD MSTORE SWAP1 MLOAD PUSH32 0x677017FA3A0FE0F50A95E6024C5B688F2B14A4696C4A897C459715CABFC1C03A SWAP2 DUP2 SWAP1 SUB PUSH1 0x60 ADD SWAP1 LOG1 POP PUSH1 0x1 JUMPDEST SWAP3 SWAP2 POP POP JUMP JUMPDEST PUSH2 0x107B PUSH2 0x21EA JUMP JUMPDEST PUSH2 0x1083 PUSH2 0x2209 JUMP JUMPDEST POP PUSH1 0x1 PUSH1 0x1 PUSH1 0xA0 SHL SUB DUP3 AND PUSH1 0x0 SWAP1 DUP2 MSTORE PUSH1 0x15 PUSH1 0x20 SWAP1 DUP2 MSTORE PUSH1 0x40 SWAP2 DUP3 SWAP1 KECCAK256 DUP3 MLOAD PUSH2 0x1C0 DUP2 ADD DUP5 MSTORE DUP2 SLOAD DUP2 MSTORE PUSH1 0x1 DUP3 ADD SLOAD SWAP3 DUP2 ADD SWAP3 SWAP1 SWAP3 MSTORE PUSH1 0x2 DUP2 ADD SLOAD SWAP3 DUP3 ADD SWAP3 SWAP1 SWAP3 MSTORE PUSH1 0x3 DUP3 ADD SLOAD PUSH1 0x60 DUP3 ADD MSTORE PUSH1 0x4 DUP3 ADD SLOAD PUSH1 0x80 DUP3 ADD MSTORE PUSH1 0x5 DUP3 ADD SLOAD PUSH1 0xA0 DUP3 ADD MSTORE PUSH1 0x6 DUP3 ADD SLOAD PUSH1 0xC0 DUP3 ADD MSTORE PUSH1 0x7 DUP3 ADD SLOAD PUSH1 0xE0 DUP3 ADD MSTORE PUSH1 0x8 DUP3 ADD SLOAD PUSH2 0x100 DUP3 ADD MSTORE PUSH1 0x9 DUP3 ADD SLOAD PUSH2 0x120 DUP3 ADD MSTORE PUSH1 0xA DUP3 ADD SLOAD PUSH2 0x140 DUP3 ADD MSTORE PUSH1 0xB DUP3 ADD SLOAD PUSH2 0x160 DUP3 ADD MSTORE PUSH1 0xC DUP3 ADD SLOAD PUSH2 0x180 DUP3 ADD MSTORE PUSH1 0xD SWAP1 SWAP2 ADD SLOAD PUSH2 0x1A0 DUP3 ADD MSTORE PUSH2 0x1142 PUSH2 0x21EA JUMP JUMPDEST PUSH1 0x40 MLOAD DUP1 PUSH2 0x1C0 ADD PUSH1 0x40 MSTORE DUP1 DUP4 PUSH1 0x0 ADD MLOAD DUP2 MSTORE PUSH1 0x20 ADD DUP4 PUSH1 0x20 ADD MLOAD DUP2 MSTORE PUSH1 0x20 ADD DUP4 PUSH1 0x60 ADD MLOAD DUP2 MSTORE PUSH1 0x20 ADD DUP4 PUSH1 0x40 ADD MLOAD DUP2 MSTORE PUSH1 0x20 ADD DUP4 PUSH1 0x80 ADD MLOAD DUP2 MSTORE PUSH1 0x20 ADD DUP4 PUSH1 0xA0 ADD MLOAD DUP2 MSTORE PUSH1 0x20 ADD DUP4 PUSH1 0xC0 ADD MLOAD DUP2 MSTORE PUSH1 0x20 ADD DUP4 PUSH1 0xE0 ADD MLOAD DUP2 MSTORE PUSH1 0x20 ADD DUP4 PUSH2 0x120 ADD MLOAD DUP2 MSTORE PUSH1 0x20 ADD DUP4 PUSH2 0x140 ADD MLOAD DUP2 MSTORE PUSH1 0x20 ADD DUP4 PUSH2 0x160 ADD MLOAD DUP2 MSTORE PUSH1 0x20 ADD DUP4 PUSH2 0x180 ADD MLOAD DUP2 MSTORE PUSH1 0x20 ADD DUP4 PUSH2 0x1A0 ADD MLOAD DUP2 MSTORE PUSH1 0x20 ADD DUP4 PUSH2 0x100 ADD MLOAD DUP2 MSTORE POP SWAP1 POP DUP1 SWAP3 POP POP POP SWAP2 SWAP1 POP JUMP JUMPDEST PUSH1 0x2 DUP2 JUMP JUMPDEST PUSH1 0x0 PUSH8 0xDE0B6B3A7640000 DUP2 PUSH2 0x1208 PUSH2 0xA57 DUP4 DUP4 PUSH2 0x19AB JUMP JUMPDEST SWAP1 POP PUSH1 0x0 PUSH2 0xE74 DUP4 DUP4 PUSH2 0x1C4C JUMP JUMPDEST PUSH1 0x0 SLOAD PUSH1 0x1 PUSH1 0x1 PUSH1 0xA0 SHL SUB AND SWAP1 JUMP JUMPDEST PUSH1 0x0 PUSH2 0x1230 CALLER PUSH2 0xE82 JUMP JUMPDEST SWAP1 POP SWAP1 JUMP JUMPDEST PUSH1 0x4 SLOAD PUSH1 0x1 PUSH1 0x1 PUSH1 0xA0 SHL SUB AND DUP2 JUMP JUMPDEST PUSH1 0xE SLOAD DUP2 JUMP JUMPDEST PUSH1 0x0 DUP1 PUSH2 0x1255 PUSH2 0x1225 JUMP JUMPDEST GT PUSH2 0x125F JUMPI PUSH1 0x0 DUP1 REVERT JUMPDEST PUSH2 0x1269 DUP4 DUP4 PUSH2 0x1CAA JUMP JUMPDEST SWAP4 SWAP3 POP POP POP JUMP JUMPDEST PUSH1 0x2 SLOAD PUSH1 0x40 DUP1 MLOAD PUSH4 0x70A08231 PUSH1 0xE0 SHL DUP2 MSTORE ADDRESS PUSH1 0x4 DUP3 ADD MSTORE SWAP1 MLOAD PUSH1 0x0 SWAP3 PUSH1 0x1 PUSH1 0x1 PUSH1 0xA0 SHL SUB AND SWAP2 PUSH4 0x70A08231 SWAP2 PUSH1 0x24 DUP1 DUP4 ADD SWAP3 PUSH1 0x20 SWAP3 SWAP2 SWAP1 DUP3 SWAP1 SUB ADD DUP2 DUP7 DUP1 EXTCODESIZE ISZERO DUP1 ISZERO PUSH2 0x12BB JUMPI PUSH1 0x0 DUP1 REVERT JUMPDEST POP GAS STATICCALL ISZERO DUP1 ISZERO PUSH2 0x12CF JUMPI RETURNDATASIZE PUSH1 0x0 DUP1 RETURNDATACOPY RETURNDATASIZE PUSH1 0x0 REVERT JUMPDEST POP POP POP POP PUSH1 0x40 MLOAD RETURNDATASIZE PUSH1 0x20 DUP2 LT ISZERO PUSH2 0x12E5 JUMPI PUSH1 0x0 DUP1 REVERT JUMPDEST POP MLOAD SWAP1 POP SWAP1 JUMP JUMPDEST PUSH1 0xC SLOAD DUP2 JUMP JUMPDEST PUSH1 0x6 DUP2 DUP2 SLOAD DUP2 LT PUSH2 0x1302 JUMPI PUSH1 0x0 DUP1 REVERT JUMPDEST PUSH1 0x0 SWAP2 DUP3 MSTORE PUSH1 0x20 SWAP1 SWAP2 KECCAK256 ADD SLOAD PUSH1 0x1 PUSH1 0x1 PUSH1 0xA0 SHL SUB AND SWAP1 POP DUP2 JUMP JUMPDEST PUSH1 0x0 PUSH2 0x106D CALLER DUP4 PUSH2 0x188F JUMP JUMPDEST PUSH1 0x9 SLOAD DUP2 JUMP JUMPDEST PUSH1 0xD SLOAD PUSH1 0xFF AND DUP2 JUMP JUMPDEST PUSH1 0x5 SLOAD PUSH1 0x1 PUSH1 0x1 PUSH1 0xA0 SHL SUB AND DUP2 JUMP JUMPDEST PUSH1 0x0 DUP1 PUSH2 0x1356 PUSH2 0xA57 DUP5 DUP4 PUSH2 0x19AB JUMP JUMPDEST SWAP1 POP PUSH1 0x0 PUSH2 0x1364 DUP5 DUP4 PUSH2 0x1A6B JUMP JUMPDEST SWAP5 SWAP4 POP POP POP POP JUMP JUMPDEST PUSH1 0x1 PUSH1 0x1 PUSH1 0xA0 SHL SUB AND BALANCE SWAP1 JUMP JUMPDEST PUSH1 0x2 SLOAD PUSH1 0x40 DUP1 MLOAD PUSH4 0x23B872DD PUSH1 0xE0 SHL DUP2 MSTORE CALLER PUSH1 0x4 DUP3 ADD MSTORE ADDRESS PUSH1 0x24 DUP3 ADD MSTORE PUSH1 0x44 DUP2 ADD DUP5 SWAP1 MSTORE SWAP1 MLOAD PUSH1 0x0 SWAP3 PUSH1 0x1 PUSH1 0x1 PUSH1 0xA0 SHL SUB AND SWAP2 PUSH4 0x23B872DD SWAP2 PUSH1 0x64 DUP1 DUP4 ADD SWAP3 PUSH1 0x20 SWAP3 SWAP2 SWAP1 DUP3 SWAP1 SUB ADD DUP2 DUP8 DUP8 DUP1 EXTCODESIZE ISZERO DUP1 ISZERO PUSH2 0x13D2 JUMPI PUSH1 0x0 DUP1 REVERT JUMPDEST POP GAS CALL ISZERO DUP1 ISZERO PUSH2 0x13E6 JUMPI RETURNDATASIZE PUSH1 0x0 DUP1 RETURNDATACOPY RETURNDATASIZE PUSH1 0x0 REVERT JUMPDEST POP POP POP POP PUSH1 0x40 MLOAD RETURNDATASIZE PUSH1 0x20 DUP2 LT ISZERO PUSH2 0x13FC JUMPI PUSH1 0x0 DUP1 REVERT JUMPDEST POP MLOAD PUSH2 0x1407 JUMPI PUSH1 0x0 DUP1 REVERT JUMPDEST PUSH1 0xC DUP1 SLOAD DUP4 ADD SWAP1 SSTORE CALLER PUSH1 0x0 DUP2 DUP2 MSTORE PUSH1 0x15 PUSH1 0x20 SWAP1 DUP2 MSTORE PUSH1 0x40 SWAP2 DUP3 SWAP1 KECCAK256 PUSH1 0xA DUP2 ADD DUP1 SLOAD PUSH1 0x1 ADD SWAP1 SSTORE PUSH1 0x4 ADD DUP1 SLOAD DUP7 ADD SWAP1 SSTORE DUP2 MLOAD DUP6 DUP2 MSTORE TIMESTAMP SWAP2 DUP2 ADD SWAP2 SWAP1 SWAP2 MSTORE DUP2 MLOAD PUSH32 0xDA1788C3E861A58A47F0D46073B13C4D66EFCC259714744F920D1AFE7B8DEE5 SWAP3 SWAP2 DUP2 SWAP1 SUB SWAP1 SWAP2 ADD SWAP1 LOG2 POP POP PUSH1 0xC SLOAD SWAP1 JUMP JUMPDEST PUSH1 0x7 SLOAD DUP2 JUMP JUMPDEST PUSH2 0x1486 PUSH2 0x1CA6 JUMP JUMPDEST PUSH1 0x1 PUSH1 0x1 PUSH1 0xA0 SHL SUB AND PUSH2 0x1497 PUSH2 0x1216 JUMP JUMPDEST PUSH1 0x1 PUSH1 0x1 PUSH1 0xA0 SHL SUB AND EQ PUSH2 0x14E0 JUMPI PUSH1 0x40 DUP1 MLOAD PUSH3 0x461BCD PUSH1 0xE5 SHL DUP2 MSTORE PUSH1 0x20 PUSH1 0x4 DUP3 ADD DUP2 SWAP1 MSTORE PUSH1 0x24 DUP3 ADD MSTORE PUSH1 0x0 DUP1 MLOAD PUSH1 0x20 PUSH2 0x2394 DUP4 CODECOPY DUP2 MLOAD SWAP2 MSTORE PUSH1 0x44 DUP3 ADD MSTORE SWAP1 MLOAD SWAP1 DUP2 SWAP1 SUB PUSH1 0x64 ADD SWAP1 REVERT JUMPDEST PUSH1 0x1 PUSH1 0x1 PUSH1 0xA0 SHL SUB DUP2 AND PUSH2 0x1525 JUMPI PUSH1 0x40 MLOAD PUSH3 0x461BCD PUSH1 0xE5 SHL DUP2 MSTORE PUSH1 0x4 ADD DUP1 DUP1 PUSH1 0x20 ADD DUP3 DUP2 SUB DUP3 MSTORE PUSH1 0x26 DUP2 MSTORE PUSH1 0x20 ADD DUP1 PUSH2 0x22F3 PUSH1 0x26 SWAP2 CODECOPY PUSH1 0x40 ADD SWAP2 POP POP PUSH1 0x40 MLOAD DUP1 SWAP2 SUB SWAP1 REVERT JUMPDEST PUSH1 0x0 DUP1 SLOAD PUSH1 0x40 MLOAD PUSH1 0x1 PUSH1 0x1 PUSH1 0xA0 SHL SUB DUP1 DUP6 AND SWAP4 SWAP3 AND SWAP2 PUSH32 0x8BE0079C531659141344CD1FD0A4F28419497F9722A3DAAFE3B4186F6B6457E0 SWAP2 LOG3 PUSH1 0x0 DUP1 SLOAD PUSH1 0x1 PUSH1 0x1 PUSH1 0xA0 SHL SUB NOT AND PUSH1 0x1 PUSH1 0x1 PUSH1 0xA0 SHL SUB SWAP3 SWAP1 SWAP3 AND SWAP2 SWAP1 SWAP2 OR SWAP1 SSTORE JUMP JUMPDEST PUSH1 0x0 PUSH2 0x158A PUSH2 0x199A JUMP JUMPDEST GT PUSH2 0x1594 JUMPI PUSH1 0x0 DUP1 REVERT JUMPDEST PUSH2 0x159C PUSH2 0x1F15 JUMP JUMPDEST POP JUMP JUMPDEST PUSH1 0x0 PUSH2 0x15A9 PUSH2 0x1CA6 JUMP JUMPDEST PUSH1 0x1 PUSH1 0x1 PUSH1 0xA0 SHL SUB AND PUSH2 0x15BA PUSH2 0x1216 JUMP JUMPDEST PUSH1 0x1 PUSH1 0x1 PUSH1 0xA0 SHL SUB AND EQ PUSH2 0x1603 JUMPI PUSH1 0x40 DUP1 MLOAD PUSH3 0x461BCD PUSH1 0xE5 SHL DUP2 MSTORE PUSH1 0x20 PUSH1 0x4 DUP3 ADD DUP2 SWAP1 MSTORE PUSH1 0x24 DUP3 ADD MSTORE PUSH1 0x0 DUP1 MLOAD PUSH1 0x20 PUSH2 0x2394 DUP4 CODECOPY DUP2 MLOAD SWAP2 MSTORE PUSH1 0x44 DUP3 ADD MSTORE SWAP1 MLOAD SWAP1 DUP2 SWAP1 SUB PUSH1 0x64 ADD SWAP1 REVERT JUMPDEST PUSH1 0x0 JUMPDEST PUSH1 0x6 SLOAD DUP2 LT ISZERO PUSH2 0x16E0 JUMPI DUP3 DUP2 DUP2 MLOAD DUP2 LT PUSH2 0x161C JUMPI INVALID JUMPDEST PUSH1 0x20 MUL PUSH1 0x20 ADD ADD MLOAD PUSH1 0x1 PUSH1 0x1 PUSH1 0xA0 SHL SUB AND PUSH4 0x1FFC9A7 PUSH4 0x80AC58CD PUSH1 0x40 MLOAD DUP3 PUSH4 0xFFFFFFFF AND PUSH1 0xE0 SHL DUP2 MSTORE PUSH1 0x4 ADD DUP1 DUP3 PUSH1 0xE0 SHL DUP2 MSTORE PUSH1 0x20 ADD SWAP2 POP POP PUSH1 0x20 PUSH1 0x40 MLOAD DUP1 DUP4 SUB DUP2 DUP7 DUP1 EXTCODESIZE ISZERO DUP1 ISZERO PUSH2 0x166E JUMPI PUSH1 0x0 DUP1 REVERT JUMPDEST POP GAS STATICCALL ISZERO DUP1 ISZERO PUSH2 0x1682 JUMPI RETURNDATASIZE PUSH1 0x0 DUP1 RETURNDATACOPY RETURNDATASIZE PUSH1 0x0 REVERT JUMPDEST POP POP POP POP PUSH1 0x40 MLOAD RETURNDATASIZE PUSH1 0x20 DUP2 LT ISZERO PUSH2 0x1698 JUMPI PUSH1 0x0 DUP1 REVERT JUMPDEST POP MLOAD PUSH2 0x16D8 JUMPI PUSH1 0x40 DUP1 MLOAD PUSH3 0x461BCD PUSH1 0xE5 SHL DUP2 MSTORE PUSH1 0x20 PUSH1 0x4 DUP3 ADD MSTORE PUSH1 0xA PUSH1 0x24 DUP3 ADD MSTORE PUSH10 0x4E4F545F455243373231 PUSH1 0xB0 SHL PUSH1 0x44 DUP3 ADD MSTORE SWAP1 MLOAD SWAP1 DUP2 SWAP1 SUB PUSH1 0x64 ADD SWAP1 REVERT JUMPDEST PUSH1 0x1 ADD PUSH2 0x1606 JUMP JUMPDEST POP PUSH1 0x60 PUSH1 0x6 DUP1 SLOAD DUP1 PUSH1 0x20 MUL PUSH1 0x20 ADD PUSH1 0x40 MLOAD SWAP1 DUP2 ADD PUSH1 0x40 MSTORE DUP1 SWAP3 SWAP2 SWAP1 DUP2 DUP2 MSTORE PUSH1 0x20 ADD DUP3 DUP1 SLOAD DUP1 ISZERO PUSH2 0x1739 JUMPI PUSH1 0x20 MUL DUP3 ADD SWAP2 SWAP1 PUSH1 0x0 MSTORE PUSH1 0x20 PUSH1 0x0 KECCAK256 SWAP1 JUMPDEST DUP2 SLOAD PUSH1 0x1 PUSH1 0x1 PUSH1 0xA0 SHL SUB AND DUP2 MSTORE PUSH1 0x1 SWAP1 SWAP2 ADD SWAP1 PUSH1 0x20 ADD DUP1 DUP4 GT PUSH2 0x171B JUMPI JUMPDEST POP POP DUP7 MLOAD SWAP4 SWAP5 POP PUSH2 0x1755 SWAP4 PUSH1 0x6 SWAP4 POP PUSH1 0x20 DUP9 ADD SWAP3 POP SWAP1 POP PUSH2 0x2278 JUMP JUMPDEST POP CALLER PUSH1 0x1 PUSH1 0x1 PUSH1 0xA0 SHL SUB AND PUSH32 0xF0650831416F723858005CFEAE97A2D6F5E127D1E6AE8938574D1D73E7F4727C DUP3 DUP6 TIMESTAMP PUSH1 0x40 MLOAD DUP1 DUP1 PUSH1 0x20 ADD DUP1 PUSH1 0x20 ADD DUP5 DUP2 MSTORE PUSH1 0x20 ADD DUP4 DUP2 SUB DUP4 MSTORE DUP7 DUP2 DUP2 MLOAD DUP2 MSTORE PUSH1 0x20 ADD SWAP2 POP DUP1 MLOAD SWAP1 PUSH1 0x20 ADD SWAP1 PUSH1 0x20 MUL DUP1 DUP4 DUP4 PUSH1 0x0 JUMPDEST DUP4 DUP2 LT ISZERO PUSH2 0x17CE JUMPI DUP2 DUP2 ADD MLOAD DUP4 DUP3 ADD MSTORE PUSH1 0x20 ADD PUSH2 0x17B6 JUMP JUMPDEST POP POP POP POP SWAP1 POP ADD DUP4 DUP2 SUB DUP3 MSTORE DUP6 DUP2 DUP2 MLOAD DUP2 MSTORE PUSH1 0x20 ADD SWAP2 POP DUP1 MLOAD SWAP1 PUSH1 0x20 ADD SWAP1 PUSH1 0x20 MUL DUP1 DUP4 DUP4 PUSH1 0x0 JUMPDEST DUP4 DUP2 LT ISZERO PUSH2 0x180D JUMPI DUP2 DUP2 ADD MLOAD DUP4 DUP3 ADD MSTORE PUSH1 0x20 ADD PUSH2 0x17F5 JUMP JUMPDEST POP POP POP POP SWAP1 POP ADD SWAP6 POP POP POP POP POP POP PUSH1 0x40 MLOAD DUP1 SWAP2 SUB SWAP1 LOG2 POP PUSH1 0x1 SWAP3 SWAP2 POP POP JUMP JUMPDEST PUSH1 0xD SLOAD PUSH1 0xC SLOAD PUSH1 0x0 SWAP2 DUP3 SWAP2 PUSH2 0x1850 SWAP2 PUSH1 0x1 SWAP2 PUSH2 0x184A SWAP2 PUSH1 0xFF AND PUSH2 0x19AB JUMP JUMPDEST SWAP1 PUSH2 0x1A04 JUMP JUMPDEST SWAP1 POP PUSH1 0x0 PUSH1 0x11 SLOAD GT PUSH2 0x1863 JUMPI PUSH1 0x0 PUSH2 0x1269 JUMP JUMPDEST PUSH1 0x11 SLOAD PUSH1 0x1 PUSH1 0x1 PUSH1 0xA0 SHL SUB DUP5 AND PUSH1 0x0 SWAP1 DUP2 MSTORE PUSH1 0x14 PUSH1 0x20 MSTORE PUSH1 0x40 SWAP1 KECCAK256 SLOAD PUSH2 0x1269 SWAP2 SWAP1 PUSH2 0x184A SWAP1 DUP5 SWAP1 PUSH2 0x19AB JUMP JUMPDEST PUSH1 0x2 SLOAD PUSH1 0x40 DUP1 MLOAD PUSH4 0x23B872DD PUSH1 0xE0 SHL DUP2 MSTORE CALLER PUSH1 0x4 DUP3 ADD MSTORE ADDRESS PUSH1 0x24 DUP3 ADD MSTORE PUSH1 0x44 DUP2 ADD DUP5 SWAP1 MSTORE SWAP1 MLOAD PUSH1 0x0 SWAP3 PUSH1 0x1 PUSH1 0x1 PUSH1 0xA0 SHL SUB AND SWAP2 PUSH4 0x23B872DD SWAP2 PUSH1 0x64 DUP1 DUP4 ADD SWAP3 PUSH1 0x20 SWAP3 SWAP2 SWAP1 DUP3 SWAP1 SUB ADD DUP2 DUP8 DUP8 DUP1 EXTCODESIZE ISZERO DUP1 ISZERO PUSH2 0x18E8 JUMPI PUSH1 0x0 DUP1 REVERT JUMPDEST POP GAS CALL ISZERO DUP1 ISZERO PUSH2 0x18FC JUMPI RETURNDATASIZE PUSH1 0x0 DUP1 RETURNDATACOPY RETURNDATASIZE PUSH1 0x0 REVERT JUMPDEST POP POP POP POP PUSH1 0x40 MLOAD RETURNDATASIZE PUSH1 0x20 DUP2 LT ISZERO PUSH2 0x1912 JUMPI PUSH1 0x0 DUP1 REVERT JUMPDEST POP MLOAD PUSH2 0x191D JUMPI PUSH1 0x0 DUP1 REVERT JUMPDEST PUSH1 0xB DUP1 SLOAD DUP4 ADD SWAP1 SSTORE PUSH1 0x0 PUSH2 0x1931 DUP5 DUP5 PUSH2 0x204B JUMP JUMPDEST PUSH1 0x1 PUSH1 0x1 PUSH1 0xA0 SHL SUB DUP6 AND PUSH1 0x0 DUP2 DUP2 MSTORE PUSH1 0x15 PUSH1 0x20 DUP2 DUP2 MSTORE PUSH1 0x40 DUP1 DUP5 KECCAK256 DUP1 SLOAD PUSH1 0x14 DUP5 MSTORE SWAP5 DUP3 SWAP1 KECCAK256 SLOAD SWAP4 DUP4 MSTORE PUSH1 0x1 ADD SLOAD DUP2 MLOAD SWAP5 DUP6 MSTORE SWAP2 DUP5 ADD SWAP3 SWAP1 SWAP3 MSTORE DUP3 DUP3 ADD MSTORE TIMESTAMP PUSH1 0x60 DUP4 ADD MSTORE MLOAD SWAP3 SWAP4 POP SWAP1 SWAP2 PUSH1 0x0 DUP1 MLOAD PUSH1 0x20 PUSH2 0x2319 DUP4 CODECOPY DUP2 MLOAD SWAP2 MSTORE SWAP2 DUP2 SWAP1 SUB PUSH1 0x80 ADD SWAP1 LOG2 PUSH2 0x1269 PUSH2 0x1B56 JUMP JUMPDEST PUSH1 0x0 PUSH2 0x1230 CALLER PUSH2 0x9F7 JUMP JUMPDEST EXTCODESIZE ISZERO ISZERO SWAP1 JUMP JUMPDEST PUSH1 0x0 DUP3 PUSH2 0x19BA JUMPI POP PUSH1 0x0 PUSH2 0x106D JUMP JUMPDEST DUP3 DUP3 MUL DUP3 DUP5 DUP3 DUP2 PUSH2 0x19C7 JUMPI INVALID JUMPDEST DIV EQ PUSH2 0x1269 JUMPI PUSH1 0x40 MLOAD PUSH3 0x461BCD PUSH1 0xE5 SHL DUP2 MSTORE PUSH1 0x4 ADD DUP1 DUP1 PUSH1 0x20 ADD DUP3 DUP2 SUB DUP3 MSTORE PUSH1 0x21 DUP2 MSTORE PUSH1 0x20 ADD DUP1 PUSH2 0x2373 PUSH1 0x21 SWAP2 CODECOPY PUSH1 0x40 ADD SWAP2 POP POP PUSH1 0x40 MLOAD DUP1 SWAP2 SUB SWAP1 REVERT JUMPDEST PUSH1 0x0 DUP1 DUP3 GT PUSH2 0x1A5A JUMPI PUSH1 0x40 DUP1 MLOAD PUSH3 0x461BCD PUSH1 0xE5 SHL DUP2 MSTORE PUSH1 0x20 PUSH1 0x4 DUP3 ADD MSTORE PUSH1 0x1A PUSH1 0x24 DUP3 ADD MSTORE PUSH32 0x536166654D6174683A206469766973696F6E206279207A65726F000000000000 PUSH1 0x44 DUP3 ADD MSTORE SWAP1 MLOAD SWAP1 DUP2 SWAP1 SUB PUSH1 0x64 ADD SWAP1 REVERT JUMPDEST DUP2 DUP4 DUP2 PUSH2 0x1A63 JUMPI INVALID JUMPDEST DIV SWAP4 SWAP3 POP POP POP JUMP JUMPDEST PUSH1 0x0 DUP3 DUP3 GT ISZERO PUSH2 0x1AC2 JUMPI PUSH1 0x40 DUP1 MLOAD PUSH3 0x461BCD PUSH1 0xE5 SHL DUP2 MSTORE PUSH1 0x20 PUSH1 0x4 DUP3 ADD MSTORE PUSH1 0x1E PUSH1 0x24 DUP3 ADD MSTORE PUSH32 0x536166654D6174683A207375627472616374696F6E206F766572666C6F770000 PUSH1 0x44 DUP3 ADD MSTORE SWAP1 MLOAD SWAP1 DUP2 SWAP1 SUB PUSH1 0x64 ADD SWAP1 REVERT JUMPDEST POP SWAP1 SUB SWAP1 JUMP JUMPDEST PUSH1 0x0 PUSH2 0x1AD5 DUP3 PUSH1 0xA PUSH2 0x1A04 JUMP JUMPDEST SWAP1 POP PUSH1 0x0 PUSH2 0x1AEE PUSH1 0xE SLOAD DUP4 PUSH2 0x19AB SWAP1 SWAP2 SWAP1 PUSH4 0xFFFFFFFF AND JUMP JUMPDEST SWAP1 POP PUSH1 0x0 PUSH2 0x1B07 PUSH1 0xF SLOAD DUP5 PUSH2 0x19AB SWAP1 SWAP2 SWAP1 PUSH4 0xFFFFFFFF AND JUMP JUMPDEST PUSH1 0xC SLOAD SWAP1 SWAP2 POP PUSH2 0x1B17 SWAP1 DUP4 PUSH2 0x1C4C JUMP JUMPDEST PUSH1 0xC SSTORE PUSH1 0x11 SLOAD ISZERO PUSH2 0x1B47 JUMPI PUSH2 0x1B3F PUSH1 0x12 SLOAD PUSH1 0x11 SLOAD PUSH1 0x1 PUSH1 0x40 SHL DUP5 MUL DUP2 PUSH2 0x1B39 JUMPI INVALID JUMPDEST DIV PUSH2 0x1C4C JUMP JUMPDEST PUSH1 0x12 SSTORE PUSH2 0x1B50 JUMP JUMPDEST PUSH1 0xC DUP1 SLOAD DUP3 ADD SWAP1 SSTORE JUMPDEST POP POP POP POP JUMP JUMPDEST PUSH1 0x10 SLOAD TIMESTAMP SWAP1 PUSH1 0x2 SWAP1 PUSH2 0x1B69 SWAP1 DUP4 SWAP1 PUSH2 0x21CF JUMP JUMPDEST GT ISZERO PUSH2 0x1BB5 JUMPI PUSH32 0x2CFCE469A63F2E9972B7F23DA751E6943ED2B091C10E40B5C43B5F6105BF20EA PUSH2 0x1B98 PUSH2 0x1270 JUMP JUMPDEST PUSH1 0x40 DUP1 MLOAD SWAP2 DUP3 MSTORE PUSH1 0x20 DUP3 ADD DUP5 SWAP1 MSTORE DUP1 MLOAD SWAP2 DUP3 SWAP1 SUB ADD SWAP1 LOG1 PUSH1 0x10 DUP2 SWAP1 SSTORE JUMPDEST PUSH1 0x2 PUSH2 0x1BC3 DUP3 PUSH1 0x9 SLOAD PUSH2 0x21CF JUMP JUMPDEST GT DUP1 ISZERO PUSH2 0x1BD2 JUMPI POP PUSH1 0x0 PUSH1 0x11 SLOAD GT JUMPDEST ISZERO PUSH2 0x159C JUMPI PUSH1 0xD SLOAD PUSH1 0xC SLOAD PUSH1 0x0 SWAP2 PUSH2 0x1BFB SWAP2 PUSH3 0x15180 SWAP2 PUSH2 0x184A SWAP2 PUSH1 0x1 SWAP2 DUP4 SWAP2 SWAP1 PUSH1 0xFF AND PUSH2 0x19AB JUMP JUMPDEST SWAP1 POP PUSH1 0x0 PUSH2 0x1C14 PUSH1 0x9 SLOAD DUP5 PUSH2 0x21CF SWAP1 SWAP2 SWAP1 PUSH4 0xFFFFFFFF AND JUMP JUMPDEST PUSH1 0xC SLOAD SWAP1 DUP4 MUL SWAP2 POP PUSH2 0x1C26 SWAP1 DUP3 PUSH2 0x21CF JUMP JUMPDEST PUSH1 0xC SSTORE PUSH1 0x12 SLOAD PUSH1 0x11 SLOAD PUSH2 0x1C42 SWAP2 SWAP1 PUSH1 0x1 PUSH1 0x40 SHL DUP5 MUL DUP2 PUSH2 0x1B39 JUMPI INVALID JUMPDEST PUSH1 0x12 SSTORE POP POP PUSH1 0x9 SSTORE JUMP JUMPDEST PUSH1 0x0 DUP3 DUP3 ADD DUP4 DUP2 LT ISZERO PUSH2 0x1269 JUMPI PUSH1 0x40 DUP1 MLOAD PUSH3 0x461BCD PUSH1 0xE5 SHL DUP2 MSTORE PUSH1 0x20 PUSH1 0x4 DUP3 ADD MSTORE PUSH1 0x1B PUSH1 0x24 DUP3 ADD MSTORE PUSH32 0x536166654D6174683A206164646974696F6E206F766572666C6F770000000000 PUSH1 0x44 DUP3 ADD MSTORE SWAP1 MLOAD SWAP1 DUP2 SWAP1 SUB PUSH1 0x64 ADD SWAP1 REVERT JUMPDEST CALLER SWAP1 JUMP JUMPDEST CALLER PUSH1 0x0 DUP2 DUP2 MSTORE PUSH1 0x14 PUSH1 0x20 MSTORE PUSH1 0x40 DUP2 KECCAK256 SLOAD SWAP1 SWAP2 SWAP1 DUP4 GT ISZERO PUSH2 0x1CC9 JUMPI PUSH1 0x0 DUP1 REVERT JUMPDEST PUSH1 0x0 PUSH2 0x1CD3 PUSH2 0x199A JUMP JUMPDEST GT ISZERO PUSH2 0x1CE1 JUMPI PUSH2 0x1CE1 PUSH2 0xCE0 JUMP JUMPDEST PUSH1 0x1 PUSH1 0x1 PUSH1 0xA0 SHL SUB DUP2 AND PUSH1 0x0 SWAP1 DUP2 MSTORE PUSH1 0x14 PUSH1 0x20 MSTORE PUSH1 0x40 SWAP1 KECCAK256 SLOAD PUSH2 0x1D04 SWAP1 DUP5 PUSH2 0x1A6B JUMP JUMPDEST PUSH1 0x1 PUSH1 0x1 PUSH1 0xA0 SHL SUB DUP1 DUP4 AND PUSH1 0x0 SWAP1 DUP2 MSTORE PUSH1 0x14 PUSH1 0x20 MSTORE PUSH1 0x40 DUP1 DUP3 KECCAK256 SWAP4 SWAP1 SWAP4 SSTORE SWAP1 DUP7 AND DUP2 MSTORE KECCAK256 SLOAD PUSH2 0x1D33 SWAP1 DUP5 PUSH2 0x1C4C JUMP JUMPDEST PUSH1 0x1 PUSH1 0x1 PUSH1 0xA0 SHL SUB DUP6 DUP2 AND PUSH1 0x0 DUP2 DUP2 MSTORE PUSH1 0x14 PUSH1 0x20 SWAP1 DUP2 MSTORE PUSH1 0x40 DUP1 DUP4 KECCAK256 SWAP6 SWAP1 SWAP6 SSTORE PUSH1 0x12 DUP1 SLOAD SWAP5 DUP8 AND DUP4 MSTORE PUSH1 0x13 DUP3 MSTORE DUP6 DUP4 KECCAK256 DUP1 SLOAD SWAP6 DUP11 MUL SWAP1 SWAP6 SUB SWAP1 SWAP5 SSTORE SWAP3 SLOAD SWAP2 DUP2 MSTORE DUP4 DUP2 KECCAK256 DUP1 SLOAD SWAP3 DUP9 MUL SWAP1 SWAP3 ADD SWAP1 SWAP2 SSTORE PUSH1 0x15 SWAP1 SWAP2 MSTORE KECCAK256 SLOAD ISZERO DUP1 ISZERO PUSH2 0x1DAE JUMPI POP PUSH1 0x1 PUSH1 0x1 PUSH1 0xA0 SHL SUB DUP5 AND PUSH1 0x0 SWAP1 DUP2 MSTORE PUSH1 0x15 PUSH1 0x20 MSTORE PUSH1 0x40 SWAP1 KECCAK256 PUSH1 0x6 ADD SLOAD ISZERO JUMPDEST ISZERO PUSH2 0x1DBD JUMPI PUSH1 0x7 DUP1 SLOAD PUSH1 0x1 ADD SWAP1 SSTORE JUMPDEST PUSH1 0x1 PUSH1 0x1 PUSH1 0xA0 SHL SUB DUP1 DUP3 AND PUSH1 0x0 DUP2 DUP2 MSTORE PUSH1 0x15 PUSH1 0x20 SWAP1 DUP2 MSTORE PUSH1 0x40 DUP1 DUP4 KECCAK256 PUSH1 0xC DUP2 ADD DUP1 SLOAD PUSH1 0x1 SWAP1 DUP2 ADD SWAP1 SWAP2 SSTORE PUSH1 0x5 SWAP1 SWAP2 ADD DUP1 SLOAD DUP11 ADD SWAP1 SSTORE SWAP5 DUP10 AND DUP1 DUP5 MSTORE SWAP3 DUP2 SWAP1 KECCAK256 PUSH1 0x6 DUP2 ADD DUP1 SLOAD DUP11 ADD SWAP1 SSTORE PUSH1 0xD ADD DUP1 SLOAD DUP7 ADD SWAP1 SSTORE PUSH1 0x8 DUP1 SLOAD SWAP1 SWAP6 ADD SWAP1 SWAP5 SSTORE DUP4 MLOAD DUP8 DUP2 MSTORE TIMESTAMP SWAP2 DUP2 ADD SWAP2 SWAP1 SWAP2 MSTORE DUP4 MLOAD SWAP2 SWAP4 PUSH32 0x91C7D71A3AE3FB7CF61E00517BF4868E9E23D0BACE5E304CBC3B68DE5D85350E SWAP3 SWAP2 DUP3 SWAP1 SUB ADD SWAP1 LOG3 PUSH1 0x1 PUSH1 0x1 PUSH1 0xA0 SHL SUB DUP2 AND PUSH1 0x0 DUP2 DUP2 MSTORE PUSH1 0x15 PUSH1 0x20 DUP2 DUP2 MSTORE PUSH1 0x40 DUP1 DUP5 KECCAK256 DUP1 SLOAD PUSH1 0x14 DUP5 MSTORE SWAP5 DUP3 SWAP1 KECCAK256 SLOAD SWAP4 DUP4 MSTORE PUSH1 0x1 ADD SLOAD DUP2 MLOAD SWAP5 DUP6 MSTORE SWAP2 DUP5 ADD SWAP3 SWAP1 SWAP3 MSTORE DUP3 DUP3 ADD MSTORE TIMESTAMP PUSH1 0x60 DUP4 ADD MSTORE MLOAD PUSH1 0x0 DUP1 MLOAD PUSH1 0x20 PUSH2 0x2319 DUP4 CODECOPY DUP2 MLOAD SWAP2 MSTORE SWAP2 DUP2 SWAP1 SUB PUSH1 0x80 ADD SWAP1 LOG2 PUSH1 0x1 PUSH1 0x1 PUSH1 0xA0 SHL SUB DUP5 AND PUSH1 0x0 DUP2 DUP2 MSTORE PUSH1 0x15 PUSH1 0x20 DUP2 DUP2 MSTORE PUSH1 0x40 DUP1 DUP5 KECCAK256 DUP1 SLOAD PUSH1 0x14 DUP5 MSTORE SWAP5 DUP3 SWAP1 KECCAK256 SLOAD SWAP4 DUP4 MSTORE PUSH1 0x1 ADD SLOAD DUP2 MLOAD SWAP5 DUP6 MSTORE SWAP2 DUP5 ADD SWAP3 SWAP1 SWAP3 MSTORE DUP3 DUP3 ADD MSTORE TIMESTAMP PUSH1 0x60 DUP4 ADD MSTORE MLOAD PUSH1 0x0 DUP1 MLOAD PUSH1 0x20 PUSH2 0x2319 DUP4 CODECOPY DUP2 MLOAD SWAP2 MSTORE SWAP2 DUP2 SWAP1 SUB PUSH1 0x80 ADD SWAP1 LOG2 POP PUSH1 0x1 SWAP4 SWAP3 POP POP POP JUMP JUMPDEST PUSH1 0x0 CALLER DUP2 PUSH2 0x1F22 DUP3 PUSH2 0x9F7 JUMP JUMPDEST PUSH1 0x1 PUSH1 0x1 PUSH1 0xA0 SHL SUB DUP4 AND PUSH1 0x0 SWAP1 DUP2 MSTORE PUSH1 0x13 PUSH1 0x20 MSTORE PUSH1 0x40 DUP2 KECCAK256 DUP1 SLOAD PUSH1 0x1 PUSH1 0x40 SHL DUP5 MUL ADD SWAP1 SSTORE SWAP1 SWAP2 POP PUSH2 0x1F53 CALLER DUP4 PUSH2 0x204B JUMP JUMPDEST PUSH1 0x40 DUP1 MLOAD DUP5 DUP2 MSTORE PUSH1 0x20 DUP2 ADD DUP4 SWAP1 MSTORE TIMESTAMP DUP2 DUP4 ADD MSTORE SWAP1 MLOAD SWAP2 SWAP3 POP PUSH1 0x1 PUSH1 0x1 PUSH1 0xA0 SHL SUB DUP6 AND SWAP2 PUSH32 0x193A876AC91D11A4A0A71EBEF73B195BA55AA7C16D6755C93C21D973E692A02C SWAP2 DUP2 SWAP1 SUB PUSH1 0x60 ADD SWAP1 LOG2 PUSH1 0x1 PUSH1 0x1 PUSH1 0xA0 SHL SUB DUP4 AND PUSH1 0x0 SWAP1 DUP2 MSTORE PUSH1 0x15 PUSH1 0x20 MSTORE PUSH1 0x40 SWAP1 KECCAK256 PUSH1 0x2 ADD SLOAD PUSH2 0x1FC6 SWAP1 DUP4 PUSH2 0x1C4C JUMP JUMPDEST PUSH1 0x1 PUSH1 0x1 PUSH1 0xA0 SHL SUB DUP5 AND PUSH1 0x0 DUP2 DUP2 MSTORE PUSH1 0x15 PUSH1 0x20 DUP2 DUP2 MSTORE PUSH1 0x40 DUP1 DUP5 KECCAK256 PUSH1 0x2 DUP2 ADD SWAP7 SWAP1 SWAP7 SSTORE PUSH1 0x8 DUP7 ADD DUP1 SLOAD PUSH1 0x1 SWAP1 DUP2 ADD SWAP1 SWAP2 SSTORE DUP7 SLOAD PUSH1 0x14 DUP5 MSTORE SWAP5 DUP3 SWAP1 KECCAK256 SLOAD SWAP4 DUP4 MSTORE SWAP1 SWAP6 ADD SLOAD DUP6 MLOAD SWAP4 DUP5 MSTORE SWAP1 DUP4 ADD SWAP2 SWAP1 SWAP2 MSTORE DUP2 DUP5 ADD MSTORE TIMESTAMP PUSH1 0x60 DUP3 ADD MSTORE SWAP2 MLOAD SWAP1 SWAP2 PUSH1 0x0 DUP1 MLOAD PUSH1 0x20 PUSH2 0x2319 DUP4 CODECOPY DUP2 MLOAD SWAP2 MSTORE SWAP2 SWAP1 DUP2 SWAP1 SUB PUSH1 0x80 ADD SWAP1 LOG2 PUSH2 0x2044 PUSH2 0x1B56 JUMP JUMPDEST SWAP3 POP POP POP SWAP1 JUMP JUMPDEST PUSH1 0x1 PUSH1 0x1 PUSH1 0xA0 SHL SUB DUP3 AND PUSH1 0x0 SWAP1 DUP2 MSTORE PUSH1 0x15 PUSH1 0x20 MSTORE PUSH1 0x40 DUP2 KECCAK256 SLOAD ISZERO DUP1 ISZERO PUSH2 0x208A JUMPI POP PUSH1 0x1 PUSH1 0x1 PUSH1 0xA0 SHL SUB DUP4 AND PUSH1 0x0 SWAP1 DUP2 MSTORE PUSH1 0x15 PUSH1 0x20 MSTORE PUSH1 0x40 SWAP1 KECCAK256 PUSH1 0x6 ADD SLOAD ISZERO JUMPDEST ISZERO PUSH2 0x2099 JUMPI PUSH1 0x7 DUP1 SLOAD PUSH1 0x1 ADD SWAP1 SSTORE JUMPDEST PUSH1 0x8 DUP1 SLOAD PUSH1 0x1 ADD SWAP1 SSTORE PUSH1 0x0 PUSH1 0x64 PUSH2 0x20B0 DUP5 DUP4 PUSH2 0x19AB JUMP JUMPDEST DUP2 PUSH2 0x20B7 JUMPI INVALID JUMPDEST DIV SWAP1 POP PUSH1 0x0 PUSH2 0x20C6 DUP5 DUP4 PUSH2 0x1A6B JUMP JUMPDEST PUSH1 0x40 DUP1 MLOAD DUP7 DUP2 MSTORE PUSH1 0x20 DUP2 ADD DUP4 SWAP1 MSTORE TIMESTAMP DUP2 DUP4 ADD MSTORE SWAP1 MLOAD SWAP2 SWAP3 POP PUSH1 0x1 PUSH1 0x1 PUSH1 0xA0 SHL SUB DUP8 AND SWAP2 PUSH32 0xB49BB132260F6AA1C86E2D2A3957C097216E6EC9B5FA15867289F058B4D297AC SWAP2 DUP2 SWAP1 SUB PUSH1 0x60 ADD SWAP1 LOG2 PUSH1 0x0 DUP2 GT DUP1 ISZERO PUSH2 0x212D JUMPI POP PUSH1 0x11 SLOAD PUSH2 0x212B DUP3 DUP3 PUSH2 0x1C4C JUMP JUMPDEST GT JUMPDEST PUSH2 0x2136 JUMPI PUSH1 0x0 DUP1 REVERT JUMPDEST PUSH1 0x11 SLOAD ISZERO PUSH2 0x214B JUMPI PUSH1 0x11 DUP1 SLOAD DUP3 ADD SWAP1 SSTORE PUSH2 0x2151 JUMP JUMPDEST PUSH1 0x11 DUP2 SWAP1 SSTORE JUMPDEST PUSH2 0x215A DUP3 PUSH2 0x1AC8 JUMP JUMPDEST PUSH1 0x1 PUSH1 0x1 PUSH1 0xA0 SHL SUB DUP6 AND PUSH1 0x0 SWAP1 DUP2 MSTORE PUSH1 0x14 PUSH1 0x20 MSTORE PUSH1 0x40 SWAP1 KECCAK256 SLOAD PUSH2 0x217D SWAP1 DUP3 PUSH2 0x1C4C JUMP JUMPDEST PUSH1 0x1 PUSH1 0x1 PUSH1 0xA0 SHL SUB DUP7 AND PUSH1 0x0 SWAP1 DUP2 MSTORE PUSH1 0x14 PUSH1 0x20 SWAP1 DUP2 MSTORE PUSH1 0x40 DUP1 DUP4 KECCAK256 SWAP4 SWAP1 SWAP4 SSTORE PUSH1 0x12 SLOAD PUSH1 0x13 DUP3 MSTORE DUP4 DUP4 KECCAK256 DUP1 SLOAD SWAP2 DUP7 MUL SWAP2 SWAP1 SWAP2 ADD SWAP1 SSTORE PUSH1 0x15 SWAP1 MSTORE KECCAK256 DUP1 SLOAD DUP6 ADD DUP2 SSTORE PUSH1 0x7 ADD DUP1 SLOAD PUSH1 0x1 ADD SWAP1 SSTORE SWAP2 POP POP SWAP3 SWAP2 POP POP JUMP JUMPDEST PUSH1 0x0 DUP3 DUP3 GT ISZERO PUSH2 0x21E1 JUMPI POP PUSH1 0x0 PUSH2 0x106D JUMP JUMPDEST POP DUP1 DUP3 SUB PUSH2 0x106D JUMP JUMPDEST PUSH1 0x40 MLOAD DUP1 PUSH2 0x1C0 ADD PUSH1 0x40 MSTORE DUP1 PUSH1 0xE SWAP1 PUSH1 0x20 DUP3 MUL DUP1 CALLDATASIZE DUP4 CALLDATACOPY POP SWAP2 SWAP3 SWAP2 POP POP JUMP JUMPDEST PUSH1 0x40 MLOAD DUP1 PUSH2 0x1C0 ADD PUSH1 0x40 MSTORE DUP1 PUSH1 0x0 DUP2 MSTORE PUSH1 0x20 ADD PUSH1 0x0 DUP2 MSTORE PUSH1 0x20 ADD PUSH1 0x0 DUP2 MSTORE PUSH1 0x20 ADD PUSH1 0x0 DUP2 MSTORE PUSH1 0x20 ADD PUSH1 0x0 DUP2 MSTORE PUSH1 0x20 ADD PUSH1 0x0 DUP2 MSTORE PUSH1 0x20 ADD PUSH1 0x0 DUP2 MSTORE PUSH1 0x20 ADD PUSH1 0x0 DUP2 MSTORE PUSH1 0x20 ADD PUSH1 0x0 DUP2 MSTORE PUSH1 0x20 ADD PUSH1 0x0 DUP2 MSTORE PUSH1 0x20 ADD PUSH1 0x0 DUP2 MSTORE PUSH1 0x20 ADD PUSH1 0x0 DUP2 MSTORE PUSH1 0x20 ADD PUSH1 0x0 DUP2 MSTORE PUSH1 0x20 ADD PUSH1 0x0 DUP2 MSTORE POP SWAP1 JUMP JUMPDEST DUP3 DUP1 SLOAD DUP3 DUP3 SSTORE SWAP1 PUSH1 0x0 MSTORE PUSH1 0x20 PUSH1 0x0 KECCAK256 SWAP1 DUP2 ADD SWAP3 DUP3 ISZERO PUSH2 0x22CD JUMPI SWAP2 PUSH1 0x20 MUL DUP3 ADD JUMPDEST DUP3 DUP2 GT ISZERO PUSH2 0x22CD JUMPI DUP3 MLOAD DUP3 SLOAD PUSH1 0x1 PUSH1 0x1 PUSH1 0xA0 SHL SUB NOT AND PUSH1 0x1 PUSH1 0x1 PUSH1 0xA0 SHL SUB SWAP1 SWAP2 AND OR DUP3 SSTORE PUSH1 0x20 SWAP1 SWAP3 ADD SWAP2 PUSH1 0x1 SWAP1 SWAP2 ADD SWAP1 PUSH2 0x2298 JUMP JUMPDEST POP PUSH2 0x22D9 SWAP3 SWAP2 POP PUSH2 0x22DD JUMP JUMPDEST POP SWAP1 JUMP JUMPDEST JUMPDEST DUP1 DUP3 GT ISZERO PUSH2 0x22D9 JUMPI PUSH1 0x0 DUP2 SSTORE PUSH1 0x1 ADD PUSH2 0x22DE JUMP INVALID 0x4F PUSH24 0x6E61626C653A206E6577206F776E65722069732074686520 PUSH27 0x65726F206164647265737329F64F6F46C82C5ECFA955FE7D093E63 0xB4 LT PUSH12 0x6DBE5193E00EFD62C7384EF1 PUSH24 0x416464726573733A20756E61626C6520746F2073656E6420 PUSH23 0x616C75652C20726563697069656E74206D617920686176 PUSH6 0x207265766572 PUSH21 0x6564536166654D6174683A206D756C7469706C6963 PUSH2 0x7469 PUSH16 0x6E206F766572666C6F774F776E61626C PUSH6 0x3A2063616C6C PUSH6 0x72206973206E PUSH16 0x7420746865206F776E6572A264697066 PUSH20 0x58221220C4AF3C69537B0D4A49627AA93C92A3F3 PUSH21 0x7D74B27D835ADBE424730631EE0A9764736F6C6343 STOP SMOD DIV STOP CALLER "
		},
		"gasEstimates": {
			"creation": {
				"codeDepositCost": "1838600",
				"executionCost": "infinite",
				"totalCost": "infinite"
			},
			"external": {
				"accountOf(address)": "infinite",
				"balanceOf(address)": "1232",
				"bnbReceiver()": "1082",
				"buyPrice()": "infinite",
				"calculateSharesReceived(uint256)": "613",
				"calculateTokensReceived(uint256)": "1468",
				"checkImmunity(address)": "infinite",
				"compound()": "infinite",
				"dailyEstimate(address)": "infinite",
				"deposit(uint256)": "infinite",
				"depositTo(address,uint256)": "infinite",
				"dividendsOf(address)": "2900",
				"donate(uint256)": "infinite",
				"dripPoolBalance()": "1065",
				"dripRate()": "1168",
				"forDivs()": "1044",
				"forPool()": "1110",
				"harvest()": "infinite",
				"jpeg(uint256)": "2059",
				"lastPayout()": "1131",
				"lastRebaseTime()": "1133",
				"myEarnings()": "2984",
				"myTokens()": "1187",
				"owner()": "1083",
				"payoutFrequency()": "309",
				"rebaseFrequency()": "353",
				"renounceOwnership()": "infinite",
				"requiredBalance()": "1067",
				"sellPrice()": "553",
				"setFeeSplit(uint256,uint256)": "infinite",
				"setImmunityToken(address[])": "infinite",
				"stakingToken()": "1171",
				"tokenAddress()": "1127",
				"tokenBalance(address)": "1062",
				"totalBalance()": "infinite",
				"totalClaims()": "1110",
				"totalDeposits()": "1043",
				"totalSupply()": "1111",
				"totalTxs()": "1066",
				"transfer(address,uint256)": "infinite",
				"transferOwnership(address)": "infinite",
				"users()": "1131",
				"withdraw(uint256)": "infinite"
			},
			"internal": {
				"_compoundTokens()": "infinite",
				"_depositTokens(address,uint256)": "infinite",
				"_transferTokens(address,uint256)": "infinite",
				"allocateFees(uint256)": "infinite",
				"distribute()": "infinite"
			}
		},
		"methodIdentifiers": {
			"accountOf(address)": "8086b8ba",
			"balanceOf(address)": "70a08231",
			"bnbReceiver()": "d7c3771d",
			"buyPrice()": "8620410b",
			"calculateSharesReceived(uint256)": "e02e1e9c",
			"calculateTokensReceived(uint256)": "10d0ffdd",
			"checkImmunity(address)": "36599ead",
			"compound()": "f69e2046",
			"dailyEstimate(address)": "fbaf1bbd",
			"deposit(uint256)": "b6b55f25",
			"depositTo(address,uint256)": "ffaad6a5",
			"dividendsOf(address)": "0065318b",
			"donate(uint256)": "f14faf6f",
			"dripPoolBalance()": "aecb6d28",
			"dripRate()": "d3261592",
			"forDivs()": "1f38b9cd",
			"forPool()": "a01496de",
			"harvest()": "4641257d",
			"jpeg(uint256)": "b03cf5a7",
			"lastPayout()": "b9db102a",
			"lastRebaseTime()": "1924063e",
			"myEarnings()": "ffe6bbd8",
			"myTokens()": "949e8acd",
			"owner()": "8da5cb5b",
			"payoutFrequency()": "81fce645",
			"rebaseFrequency()": "89375abf",
			"renounceOwnership()": "715018a6",
			"requiredBalance()": "08560ace",
			"sellPrice()": "4b750334",
			"setFeeSplit(uint256,uint256)": "7e6335c7",
			"setImmunityToken(address[])": "f6db0da0",
			"stakingToken()": "72f702f3",
			"tokenAddress()": "9d76ea58",
			"tokenBalance(address)": "eedc966a",
			"totalBalance()": "ad7a672f",
			"totalClaims()": "41c61383",
			"totalDeposits()": "7d882097",
			"totalSupply()": "18160ddd",
			"totalTxs()": "537a39bb",
			"transfer(address,uint256)": "a9059cbb",
			"transferOwnership(address)": "f2fde38b",
			"users()": "f2020275",
			"withdraw(uint256)": "2e1a7d4d"
		}
	},
	"abi": [
		{
			"inputs": [
				{
					"internalType": "address",
					"name": "_tokenAddress",
					"type": "address"
				},
				{
					"internalType": "uint8",
					"name": "_dripRate",
					"type": "uint8"
				}
			],
			"stateMutability": "nonpayable",
			"type": "constructor"
		},
		{
			"anonymous": false,
			"inputs": [
				{
					"indexed": true,
					"internalType": "address",
					"name": "previousOwner",
					"type": "address"
				},
				{
					"indexed": true,
					"internalType": "address",
					"name": "newOwner",
					"type": "address"
				}
			],
			"name": "OwnershipTransferred",
			"type": "event"
		},
		{
			"anonymous": false,
			"inputs": [
				{
					"indexed": true,
					"internalType": "address",
					"name": "_user",
					"type": "address"
				},
				{
					"indexed": false,
					"internalType": "uint256",
					"name": "_compounded",
					"type": "uint256"
				},
				{
					"indexed": false,
					"internalType": "uint256",
					"name": "tokensMinted",
					"type": "uint256"
				},
				{
					"indexed": false,
					"internalType": "uint256",
					"name": "timestamp",
					"type": "uint256"
				}
			],
			"name": "onCompound",
			"type": "event"
		},
		{
			"anonymous": false,
			"inputs": [
				{
					"indexed": true,
					"internalType": "address",
					"name": "_user",
					"type": "address"
				},
				{
					"indexed": false,
					"internalType": "uint256",
					"name": "_deposited",
					"type": "uint256"
				},
				{
					"indexed": false,
					"internalType": "uint256",
					"name": "tokensMinted",
					"type": "uint256"
				},
				{
					"indexed": false,
					"internalType": "uint256",
					"name": "timestamp",
					"type": "uint256"
				}
			],
			"name": "onDeposit",
			"type": "event"
		},
		{
			"anonymous": false,
			"inputs": [
				{
					"indexed": true,
					"internalType": "address",
					"name": "from",
					"type": "address"
				},
				{
					"indexed": false,
					"internalType": "uint256",
					"name": "_contributed",
					"type": "uint256"
				},
				{
					"indexed": false,
					"internalType": "uint256",
					"name": "timestamp",
					"type": "uint256"
				}
			],
			"name": "onDonate",
			"type": "event"
		},
		{
			"anonymous": false,
			"inputs": [
				{
					"indexed": true,
					"internalType": "address",
					"name": "from",
					"type": "address"
				},
				{
					"indexed": false,
					"internalType": "uint256",
					"name": "amount",
					"type": "uint256"
				},
				{
					"indexed": false,
					"internalType": "uint256",
					"name": "timestamp",
					"type": "uint256"
				}
			],
			"name": "onDonateBNB",
			"type": "event"
		},
		{
			"anonymous": false,
			"inputs": [
				{
					"indexed": false,
					"internalType": "uint256",
					"name": "balance",
					"type": "uint256"
				},
				{
					"indexed": false,
					"internalType": "uint256",
					"name": "timestamp",
					"type": "uint256"
				}
			],
			"name": "onRebase",
			"type": "event"
		},
		{
			"anonymous": false,
			"inputs": [
				{
					"indexed": false,
					"internalType": "uint256",
					"name": "_pool",
					"type": "uint256"
				},
				{
					"indexed": false,
					"internalType": "uint256",
					"name": "_divs",
					"type": "uint256"
				},
				{
					"indexed": false,
					"internalType": "uint256",
					"name": "timestamp",
					"type": "uint256"
				}
			],
			"name": "onSetFeeSplit",
			"type": "event"
		},
		{
			"anonymous": false,
			"inputs": [
				{
					"indexed": true,
					"internalType": "address",
					"name": "_caller",
					"type": "address"
				},
				{
					"indexed": false,
					"internalType": "contract IERC721[]",
					"name": "oldOne",
					"type": "address[]"
				},
				{
					"indexed": false,
					"internalType": "contract IERC721[]",
					"name": "newOne",
					"type": "address[]"
				},
				{
					"indexed": false,
					"internalType": "uint256",
					"name": "timestamp",
					"type": "uint256"
				}
			],
			"name": "onSetImmunityToken",
			"type": "event"
		},
		{
			"anonymous": false,
			"inputs": [
				{
					"indexed": true,
					"internalType": "address",
					"name": "from",
					"type": "address"
				},
				{
					"indexed": true,
					"internalType": "address",
					"name": "to",
					"type": "address"
				},
				{
					"indexed": false,
					"internalType": "uint256",
					"name": "tokens",
					"type": "uint256"
				},
				{
					"indexed": false,
					"internalType": "uint256",
					"name": "timestamp",
					"type": "uint256"
				}
			],
			"name": "onTransfer",
			"type": "event"
		},
		{
			"anonymous": false,
			"inputs": [
				{
					"indexed": true,
					"internalType": "address",
					"name": "_user",
					"type": "address"
				},
				{
					"indexed": false,
					"internalType": "uint256",
					"name": "invested",
					"type": "uint256"
				},
				{
					"indexed": false,
					"internalType": "uint256",
					"name": "tokens",
					"type": "uint256"
				},
				{
					"indexed": false,
					"internalType": "uint256",
					"name": "soldTokens",
					"type": "uint256"
				},
				{
					"indexed": false,
					"internalType": "uint256",
					"name": "timestamp",
					"type": "uint256"
				}
			],
			"name": "onUpdate",
			"type": "event"
		},
		{
			"anonymous": false,
			"inputs": [
				{
					"indexed": true,
					"internalType": "address",
					"name": "_user",
					"type": "address"
				},
				{
					"indexed": false,
					"internalType": "uint256",
					"name": "_liquidated",
					"type": "uint256"
				},
				{
					"indexed": false,
					"internalType": "uint256",
					"name": "tokensEarned",
					"type": "uint256"
				},
				{
					"indexed": false,
					"internalType": "uint256",
					"name": "timestamp",
					"type": "uint256"
				}
			],
			"name": "onWithdraw",
			"type": "event"
		},
		{
			"anonymous": false,
			"inputs": [
				{
					"indexed": true,
					"internalType": "address",
					"name": "_user",
					"type": "address"
				},
				{
					"indexed": false,
					"internalType": "uint256",
					"name": "_withdrawn",
					"type": "uint256"
				},
				{
					"indexed": false,
					"internalType": "uint256",
					"name": "timestamp",
					"type": "uint256"
				}
			],
			"name": "onWithdraw",
			"type": "event"
		},
		{
			"inputs": [
				{
					"internalType": "address",
					"name": "_user",
					"type": "address"
				}
			],
			"name": "accountOf",
			"outputs": [
				{
					"internalType": "uint256[14]",
					"name": "",
					"type": "uint256[14]"
				}
			],
			"stateMutability": "view",
			"type": "function"
		},
		{
			"inputs": [
				{
					"internalType": "address",
					"name": "_user",
					"type": "address"
				}
			],
			"name": "balanceOf",
			"outputs": [
				{
					"internalType": "uint256",
					"name": "",
					"type": "uint256"
				}
			],
			"stateMutability": "view",
			"type": "function"
		},
		{
			"inputs": [],
			"name": "bnbReceiver",
			"outputs": [
				{
					"internalType": "address payable",
					"name": "",
					"type": "address"
				}
			],
			"stateMutability": "view",
			"type": "function"
		},
		{
			"inputs": [],
			"name": "buyPrice",
			"outputs": [
				{
					"internalType": "uint256",
					"name": "",
					"type": "uint256"
				}
			],
			"stateMutability": "pure",
			"type": "function"
		},
		{
			"inputs": [
				{
					"internalType": "uint256",
					"name": "_amount",
					"type": "uint256"
				}
			],
			"name": "calculateSharesReceived",
			"outputs": [
				{
					"internalType": "uint256",
					"name": "",
					"type": "uint256"
				}
			],
			"stateMutability": "pure",
			"type": "function"
		},
		{
			"inputs": [
				{
					"internalType": "uint256",
					"name": "_amount",
					"type": "uint256"
				}
			],
			"name": "calculateTokensReceived",
			"outputs": [
				{
					"internalType": "uint256",
					"name": "",
					"type": "uint256"
				}
			],
			"stateMutability": "view",
			"type": "function"
		},
		{
			"inputs": [
				{
					"internalType": "address",
					"name": "_user",
					"type": "address"
				}
			],
			"name": "checkImmunity",
			"outputs": [
				{
					"internalType": "bool",
					"name": "isImmune",
					"type": "bool"
				}
			],
			"stateMutability": "view",
			"type": "function"
		},
		{
			"inputs": [],
			"name": "compound",
			"outputs": [],
			"stateMutability": "nonpayable",
			"type": "function"
		},
		{
			"inputs": [
				{
					"internalType": "address",
					"name": "_user",
					"type": "address"
				}
			],
			"name": "dailyEstimate",
			"outputs": [
				{
					"internalType": "uint256",
					"name": "",
					"type": "uint256"
				}
			],
			"stateMutability": "view",
			"type": "function"
		},
		{
			"inputs": [
				{
					"internalType": "uint256",
					"name": "_amount",
					"type": "uint256"
				}
			],
			"name": "deposit",
			"outputs": [
				{
					"internalType": "uint256",
					"name": "",
					"type": "uint256"
				}
			],
			"stateMutability": "nonpayable",
			"type": "function"
		},
		{
			"inputs": [
				{
					"internalType": "address",
					"name": "_user",
					"type": "address"
				},
				{
					"internalType": "uint256",
					"name": "_amount",
					"type": "uint256"
				}
			],
			"name": "depositTo",
			"outputs": [
				{
					"internalType": "uint256",
					"name": "",
					"type": "uint256"
				}
			],
			"stateMutability": "nonpayable",
			"type": "function"
		},
		{
			"inputs": [
				{
					"internalType": "address",
					"name": "_user",
					"type": "address"
				}
			],
			"name": "dividendsOf",
			"outputs": [
				{
					"internalType": "uint256",
					"name": "",
					"type": "uint256"
				}
			],
			"stateMutability": "view",
			"type": "function"
		},
		{
			"inputs": [
				{
					"internalType": "uint256",
					"name": "_amount",
					"type": "uint256"
				}
			],
			"name": "donate",
			"outputs": [
				{
					"internalType": "uint256",
					"name": "",
					"type": "uint256"
				}
			],
			"stateMutability": "nonpayable",
			"type": "function"
		},
		{
			"inputs": [],
			"name": "dripPoolBalance",
			"outputs": [
				{
					"internalType": "uint256",
					"name": "",
					"type": "uint256"
				}
			],
			"stateMutability": "view",
			"type": "function"
		},
		{
			"inputs": [],
			"name": "dripRate",
			"outputs": [
				{
					"internalType": "uint8",
					"name": "",
					"type": "uint8"
				}
			],
			"stateMutability": "view",
			"type": "function"
		},
		{
			"inputs": [],
			"name": "forDivs",
			"outputs": [
				{
					"internalType": "uint256",
					"name": "",
					"type": "uint256"
				}
			],
			"stateMutability": "view",
			"type": "function"
		},
		{
			"inputs": [],
			"name": "forPool",
			"outputs": [
				{
					"internalType": "uint256",
					"name": "",
					"type": "uint256"
				}
			],
			"stateMutability": "view",
			"type": "function"
		},
		{
			"inputs": [],
			"name": "harvest",
			"outputs": [],
			"stateMutability": "nonpayable",
			"type": "function"
		},
		{
			"inputs": [
				{
					"internalType": "uint256",
					"name": "",
					"type": "uint256"
				}
			],
			"name": "jpeg",
			"outputs": [
				{
					"internalType": "contract IERC721",
					"name": "",
					"type": "address"
				}
			],
			"stateMutability": "view",
			"type": "function"
		},
		{
			"inputs": [],
			"name": "lastPayout",
			"outputs": [
				{
					"internalType": "uint256",
					"name": "",
					"type": "uint256"
				}
			],
			"stateMutability": "view",
			"type": "function"
		},
		{
			"inputs": [],
			"name": "lastRebaseTime",
			"outputs": [
				{
					"internalType": "uint256",
					"name": "",
					"type": "uint256"
				}
			],
			"stateMutability": "view",
			"type": "function"
		},
		{
			"inputs": [],
			"name": "myEarnings",
			"outputs": [
				{
					"internalType": "uint256",
					"name": "",
					"type": "uint256"
				}
			],
			"stateMutability": "view",
			"type": "function"
		},
		{
			"inputs": [],
			"name": "myTokens",
			"outputs": [
				{
					"internalType": "uint256",
					"name": "",
					"type": "uint256"
				}
			],
			"stateMutability": "view",
			"type": "function"
		},
		{
			"inputs": [],
			"name": "owner",
			"outputs": [
				{
					"internalType": "address",
					"name": "",
					"type": "address"
				}
			],
			"stateMutability": "view",
			"type": "function"
		},
		{
			"inputs": [],
			"name": "payoutFrequency",
			"outputs": [
				{
					"internalType": "uint256",
					"name": "",
					"type": "uint256"
				}
			],
			"stateMutability": "view",
			"type": "function"
		},
		{
			"inputs": [],
			"name": "rebaseFrequency",
			"outputs": [
				{
					"internalType": "uint256",
					"name": "",
					"type": "uint256"
				}
			],
			"stateMutability": "view",
			"type": "function"
		},
		{
			"inputs": [],
			"name": "renounceOwnership",
			"outputs": [],
			"stateMutability": "nonpayable",
			"type": "function"
		},
		{
			"inputs": [],
			"name": "requiredBalance",
			"outputs": [
				{
					"internalType": "uint256",
					"name": "",
					"type": "uint256"
				}
			],
			"stateMutability": "view",
			"type": "function"
		},
		{
			"inputs": [],
			"name": "sellPrice",
			"outputs": [
				{
					"internalType": "uint256",
					"name": "",
					"type": "uint256"
				}
			],
			"stateMutability": "pure",
			"type": "function"
		},
		{
			"inputs": [
				{
					"internalType": "uint256",
					"name": "_pool",
					"type": "uint256"
				},
				{
					"internalType": "uint256",
					"name": "_divs",
					"type": "uint256"
				}
			],
			"name": "setFeeSplit",
			"outputs": [
				{
					"internalType": "bool",
					"name": "_success",
					"type": "bool"
				}
			],
			"stateMutability": "nonpayable",
			"type": "function"
		},
		{
			"inputs": [
				{
					"internalType": "contract IERC721[]",
					"name": "_contract",
					"type": "address[]"
				}
			],
			"name": "setImmunityToken",
			"outputs": [
				{
					"internalType": "bool",
					"name": "_success",
					"type": "bool"
				}
			],
			"stateMutability": "nonpayable",
			"type": "function"
		},
		{
			"inputs": [],
			"name": "stakingToken",
			"outputs": [
				{
					"internalType": "contract IERC20",
					"name": "",
					"type": "address"
				}
			],
			"stateMutability": "view",
			"type": "function"
		},
		{
			"inputs": [],
			"name": "tokenAddress",
			"outputs": [
				{
					"internalType": "address",
					"name": "",
					"type": "address"
				}
			],
			"stateMutability": "view",
			"type": "function"
		},
		{
			"inputs": [
				{
					"internalType": "address",
					"name": "_user",
					"type": "address"
				}
			],
			"name": "tokenBalance",
			"outputs": [
				{
					"internalType": "uint256",
					"name": "",
					"type": "uint256"
				}
			],
			"stateMutability": "view",
			"type": "function"
		},
		{
			"inputs": [],
			"name": "totalBalance",
			"outputs": [
				{
					"internalType": "uint256",
					"name": "",
					"type": "uint256"
				}
			],
			"stateMutability": "view",
			"type": "function"
		},
		{
			"inputs": [],
			"name": "totalClaims",
			"outputs": [
				{
					"internalType": "uint256",
					"name": "",
					"type": "uint256"
				}
			],
			"stateMutability": "view",
			"type": "function"
		},
		{
			"inputs": [],
			"name": "totalDeposits",
			"outputs": [
				{
					"internalType": "uint256",
					"name": "",
					"type": "uint256"
				}
			],
			"stateMutability": "view",
			"type": "function"
		},
		{
			"inputs": [],
			"name": "totalSupply",
			"outputs": [
				{
					"internalType": "uint256",
					"name": "",
					"type": "uint256"
				}
			],
			"stateMutability": "view",
			"type": "function"
		},
		{
			"inputs": [],
			"name": "totalTxs",
			"outputs": [
				{
					"internalType": "uint256",
					"name": "",
					"type": "uint256"
				}
			],
			"stateMutability": "view",
			"type": "function"
		},
		{
			"inputs": [
				{
					"internalType": "address",
					"name": "_to",
					"type": "address"
				},
				{
					"internalType": "uint256",
					"name": "_amount",
					"type": "uint256"
				}
			],
			"name": "transfer",
			"outputs": [
				{
					"internalType": "bool",
					"name": "",
					"type": "bool"
				}
			],
			"stateMutability": "nonpayable",
			"type": "function"
		},
		{
			"inputs": [
				{
					"internalType": "address",
					"name": "newOwner",
					"type": "address"
				}
			],
			"name": "transferOwnership",
			"outputs": [],
			"stateMutability": "nonpayable",
			"type": "function"
		},
		{
			"inputs": [],
			"name": "users",
			"outputs": [
				{
					"internalType": "uint256",
					"name": "",
					"type": "uint256"
				}
			],
			"stateMutability": "view",
			"type": "function"
		},
		{
			"inputs": [
				{
					"internalType": "uint256",
					"name": "_amount",
					"type": "uint256"
				}
			],
			"name": "withdraw",
			"outputs": [],
			"stateMutability": "nonpayable",
			"type": "function"
		},
		{
			"stateMutability": "payable",
			"type": "receive"
		}
	]
}