{
  "contractName": "DripVault",
  "abi": [
    {
      "inputs": [
        {
          "internalType": "address",
          "name": "_tokenAddress",
          "type": "address"
        },
        {
          "internalType": "uint8",
          "name": "_dripRate",
          "type": "uint8"
        }
      ],
      "stateMutability": "nonpayable",
      "type": "constructor"
    },
    {
      "anonymous": false,
      "inputs": [
        {
          "indexed": true,
          "internalType": "address",
          "name": "previousOwner",
          "type": "address"
        },
        {
          "indexed": true,
          "internalType": "address",
          "name": "newOwner",
          "type": "address"
        }
      ],
      "name": "OwnershipTransferred",
      "type": "event"
    },
    {
      "anonymous": false,
      "inputs": [
        {
          "indexed": true,
          "internalType": "address",
          "name": "_user",
          "type": "address"
        },
        {
          "indexed": false,
          "internalType": "uint256",
          "name": "_compounded",
          "type": "uint256"
        },
        {
          "indexed": false,
          "internalType": "uint256",
          "name": "tokensMinted",
          "type": "uint256"
        },
        {
          "indexed": false,
          "internalType": "uint256",
          "name": "timestamp",
          "type": "uint256"
        }
      ],
      "name": "onCompound",
      "type": "event"
    },
    {
      "anonymous": false,
      "inputs": [
        {
          "indexed": true,
          "internalType": "address",
          "name": "_user",
          "type": "address"
        },
        {
          "indexed": false,
          "internalType": "uint256",
          "name": "_deposited",
          "type": "uint256"
        },
        {
          "indexed": false,
          "internalType": "uint256",
          "name": "tokensMinted",
          "type": "uint256"
        },
        {
          "indexed": false,
          "internalType": "uint256",
          "name": "timestamp",
          "type": "uint256"
        }
      ],
      "name": "onDeposit",
      "type": "event"
    },
    {
      "anonymous": false,
      "inputs": [
        {
          "indexed": true,
          "internalType": "address",
          "name": "from",
          "type": "address"
        },
        {
          "indexed": false,
          "internalType": "uint256",
          "name": "amount",
          "type": "uint256"
        },
        {
          "indexed": false,
          "internalType": "uint256",
          "name": "timestamp",
          "type": "uint256"
        }
      ],
      "name": "onDonate",
      "type": "event"
    },
    {
      "anonymous": false,
      "inputs": [
        {
          "indexed": true,
          "internalType": "address",
          "name": "from",
          "type": "address"
        },
        {
          "indexed": false,
          "internalType": "uint256",
          "name": "amount",
          "type": "uint256"
        },
        {
          "indexed": false,
          "internalType": "uint256",
          "name": "timestamp",
          "type": "uint256"
        }
      ],
      "name": "onDonateBNB",
      "type": "event"
    },
    {
      "anonymous": false,
      "inputs": [
        {
          "indexed": false,
          "internalType": "uint256",
          "name": "balance",
          "type": "uint256"
        },
        {
          "indexed": false,
          "internalType": "uint256",
          "name": "timestamp",
          "type": "uint256"
        }
      ],
      "name": "onRebase",
      "type": "event"
    },
    {
      "anonymous": false,
      "inputs": [
        {
          "indexed": false,
          "internalType": "uint256",
          "name": "_pool",
          "type": "uint256"
        },
        {
          "indexed": false,
          "internalType": "uint256",
          "name": "_divs",
          "type": "uint256"
        },
        {
          "indexed": false,
          "internalType": "uint256",
          "name": "timestamp",
          "type": "uint256"
        }
      ],
      "name": "onSetFeeSplit",
      "type": "event"
    },
    {
      "anonymous": false,
      "inputs": [
        {
          "indexed": true,
          "internalType": "address",
          "name": "_caller",
          "type": "address"
        },
        {
          "indexed": false,
          "internalType": "address",
          "name": "oldOne",
          "type": "address"
        },
        {
          "indexed": false,
          "internalType": "address",
          "name": "newOne",
          "type": "address"
        },
        {
          "indexed": false,
          "internalType": "uint256",
          "name": "timestamp",
          "type": "uint256"
        }
      ],
      "name": "onSetImmunityToken",
      "type": "event"
    },
    {
      "anonymous": false,
      "inputs": [
        {
          "indexed": true,
          "internalType": "address",
          "name": "from",
          "type": "address"
        },
        {
          "indexed": true,
          "internalType": "address",
          "name": "to",
          "type": "address"
        },
        {
          "indexed": false,
          "internalType": "uint256",
          "name": "tokens",
          "type": "uint256"
        },
        {
          "indexed": false,
          "internalType": "uint256",
          "name": "timestamp",
          "type": "uint256"
        }
      ],
      "name": "onTransfer",
      "type": "event"
    },
    {
      "anonymous": false,
      "inputs": [
        {
          "indexed": true,
          "internalType": "address",
          "name": "_user",
          "type": "address"
        },
        {
          "indexed": false,
          "internalType": "uint256",
          "name": "invested",
          "type": "uint256"
        },
        {
          "indexed": false,
          "internalType": "uint256",
          "name": "tokens",
          "type": "uint256"
        },
        {
          "indexed": false,
          "internalType": "uint256",
          "name": "soldTokens",
          "type": "uint256"
        },
        {
          "indexed": false,
          "internalType": "uint256",
          "name": "timestamp",
          "type": "uint256"
        }
      ],
      "name": "onUpdate",
      "type": "event"
    },
    {
      "anonymous": false,
      "inputs": [
        {
          "indexed": true,
          "internalType": "address",
          "name": "_user",
          "type": "address"
        },
        {
          "indexed": false,
          "internalType": "uint256",
          "name": "_liquidated",
          "type": "uint256"
        },
        {
          "indexed": false,
          "internalType": "uint256",
          "name": "tokensEarned",
          "type": "uint256"
        },
        {
          "indexed": false,
          "internalType": "uint256",
          "name": "timestamp",
          "type": "uint256"
        }
      ],
      "name": "onWithdraw",
      "type": "event"
    },
    {
      "anonymous": false,
      "inputs": [
        {
          "indexed": true,
          "internalType": "address",
          "name": "_user",
          "type": "address"
        },
        {
          "indexed": false,
          "internalType": "uint256",
          "name": "_withdrawn",
          "type": "uint256"
        },
        {
          "indexed": false,
          "internalType": "uint256",
          "name": "timestamp",
          "type": "uint256"
        }
      ],
      "name": "onWithdraw",
      "type": "event"
    },
    {
      "inputs": [],
      "name": "bnbReceiver",
      "outputs": [
        {
          "internalType": "address payable",
          "name": "",
          "type": "address"
        }
      ],
      "stateMutability": "view",
      "type": "function"
    },
    {
      "inputs": [],
      "name": "buybackToken",
      "outputs": [
        {
          "internalType": "contract IERC20",
          "name": "",
          "type": "address"
        }
      ],
      "stateMutability": "view",
      "type": "function"
    },
    {
      "inputs": [],
      "name": "dripPoolBalance",
      "outputs": [
        {
          "internalType": "uint256",
          "name": "",
          "type": "uint256"
        }
      ],
      "stateMutability": "view",
      "type": "function"
    },
    {
      "inputs": [],
      "name": "dripRate",
      "outputs": [
        {
          "internalType": "uint8",
          "name": "",
          "type": "uint8"
        }
      ],
      "stateMutability": "view",
      "type": "function"
    },
    {
      "inputs": [],
      "name": "forDivs",
      "outputs": [
        {
          "internalType": "uint256",
          "name": "",
          "type": "uint256"
        }
      ],
      "stateMutability": "view",
      "type": "function"
    },
    {
      "inputs": [],
      "name": "forPool",
      "outputs": [
        {
          "internalType": "uint256",
          "name": "",
          "type": "uint256"
        }
      ],
      "stateMutability": "view",
      "type": "function"
    },
    {
      "inputs": [],
      "name": "getUnlockTime",
      "outputs": [
        {
          "internalType": "uint256",
          "name": "",
          "type": "uint256"
        }
      ],
      "stateMutability": "view",
      "type": "function"
    },
    {
      "inputs": [],
      "name": "jpeg",
      "outputs": [
        {
          "internalType": "contract IERC721",
          "name": "",
          "type": "address"
        }
      ],
      "stateMutability": "view",
      "type": "function"
    },
    {
      "inputs": [],
      "name": "lastPayout",
      "outputs": [
        {
          "internalType": "uint256",
          "name": "",
          "type": "uint256"
        }
      ],
      "stateMutability": "view",
      "type": "function"
    },
    {
      "inputs": [],
      "name": "lastRebaseTime",
      "outputs": [
        {
          "internalType": "uint256",
          "name": "",
          "type": "uint256"
        }
      ],
      "stateMutability": "view",
      "type": "function"
    },
    {
      "inputs": [
        {
          "internalType": "uint256",
          "name": "time",
          "type": "uint256"
        }
      ],
      "name": "lock",
      "outputs": [],
      "stateMutability": "nonpayable",
      "type": "function"
    },
    {
      "inputs": [],
      "name": "owner",
      "outputs": [
        {
          "internalType": "address",
          "name": "",
          "type": "address"
        }
      ],
      "stateMutability": "view",
      "type": "function"
    },
    {
      "inputs": [],
      "name": "payoutFrequency",
      "outputs": [
        {
          "internalType": "uint256",
          "name": "",
          "type": "uint256"
        }
      ],
      "stateMutability": "view",
      "type": "function"
    },
    {
      "inputs": [],
      "name": "rebaseFrequency",
      "outputs": [
        {
          "internalType": "uint256",
          "name": "",
          "type": "uint256"
        }
      ],
      "stateMutability": "view",
      "type": "function"
    },
    {
      "inputs": [],
      "name": "renounceOwnership",
      "outputs": [],
      "stateMutability": "nonpayable",
      "type": "function"
    },
    {
      "inputs": [],
      "name": "requiredBalance",
      "outputs": [
        {
          "internalType": "uint256",
          "name": "",
          "type": "uint256"
        }
      ],
      "stateMutability": "view",
      "type": "function"
    },
    {
      "inputs": [],
      "name": "stakingToken",
      "outputs": [
        {
          "internalType": "contract IERC20",
          "name": "",
          "type": "address"
        }
      ],
      "stateMutability": "view",
      "type": "function"
    },
    {
      "inputs": [],
      "name": "tokenAddress",
      "outputs": [
        {
          "internalType": "address",
          "name": "",
          "type": "address"
        }
      ],
      "stateMutability": "view",
      "type": "function"
    },
    {
      "inputs": [],
      "name": "tokenUniswapV2Router",
      "outputs": [
        {
          "internalType": "contract IPancakeRouter01",
          "name": "",
          "type": "address"
        }
      ],
      "stateMutability": "view",
      "type": "function"
    },
    {
      "inputs": [],
      "name": "totalClaims",
      "outputs": [
        {
          "internalType": "uint256",
          "name": "",
          "type": "uint256"
        }
      ],
      "stateMutability": "view",
      "type": "function"
    },
    {
      "inputs": [],
      "name": "totalDeposits",
      "outputs": [
        {
          "internalType": "uint256",
          "name": "",
          "type": "uint256"
        }
      ],
      "stateMutability": "view",
      "type": "function"
    },
    {
      "inputs": [],
      "name": "totalTxs",
      "outputs": [
        {
          "internalType": "uint256",
          "name": "",
          "type": "uint256"
        }
      ],
      "stateMutability": "view",
      "type": "function"
    },
    {
      "inputs": [
        {
          "internalType": "address",
          "name": "newOwner",
          "type": "address"
        }
      ],
      "name": "transferOwnership",
      "outputs": [],
      "stateMutability": "nonpayable",
      "type": "function"
    },
    {
      "inputs": [],
      "name": "uniswapV2Router",
      "outputs": [
        {
          "internalType": "contract IPancakeRouter01",
          "name": "",
          "type": "address"
        }
      ],
      "stateMutability": "view",
      "type": "function"
    },
    {
      "inputs": [],
      "name": "unlock",
      "outputs": [],
      "stateMutability": "nonpayable",
      "type": "function"
    },
    {
      "inputs": [],
      "name": "users",
      "outputs": [
        {
          "internalType": "uint256",
          "name": "",
          "type": "uint256"
        }
      ],
      "stateMutability": "view",
      "type": "function"
    },
    {
      "inputs": [],
      "name": "wbnb",
      "outputs": [
        {
          "internalType": "contract IERC20",
          "name": "",
          "type": "address"
        }
      ],
      "stateMutability": "view",
      "type": "function"
    },
    {
      "stateMutability": "payable",
      "type": "receive"
    },
    {
      "inputs": [
        {
          "internalType": "uint256",
          "name": "_amount",
          "type": "uint256"
        }
      ],
      "name": "donate",
      "outputs": [
        {
          "internalType": "uint256",
          "name": "",
          "type": "uint256"
        }
      ],
      "stateMutability": "nonpayable",
      "type": "function"
    },
    {
      "inputs": [
        {
          "internalType": "uint256",
          "name": "_amount",
          "type": "uint256"
        }
      ],
      "name": "deposit",
      "outputs": [
        {
          "internalType": "uint256",
          "name": "",
          "type": "uint256"
        }
      ],
      "stateMutability": "nonpayable",
      "type": "function"
    },
    {
      "inputs": [
        {
          "internalType": "address",
          "name": "_user",
          "type": "address"
        },
        {
          "internalType": "uint256",
          "name": "_amount",
          "type": "uint256"
        }
      ],
      "name": "depositTo",
      "outputs": [
        {
          "internalType": "uint256",
          "name": "",
          "type": "uint256"
        }
      ],
      "stateMutability": "nonpayable",
      "type": "function"
    },
    {
      "inputs": [],
      "name": "compound",
      "outputs": [],
      "stateMutability": "nonpayable",
      "type": "function"
    },
    {
      "inputs": [],
      "name": "harvest",
      "outputs": [],
      "stateMutability": "nonpayable",
      "type": "function"
    },
    {
      "inputs": [
        {
          "internalType": "uint256",
          "name": "_amount",
          "type": "uint256"
        }
      ],
      "name": "withdraw",
      "outputs": [],
      "stateMutability": "nonpayable",
      "type": "function"
    },
    {
      "inputs": [
        {
          "internalType": "address",
          "name": "_to",
          "type": "address"
        },
        {
          "internalType": "uint256",
          "name": "_amount",
          "type": "uint256"
        }
      ],
      "name": "transfer",
      "outputs": [
        {
          "internalType": "bool",
          "name": "",
          "type": "bool"
        }
      ],
      "stateMutability": "nonpayable",
      "type": "function"
    },
    {
      "inputs": [
        {
          "internalType": "address",
          "name": "_user",
          "type": "address"
        }
      ],
      "name": "checkImmunity",
      "outputs": [
        {
          "internalType": "bool",
          "name": "_isImmune",
          "type": "bool"
        }
      ],
      "stateMutability": "view",
      "type": "function"
    },
    {
      "inputs": [],
      "name": "myTokens",
      "outputs": [
        {
          "internalType": "uint256",
          "name": "",
          "type": "uint256"
        }
      ],
      "stateMutability": "view",
      "type": "function"
    },
    {
      "inputs": [],
      "name": "myEarnings",
      "outputs": [
        {
          "internalType": "uint256",
          "name": "",
          "type": "uint256"
        }
      ],
      "stateMutability": "view",
      "type": "function"
    },
    {
      "inputs": [
        {
          "internalType": "address",
          "name": "_user",
          "type": "address"
        }
      ],
      "name": "balanceOf",
      "outputs": [
        {
          "internalType": "uint256",
          "name": "",
          "type": "uint256"
        }
      ],
      "stateMutability": "view",
      "type": "function"
    },
    {
      "inputs": [
        {
          "internalType": "address",
          "name": "_user",
          "type": "address"
        }
      ],
      "name": "tokenBalance",
      "outputs": [
        {
          "internalType": "uint256",
          "name": "",
          "type": "uint256"
        }
      ],
      "stateMutability": "view",
      "type": "function"
    },
    {
      "inputs": [],
      "name": "totalBalance",
      "outputs": [
        {
          "internalType": "uint256",
          "name": "",
          "type": "uint256"
        }
      ],
      "stateMutability": "view",
      "type": "function"
    },
    {
      "inputs": [],
      "name": "totalSupply",
      "outputs": [
        {
          "internalType": "uint256",
          "name": "",
          "type": "uint256"
        }
      ],
      "stateMutability": "view",
      "type": "function"
    },
    {
      "inputs": [
        {
          "internalType": "address",
          "name": "_user",
          "type": "address"
        }
      ],
      "name": "dividendsOf",
      "outputs": [
        {
          "internalType": "uint256",
          "name": "",
          "type": "uint256"
        }
      ],
      "stateMutability": "view",
      "type": "function"
    },
    {
      "inputs": [],
      "name": "sellPrice",
      "outputs": [
        {
          "internalType": "uint256",
          "name": "",
          "type": "uint256"
        }
      ],
      "stateMutability": "pure",
      "type": "function"
    },
    {
      "inputs": [],
      "name": "buyPrice",
      "outputs": [
        {
          "internalType": "uint256",
          "name": "",
          "type": "uint256"
        }
      ],
      "stateMutability": "pure",
      "type": "function"
    },
    {
      "inputs": [
        {
          "internalType": "uint256",
          "name": "_amount",
          "type": "uint256"
        }
      ],
      "name": "calculateSharesReceived",
      "outputs": [
        {
          "internalType": "uint256",
          "name": "",
          "type": "uint256"
        }
      ],
      "stateMutability": "pure",
      "type": "function"
    },
    {
      "inputs": [
        {
          "internalType": "uint256",
          "name": "_amount",
          "type": "uint256"
        }
      ],
      "name": "calculateTokensReceived",
      "outputs": [
        {
          "internalType": "uint256",
          "name": "",
          "type": "uint256"
        }
      ],
      "stateMutability": "view",
      "type": "function"
    },
    {
      "inputs": [
        {
          "internalType": "address",
          "name": "_user",
          "type": "address"
        }
      ],
      "name": "accountOf",
      "outputs": [
        {
          "internalType": "uint256[14]",
          "name": "",
          "type": "uint256[14]"
        }
      ],
      "stateMutability": "view",
      "type": "function"
    },
    {
      "inputs": [
        {
          "internalType": "address",
          "name": "_user",
          "type": "address"
        }
      ],
      "name": "dailyEstimate",
      "outputs": [
        {
          "internalType": "uint256",
          "name": "",
          "type": "uint256"
        }
      ],
      "stateMutability": "view",
      "type": "function"
    },
    {
      "inputs": [
        {
          "internalType": "uint256",
          "name": "_pool",
          "type": "uint256"
        },
        {
          "internalType": "uint256",
          "name": "_divs",
          "type": "uint256"
        }
      ],
      "name": "setFeeSplit",
      "outputs": [
        {
          "internalType": "bool",
          "name": "_success",
          "type": "bool"
        }
      ],
      "stateMutability": "nonpayable",
      "type": "function"
    },
    {
      "inputs": [
        {
          "internalType": "address",
          "name": "_contract",
          "type": "address"
        }
      ],
      "name": "setImmunityToken",
      "outputs": [
        {
          "internalType": "bool",
          "name": "_success",
          "type": "bool"
        }
      ],
      "stateMutability": "nonpayable",
      "type": "function"
    }
  ],
  "bytecode": "0x60806040523480156200001157600080fd5b5060405162002d8f38038062002d8f833981810160405260408110156200003757600080fd5b50805160209091015160006200004c62000169565b600080546001600160a01b0319166001600160a01b0383169081178255604051929350917f8be0079c531659141344cd1fd0a4f28419497f9722a3daafe3b4186f6b6457e0908290a3506001600160a01b03821615801590620000c05750620000c0826200016d60201b620020051760201c565b62000104576040805162461bcd60e51b815260206004820152600f60248201526e494e56414c49445f4144445245535360881b604482015290519081900360640190fd5b600a80546001600160a01b039093166001600160a01b031993841681179091556003805484169091179055600b805490921633179091556012805460ff90921660ff1990921691909117905542600e5560086013556002601455600160095562000173565b3390565b3b151590565b612c0c80620001836000396000f3fe60806040526004361061032c5760003560e01c80638d72647e116101a5578063d3261592116100ec578063f14faf6f11610095578063f69e20461161006f578063f69e2046146109f1578063fbaf1bbd14610a06578063ffaad6a514610a46578063ffe6bbd814610a8c5761038f565b8063f14faf6f14610972578063f20202751461099c578063f2fde38b146109b15761038f565b8063e02e1e9c116100c6578063e02e1e9c146108f3578063eb88d91a1461091d578063eedc966a146109325761038f565b8063d326159214610889578063d7c3771d146108b4578063dd467064146108c95761038f565b8063a9059cbb1161014e578063b6b55f2511610128578063b6b55f2514610835578063b9db102a1461085f578063d050f26a146108745761038f565b8063a9059cbb146107c5578063ad7a672f1461080b578063aecb6d28146108205761038f565b80639d76ea581161017f5780639d76ea5814610786578063a01496de1461079b578063a69df4b5146107b05761038f565b80638d72647e146107475780638da5cb5b1461075c578063949e8acd146107715761038f565b80634641257d1161027457806372f702f31161021d5780638086b8ba116101f75780638086b8ba1461068f57806381fce645146107085780638620410b1461071d57806389375abf146107325761038f565b806372f702f3146106355780637d8820971461064a5780637e6335c71461065f5761038f565b8063602bc62b1161024e578063602bc62b146105cb57806370a08231146105e0578063715018a6146106205761038f565b80634641257d1461058c5780634b750334146105a1578063537a39bb146105b65761038f565b80631924063e116102d657806336599ead116102b057806336599ead146104e357806341c6138314610537578063435aabab1461054c5761038f565b80631924063e1461048d5780631f38b9cd146104a25780632e1a7d4d146104b75761038f565b806310d0ffdd1161030757806310d0ffdd146104395780631694505e1461046357806318160ddd146104785761038f565b806265318b1461039457806302639001146103e657806308560ace146104245761038f565b3661038f57600b546103549073ffffffffffffffffffffffffffffffffffffffff1634610aa1565b60408051348152426020820152815133927f3c2bd1b3f5ca07afb09fbee41ac43da2b98d9c2e9832673052e546bd1d4c091d928290030190a2005b600080fd5b3480156103a057600080fd5b506103d4600480360360208110156103b757600080fd5b503573ffffffffffffffffffffffffffffffffffffffff16610bcc565b60408051918252519081900360200190f35b3480156103f257600080fd5b506103fb610c17565b6040805173ffffffffffffffffffffffffffffffffffffffff9092168252519081900360200190f35b34801561043057600080fd5b506103d4610c33565b34801561044557600080fd5b506103d46004803603602081101561045c57600080fd5b5035610c39565b34801561046f57600080fd5b506103fb610c79565b34801561048457600080fd5b506103d4610c95565b34801561049957600080fd5b506103d4610c9b565b3480156104ae57600080fd5b506103d4610ca1565b3480156104c357600080fd5b506104e1600480360360208110156104da57600080fd5b5035610ca7565b005b3480156104ef57600080fd5b506105236004803603602081101561050657600080fd5b503573ffffffffffffffffffffffffffffffffffffffff16610e77565b604080519115158252519081900360200190f35b34801561054357600080fd5b506103d4610f37565b34801561055857600080fd5b506105236004803603602081101561056f57600080fd5b503573ffffffffffffffffffffffffffffffffffffffff16610f3d565b34801561059857600080fd5b506104e16110d8565b3480156105ad57600080fd5b506103d461128a565b3480156105c257600080fd5b506103d46112ba565b3480156105d757600080fd5b506103d46112c0565b3480156105ec57600080fd5b506103d46004803603602081101561060357600080fd5b503573ffffffffffffffffffffffffffffffffffffffff166112c6565b34801561062c57600080fd5b506104e16112ee565b34801561064157600080fd5b506103fb6113ee565b34801561065657600080fd5b506103d461140a565b34801561066b57600080fd5b506105236004803603604081101561068257600080fd5b5080359060200135611410565b34801561069b57600080fd5b506106cf600480360360208110156106b257600080fd5b503573ffffffffffffffffffffffffffffffffffffffff1661156e565b60405180826101c080838360005b838110156106f55781810151838201526020016106dd565b5050505090500191505060405180910390f35b34801561071457600080fd5b506103d46116f2565b34801561072957600080fd5b506103d46116f7565b34801561073e57600080fd5b506103d461171f565b34801561075357600080fd5b506103fb611725565b34801561076857600080fd5b506103fb611741565b34801561077d57600080fd5b506103d461175d565b34801561079257600080fd5b506103fb61176d565b3480156107a757600080fd5b506103d4611789565b3480156107bc57600080fd5b506104e161178f565b3480156107d157600080fd5b50610523600480360360408110156107e857600080fd5b5073ffffffffffffffffffffffffffffffffffffffff8135169060200135611902565b34801561081757600080fd5b506103d4611928565b34801561082c57600080fd5b506103d46119ca565b34801561084157600080fd5b506103d46004803603602081101561085857600080fd5b50356119d0565b34801561086b57600080fd5b506103d46119dc565b34801561088057600080fd5b506103fb6119e2565b34801561089557600080fd5b5061089e6119fe565b6040805160ff9092168252519081900360200190f35b3480156108c057600080fd5b506103fb611a07565b3480156108d557600080fd5b506104e1600480360360208110156108ec57600080fd5b5035611a23565b3480156108ff57600080fd5b506103d46004803603602081101561091657600080fd5b5035611b31565b34801561092957600080fd5b506103fb611b58565b34801561093e57600080fd5b506103d46004803603602081101561095557600080fd5b503573ffffffffffffffffffffffffffffffffffffffff16611b74565b34801561097e57600080fd5b506103d46004803603602081101561099557600080fd5b5035611b8e565b3480156109a857600080fd5b506103d4611c8b565b3480156109bd57600080fd5b506104e1600480360360208110156109d457600080fd5b503573ffffffffffffffffffffffffffffffffffffffff16611c91565b3480156109fd57600080fd5b506104e1611e1b565b348015610a1257600080fd5b506103d460048036036020811015610a2957600080fd5b503573ffffffffffffffffffffffffffffffffffffffff16611e3a565b348015610a5257600080fd5b506103d460048036036040811015610a6957600080fd5b5073ffffffffffffffffffffffffffffffffffffffff8135169060200135611eaa565b348015610a9857600080fd5b506103d4611ffa565b80471015610b1057604080517f08c379a000000000000000000000000000000000000000000000000000000000815260206004820152601d60248201527f416464726573733a20696e73756666696369656e742062616c616e6365000000604482015290519081900360640190fd5b60405160009073ffffffffffffffffffffffffffffffffffffffff84169083908381818185875af1925050503d8060008114610b68576040519150601f19603f3d011682016040523d82523d6000602084013e610b6d565b606091505b5050905080610bc7576040517f08c379a000000000000000000000000000000000000000000000000000000000815260040180806020018281038252603a815260200180612b59603a913960400191505060405180910390fd5b505050565b73ffffffffffffffffffffffffffffffffffffffff8116600090815260186020908152604080832054601990925282205460175468010000000000000000929102030490505b919050565b60045473ffffffffffffffffffffffffffffffffffffffff1681565b60095481565b6000601654821115610c4a57600080fd5b816000610c62610c5b83600a61200b565b606461207e565b90506000610c7083836120c0565b95945050505050565b60075473ffffffffffffffffffffffffffffffffffffffff1681565b60165490565b60155481565b60145481565b6000610cb161175d565b11610cbb57600080fd5b33600081815260196020526040902054821115610cd757600080fd5b60006064610ce684600a61200b565b81610ced57fe5b0490506000610cfc84836120c0565b9050610d0a601654856120c0565b60165573ffffffffffffffffffffffffffffffffffffffff8316600090815260196020526040902054610d3d90856120c0565b73ffffffffffffffffffffffffffffffffffffffff84166000908152601960209081526040808320939093556017546018909152919020805491860268010000000000000000840201918290039055610d9583612102565b60408051868152602081018490524281830152905173ffffffffffffffffffffffffffffffffffffffff8616917f90ebb005d68efee044927e1e77e1fd0cecc508368aa72c39250a787eed5f0a70919081900360600190a273ffffffffffffffffffffffffffffffffffffffff84166000818152601a6020818152604080842080546019845294829020549383526001015481519485529184019290925282820152426060830152517f29f64f6f46c82c5ecfa955fe7d093e63b4106b6dbe5193e00efd62c7384ef1779181900360800190a2610e70612195565b5050505050565b600654604080517f70a0823100000000000000000000000000000000000000000000000000000000815273ffffffffffffffffffffffffffffffffffffffff84811660048301529151600093849316916370a08231916024808301926020929190829003018186803b158015610eec57600080fd5b505afa158015610f00573d6000803e3d6000fd5b505050506040513d6020811015610f1657600080fd5b50516009549091508110610f2e576001915050610c12565b50600092915050565b600f5481565b6000610f47612291565b60005473ffffffffffffffffffffffffffffffffffffffff908116911614610fd057604080517f08c379a000000000000000000000000000000000000000000000000000000000815260206004820181905260248201527f4f776e61626c653a2063616c6c6572206973206e6f7420746865206f776e6572604482015290519081900360640190fd5b610fd982612005565b61104457604080517f08c379a000000000000000000000000000000000000000000000000000000000815260206004820152600f60248201527f494e56414c49445f414444524553530000000000000000000000000000000000604482015290519081900360640190fd5b6006805473ffffffffffffffffffffffffffffffffffffffff8481167fffffffffffffffffffffffff000000000000000000000000000000000000000083168117909355604080519190921680825260208201939093524281830152905133917fb4e16c7d356424e299d088c9e3c2f42c3d878cf26e9e074e0bb24fc8ac0b47ba919081900360600190a250600192915050565b60006110e2611ffa565b116110ec57600080fd5b3360006110f7611ffa565b73ffffffffffffffffffffffffffffffffffffffff8084166000818152601860209081526040808320805468010000000000000000880201905560035481517fa9059cbb00000000000000000000000000000000000000000000000000000000815260048101959095526024850187905290519596509093169363a9059cbb936044808501949193918390030190829087803b15801561119657600080fd5b505af11580156111aa573d6000803e3d6000fd5b505050506040513d60208110156111c057600080fd5b505073ffffffffffffffffffffffffffffffffffffffff82166000908152601a60205260409020600101546111f59082612295565b73ffffffffffffffffffffffffffffffffffffffff83166000818152601a6020908152604091829020600180820195909555600b01805485019055600d8054909401909355600f80548501905580518481524293810193909352805191927f1b091269e929df55d64d6ea7e9cadbe4fb38dce5ccdc995767bc515030dbfbbf929081900390910190a2611286612195565b5050565b6000670de0b6b3a7640000816112a4610c5b83600a61200b565b905060006112b283836120c0565b935050505090565b600d5481565b60025490565b73ffffffffffffffffffffffffffffffffffffffff1660009081526019602052604090205490565b6112f6612291565b60005473ffffffffffffffffffffffffffffffffffffffff90811691161461137f57604080517f08c379a000000000000000000000000000000000000000000000000000000000815260206004820181905260248201527f4f776e61626c653a2063616c6c6572206973206e6f7420746865206f776e6572604482015290519081900360640190fd5b6000805460405173ffffffffffffffffffffffffffffffffffffffff909116907f8be0079c531659141344cd1fd0a4f28419497f9722a3daafe3b4186f6b6457e0908390a3600080547fffffffffffffffffffffffff0000000000000000000000000000000000000000169055565b60035473ffffffffffffffffffffffffffffffffffffffff1681565b60105481565b600061141a612291565b60005473ffffffffffffffffffffffffffffffffffffffff9081169116146114a357604080517f08c379a000000000000000000000000000000000000000000000000000000000815260206004820181905260248201527f4f776e61626c653a2063616c6c6572206973206e6f7420746865206f776e6572604482015290519081900360640190fd5b6114ad8383612295565b600a1461151b57604080517f08c379a000000000000000000000000000000000000000000000000000000000815260206004820152601d60248201527f54454e5f504f5254494f4e535f524551554952455f4449564953494f4e000000604482015290519081900360640190fd5b601383905560148290556040805184815260208101849052428183015290517f677017fa3a0fe0f50a95e6024c5b688f2b14a4696c4a897c459715cabfc1c03a9181900360600190a15060015b92915050565b611576612aa4565b61157e612ac3565b5073ffffffffffffffffffffffffffffffffffffffff82166000908152601a602090815260409182902082516101c081018452815481526001820154928101929092526002810154928201929092526003820154606082015260048201546080820152600582015460a0820152600682015460c0820152600782015460e082015260088201546101008201526009820154610120820152600a820154610140820152600b820154610160820152600c820154610180820152600d909101546101a082015261164a612aa4565b604051806101c0016040528083600001518152602001836020015181526020018360600151815260200183604001518152602001836080015181526020018360a0015181526020018360c0015181526020018360e0015181526020018361012001518152602001836101400151815260200183610160015181526020018361018001518152602001836101a00151815260200183610100015181525090508092505050919050565b600281565b6000670de0b6b3a764000081611711610c5b83600a61200b565b905060006112b28383612295565b61546081565b60055473ffffffffffffffffffffffffffffffffffffffff1681565b60005473ffffffffffffffffffffffffffffffffffffffff1690565b6000611768336112c6565b905090565b600a5473ffffffffffffffffffffffffffffffffffffffff1681565b60135481565b60015473ffffffffffffffffffffffffffffffffffffffff1633146117ff576040517f08c379a0000000000000000000000000000000000000000000000000000000008152600401808060200182810382526023815260200180612bb46023913960400191505060405180910390fd5b600254421161186f57604080517f08c379a000000000000000000000000000000000000000000000000000000000815260206004820152601f60248201527f436f6e7472616374206973206c6f636b656420756e74696c2037206461797300604482015290519081900360640190fd5b6001546000805460405173ffffffffffffffffffffffffffffffffffffffff93841693909116917f8be0079c531659141344cd1fd0a4f28419497f9722a3daafe3b4186f6b6457e091a3600154600080547fffffffffffffffffffffffff00000000000000000000000000000000000000001673ffffffffffffffffffffffffffffffffffffffff909216919091179055565b60008061190d61175d565b1161191757600080fd5b6119218383612309565b9392505050565b600354604080517f70a08231000000000000000000000000000000000000000000000000000000008152306004820152905160009273ffffffffffffffffffffffffffffffffffffffff16916370a08231916024808301926020929190829003018186803b15801561199957600080fd5b505afa1580156119ad573d6000803e3d6000fd5b505050506040513d60208110156119c357600080fd5b5051905090565b60115481565b60006115683383611eaa565b600e5481565b60085473ffffffffffffffffffffffffffffffffffffffff1681565b60125460ff1681565b600b5473ffffffffffffffffffffffffffffffffffffffff1681565b611a2b612291565b60005473ffffffffffffffffffffffffffffffffffffffff908116911614611ab457604080517f08c379a000000000000000000000000000000000000000000000000000000000815260206004820181905260248201527f4f776e61626c653a2063616c6c6572206973206e6f7420746865206f776e6572604482015290519081900360640190fd5b60008054600180547fffffffffffffffffffffffff000000000000000000000000000000000000000090811673ffffffffffffffffffffffffffffffffffffffff84161790915516815542820160025560405181907f8be0079c531659141344cd1fd0a4f28419497f9722a3daafe3b4186f6b6457e0908290a350565b600080611b42610c5b84600a61200b565b90506000611b5084836120c0565b949350505050565b60065473ffffffffffffffffffffffffffffffffffffffff1681565b73ffffffffffffffffffffffffffffffffffffffff163190565b600354604080517f23b872dd00000000000000000000000000000000000000000000000000000000815233600482015230602482015260448101849052905160009273ffffffffffffffffffffffffffffffffffffffff16916323b872dd91606480830192602092919082900301818787803b158015611c0d57600080fd5b505af1158015611c21573d6000803e3d6000fd5b505050506040513d6020811015611c3757600080fd5b5051611c4257600080fd5b601180548301905560408051838152426020820152815133927f0da1788c3e861a58a47f0d46073b13c4d66efcc259714744f920d1afe7b8dee5928290030190a2505060115490565b600c5481565b611c99612291565b60005473ffffffffffffffffffffffffffffffffffffffff908116911614611d2257604080517f08c379a000000000000000000000000000000000000000000000000000000000815260206004820181905260248201527f4f776e61626c653a2063616c6c6572206973206e6f7420746865206f776e6572604482015290519081900360640190fd5b73ffffffffffffffffffffffffffffffffffffffff8116611d8e576040517f08c379a0000000000000000000000000000000000000000000000000000000008152600401808060200182810382526026815260200180612b336026913960400191505060405180910390fd5b6000805460405173ffffffffffffffffffffffffffffffffffffffff808516939216917f8be0079c531659141344cd1fd0a4f28419497f9722a3daafe3b4186f6b6457e091a3600080547fffffffffffffffffffffffff00000000000000000000000000000000000000001673ffffffffffffffffffffffffffffffffffffffff92909216919091179055565b6000611e25611ffa565b11611e2f57600080fd5b611e376125f3565b50565b6012546011546000918291611e5e91606491611e589160ff1661200b565b9061207e565b9050600060165411611e71576000611921565b60165473ffffffffffffffffffffffffffffffffffffffff84166000908152601960205260409020546119219190611e5890849061200b565b600354604080517f23b872dd00000000000000000000000000000000000000000000000000000000815233600482015230602482015260448101849052905160009273ffffffffffffffffffffffffffffffffffffffff16916323b872dd91606480830192602092919082900301818787803b158015611f2957600080fd5b505af1158015611f3d573d6000803e3d6000fd5b505050506040513d6020811015611f5357600080fd5b5051611f5e57600080fd5b60108054830190556000611f728484612774565b73ffffffffffffffffffffffffffffffffffffffff85166000818152601a60208181526040808420805460198452948290205493835260010154815194855291840192909252828201524260608301525192935090917f29f64f6f46c82c5ecfa955fe7d093e63b4106b6dbe5193e00efd62c7384ef1779181900360800190a2611921612195565b600061176833610bcc565b3b151590565b60008261201a57506000611568565b8282028284828161202757fe5b0414611921576040517f08c379a0000000000000000000000000000000000000000000000000000000008152600401808060200182810382526021815260200180612b936021913960400191505060405180910390fd5b600061192183836040518060400160405280601a81526020017f536166654d6174683a206469766973696f6e206279207a65726f000000000000815250612959565b600061192183836040518060400160405280601e81526020017f536166654d6174683a207375627472616374696f6e206f766572666c6f770000815250612a15565b600061210f82600a61207e565b905060006121286013548361200b90919063ffffffff16565b905060006121416014548461200b90919063ffffffff16565b6011549091506121519083612295565b601155601654156121865761217e6017546016546801000000000000000084028161217857fe5b04612295565b60175561218f565b60118054820190555b50505050565b6015544290615460906121a9908390612a89565b11156121f5577f2cfce469a63f2e9972b7f23da751e6943ed2b091c10e40b5c43b5f6105bf20ea6121d8611928565b60408051918252602082018490528051918290030190a160158190555b600261220382600e54612a89565b11801561221257506000601654115b15611e375760125460115460009161223b916201518091611e589160649183919060ff1661200b565b90506000612254600e5484612a8990919063ffffffff16565b60115490830291506122669082612a89565b60115560175460165461228791906801000000000000000084028161217857fe5b6017555050600e55565b3390565b60008282018381101561192157604080517f08c379a000000000000000000000000000000000000000000000000000000000815260206004820152601b60248201527f536166654d6174683a206164646974696f6e206f766572666c6f770000000000604482015290519081900360640190fd5b3360008181526019602052604081205490919083111561232857600080fd5b6000612332611ffa565b1115612340576123406110d8565b73ffffffffffffffffffffffffffffffffffffffff811660009081526019602052604090205461237090846120c0565b73ffffffffffffffffffffffffffffffffffffffff80831660009081526019602052604080822093909355908616815220546123ac9084612295565b73ffffffffffffffffffffffffffffffffffffffff858116600081815260196020908152604080832095909555601780549487168352601882528583208054958a0290950390945592549181528381208054928802909201909155601a9091522054158015612441575073ffffffffffffffffffffffffffffffffffffffff84166000908152601a6020526040902060060154155b1561245057600c805460010190555b73ffffffffffffffffffffffffffffffffffffffff8082166000818152601a60209081526040808320600c810180546001908101909155600590910180548a019055948916808452928190206006810180548a019055600d908101805487019055805490950190945583518781524291810191909152835191937f91c7d71a3ae3fb7cf61e00517bf4868e9e23d0bace5e304cbc3b68de5d85350e92918290030190a373ffffffffffffffffffffffffffffffffffffffff81166000818152601a6020818152604080842080546019845294829020549383526001015481519485529184019290925282820152426060830152517f29f64f6f46c82c5ecfa955fe7d093e63b4106b6dbe5193e00efd62c7384ef1779181900360800190a273ffffffffffffffffffffffffffffffffffffffff84166000818152601a6020818152604080842080546019845294829020549383526001015481519485529184019290925282820152426060830152517f29f64f6f46c82c5ecfa955fe7d093e63b4106b6dbe5193e00efd62c7384ef1779181900360800190a25060019392505050565b6000338161260082610bcc565b73ffffffffffffffffffffffffffffffffffffffff8316600090815260186020526040812080546801000000000000000084020190559091506126433383612774565b60408051848152602081018390524281830152905191925073ffffffffffffffffffffffffffffffffffffffff8516917f193a876ac91d11a4a0a71ebef73b195ba55aa7c16d6755c93c21d973e692a02c9181900360600190a273ffffffffffffffffffffffffffffffffffffffff83166000908152601a60205260409020600201546126d09083612295565b73ffffffffffffffffffffffffffffffffffffffff84166000818152601a602081815260408084206002810196909655600886018054600190810190915586546019845294829020549383529095015485519384529083019190915281840152426060820152915190917f29f64f6f46c82c5ecfa955fe7d093e63b4106b6dbe5193e00efd62c7384ef177919081900360800190a261276d612195565b9250505090565b73ffffffffffffffffffffffffffffffffffffffff82166000908152601a60205260408120541580156127cd575073ffffffffffffffffffffffffffffffffffffffff83166000908152601a6020526040902060060154155b156127dc57600c805460010190555b600d80546001019055600080806127f233610e77565b90508015612806576000925084915061282a565b606461281386600a61200b565b8161281a57fe5b04925061282785846120c0565b91505b60408051868152602081018490524281830152905173ffffffffffffffffffffffffffffffffffffffff8816917fb49bb132260f6aa1c86e2d2a3957c097216e6ec9b5fa15867289f058b4d297ac919081900360600190a260008211801561289c575060165461289a8382612295565b115b6128a557600080fd5b601654156128ba5760168054830190556128c0565b60168290555b6128c983612102565b73ffffffffffffffffffffffffffffffffffffffff86166000908152601960205260409020546128f99083612295565b73ffffffffffffffffffffffffffffffffffffffff8716600090815260196020908152604080832093909355601754601882528383208054918702919091019055601a905220805486018155600701805460010190555091505092915050565b600081836129ff576040517f08c379a00000000000000000000000000000000000000000000000000000000081526004018080602001828103825283818151815260200191508051906020019080838360005b838110156129c45781810151838201526020016129ac565b50505050905090810190601f1680156129f15780820380516001836020036101000a031916815260200191505b509250505060405180910390fd5b506000838581612a0b57fe5b0495945050505050565b60008184841115612a81576040517f08c379a00000000000000000000000000000000000000000000000000000000081526020600482018181528351602484015283519092839260449091019190850190808383600083156129c45781810151838201526020016129ac565b505050900390565b600082821115612a9b57506000611568565b50808203611568565b604051806101c00160405280600e906020820280368337509192915050565b604051806101c001604052806000815260200160008152602001600081526020016000815260200160008152602001600081526020016000815260200160008152602001600081526020016000815260200160008152602001600081526020016000815260200160008152509056fe4f776e61626c653a206e6577206f776e657220697320746865207a65726f2061646472657373416464726573733a20756e61626c6520746f2073656e642076616c75652c20726563697069656e74206d61792068617665207265766572746564536166654d6174683a206d756c7469706c69636174696f6e206f766572666c6f77596f7520646f6e27742068617665207065726d697373696f6e20746f20756e6c6f636ba264697066735822122094164f10ad3bc560b5a0cb749088ab59eba143b3edecb088a423be8facc9cb9364736f6c63430007040033",
  "immutableReferences": {},
  "source": "// SPDX-License-Identifier: MIT\npragma solidity 0.7.4;\n\nimport \"./Address.sol\";\nimport \"./SafeMath.sol\";\nimport \"./SafeERC20.sol\";\n\nimport \"./IERC20.sol\";\nimport \"./IPancakeRouter01.sol\";\n\nimport \"./Ownable.sol\";\nimport \"../interfaces/IERC721.sol\";\n\ncontract DripVault is Ownable {\n    using SafeERC20 for IERC20;\n    using SafeMath for uint;\n\n    // Import the BEP20 token interface\n    IERC20 public stakingToken;\n    IERC20 public buybackToken; // The token being bought back...\n    IERC20 public wbnb;\n    IERC721 public jpeg;\n\n    IPancakeRouter01 public uniswapV2Router;\n    IPancakeRouter01 public tokenUniswapV2Router;\n\n    /*$$$$$$$$$$$$$$$$$$$$$$$$$$$$$$$$$\n    $$$CONFIGURABLES AND VARIABLES$$$\n    $$$$$$$$$$$$$$$$$$$$$$$$$$$$$$$$$*/\n\n    uint256 public requiredBalance;\n\n    // Store the token address and the reserve address\n    address public tokenAddress;\n    address payable public bnbReceiver;\n\n    // Store the number of unique users and total Tx's\n    uint public users;\n    uint public totalTxs;\n\n    // Store the starting time & block number and the last payout time\n    uint public lastPayout; // What time was the last payout (timestamp)?\n\n    // Store the details of total deposits & claims\n    uint public totalClaims;\n    uint public totalDeposits;\n\n    // Store the total drip pool balance and rate\n    uint public dripPoolBalance;\n    uint8 public dripRate;\n\n    // 10% fee on deposit and withdrawal\n    uint8 internal constant divsFee = 10;\n    uint256 internal constant magnitude = 2 ** 64;\n\n    // How many portions of the fees does each receiver get?\n    uint public forPool;\n    uint public forDivs;\n\n    // Rebase and payout frequency\n    uint256 public constant rebaseFrequency = 6 hours;\n    uint256 public constant payoutFrequency = 2 seconds;\n\n    // Timestamp of last rebase\n    uint256 public lastRebaseTime;\n\n    // Current total tokens staked, and profit per share\n    uint256 private currentTotalStaked;\n    uint256 private profitPerShare_;\n\n    /*$$$$$$$$$$$$$$$$$$$$$$$$$$$$$$$$$$\n    $$ MODIFIERS                    $$\n    $$$$$$$$$$$$$$$$$$$$$$$$$$$$$$$$$$*/\n\n    // Only holders - Caller must have funds in the vault\n    modifier onlyHolders() {\n        require(myTokens() > 0);\n        _;\n    }\n\n    // Only earners - Caller must have some earnings\n    modifier onlyEarners() {\n        require(myEarnings() > 0);\n        _;\n    }\n\n    /*$$$$$$$$$$$$$$$$$$$$$$$$$$$$$$$$$$$$\n     $$ ACCOUNT STRUCT                 $$\n     $$$$$$$$$$$$$$$$$$$$$$$$$$$$$$$$$$$$*/\n\n    struct Account {\n        uint deposited;\n        uint withdrawn;\n        uint compounded;\n        uint rewarded;\n        uint contributed;\n        uint transferredShares;\n        uint receivedShares;\n        uint xInvested;\n        uint xCompounded;\n        uint xRewarded;\n        uint xContributed;\n        uint xWithdrawn;\n        uint xTransferredShares;\n        uint xReceivedShares;\n    }\n\n    /*$$$$$$$$$$$$$$$$$$$$$$$$$$$$$$$$$$\n    $$ MAPPINGS                       $$\n    $$$$$$$$$$$$$$$$$$$$$$$$$$$$$$$$$$$$*/\n\n    mapping(address => int256) payoutsOf_;\n    mapping(address => uint256) balanceOf_;\n    mapping(address => Account) accountOf_;\n\n    /*$$$$$$$$$$$$$$$$$$$$$$$$$$$$$$$$$$\n    $$ EVENTS                         $$\n    $$$$$$$$$$$$$$$$$$$$$$$$$$$$$$$$$$$$*/\n\n    event onDeposit(\n        address indexed _user,\n        uint256 _deposited,\n        uint256 tokensMinted,\n        uint timestamp\n    );\n    event onWithdraw(\n        address indexed _user,\n        uint256 _liquidated,\n        uint256 tokensEarned,\n        uint timestamp\n    );\n    event onCompound(\n        address indexed _user,\n        uint256 _compounded,\n        uint256 tokensMinted,\n        uint timestamp\n    );\n    event onWithdraw(address indexed _user, uint256 _withdrawn, uint timestamp);\n    event onTransfer(\n        address indexed from,\n        address indexed to,\n        uint256 tokens,\n        uint timestamp\n    );\n    event onUpdate(\n        address indexed _user,\n        uint256 invested,\n        uint256 tokens,\n        uint256 soldTokens,\n        uint timestamp\n    );\n\n    event onRebase(uint256 balance, uint256 timestamp);\n\n    event onDonate(address indexed from, uint256 amount, uint timestamp);\n    event onDonateBNB(address indexed from, uint256 amount, uint timestamp);\n\n    event onSetFeeSplit(uint _pool, uint _divs, uint256 timestamp);\n    event onSetImmunityToken(\n        address indexed _caller,\n        address oldOne,\n        address newOne,\n        uint256 timestamp\n    );\n\n    /*$$$$$$$$$$$$$$$$$$$$$$$$$$$$$$$$$$\n    $$ CONSTRUCTOR                    $$\n    $$$$$$$$$$$$$$$$$$$$$$$$$$$$$$$$$$$$*/\n\n    constructor(address _tokenAddress, uint8 _dripRate) Ownable() {\n        require(\n            _tokenAddress != address(0) && Address.isContract(_tokenAddress),\n            \"INVALID_ADDRESS\"\n        );\n\n        tokenAddress = _tokenAddress;\n        stakingToken = IERC20(_tokenAddress);\n\n        bnbReceiver = msg.sender;\n\n        // Set Drip Rate and last payout date (first time around)...\n        dripRate = _dripRate;\n        lastPayout = (block.timestamp);\n\n        // Fee portions\n        forPool = 8;\n        forDivs = 2;\n\n        requiredBalance = 1;\n    }\n\n    /*$$$$$$$$$$$$$$$$$$$$$$$$$$$$$$$$$$\n    $$ FALLBACK                       $$\n    $$$$$$$$$$$$$$$$$$$$$$$$$$$$$$$$$$$$*/\n\n    receive() external payable {\n        Address.sendValue(bnbReceiver, msg.value);\n        emit onDonateBNB(msg.sender, msg.value, block.timestamp);\n    }\n\n    /*$$$$$$$$$$$$$$$$$$$$$$$$$$$$$$$$$$\n    $$ WRITE FUNCTIONS                $$\n    $$$$$$$$$$$$$$$$$$$$$$$$$$$$$$$$$$$$*/\n\n    // Donate\n    function donate(uint _amount) public returns (uint256) {\n        // Move the tokens from the caller's wallet to this contract.\n        require(stakingToken.transferFrom(msg.sender, address(this), _amount));\n\n        // Add the tokens to the drip pool balance\n        dripPoolBalance += _amount;\n\n        // Tell the network, successful function - how much in the pool now?\n        emit onDonate(msg.sender, _amount, block.timestamp);\n        return dripPoolBalance;\n    }\n\n    // Deposit\n    function deposit(uint _amount) public returns (uint256) {\n        return depositTo(msg.sender, _amount);\n    }\n\n    // DepositTo\n    function depositTo(address _user, uint _amount) public returns (uint256) {\n        // Move the tokens from the caller's wallet to this contract.\n        require(stakingToken.transferFrom(msg.sender, address(this), _amount));\n\n        // Add the deposit to the totalDeposits...\n        totalDeposits += _amount;\n\n        // Then actually call the deposit method...\n        uint amount = _depositTokens(_user, _amount);\n\n        // Update the leaderboard...\n        emit onUpdate(\n            _user,\n            accountOf_[_user].deposited,\n            balanceOf_[_user],\n            accountOf_[_user].withdrawn,\n            block.timestamp\n        );\n\n        // Then trigger a distribution for everyone, kind soul!\n        distribute();\n\n        // Successful function - how many 'shares' (tokens) are the result?\n        return amount;\n    }\n\n    // Compound\n    function compound() public onlyEarners {\n        _compoundTokens();\n    }\n\n    // Harvest\n    function harvest() public onlyEarners {\n        address _user = msg.sender;\n        uint256 _dividends = myEarnings();\n\n        // Calculate the payout, add it to the user's total paid out accounting...\n        payoutsOf_[_user] += (int256)(_dividends * magnitude);\n\n        // Pay the user their tokens to their wallet\n        stakingToken.transfer(_user, _dividends);\n\n        // Update accounting for user/total withdrawal stats...\n        accountOf_[_user].withdrawn = SafeMath.add(\n            accountOf_[_user].withdrawn,\n            _dividends\n        );\n        accountOf_[_user].xWithdrawn += 1;\n\n        // Update total Tx's and claims stats\n        totalTxs += 1;\n        totalClaims += _dividends;\n\n        // Tell the network...\n        emit onWithdraw(_user, _dividends, block.timestamp);\n\n        // Trigger a distribution for everyone, kind soul!\n        distribute();\n    }\n\n    // Withdraw\n    function withdraw(uint256 _amount) public onlyHolders {\n        address _user = msg.sender;\n        require(_amount <= balanceOf_[_user]);\n\n        // Calculate dividends and 'shares' (tokens)\n        uint256 _undividedDividends = SafeMath.mul(_amount, divsFee) / 100;\n        uint256 _taxedTokens = SafeMath.sub(_amount, _undividedDividends);\n\n        // Subtract amounts from user and totals...\n        currentTotalStaked = SafeMath.sub(currentTotalStaked, _amount);\n        balanceOf_[_user] = SafeMath.sub(balanceOf_[_user], _amount);\n\n        // Update the payment ratios for the user and everyone else...\n        int256 _updatedPayouts = (int256)(\n            profitPerShare_ * _amount + (_taxedTokens * magnitude)\n        );\n        payoutsOf_[_user] -= _updatedPayouts;\n\n        // Serve dividends between the drip and instant divs (4:1)...\n        allocateFees(_undividedDividends);\n\n        // Tell the network, and trigger a distribution\n        emit onWithdraw(_user, _amount, _taxedTokens, block.timestamp);\n\n        // Update the leaderboard...\n        emit onUpdate(\n            _user,\n            accountOf_[_user].deposited,\n            balanceOf_[_user],\n            accountOf_[_user].withdrawn,\n            block.timestamp\n        );\n\n        // Trigger a distribution for everyone, kind soul!\n        distribute();\n    }\n\n    // Transfer\n    function transfer(\n        address _to,\n        uint256 _amount\n    ) external onlyHolders returns (bool) {\n        return _transferTokens(_to, _amount);\n    }\n\n    /*$$$$$$$$$$$$$$$$$$$$$$$$$$$$$$$$$\n    $$VIEW FUNCTIONS                 $$\n    $$$$$$$$$$$$$$$$$$$$$$$$$$$$$$$$$$$*/\n\n    // User is immune to stakeing fees when holding an item\n    function checkImmunity(address _user) public view returns (bool _isImmune) {\n        uint256 _x = jpeg.balanceOf(_user);\n        if (_x >= requiredBalance) {\n            return true;\n        }\n        return false;\n    }\n\n    function myTokens() public view returns (uint256) {\n        return balanceOf(msg.sender);\n    }\n\n    function myEarnings() public view returns (uint256) {\n        return dividendsOf(msg.sender);\n    }\n\n    function balanceOf(address _user) public view returns (uint256) {\n        return balanceOf_[_user];\n    }\n\n    function tokenBalance(address _user) public view returns (uint256) {\n        return _user.balance;\n    }\n\n    function totalBalance() public view returns (uint256) {\n        return stakingToken.balanceOf(address(this));\n    }\n\n    function totalSupply() public view returns (uint256) {\n        return currentTotalStaked;\n    }\n\n    function dividendsOf(address _user) public view returns (uint256) {\n        return\n            (uint256)(\n                (int256)(profitPerShare_ * balanceOf_[_user]) -\n                    payoutsOf_[_user]\n            ) / magnitude;\n    }\n\n    function sellPrice() public pure returns (uint256) {\n        uint256 _tokens = 1e18;\n        uint256 _dividends = SafeMath.div(SafeMath.mul(_tokens, divsFee), 100);\n        uint256 _taxedTokens = SafeMath.sub(_tokens, _dividends);\n        return _taxedTokens;\n    }\n\n    function buyPrice() public pure returns (uint256) {\n        uint256 _tokens = 1e18;\n        uint256 _dividends = SafeMath.div(SafeMath.mul(_tokens, divsFee), 100);\n        uint256 _taxedTokens = SafeMath.add(_tokens, _dividends);\n        return _taxedTokens;\n    }\n\n    function calculateSharesReceived(\n        uint256 _amount\n    ) public pure returns (uint256) {\n        uint256 _divies = SafeMath.div(SafeMath.mul(_amount, divsFee), 100);\n        uint256 _remains = SafeMath.sub(_amount, _divies);\n        uint256 _result = _remains;\n        return _result;\n    }\n\n    function calculateTokensReceived(\n        uint256 _amount\n    ) public view returns (uint256) {\n        require(_amount <= currentTotalStaked);\n        uint256 _tokens = _amount;\n        uint256 _divies = SafeMath.div(SafeMath.mul(_tokens, divsFee), 100);\n        uint256 _remains = SafeMath.sub(_tokens, _divies);\n        return _remains;\n    }\n\n    function accountOf(address _user) public view returns (uint256[14] memory) {\n        Account memory a = accountOf_[_user];\n        uint256[14] memory accountArray = [\n            a.deposited,\n            a.withdrawn,\n            a.rewarded,\n            a.compounded,\n            a.contributed,\n            a.transferredShares,\n            a.receivedShares,\n            a.xInvested,\n            a.xRewarded,\n            a.xContributed,\n            a.xWithdrawn,\n            a.xTransferredShares,\n            a.xReceivedShares,\n            a.xCompounded\n        ];\n        return accountArray;\n    }\n\n    function dailyEstimate(address _user) public view returns (uint256) {\n        uint256 share = dripPoolBalance.mul(dripRate).div(100);\n        return\n            (currentTotalStaked > 0)\n                ? share.mul(balanceOf_[_user]).div(currentTotalStaked)\n                : 0;\n    }\n\n    /*$$$$$$$$$$$$$$$$$$$$$$$$$$$$$$$\n    $$ PUBLIC OWNER-ONLY FUNCTIONS $$\n    $$$$$$$$$$$$$$$$$$$$$$$$$$$$$$$$$*/\n    function setFeeSplit(\n        uint256 _pool,\n        uint256 _divs\n    ) public onlyOwner returns (bool _success) {\n        require(_pool.add(_divs) == 10, \"TEN_PORTIONS_REQUIRE_DIVISION\");\n\n        // Set the new values...\n        forPool = _pool;\n        forDivs = _divs;\n\n        // Tell the network, successful function!\n        emit onSetFeeSplit(_pool, _divs, block.timestamp);\n        return true;\n    }\n\n    // Set the immunity token contract for this xToken\n    function setImmunityToken(\n        address _contract\n    ) public onlyOwner returns (bool _success) {\n        require(Address.isContract(_contract), \"INVALID_ADDRESS\");\n\n        address oldContract = address(jpeg);\n        jpeg = IERC721(_contract);\n\n        emit onSetImmunityToken(\n            msg.sender,\n            oldContract,\n            _contract,\n            block.timestamp\n        );\n        return true;\n    }\n\n    /*$$$$$$$$$$$$$$$$$$$$$$$$$$$$$$$$$$\n    $$ PRIVATE / INTERNAL FUNCTIONS   $$\n    $$$$$$$$$$$$$$$$$$$$$$$$$$$$$$$$$$$$*/\n\n    // Allocate fees (private method)\n    function allocateFees(uint fee) private {\n        uint256 _onePiece = fee.div(10);\n\n        uint256 _forPool = (_onePiece.mul(forPool)); // for the Drip Pool\n        uint256 _forDivs = (_onePiece.mul(forDivs)); // for Instant Divs\n\n        dripPoolBalance = dripPoolBalance.add(_forPool);\n\n        // If there's more than 0 tokens staked in the vault...\n        if (currentTotalStaked > 0) {\n            // Distribute those instant divs...\n            profitPerShare_ = SafeMath.add(\n                profitPerShare_,\n                (_forDivs * magnitude) / currentTotalStaked\n            );\n        } else {\n            // Otherwise add the divs portion to the drip pool balance.\n            dripPoolBalance += _forDivs;\n        }\n    }\n\n    // Distribute (private method)\n    function distribute() private {\n        uint _currentTimestamp = (block.timestamp);\n\n        // Log a rebase, if it's time to do so...\n        if (_currentTimestamp.safeSub(lastRebaseTime) > rebaseFrequency) {\n            // Tell the network...\n            emit onRebase(totalBalance(), _currentTimestamp);\n\n            // Update the time this was last updated...\n            lastRebaseTime = _currentTimestamp;\n        }\n\n        // If there's any time difference...\n        if (\n            SafeMath.safeSub(_currentTimestamp, lastPayout) > payoutFrequency &&\n            currentTotalStaked > 0\n        ) {\n            // Calculate shares and profits...\n            uint256 share = dripPoolBalance.mul(dripRate).div(100).div(\n                24 hours\n            );\n            uint256 profit = share * _currentTimestamp.safeSub(lastPayout);\n\n            // Subtract from drip pool balance and add to all user earnings\n            dripPoolBalance = dripPoolBalance.safeSub(profit);\n            profitPerShare_ = SafeMath.add(\n                profitPerShare_,\n                (profit * magnitude) / currentTotalStaked\n            );\n\n            // Update the last payout timestamp\n            lastPayout = _currentTimestamp;\n        }\n    }\n\n    // Deposit Tokens (internal method)\n    function _depositTokens(\n        address _recipient,\n        uint256 _amount\n    ) internal returns (uint256) {\n        // If the recipient has zero activity, they're new - COUNT THEM!!!\n        if (\n            accountOf_[_recipient].deposited == 0 &&\n            accountOf_[_recipient].receivedShares == 0\n        ) {\n            users += 1;\n        }\n\n        // Count this tx...\n        totalTxs += 1;\n        uint256 _undividedDividends;\n        uint256 _tokens;\n\n        bool _isImmune = checkImmunity(msg.sender);\n\n        if (_isImmune) {\n            _undividedDividends = 0;\n            _tokens = _amount;\n        } else {\n            _undividedDividends = SafeMath.mul(_amount, divsFee) / 100;\n            _tokens = SafeMath.sub(_amount, _undividedDividends);\n        }\n        // Tell the network...\n        emit onDeposit(_recipient, _amount, _tokens, block.timestamp);\n\n        // There needs to be something being added in this call...\n        require(\n            _tokens > 0 &&\n                SafeMath.add(_tokens, currentTotalStaked) > currentTotalStaked\n        );\n        if (currentTotalStaked > 0) {\n            currentTotalStaked += _tokens;\n        } else {\n            currentTotalStaked = _tokens;\n        }\n\n        // Allocate fees, and balance to the recipient\n        allocateFees(_undividedDividends);\n        balanceOf_[_recipient] = SafeMath.add(balanceOf_[_recipient], _tokens);\n\n        // Updated payouts...\n        int256 _updatedPayouts = (int256)(profitPerShare_ * _tokens);\n\n        // Update stats...\n        payoutsOf_[_recipient] += _updatedPayouts;\n        accountOf_[_recipient].deposited += _amount;\n        accountOf_[_recipient].xInvested += 1;\n\n        // Successful function - how many \"shares\" generated?\n        return _tokens;\n    }\n\n    // Compound (internal method)\n    function _compoundTokens() internal returns (uint256) {\n        address _user = msg.sender;\n\n        // Quickly roll the caller's earnings into their payouts\n        uint256 _dividends = dividendsOf(_user);\n        payoutsOf_[_user] += (int256)(_dividends * magnitude);\n\n        // Then actually trigger the deposit method\n        // (NOTE: No tokens required here, earnings are tokens already within the contract)\n        uint256 _tokens = _depositTokens(msg.sender, _dividends);\n\n        // Tell the network...\n        emit onCompound(_user, _dividends, _tokens, block.timestamp);\n\n        // Then update the stats...\n        accountOf_[_user].compounded = SafeMath.add(\n            accountOf_[_user].compounded,\n            _dividends\n        );\n        accountOf_[_user].xCompounded += 1;\n\n        // Update the leaderboard...\n        emit onUpdate(\n            _user,\n            accountOf_[_user].deposited,\n            balanceOf_[_user],\n            accountOf_[_user].withdrawn,\n            block.timestamp\n        );\n\n        // Then trigger a distribution for everyone, you kind soul!\n        distribute();\n\n        // Successful function!\n        return _tokens;\n    }\n\n    // Transfer Tokens (internal method)\n    function _transferTokens(\n        address _recipient,\n        uint256 _amount\n    ) internal returns (bool _success) {\n        address _sender = msg.sender;\n        require(_amount <= balanceOf_[_sender]);\n\n        // Harvest any earnings before transferring, to help with cleaner accounting\n        if (myEarnings() > 0) {\n            harvest();\n        }\n\n        // \"Move\" the tokens...\n        balanceOf_[_sender] = SafeMath.sub(balanceOf_[_sender], _amount);\n        balanceOf_[_recipient] = SafeMath.add(balanceOf_[_recipient], _amount);\n\n        // Adjust payout ratios to match the new balances...\n        payoutsOf_[_sender] -= (int256)(profitPerShare_ * _amount);\n        payoutsOf_[_recipient] += (int256)(profitPerShare_ * _amount);\n\n        // If the recipient has zero activity, they're new - COUNT THEM!!!\n        if (\n            accountOf_[_recipient].deposited == 0 &&\n            accountOf_[_recipient].receivedShares == 0\n        ) {\n            users += 1;\n        }\n\n        // Update stats...\n        accountOf_[_sender].xTransferredShares += 1;\n        accountOf_[_sender].transferredShares += _amount;\n        accountOf_[_recipient].receivedShares += _amount;\n        accountOf_[_recipient].xReceivedShares += 1;\n\n        // Add this to the Tx counter...\n        totalTxs += 1;\n\n        // Tell the network, successful function!\n        emit onTransfer(_sender, _recipient, _amount, block.timestamp);\n\n        // Update the leaderboard for sender...\n        emit onUpdate(\n            _sender,\n            accountOf_[_sender].deposited,\n            balanceOf_[_sender],\n            accountOf_[_sender].withdrawn,\n            block.timestamp\n        );\n\n        // Update the leaderboard for recipient...\n        emit onUpdate(\n            _recipient,\n            accountOf_[_recipient].deposited,\n            balanceOf_[_recipient],\n            accountOf_[_recipient].withdrawn,\n            block.timestamp\n        );\n\n        return true;\n    }\n}\n",
  "sourcePath": "/home/surfacing8671/Music/DripVault/contracts/DripVault.sol",
  "compiler": {
    "name": "solc",
    "version": "0.7.4+commit.3f05b770.Emscripten.clang"
  },
  "schemaVersion": "3.4.11",
  "updatedAt": "2022-12-10T16:11:52.287Z",
  "devdoc": {
    "kind": "dev",
    "methods": {
      "owner()": {
        "details": "Returns the address of the current owner."
      },
      "renounceOwnership()": {
        "details": "Leaves the contract without owner. It will not be possible to call `onlyOwner` functions anymore. Can only be called by the current owner. NOTE: Renouncing ownership will leave the contract without an owner, thereby removing any functionality that is only available to the owner."
      },
      "transferOwnership(address)": {
        "details": "Transfers ownership of the contract to a new account (`newOwner`). Can only be called by the current owner."
      }
    },
    "version": 1
  },
  "userdoc": {
    "kind": "user",
    "methods": {},
    "version": 1
  }
}