{
  "abi": [
    {
      "inputs": [
        {
          "internalType": "address",
          "name": "_tokenAddress",
          "type": "address"
        },
        {
          "internalType": "address",
          "name": "_rewardToken",
          "type": "address"
        },
        {
          "internalType": "uint8",
          "name": "_dripRate",
          "type": "uint8"
        }
      ],
      "stateMutability": "nonpayable",
      "type": "constructor"
    },
    {
      "anonymous": false,
      "inputs": [
        {
          "indexed": true,
          "internalType": "address",
          "name": "previousOwner",
          "type": "address"
        },
        {
          "indexed": true,
          "internalType": "address",
          "name": "newOwner",
          "type": "address"
        }
      ],
      "name": "OwnershipTransferred",
      "type": "event"
    },
    {
      "anonymous": false,
      "inputs": [
        {
          "indexed": true,
          "internalType": "address",
          "name": "_user",
          "type": "address"
        },
        {
          "indexed": false,
          "internalType": "uint256",
          "name": "_compounded",
          "type": "uint256"
        },
        {
          "indexed": false,
          "internalType": "uint256",
          "name": "tokensMinted",
          "type": "uint256"
        },
        {
          "indexed": false,
          "internalType": "uint256",
          "name": "timestamp",
          "type": "uint256"
        }
      ],
      "name": "onCompound",
      "type": "event"
    },
    {
      "anonymous": false,
      "inputs": [
        {
          "indexed": true,
          "internalType": "address",
          "name": "_user",
          "type": "address"
        },
        {
          "indexed": false,
          "internalType": "uint256",
          "name": "_deposited",
          "type": "uint256"
        },
        {
          "indexed": false,
          "internalType": "uint256",
          "name": "tokensMinted",
          "type": "uint256"
        },
        {
          "indexed": false,
          "internalType": "uint256",
          "name": "timestamp",
          "type": "uint256"
        }
      ],
      "name": "onDeposit",
      "type": "event"
    },
    {
      "anonymous": false,
      "inputs": [
        {
          "indexed": true,
          "internalType": "address",
          "name": "from",
          "type": "address"
        },
        {
          "indexed": false,
          "internalType": "uint256",
          "name": "_contributed",
          "type": "uint256"
        },
        {
          "indexed": false,
          "internalType": "uint256",
          "name": "timestamp",
          "type": "uint256"
        }
      ],
      "name": "onDonate",
      "type": "event"
    },
    {
      "anonymous": false,
      "inputs": [
        {
          "indexed": true,
          "internalType": "address",
          "name": "from",
          "type": "address"
        },
        {
          "indexed": false,
          "internalType": "uint256",
          "name": "amount",
          "type": "uint256"
        },
        {
          "indexed": false,
          "internalType": "uint256",
          "name": "timestamp",
          "type": "uint256"
        }
      ],
      "name": "onDonateBNB",
      "type": "event"
    },
    {
      "anonymous": false,
      "inputs": [
        {
          "indexed": false,
          "internalType": "uint256",
          "name": "balance",
          "type": "uint256"
        },
        {
          "indexed": false,
          "internalType": "uint256",
          "name": "timestamp",
          "type": "uint256"
        }
      ],
      "name": "onRebase",
      "type": "event"
    },
    {
      "anonymous": false,
      "inputs": [
        {
          "indexed": false,
          "internalType": "uint256",
          "name": "_pool",
          "type": "uint256"
        },
        {
          "indexed": false,
          "internalType": "uint256",
          "name": "_divs",
          "type": "uint256"
        },
        {
          "indexed": false,
          "internalType": "uint256",
          "name": "timestamp",
          "type": "uint256"
        }
      ],
      "name": "onSetFeeSplit",
      "type": "event"
    },
    {
      "anonymous": false,
      "inputs": [
        {
          "indexed": true,
          "internalType": "address",
          "name": "_caller",
          "type": "address"
        },
        {
          "indexed": false,
          "internalType": "contract IERC721[]",
          "name": "oldOne",
          "type": "address[]"
        },
        {
          "indexed": false,
          "internalType": "contract IERC721[]",
          "name": "newOne",
          "type": "address[]"
        },
        {
          "indexed": false,
          "internalType": "uint256",
          "name": "timestamp",
          "type": "uint256"
        }
      ],
      "name": "onSetImmunityToken",
      "type": "event"
    },
    {
      "anonymous": false,
      "inputs": [
        {
          "indexed": true,
          "internalType": "address",
          "name": "from",
          "type": "address"
        },
        {
          "indexed": true,
          "internalType": "address",
          "name": "to",
          "type": "address"
        },
        {
          "indexed": false,
          "internalType": "uint256",
          "name": "tokens",
          "type": "uint256"
        },
        {
          "indexed": false,
          "internalType": "uint256",
          "name": "timestamp",
          "type": "uint256"
        }
      ],
      "name": "onTransfer",
      "type": "event"
    },
    {
      "anonymous": false,
      "inputs": [
        {
          "indexed": true,
          "internalType": "address",
          "name": "_user",
          "type": "address"
        },
        {
          "indexed": false,
          "internalType": "uint256",
          "name": "invested",
          "type": "uint256"
        },
        {
          "indexed": false,
          "internalType": "uint256",
          "name": "tokens",
          "type": "uint256"
        },
        {
          "indexed": false,
          "internalType": "uint256",
          "name": "soldTokens",
          "type": "uint256"
        },
        {
          "indexed": false,
          "internalType": "uint256",
          "name": "timestamp",
          "type": "uint256"
        }
      ],
      "name": "onUpdate",
      "type": "event"
    },
    {
      "anonymous": false,
      "inputs": [
        {
          "indexed": true,
          "internalType": "address",
          "name": "_user",
          "type": "address"
        },
        {
          "indexed": false,
          "internalType": "uint256",
          "name": "_liquidated",
          "type": "uint256"
        },
        {
          "indexed": false,
          "internalType": "uint256",
          "name": "tokensEarned",
          "type": "uint256"
        },
        {
          "indexed": false,
          "internalType": "uint256",
          "name": "timestamp",
          "type": "uint256"
        }
      ],
      "name": "onWithdraw",
      "type": "event"
    },
    {
      "anonymous": false,
      "inputs": [
        {
          "indexed": true,
          "internalType": "address",
          "name": "_user",
          "type": "address"
        },
        {
          "indexed": false,
          "internalType": "uint256",
          "name": "_withdrawn",
          "type": "uint256"
        },
        {
          "indexed": false,
          "internalType": "uint256",
          "name": "timestamp",
          "type": "uint256"
        }
      ],
      "name": "onWithdraw",
      "type": "event"
    },
    {
      "inputs": [
        {
          "internalType": "address",
          "name": "_user",
          "type": "address"
        }
      ],
      "name": "accountOf",
      "outputs": [
        {
          "internalType": "uint256[14]",
          "name": "",
          "type": "uint256[14]"
        }
      ],
      "stateMutability": "view",
      "type": "function"
    },
    {
      "inputs": [
        {
          "internalType": "address",
          "name": "_user",
          "type": "address"
        }
      ],
      "name": "balanceOf",
      "outputs": [
        {
          "internalType": "uint256",
          "name": "",
          "type": "uint256"
        }
      ],
      "stateMutability": "view",
      "type": "function"
    },
    {
      "inputs": [],
      "name": "bnbReceiver",
      "outputs": [
        {
          "internalType": "address payable",
          "name": "",
          "type": "address"
        }
      ],
      "stateMutability": "view",
      "type": "function"
    },
    {
      "inputs": [],
      "name": "buyPrice",
      "outputs": [
        {
          "internalType": "uint256",
          "name": "",
          "type": "uint256"
        }
      ],
      "stateMutability": "pure",
      "type": "function"
    },
    {
      "inputs": [
        {
          "internalType": "uint256",
          "name": "_amount",
          "type": "uint256"
        }
      ],
      "name": "calculateSharesReceived",
      "outputs": [
        {
          "internalType": "uint256",
          "name": "",
          "type": "uint256"
        }
      ],
      "stateMutability": "pure",
      "type": "function"
    },
    {
      "inputs": [
        {
          "internalType": "uint256",
          "name": "_amount",
          "type": "uint256"
        }
      ],
      "name": "calculateTokensReceived",
      "outputs": [
        {
          "internalType": "uint256",
          "name": "",
          "type": "uint256"
        }
      ],
      "stateMutability": "view",
      "type": "function"
    },
    {
      "inputs": [
        {
          "internalType": "address",
          "name": "_user",
          "type": "address"
        }
      ],
      "name": "checkImmunity",
      "outputs": [
        {
          "internalType": "bool",
          "name": "isImmune",
          "type": "bool"
        }
      ],
      "stateMutability": "view",
      "type": "function"
    },
    {
      "inputs": [],
      "name": "compound",
      "outputs": [],
      "stateMutability": "nonpayable",
      "type": "function"
    },
    {
      "inputs": [
        {
          "internalType": "address",
          "name": "_user",
          "type": "address"
        }
      ],
      "name": "dailyEstimate",
      "outputs": [
        {
          "internalType": "uint256",
          "name": "",
          "type": "uint256"
        }
      ],
      "stateMutability": "view",
      "type": "function"
    },
    {
      "inputs": [
        {
          "internalType": "uint256",
          "name": "_amount",
          "type": "uint256"
        }
      ],
      "name": "deposit",
      "outputs": [
        {
          "internalType": "uint256",
          "name": "",
          "type": "uint256"
        }
      ],
      "stateMutability": "nonpayable",
      "type": "function"
    },
    {
      "inputs": [
        {
          "internalType": "address",
          "name": "_user",
          "type": "address"
        },
        {
          "internalType": "uint256",
          "name": "_amount",
          "type": "uint256"
        }
      ],
      "name": "depositTo",
      "outputs": [
        {
          "internalType": "uint256",
          "name": "",
          "type": "uint256"
        }
      ],
      "stateMutability": "nonpayable",
      "type": "function"
    },
    {
      "inputs": [
        {
          "internalType": "address",
          "name": "_user",
          "type": "address"
        }
      ],
      "name": "dividendsOf",
      "outputs": [
        {
          "internalType": "uint256",
          "name": "",
          "type": "uint256"
        }
      ],
      "stateMutability": "view",
      "type": "function"
    },
    {
      "inputs": [
        {
          "internalType": "uint256",
          "name": "_amount",
          "type": "uint256"
        }
      ],
      "name": "donate",
      "outputs": [
        {
          "internalType": "uint256",
          "name": "",
          "type": "uint256"
        }
      ],
      "stateMutability": "nonpayable",
      "type": "function"
    },
    {
      "inputs": [],
      "name": "dripPoolBalance",
      "outputs": [
        {
          "internalType": "uint256",
          "name": "",
          "type": "uint256"
        }
      ],
      "stateMutability": "view",
      "type": "function"
    },
    {
      "inputs": [],
      "name": "dripRate",
      "outputs": [
        {
          "internalType": "uint8",
          "name": "",
          "type": "uint8"
        }
      ],
      "stateMutability": "view",
      "type": "function"
    },
    {
      "inputs": [],
      "name": "forDivs",
      "outputs": [
        {
          "internalType": "uint256",
          "name": "",
          "type": "uint256"
        }
      ],
      "stateMutability": "view",
      "type": "function"
    },
    {
      "inputs": [],
      "name": "forPool",
      "outputs": [
        {
          "internalType": "uint256",
          "name": "",
          "type": "uint256"
        }
      ],
      "stateMutability": "view",
      "type": "function"
    },
    {
      "inputs": [],
      "name": "harvest",
      "outputs": [],
      "stateMutability": "nonpayable",
      "type": "function"
    },
    {
      "inputs": [
        {
          "internalType": "uint256",
          "name": "",
          "type": "uint256"
        }
      ],
      "name": "jpeg",
      "outputs": [
        {
          "internalType": "contract IERC721",
          "name": "",
          "type": "address"
        }
      ],
      "stateMutability": "view",
      "type": "function"
    },
    {
      "inputs": [],
      "name": "lastPayout",
      "outputs": [
        {
          "internalType": "uint256",
          "name": "",
          "type": "uint256"
        }
      ],
      "stateMutability": "view",
      "type": "function"
    },
    {
      "inputs": [],
      "name": "lastRebaseTime",
      "outputs": [
        {
          "internalType": "uint256",
          "name": "",
          "type": "uint256"
        }
      ],
      "stateMutability": "view",
      "type": "function"
    },
    {
      "inputs": [],
      "name": "myEarnings",
      "outputs": [
        {
          "internalType": "uint256",
          "name": "",
          "type": "uint256"
        }
      ],
      "stateMutability": "view",
      "type": "function"
    },
    {
      "inputs": [],
      "name": "myTokens",
      "outputs": [
        {
          "internalType": "uint256",
          "name": "",
          "type": "uint256"
        }
      ],
      "stateMutability": "view",
      "type": "function"
    },
    {
      "inputs": [],
      "name": "owner",
      "outputs": [
        {
          "internalType": "address",
          "name": "",
          "type": "address"
        }
      ],
      "stateMutability": "view",
      "type": "function"
    },
    {
      "inputs": [],
      "name": "payoutFrequency",
      "outputs": [
        {
          "internalType": "uint256",
          "name": "",
          "type": "uint256"
        }
      ],
      "stateMutability": "view",
      "type": "function"
    },
    {
      "inputs": [],
      "name": "rebaseFrequency",
      "outputs": [
        {
          "internalType": "uint256",
          "name": "",
          "type": "uint256"
        }
      ],
      "stateMutability": "view",
      "type": "function"
    },
    {
      "inputs": [],
      "name": "renounceOwnership",
      "outputs": [],
      "stateMutability": "nonpayable",
      "type": "function"
    },
    {
      "inputs": [],
      "name": "requiredBalance",
      "outputs": [
        {
          "internalType": "uint256",
          "name": "",
          "type": "uint256"
        }
      ],
      "stateMutability": "view",
      "type": "function"
    },
    {
      "inputs": [],
      "name": "rewardToken",
      "outputs": [
        {
          "internalType": "contract IERC20",
          "name": "",
          "type": "address"
        }
      ],
      "stateMutability": "view",
      "type": "function"
    },
    {
      "inputs": [],
      "name": "sellPrice",
      "outputs": [
        {
          "internalType": "uint256",
          "name": "",
          "type": "uint256"
        }
      ],
      "stateMutability": "pure",
      "type": "function"
    },
    {
      "inputs": [
        {
          "internalType": "uint256",
          "name": "_pool",
          "type": "uint256"
        },
        {
          "internalType": "uint256",
          "name": "_divs",
          "type": "uint256"
        }
      ],
      "name": "setFeeSplit",
      "outputs": [
        {
          "internalType": "bool",
          "name": "_success",
          "type": "bool"
        }
      ],
      "stateMutability": "nonpayable",
      "type": "function"
    },
    {
      "inputs": [
        {
          "internalType": "contract IERC721[]",
          "name": "_contract",
          "type": "address[]"
        }
      ],
      "name": "setImmunityToken",
      "outputs": [
        {
          "internalType": "bool",
          "name": "_success",
          "type": "bool"
        }
      ],
      "stateMutability": "nonpayable",
      "type": "function"
    },
    {
      "inputs": [],
      "name": "stakingToken",
      "outputs": [
        {
          "internalType": "contract IERC20",
          "name": "",
          "type": "address"
        }
      ],
      "stateMutability": "view",
      "type": "function"
    },
    {
      "inputs": [],
      "name": "tokenAddress",
      "outputs": [
        {
          "internalType": "address",
          "name": "",
          "type": "address"
        }
      ],
      "stateMutability": "view",
      "type": "function"
    },
    {
      "inputs": [
        {
          "internalType": "address",
          "name": "_user",
          "type": "address"
        }
      ],
      "name": "tokenBalance",
      "outputs": [
        {
          "internalType": "uint256",
          "name": "",
          "type": "uint256"
        }
      ],
      "stateMutability": "view",
      "type": "function"
    },
    {
      "inputs": [],
      "name": "totalBalance",
      "outputs": [
        {
          "internalType": "uint256",
          "name": "",
          "type": "uint256"
        }
      ],
      "stateMutability": "view",
      "type": "function"
    },
    {
      "inputs": [],
      "name": "totalClaims",
      "outputs": [
        {
          "internalType": "uint256",
          "name": "",
          "type": "uint256"
        }
      ],
      "stateMutability": "view",
      "type": "function"
    },
    {
      "inputs": [],
      "name": "totalDeposits",
      "outputs": [
        {
          "internalType": "uint256",
          "name": "",
          "type": "uint256"
        }
      ],
      "stateMutability": "view",
      "type": "function"
    },
    {
      "inputs": [],
      "name": "totalSupply",
      "outputs": [
        {
          "internalType": "uint256",
          "name": "",
          "type": "uint256"
        }
      ],
      "stateMutability": "view",
      "type": "function"
    },
    {
      "inputs": [],
      "name": "totalTxs",
      "outputs": [
        {
          "internalType": "uint256",
          "name": "",
          "type": "uint256"
        }
      ],
      "stateMutability": "view",
      "type": "function"
    },
    {
      "inputs": [
        {
          "internalType": "address",
          "name": "_to",
          "type": "address"
        },
        {
          "internalType": "uint256",
          "name": "_amount",
          "type": "uint256"
        }
      ],
      "name": "transfer",
      "outputs": [
        {
          "internalType": "bool",
          "name": "",
          "type": "bool"
        }
      ],
      "stateMutability": "nonpayable",
      "type": "function"
    },
    {
      "inputs": [
        {
          "internalType": "address",
          "name": "newOwner",
          "type": "address"
        }
      ],
      "name": "transferOwnership",
      "outputs": [],
      "stateMutability": "nonpayable",
      "type": "function"
    },
    {
      "inputs": [],
      "name": "users",
      "outputs": [
        {
          "internalType": "uint256",
          "name": "",
          "type": "uint256"
        }
      ],
      "stateMutability": "view",
      "type": "function"
    },
    {
      "inputs": [
        {
          "internalType": "uint256",
          "name": "_amount",
          "type": "uint256"
        }
      ],
      "name": "withdraw",
      "outputs": [],
      "stateMutability": "nonpayable",
      "type": "function"
    },
    {
      "stateMutability": "payable",
      "type": "receive"
    }
  ],
  "bytecode": {
    "object": "0x60806040523480156200001157600080fd5b506040516200261338038062002613833981810160405260608110156200003757600080fd5b50805160208201516040909201519091906000620000546200018a565b600080546001600160a01b0319166001600160a01b0383169081178255604051929350917f8be0079c531659141344cd1fd0a4f28419497f9722a3daafe3b4186f6b6457e0908290a350600180556001600160a01b03831615801590620000cc5750620000cc836200018e60201b62001a231760201c565b62000110576040805162461bcd60e51b815260206004820152600f60248201526e494e56414c49445f4144445245535360881b604482015290519081900360640190fd5b600d8054600480546001600160a01b039687166001600160a01b031991821681179092556002805482169092178255600580549091163317905560ff90931660ff199590941661010002610100600160a81b031990911617939093169190911790915542600955600e556001600f81905560035562000194565b3390565b3b151590565b61246f80620001a46000396000f3fe60806040526004361061026a5760003560e01c8063949e8acd11610144578063e02e1e9c116100b6578063f69e20461161007a578063f69e2046146107e7578063f6db0da0146107fc578063f7c618c1146108ac578063fbaf1bbd146108c1578063ffaad6a5146108f4578063ffe6bbd81461092d576102c0565b8063e02e1e9c14610718578063eedc966a14610742578063f14faf6f14610775578063f20202751461079f578063f2fde38b146107b4576102c0565b8063aecb6d2811610108578063aecb6d281461065a578063b03cf5a71461066f578063b6b55f2514610699578063b9db102a146106c3578063d3261592146106d8578063d7c3771d14610703576102c0565b8063949e8acd146105cd5780639d76ea58146105e2578063a01496de146105f7578063a9059cbb1461060c578063ad7a672f14610645576102c0565b8063537a39bb116101dd5780637e6335c7116101a15780637e6335c7146104dd5780638086b8ba1461050d57806381fce645146105795780638620410b1461058e57806389375abf146105a35780638da5cb5b146105b8576102c0565b8063537a39bb1461043a57806370a082311461044f578063715018a61461048257806372f702f3146104975780637d882097146104c8576102c0565b80631f38b9cd1161022f5780631f38b9cd146103735780632e1a7d4d1461038857806336599ead146103b457806341c61383146103fb5780634641257d146104105780634b75033414610425576102c0565b806265318b146102c557806308560ace1461030a57806310d0ffdd1461031f57806318160ddd146103495780631924063e1461035e576102c0565b366102c057600554610285906001600160a01b031634610942565b60408051348152426020820152815133927f3c2bd1b3f5ca07afb09fbee41ac43da2b98d9c2e9832673052e546bd1d4c091d928290030190a2005b600080fd5b3480156102d157600080fd5b506102f8600480360360208110156102e857600080fd5b50356001600160a01b0316610a2c565b60408051918252519081900360200190f35b34801561031657600080fd5b506102f8610a65565b34801561032b57600080fd5b506102f86004803603602081101561034257600080fd5b5035610a6b565b34801561035557600080fd5b506102f8610aab565b34801561036a57600080fd5b506102f8610ab1565b34801561037f57600080fd5b506102f8610ab7565b34801561039457600080fd5b506103b2600480360360208110156103ab57600080fd5b5035610abd565b005b3480156103c057600080fd5b506103e7600480360360208110156103d757600080fd5b50356001600160a01b0316610c5b565b604080519115158252519081900360200190f35b34801561040757600080fd5b506102f8610d26565b34801561041c57600080fd5b506103b2610d2c565b34801561043157600080fd5b506102f8610e9d565b34801561044657600080fd5b506102f8610ecd565b34801561045b57600080fd5b506102f86004803603602081101561047257600080fd5b50356001600160a01b0316610ed3565b34801561048e57600080fd5b506103b2610eee565b3480156104a357600080fd5b506104ac610f9a565b604080516001600160a01b039092168252519081900360200190f35b3480156104d457600080fd5b506102f8610fa9565b3480156104e957600080fd5b506103e76004803603604081101561050057600080fd5b5080359060200135610faf565b34801561051957600080fd5b506105406004803603602081101561053057600080fd5b50356001600160a01b03166110c4565b60405180826101c080838360005b8381101561056657818101518382015260200161054e565b5050505090500191505060405180910390f35b34801561058557600080fd5b506102f8611247565b34801561059a57600080fd5b506102f861124c565b3480156105af57600080fd5b506102f8611274565b3480156105c457600080fd5b506104ac61127a565b3480156105d957600080fd5b506102f8611289565b3480156105ee57600080fd5b506104ac611299565b34801561060357600080fd5b506102f86112a8565b34801561061857600080fd5b506103e76004803603604081101561062f57600080fd5b506001600160a01b0381351690602001356112ae565b34801561065157600080fd5b506102f86112d4565b34801561066657600080fd5b506102f8611350565b34801561067b57600080fd5b506104ac6004803603602081101561069257600080fd5b5035611356565b3480156106a557600080fd5b506102f8600480360360208110156106bc57600080fd5b5035611380565b3480156106cf57600080fd5b506102f861138c565b3480156106e457600080fd5b506106ed611392565b6040805160ff9092168252519081900360200190f35b34801561070f57600080fd5b506104ac61139b565b34801561072457600080fd5b506102f86004803603602081101561073b57600080fd5b50356113aa565b34801561074e57600080fd5b506102f86004803603602081101561076557600080fd5b50356001600160a01b03166113d1565b34801561078157600080fd5b506102f86004803603602081101561079857600080fd5b50356113de565b3480156107ab57600080fd5b506102f86114e2565b3480156107c057600080fd5b506103b2600480360360208110156107d757600080fd5b50356001600160a01b03166114e8565b3480156107f357600080fd5b506103b26115ea565b34801561080857600080fd5b506103e76004803603602081101561081f57600080fd5b81019060208101813564010000000081111561083a57600080fd5b82018360208201111561084c57600080fd5b8035906020019184602083028401116401000000008311171561086e57600080fd5b919080806020026020016040519081016040528093929190818152602001838360200280828437600092019190915250929550611609945050505050565b3480156108b857600080fd5b506104ac611896565b3480156108cd57600080fd5b506102f8600480360360208110156108e457600080fd5b50356001600160a01b03166118aa565b34801561090057600080fd5b506102f86004803603604081101561091757600080fd5b506001600160a01b03813516906020013561190d565b34801561093957600080fd5b506102f8611a18565b80471015610997576040805162461bcd60e51b815260206004820152601d60248201527f416464726573733a20696e73756666696369656e742062616c616e6365000000604482015290519081900360640190fd5b6040516000906001600160a01b0384169083908381818185875af1925050503d80600081146109e2576040519150601f19603f3d011682016040523d82523d6000602084013e6109e7565b606091505b5050905080610a275760405162461bcd60e51b815260040180806020018281038252603a8152602001806123bf603a913960400191505060405180910390fd5b505050565b6001600160a01b0381166000908152601360209081526040808320546014909252822054601254600160401b929102030490505b919050565b60035481565b6000601154821115610a7c57600080fd5b816000610a94610a8d836003611a29565b6064611a82565b90506000610aa28383611ae9565b95945050505050565b60115490565b60105481565b600f5481565b6000610ac7611289565b11610ad157600080fd5b33600081815260146020526040902054821115610aed57600080fd5b60006064610afc846003611a29565b81610b0357fe5b0490506000610b1133610c5b565b90508015610b1e57600091505b6000610b2a8584611ae9565b9050610b3860115486611ae9565b6011556001600160a01b038416600090815260146020526040902054610b5e9086611ae9565b6001600160a01b03851660009081526014602090815260408083209390935560125460139091529190208054918702600160401b840201918290039055610ba484611b46565b6040805187815260208101849052428183015290516001600160a01b038716917f90ebb005d68efee044927e1e77e1fd0cecc508368aa72c39250a787eed5f0a70919081900360600190a26001600160a01b0385166000818152601560208181526040808420805460148452948290205493835260020154815194855291840192909252828201524260608301525160008051602061239f8339815191529181900360800190a2610c53611bd4565b505050505050565b60008080805b600654811015610d075760068181548110610c7857fe5b60009182526020918290200154604080516370a0823160e01b81526001600160a01b038981166004830152915191909216945084926370a082319260248082019391829003018186803b158015610cce57600080fd5b505afa158015610ce2573d6000803e3d6000fd5b505050506040513d6020811015610cf857600080fd5b50519290920191600101610c61565b506003548210610d1c57600192505050610a60565b5060009392505050565b600a5481565b6000610d36611a18565b11610d4057600080fd5b336000610d4b611a18565b6001600160a01b0380841660008181526013602090815260408083208054600160401b8802019055600254815163a9059cbb60e01b815260048101959095526024850187905290519596509093169363a9059cbb936044808501949193918390030190829087803b158015610dbf57600080fd5b505af1158015610dd3573d6000803e3d6000fd5b505050506040513d6020811015610de957600080fd5b50506001600160a01b038216600090815260156020526040902060020154610e119082611ccb565b6001600160a01b0383166000818152601560209081526040918290206002810194909455600c90930180546001908101909155600880549091019055600a80548501905580518481524293810193909352805191927f1b091269e929df55d64d6ea7e9cadbe4fb38dce5ccdc995767bc515030dbfbbf929081900390910190a2610e99611bd4565b5050565b6000670de0b6b3a764000081610eb7610a8d836003611a29565b90506000610ec58383611ae9565b935050505090565b60085481565b6001600160a01b031660009081526014602052604090205490565b610ef6611d25565b6001600160a01b0316610f0761127a565b6001600160a01b031614610f50576040805162461bcd60e51b8152602060048201819052602482015260008051602061241a833981519152604482015290519081900360640190fd5b600080546040516001600160a01b03909116907f8be0079c531659141344cd1fd0a4f28419497f9722a3daafe3b4186f6b6457e0908390a3600080546001600160a01b0319169055565b6002546001600160a01b031681565b600b5481565b6000610fb9611d25565b6001600160a01b0316610fca61127a565b6001600160a01b031614611013576040805162461bcd60e51b8152602060048201819052602482015260008051602061241a833981519152604482015290519081900360640190fd5b61101d8383611ccb565b600314611071576040805162461bcd60e51b815260206004820152601d60248201527f54454e5f504f5254494f4e535f524551554952455f4449564953494f4e000000604482015290519081900360640190fd5b600e839055600f8290556040805184815260208101849052428183015290517f677017fa3a0fe0f50a95e6024c5b688f2b14a4696c4a897c459715cabfc1c03a9181900360600190a15060015b92915050565b6110cc612269565b6110d4612288565b506001600160a01b03821660009081526015602090815260409182902082516101e081018452815481526001820154928101929092526002810154928201929092526003820154606082015260048201546080820152600582015460a0820152600682015460c0820152600782015460e082015260088201546101008201526009820154610120820152600a820154610140820152600b820154610160820152600c820154610180820152600d8201546101a0820152600e909101546101c082015261119e612269565b604051806101c00160405280836000015181526020018360400151815260200183608001518152602001836060015181526020018360a0015181526020018360c0015181526020018360e0015181526020018361010001518152602001836101400151815260200183610160015181526020018361018001518152602001836101a001518152602001836101c00151815260200183610120015181525090508092505050919050565b600281565b6000670de0b6b3a764000081611266610a8d836003611a29565b90506000610ec58383611ccb565b61546081565b6000546001600160a01b031690565b600061129433610ed3565b905090565b6004546001600160a01b031681565b600e5481565b6000806112b9611289565b116112c357600080fd5b6112cd8383611d29565b9392505050565b600254604080516370a0823160e01b815230600482015290516000926001600160a01b0316916370a08231916024808301926020929190829003018186803b15801561131f57600080fd5b505afa158015611333573d6000803e3d6000fd5b505050506040513d602081101561134957600080fd5b5051905090565b600c5481565b6006818154811061136657600080fd5b6000918252602090912001546001600160a01b0316905081565b60006110be338361190d565b60095481565b600d5460ff1681565b6005546001600160a01b031681565b6000806113bb610a8d846003611a29565b905060006113c98483611ae9565b949350505050565b6001600160a01b03163190565b600d54604080516323b872dd60e01b815233600482015230602482015260448101849052905160009261010090046001600160a01b0316916323b872dd91606480830192602092919082900301818787803b15801561143c57600080fd5b505af1158015611450573d6000803e3d6000fd5b505050506040513d602081101561146657600080fd5b505161147157600080fd5b600c80548301905533600081815260156020908152604091829020600b8101805460010190556005018054860190558151858152429181019190915281517f0da1788c3e861a58a47f0d46073b13c4d66efcc259714744f920d1afe7b8dee5929181900390910190a25050600c5490565b60075481565b6114f0611d25565b6001600160a01b031661150161127a565b6001600160a01b03161461154a576040805162461bcd60e51b8152602060048201819052602482015260008051602061241a833981519152604482015290519081900360640190fd5b6001600160a01b03811661158f5760405162461bcd60e51b81526004018080602001828103825260268152602001806123796026913960400191505060405180910390fd5b600080546040516001600160a01b03808516939216917f8be0079c531659141344cd1fd0a4f28419497f9722a3daafe3b4186f6b6457e091a3600080546001600160a01b0319166001600160a01b0392909216919091179055565b60006115f4611a18565b116115fe57600080fd5b611606611f94565b50565b6000611613611d25565b6001600160a01b031661162461127a565b6001600160a01b03161461166d576040805162461bcd60e51b8152602060048201819052602482015260008051602061241a833981519152604482015290519081900360640190fd5b60005b60065481101561174a5782818151811061168657fe5b60200260200101516001600160a01b03166301ffc9a76380ac58cd6040518263ffffffff1660e01b8152600401808260e01b815260200191505060206040518083038186803b1580156116d857600080fd5b505afa1580156116ec573d6000803e3d6000fd5b505050506040513d602081101561170257600080fd5b5051611742576040805162461bcd60e51b815260206004820152600a6024820152694e4f545f45524337323160b01b604482015290519081900360640190fd5b600101611670565b50606060068054806020026020016040519081016040528092919081815260200182805480156117a357602002820191906000526020600020905b81546001600160a01b03168152600190910190602001808311611785575b505086519394506117bf936006935060208801925090506122fe565b50336001600160a01b03167ff0650831416f723858005cfeae97a2d6f5e127d1e6ae8938574d1d73e7f4727c828542604051808060200180602001848152602001838103835286818151815260200191508051906020019060200280838360005b83811015611838578181015183820152602001611820565b50505050905001838103825285818151815260200191508051906020019060200280838360005b8381101561187757818101518382015260200161185f565b505050509050019550505050505060405180910390a250600192915050565b600d5461010090046001600160a01b031681565b600d54600c5460009182916118ce916064916118c89160ff16611a29565b90611a82565b90506000601154116118e15760006112cd565b6011546001600160a01b0384166000908152601460205260409020546112cd91906118c8908490611a29565b600254604080516323b872dd60e01b81523360048201523060248201526044810184905290516000926001600160a01b0316916323b872dd91606480830192602092919082900301818787803b15801561196657600080fd5b505af115801561197a573d6000803e3d6000fd5b505050506040513d602081101561199057600080fd5b505161199b57600080fd5b600b80548301905560006119af84846120c9565b6001600160a01b03851660008181526015602081815260408084208054601484529482902054938352600201548151948552918401929092528282015242606083015251929350909160008051602061239f8339815191529181900360800190a26112cd611bd4565b600061129433610a2c565b3b151590565b600082611a38575060006110be565b82820282848281611a4557fe5b04146112cd5760405162461bcd60e51b81526004018080602001828103825260218152602001806123f96021913960400191505060405180910390fd5b6000808211611ad8576040805162461bcd60e51b815260206004820152601a60248201527f536166654d6174683a206469766973696f6e206279207a65726f000000000000604482015290519081900360640190fd5b818381611ae157fe5b049392505050565b600082821115611b40576040805162461bcd60e51b815260206004820152601e60248201527f536166654d6174683a207375627472616374696f6e206f766572666c6f770000604482015290519081900360640190fd5b50900390565b6000611b5382600a611a82565b90506000611b6c600e5483611a2990919063ffffffff16565b90506000611b85600f5484611a2990919063ffffffff16565b600c54909150611b959083611ccb565b600c5560115415611bc557611bbd601254601154600160401b840281611bb757fe5b04611ccb565b601255611bce565b600c8054820190555b50505050565b601054429061546090611be890839061224e565b1115611c34577f2cfce469a63f2e9972b7f23da751e6943ed2b091c10e40b5c43b5f6105bf20ea611c176112d4565b60408051918252602082018490528051918290030190a160108190555b6002611c428260095461224e565b118015611c5157506000601154115b1561160657600d54600c54600091611c7a9162015180916118c89160649183919060ff16611a29565b90506000611c936009548461224e90919063ffffffff16565b600c549083029150611ca5908261224e565b600c55601254601154611cc19190600160401b840281611bb757fe5b6012555050600955565b6000828201838110156112cd576040805162461bcd60e51b815260206004820152601b60248201527f536166654d6174683a206164646974696f6e206f766572666c6f770000000000604482015290519081900360640190fd5b3390565b33600081815260146020526040812054909190831115611d4857600080fd5b6000611d52611a18565b1115611d6057611d60610d2c565b6001600160a01b038116600090815260146020526040902054611d839084611ae9565b6001600160a01b038083166000908152601460205260408082209390935590861681522054611db29084611ccb565b6001600160a01b03858116600081815260146020908152604080832095909555601280549487168352601382528583208054958a029095039094559254918152838120805492880290920190915560159091522054158015611e2d57506001600160a01b038416600090815260156020526040902060070154155b15611e3c576007805460010190555b6001600160a01b038082166000818152601560209081526040808320600d810180546001908101909155600690910180548a019055948916808452928190206007810180548a019055600e018054860190556008805490950190945583518781524291810191909152835191937f91c7d71a3ae3fb7cf61e00517bf4868e9e23d0bace5e304cbc3b68de5d85350e92918290030190a36001600160a01b0381166000818152601560208181526040808420805460148452948290205493835260020154815194855291840192909252828201524260608301525160008051602061239f8339815191529181900360800190a26001600160a01b0384166000818152601560208181526040808420805460148452948290205493835260020154815194855291840192909252828201524260608301525160008051602061239f8339815191529181900360800190a25060019392505050565b60003381611fa182610a2c565b6001600160a01b03831660009081526013602052604081208054600160401b8402019055909150611fd233836120c9565b6040805184815260208101839052428183015290519192506001600160a01b038516917f193a876ac91d11a4a0a71ebef73b195ba55aa7c16d6755c93c21d973e692a02c9181900360600190a26001600160a01b0383166000908152601560205260409020600301546120459083611ccb565b6001600160a01b0384166000818152601560208181526040808420600381019690965560098601805460010190558554601483529381902054928252600290950154855193845290830191909152818401524260608201529151909160008051602061239f833981519152919081900360800190a26120c2611bd4565b9250505090565b6001600160a01b03821660009081526015602052604081205415801561210857506001600160a01b038316600090815260156020526040902060070154155b15612117576007805460010190555b6008805460010190556000606461212f846003611a29565b8161213657fe5b04905060006121458483611ae9565b6040805186815260208101839052428183015290519192506001600160a01b038716917fb49bb132260f6aa1c86e2d2a3957c097216e6ec9b5fa15867289f058b4d297ac9181900360600190a26000811180156121ac57506011546121aa8282611ccb565b115b6121b557600080fd5b601154156121ca5760118054820190556121d0565b60118190555b6121d982611b46565b6001600160a01b0385166000908152601460205260409020546121fc9082611ccb565b6001600160a01b03861660009081526014602090815260408083209390935560125460138252838320805491860291909101905560159052208054850181556008018054600101905591505092915050565b600082821115612260575060006110be565b508082036110be565b604051806101c00160405280600e906020820280368337509192915050565b604051806101e001604052806000815260200160008152602001600081526020016000815260200160008152602001600081526020016000815260200160008152602001600081526020016000815260200160008152602001600081526020016000815260200160008152602001600081525090565b828054828255906000526020600020908101928215612353579160200282015b8281111561235357825182546001600160a01b0319166001600160a01b0390911617825560209092019160019091019061231e565b5061235f929150612363565b5090565b5b8082111561235f576000815560010161236456fe4f776e61626c653a206e6577206f776e657220697320746865207a65726f206164647265737329f64f6f46c82c5ecfa955fe7d093e63b4106b6dbe5193e00efd62c7384ef177416464726573733a20756e61626c6520746f2073656e642076616c75652c20726563697069656e74206d61792068617665207265766572746564536166654d6174683a206d756c7469706c69636174696f6e206f766572666c6f774f776e61626c653a2063616c6c6572206973206e6f7420746865206f776e6572a2646970667358221220d628979291245c29f7ddfba769edb08f1e25ffb9342467c99fa171779c196cde64736f6c63430007040033",
    "linkReferences": {}
  },
  "methodIdentifiers": {
    "accountOf(address)": "8086b8ba",
    "balanceOf(address)": "70a08231",
    "bnbReceiver()": "d7c3771d",
    "buyPrice()": "8620410b",
    "calculateSharesReceived(uint256)": "e02e1e9c",
    "calculateTokensReceived(uint256)": "10d0ffdd",
    "checkImmunity(address)": "36599ead",
    "compound()": "f69e2046",
    "dailyEstimate(address)": "fbaf1bbd",
    "deposit(uint256)": "b6b55f25",
    "depositTo(address,uint256)": "ffaad6a5",
    "dividendsOf(address)": "0065318b",
    "donate(uint256)": "f14faf6f",
    "dripPoolBalance()": "aecb6d28",
    "dripRate()": "d3261592",
    "forDivs()": "1f38b9cd",
    "forPool()": "a01496de",
    "harvest()": "4641257d",
    "jpeg(uint256)": "b03cf5a7",
    "lastPayout()": "b9db102a",
    "lastRebaseTime()": "1924063e",
    "myEarnings()": "ffe6bbd8",
    "myTokens()": "949e8acd",
    "owner()": "8da5cb5b",
    "payoutFrequency()": "81fce645",
    "rebaseFrequency()": "89375abf",
    "renounceOwnership()": "715018a6",
    "requiredBalance()": "08560ace",
    "rewardToken()": "f7c618c1",
    "sellPrice()": "4b750334",
    "setFeeSplit(uint256,uint256)": "7e6335c7",
    "setImmunityToken(address[])": "f6db0da0",
    "stakingToken()": "72f702f3",
    "tokenAddress()": "9d76ea58",
    "tokenBalance(address)": "eedc966a",
    "totalBalance()": "ad7a672f",
    "totalClaims()": "41c61383",
    "totalDeposits()": "7d882097",
    "totalSupply()": "18160ddd",
    "totalTxs()": "537a39bb",
    "transfer(address,uint256)": "a9059cbb",
    "transferOwnership(address)": "f2fde38b",
    "users()": "f2020275",
    "withdraw(uint256)": "2e1a7d4d"
  },
  "id": 2
}